:100000000C9448000C9465000C9465000C946500F9
:100010000C9465000C946C020C94AF020C94650077
:100020000C9461010C9465000C9465000C946500BF
:100030000C9465000C9465000C9465000C946500AC
:100040000C9465000C9465000C9465000C9465009C
:100050000C9465000C94CA030C9465000C94650024
:100060000C94A8010C9465000C9465000C94650038
:100070000C9465000C949A010C9465000C94650036
:100080000C9465000C9465000C94B6010C9465000A
:1000900011241FBECFEFCDBFDFE7DEBF10E6A0E02B
:1000A000B0E6E6E9FAE102C005900D92AA30B10788
:1000B000D9F72CE6AAE0B0E601C01D92AF37B2072F
:1000C000E1F70E94F0040C94490D0C940000482FB5
:1000D0006DE980E090E10C94C401E0E0F0E1828100
:1000E0008F78828308950E946D0085E080930110CF
:1000F0000895FB0184910895CF92DF92EF92FF92D1
:10010000CF93DF936B017C01D42FC52F82E00E9437
:100110006700AD2FBC2F9D013E5F11968C9111970A
:100120009C918927982789270F920C01F601E89561
:1001300011240F90129682E0C80ED11CE11CF11C14
:100140002A173B0751F780E00E9467009091021048
:10015000907781E009F480E0DF91CF91FF90EF90FC
:10016000DF90CF900895CF92DF92EF92FF926B01D4
:100170007C0188E00E94670090E080E00F920C0113
:10018000F601E89511240F900E94670090910210EB
:10019000907781E009F480E0FF90EF90DF90CF90BE
:1001A00008958091021081700895FC018081089566
:1001B0001F93CF93DF93EC01162F83E10E9467001A
:1001C000188380E0DF91CF911F910C94670080919C
:1001D0000210869581700895FC018081089508952C
:1001E00008950895CF93DF9380E094E029E0FC0127
:1001F0002083C0E4D4E01882A0E6B4E01C9240EA78
:1002000054E0FA01108221E0FC0124831C82149640
:100210001C921497FA011482FC01108A118A128A26
:10022000138A148A158A168A178A188A198A1A8ACA
:100230001B8A1C8A1D8A1E8A1F8A50961C92509700
:1002400051961C92519752961C92529753961C921B
:10025000539754961C92549755961C9255975696C0
:100260001C92569757961C92FA01108A118A128A8C
:10027000138A148A158A168A178AE0EEF5E011822D
:1002800010821582178210861186168212828FEED6
:1002900090E080930E6090930F6081EF90E08093E8
:1002A0000C6090930D6080EF90E080930A609093D3
:1002B0000B60DF91CF91089580930E6090930F6053
:1002C00008951F920F920FB60F9211242F933F9310
:1002D0004F935F936F937F938F939F93AF93BF934E
:1002E000EF93FF93199B05C0E0910E60F0910F60B2
:1002F0000995189B05C0E0910C60F0910D6009957F
:100300001B9B05C0E0910A60F0910B6009958FEF8F
:1003100083B9FF91EF91BF91AF919F918F917F91A1
:100320006F915F914F913F912F910F900FBE0F9062
:100330001F9018951F920F920FB60F9211248F9352
:100340008FEF8BB98F910F900FBE0F901F90189564
:100350001F920F920FB60F9211248F938FEF8FB9C8
:100360008F910F900FBE0F901F9018951F920F92B4
:100370000FB60F9211248F938FEF87BB8F910F9041
:100380000FBE0F901F901895FC0164BF4083089525
:10039000462F68ED0C94C40160E080E690E00E9476
:1003A000C80160E081E690E00E94C80160E085E657
:1003B00090E00E94C80160E088E790E00E94C801D8
:1003C00064E288E690E00E94C80160E089E690E07F
:1003D0000E94C80160E080E790E00E94C80160E0F0
:1003E0008CE790E00E94C80160E082E690E00E9405
:1003F000C80160E083E690E00E94C80160E084E606
:1004000090E00E94C80160E080E890E00E94C8018E
:100410008091650081FFFCCF08954AE068ED80E09F
:1004200091E00E94C40140E868ED81E091E00E9403
:10043000C40180E008950E94CC010E94F2000E9455
:1004400073000E943F020E94DB020E940D020C9486
:10045000290240E468ED80E191E00E94C401E0E1FE
:10046000F1E01282138280E00895019708F4089564
:10047000EFE6F7E13197F1F700C00000F6CF809189
:1004800041018111FCCF8FEF9FE780934C01909346
:100490004D0110924801109249018FEF9FEF809318
:1004A0004A0190934B011092470110924201109221
:1004B0004501809151018111FCCF81E0809352016F
:1004C0001092550181E18093500180E0089580935E
:1004D00010609093116008951F920F920FB60F92C3
:1004E00011242F933F934F935F936F937F938F9339
:1004F0009F93AF93BF93EF93FF938091420180FF4F
:100500000BC08091430180FF07C0E0911460F0911F
:100510001560309709F009958091420181FF0BC069
:100520008091430181FF07C0E0911260F091136058
:10053000309709F0099583E080934301FF91EF9193
:10054000BF91AF919F918F917F916F915F914F91EB
:100550003F912F910F900FBE0F901F9018951F92F3
:100560000F920FB60F9211242F933F934F935F93E7
:100570006F937F938F939F93AF93BF93EF93FF936B
:10058000E0911060F0911160309709F0099581E0D9
:1005900080935301FF91EF91BF91AF919F918F9104
:1005A0007F916F915F914F913F912F910F900FBE6F
:1005B0000F901F90189583E593E08093756C90934E
:1005C000766CE0E0F8E080EC90E08087918781E94C
:1005D000858380EC868383E0878313861486168662
:1005E000158687EC93E080937B6C90937C6C89EC10
:1005F00093E08093776C9093786C88EC93E0809391
:100600007D6C90937E6C109218601092196010921D
:100610001C6610921D6610921A6610921B6610924C
:10062000796C10927A6C8581806885830895209119
:10063000796C30917A6C81E0232B09F480E0089585
:100640008091040885FB882780F90895E0911A6657
:10065000F0911B66E65EFB49808120911A6630911D
:100660001B662F5F3F4F317020931A6630931B66D5
:10067000909105089F77909305082091796C3091AF
:100680007A6C232B51F02091796C30917A6C215047
:1006900031092093796C30937A6C909105089068B9
:1006A000909305080895E0911C66F0911D66EE0F89
:1006B000FF1FE65EFF49108211828091010882FFD0
:1006C00012C0E0911C66F0911D66EE0FFF1FE65E02
:1006D000FF49808182608083E0917B6CF0917C6C2B
:1006E000309709F009958091010881FF0CC0809135
:1006F0001860816080931860E0917D6CF0917E6C51
:10070000309709F009958091010886FF12C0E091A9
:100710001C66F0911D66EE0FFF1FE65EFF498081AB
:1007200084608083E091776CF091786C309709F069
:1007300009952091000880911C6690911D66019694
:10074000917040911A6650911B6648175907A1F0A5
:10075000E0911C66F0911D66E65EFB492083809364
:100760001C6690931D668091796C90917A6C0196CD
:100770008093796C90937A6CE0911660F091176099
:10078000309709F009940895809302080895089518
:10079000089508951F920F920FB60F9211242F9370
:1007A0003F934F935F936F937F938F939F93AF93F9
:1007B000BF93EF93FF930E945303FF91EF91BF917B
:1007C000AF919F918F917F916F915F914F913F91E9
:1007D0002F910F900FBE0F901F9018950E94E70069
:1007E0008111FCCF40E36DE980E090E10E94C401FB
:1007F0000E94E7008111FCCF40E06DE980E090E1CC
:100800000C94C401CF92DF92EF92FF92CF93C12C50
:1008100080E4D82EE12CF12CC1E00E94D10081119E
:10082000FCCFC701B6010E94B3008111C0E082E095
:10083000D80EE11CF11CC114D10481E0E806F104DA
:1008400061F78C2FCF91FF90EF90DF90CF900895BC
:10085000CF93C82F0E94D1008111FCCF6C2F70E084
:1008600090E080E029E0660F771F881F991F2A9586
:10087000D1F74EE156E60E947C00C82F40E052E0DE
:100880006FEF70E08EE196E60E94420D81E0C111AB
:1008900080E0CF910895CF92DF92EF92FF920F9375
:1008A0001F93CF93DF931F92CDB7DEB7FC01CDB678
:1008B000DEB601812381908195504DB75EB7491B0B
:1008C00051094DBF5EBF4F5F5F4F7A013496342FA1
:1008D000DA018A2F831B8917A8F060E080E092304C
:1008E00018F0F7018081618129832D3F21F5923035
:1008F00061F09E012F5F3F4F41E06EEF802F0E941D
:100900000B0608C081918D93E4CF0E94DE05182F5D
:10091000811102C011E002C010920060812FCDBE93
:10092000DEBE0F90DF91CF911F910F91FF90EF905E
:10093000DF90CF9008952C3F61F49230D1F60E9461
:10094000DE05182F882331F30E9402048111E2CFC3
:100950001AC02B3F51F4923061F60E94DE05182F29
:100960008823C1F20E94EE03D9CF2A3F19F59334B0
:1009700009F0BFCF0E94DE05182F882359F2F70136
:10098000A281A83048F09E012F5F3F4F41E06EEFFB
:10099000802F0E940B06C2CFF0E4AF9FD00111243C
:1009A000A25EB949F701339680E401900D928A95D1
:1009B000E1F7B4CF10E0293F09F0B0CF933009F050
:1009C00098CF0E94DE05182F882309F4A3CFF701E2
:1009D000828190EE980F9136B0F60E942804B6CF2F
:1009E0000E941B0240E052E06FEF70E08EE196E65D
:1009F0000E94420D78948BE494E00E94060600EC7D
:100A00001EE120EF36E640E060E081E00E94EA0C63
:100A1000CCE3D0E00E94020C80910060882339F082
:100A2000A89584E690E00E943502219799F780917D
:100A30000060882321F0F894E0E0F0E209950E943C
:100A4000020CA895FCCF80912068909121680196B6
:100A5000809320689093216880912068909121680C
:100A6000803E914020F010922068109221680895F5
:100A700010922068109221680895FC01680F791F78
:100A80008FEF91E3E617F70709F408952191822784
:100A900028E030E087FF06C0880F89272150310900
:100AA000C9F7F0CF880FFACFCF92DF92EF92FF9283
:100AB000642728E06B017C01F694E794D794C794EF
:100AC0006170772788279927909580957095619513
:100AD0007F4F8F4F9F4F60727378887B9D7E6C2510
:100AE0007D258E259F25215029F7FF90EF90DF90DF
:100AF000CF9008958F929F92AF92BF92CF92DF9244
:100B0000EF92FF920F931F93CF93DF938B01C42F2C
:100B10006C01F12CE12C88248A94982C5401C01685
:100B2000D10648F1D0E008E110E00E94E700811111
:100B3000FCCFC501B401002E04C09695879577952A
:100B400067950A94D2F7CE019C5E0E94D8000850A7
:100B500011092196083F8FEF180739F7DF91CF91E0
:100B60001F910F91FF90EF90DF90CF90BF90AF90CB
:100B70009F908F900895C701B6010E947900482F79
:100B8000C501B4010E9454054B015C018FEFC81AE6
:100B9000D80AE80AF80AC3CF982F80910560891710
:100BA00059F080910460981302C0911105C081E052
:100BB0009F3F19F080E0089581E008958F3F21F074
:100BC00090910760981307C081E06F3F31F09091DA
:100BD0000660961711F080E008950895882361F06B
:100BE000813061F0803F61F09FE0980F9E3050F0BF
:100BF0008F3F51F081E0089580E0089582E00895EC
:100C000084E0089583E0089585E008958093FE6A66
:100C10009093FF6A0895CF92DF92EF92FF921F9315
:100C2000CF93DF93CDB7DEB7142FCDB6DEB6443405
:100C300078F020E043E4612F82E50E946006809115
:100C4000726C8F3F19F08F5F8093726C80E02BC0C5
:100C500095E0940F492F50E0EDB7FEB7E41BF50B7C
:100C6000EDBFFEBF31967F01EDB7FEB79183909146
:100C70000560F701918382836383922FADB7BEB77E
:100C80001596F9018E2F891B8117B8F0BA016250B1
:100C90007109C7010E943D05F701E10FF11D848331
:100CA000C7010E946607CDBEDEBEDF91CF911F91C6
:100CB000FF90EF90DF90CF90089581918D93E2CFD8
:100CC000EF92FF920F931F93CF93DF9300D000D04A
:100CD000CDB7DEB7182FE62EF42E022FE0916A6C06
:100CE000F0916B6C309709F009958091696C8823BD
:100CF00071F0113561F01983EA82FB820C839E0149
:100D00002F5F3F4F44E068EE80E00E940B06249680
:100D1000CDBFDEBFDF91CF911F910F91FF90EF907C
:100D20000895ECE6FCE6108211821282138214828E
:100D300015821682178220E040E060E083E80C9480
:100D40006006CF93682F40910360841740F020E045
:100D50008BE30E946006C0E08C2FCF910895E82FAE
:100D6000F0E0ED5AF449C08120E04C2F87E30E9467
:100D70006006F2CFEF92FF921F93CF93DF93C82FBD
:100D8000162F80910360C81768F020E0482F6C2F61
:100D90008BE30E94600680E0DF91CF911F91FF906E
:100DA000EF9008958C2F90E09C012D5A34497901E1
:100DB000411104C0F90180818617D9F0E091416C9E
:100DC000F091426CD12F309761F0612F8C2F0995F3
:100DD000D82F181731F0282F412F6C2F8AE30E944B
:100DE000600620E04D2F6C2F89E30E946006F7011A
:100DF000D08381E0D1CFCF9320E040E060910360C9
:100E000084E30E946006C0E080910360C81710F080
:100E1000CF91089541E060E08C2F0E94BA06CF5F29
:100E2000F3CFCF93C0E080910360C81788F00E9491
:100E3000E7008111FCCF62E48FEF94E10E94D800BB
:100E400020E040E06091036085E3CF910C94600660
:100E50000E94E7008111FCCF8C2F90E0FC01ED5A3D
:100E6000F44960819C5E0E94D800CF5FDCCFCF93B5
:100E70008FEF94E10E94D50020E0823451F042E4EB
:100E8000682F83E30E9460060E94FB06CF910C94BA
:100E9000110740E06091036082E30E946006C0E0B9
:100EA00080910360C81710F0CF9108950E94E70069
:100EB0008111FCCF8C2F90E09C5E0E94D50041E018
:100EC000682F8C2F0E94BA06CF5FEACF30E020E077
:100ED000F901EE5DF74940814F3F71F4DC014C911F
:100EE00050E0240F351F2B3D324068F4BC01CF0188
:100EF0000E94390D81E008952A3D52E0350770F7D0
:100F0000240F311DE5CF20E040E060E081E50E9444
:100F100060068091736C8F3F19F08F5F8093736CC4
:100F200080E008950F931F93CF93DF931F92CDB767
:100F3000DEB790EF980F9F3EA0F190910260981756
:100F400081F1182F80930260662349F089839E0106
:100F50002F5F3F4F41E06DEE8FEF0E940B068091B7
:100F60004F6B9091506B892BE1F08091516B8823EE
:100F7000F1F01031E0F4012F819F000D1124409118
:100F8000526B040F802F0E94A10661E0811101C005
:100F900060E041E0400FE0914F6BF091506B812F8A
:100FA00009950F90DF91CF911F910F9108950FEF49
:100FB000EFCF0F931F93CF93DF93CDB7DEB7649737
:100FC000CDBFDEBF182F062F8091076089838091E7
:100FD00006608A83809104608B838091746C91E0B9
:100FE00089278C838FEE94E10E94D5008D8380EF5A
:100FF00094E10E94D5008E8381EF94E10E94D50098
:101000008F8382EF94E10E94D500888783EF94E17B
:101010000E94D500898784EF94E10E94D5008A87D9
:1010200085EF94E10E94D5008B8786EF94E10E94C2
:10103000D5008C8787EF94E10E94D5008D8788EFDB
:1010400094E10E94D5008E8789EF94E10E94D5003B
:101050008F878AEF94E10E94D500888B8BEF94E113
:101060000E94D500898B8CEF94E10E94D5008A8B79
:101070008DEF94E10E94D5008B8B8EEF94E10E945E
:10108000D5008C8B9E012F5F3F4F44E1602F812F55
:101090000E940B066496CDBFDEBFDF91CF911F91FA
:1010A0000F9108957F928F929F92AF92BF92CF92AD
:1010B000DF92EF92FF920F931F93CF93DF93CDB701
:1010C000DEB72897CDBFDEBFFC01ADB6BEB6E0806F
:1010D0001181828003818BEFF82EFE0C8DB79EB7B5
:1010E0008F1991098DBF9EBF01966C013496982F80
:1010F000D6018A2F891B8F1570F0812F0E94EE0573
:101100008150823058F020E0412F602F81E60E940C
:10111000600611E0E8C081918D93EBCF0F3F39F568
:10112000F11007C041E068ED81E490E00E94C40145
:10113000FFCF92E0F91216C0F601908181819F3FA6
:1011400021F0209107602913E4CF8F3F21F0909187
:1011500006609813DECF41E068ED81E490E00E94E4
:10116000C401FFCF2F2D42E06FEF80E6D0CF013FCB
:1011700051F420E040E060E083E50E94600681E0F9
:1011800080930160C6CF003F49F420E040E060E07A
:1011900084E50E94600610920160BBCF0D3E61F4B1
:1011A000F1E02F2D41E06DEEFF12DFCF60E0F601A0
:1011B00080810E949207ADCF0C3EF9F481E08093CC
:1011C0000860E091676CF091686C81E090E0309786
:1011D00001F58BE2800F823008F0F2C0F1E02F2D94
:1011E00042E0602FFF1508F69090746C992009F486
:1011F00091C020E040E082E68ACF0B3E61F410927D
:101200000860E091676CF091686C309711F390E0A2
:1012100080E00995DECF0A3E09F068C120E040E099
:1012200060E081E80E94600681E08093696C71CF84
:10123000073E19F40E9491066CCF053E09F5809196
:101240006C6C898380916D6C8A8380916E6C8B83CA
:1012500080916F6C8C838091706C8D838091716CA8
:101260008E838091726C8F838091736C88879E01CE
:101270002F5F3F4F48E066EE812F0E940B0649CF5B
:10128000033E29F430E020E040E064EEF5CF003E7C
:1012900029F461EE812F0E94D9073BCF0F3D51F415
:1012A0001091746C20E040E06FED111119C00E94A4
:1012B000FB062FCF0E3D51F41091746C20E040E0FE
:1012C0006EED11110DC00E94110723CF0D3D09F0E5
:1012D00080CF1091746C1123D1F020E040E06DEDCF
:1012E00082E60E946006812FADBEBEBE2896CDBFAD
:1012F000DEBFDF91CF911F910F91FF90EF90DF90B4
:10130000CF90BF90AF909F908F907F9008950E9454
:101310003707FFCE2FEF821204C020E040E083E6C3
:10132000F6CEF601F0808F2D90E0FAEFEF0EF98205
:1013300020910360422F50E0F21670F04E2D6F2D79
:101340008BE30E9460069E012F5F3F4F41E0053D09
:1013500009F0DFCE68ED90CF2E1520F44E2D6F2DC5
:101360008CE3EFCF8E0D911D4817590720F44E2DB9
:101370006F2D8DE3E6CF20E04E2D6F2D88E30E9488
:1013800060062FEFC21AD20A812C77247394F601DB
:1013900061916F0140E08F2D880D0E94BA0687256C
:1013A000982A83948E1498F3053D09F0B2CE9E01DD
:1013B0002F5F3F4F41E067ED992009F45DCFCACF21
:1013C000003D09F06BC08DB69EB6F2E0FF1649F005
:1013D0002F2D42E060ED80E60E9460068DBE9EBE2D
:1013E00098CE8091746C882329F020E040E060ED75
:1013F00082E6F2CFF6010081E02EF12C718020917F
:101400000360422F50E0021770F020E0472D602F5C
:101410008BE30E94600630E020E040E061ED812F28
:101420000E940B06DBCF271520F4472D602F8CE39D
:10143000F0CFF2E4F71510F422E4F7CFC72CD12C4B
:10144000C6018E0D9F1D4817590720F4472D602FA8
:101450008DE3DFCF20E0472D602F86E30E946006FA
:101460002FEFC21AD20A8DB79EB78C199D098DBF76
:101470009EBF2DB73EB72F5F3F4FEDB7FEB701833D
:10148000F701ED5AF449D901119680E041E0480F87
:10149000871521F281918D93842FF8CF013B99F428
:1014A000F3E02F2D43E061EBFF125FCEE091456C3E
:1014B000F091466C309711F0C601099511E00023B8
:1014C00009F411CF11C0003BC9F723E0F21621F057
:1014D0002F2D43E060EB49CEE091436CF091446CDA
:1014E000309711F0C601099510E0FDCE093E09F0D4
:1014F0009FCE20E040E060E082E80E94600610920B
:10150000696C07CEE091026BF091036B309779F430
:101510008091086B0E94CC0581110FC0E091006B97
:10152000F091016B309729F186E09BE6099486E003
:101530009BE60995882361F3F1CFE091FE6AF09173
:10154000FF6A309781F486E09BE60E945208811181
:10155000E5CFE091FC6AF091FD6A3097F9F286E000
:101560009BE60995DBCF86E09BE609958111D6CFF6
:10157000EACF08951F93CF93DF93D2E0C1E00E949A
:101580001703811104C0DF91CF911F9108950E942C
:101590002603823419F4C093046BF1CF9091046B4D
:1015A0009923D1F01092046B893919F4C0934E6BD2
:1015B000E6CF863681F010924E6B20E040E060E08E
:1015C00081E40E94600680916D6C8F3FC1F28F5F55
:1015D00080936D6CD4CF82E490914E6B91110EC0CC
:1015E00020E040E060E082E40E94600680916E6C42
:1015F0008F3F29F28F5F80936E6CC1CF9130E1F401
:101600002BEF280F243438F48093066B9093056BEE
:10161000D0934E6BB4CF10924E6B20E048E4682F0D
:1016200083E40E94600680916F6C8F3F09F4A7CF1E
:101630008F5F80936F6CA3CF923009F0A0CF909111
:10164000056B2091066B921740F4E92FF0E0EA5FFA
:10165000F44980839F5F9093056B6091066B809146
:10166000056B68138CCF10924E6B70E0FB01EB5F43
:10167000F44910816250710986E09BE60E943D05A5
:10168000181779F020E0482F612F84E40E9460064B
:101690008091706C8F3F09F472CF8F5F8093706C74
:1016A0006ECF80916C6C8F3F19F08F5F80936C6C64
:1016B0000E94820A64CF0F931F93CF93DF93C82FAA
:1016C000D0E00AED12E00C1B1D0BBE016E5D7749E8
:1016D000A80182E298E60E94390DAE016FEF70E03A
:1016E000C8018E5D9749DF91CF911F910F910C94A6
:1016F000420DEF92FF920F931F93CF93DF93CDB7DD
:10170000DEB7C854D109CDBFDEBF009122680F3FBC
:1017100069F410E0812FC85BDF4FCDBFDEBFDF91E2
:10172000CF911F910F91FF90EF900895402F50E0BF
:1017300062E278E6CE0101960E94390D8091016047
:10174000882339F38091716C8F3F19F08F5F8093FC
:10175000716C802F0E945B0BE0911E68F0911F68F6
:10176000309751F0CE0101960995182F882321F06A
:10177000802F0E945B0BCECF8C81895F8430C8F4B0
:101780000E9420038823E1F382E40E94C4030E94A4
:101790002003182F8823D9F389E90E94C40300E0AD
:1017A0008981081798F01092206810922168B2CFB2
:1017B000A89520912068309121688091056090E083
:1017C000880F991F8217930799F7DACF0E94200399
:1017D0008823E1F3EE24E394F12CEC0EFD1EE00EE1
:1017E000F11CF70180810E94C403F70180818234DB
:1017F00039F40E9420038823E1F386E60E94C403A3
:101800000F5FCECF0E94BA0A0E94790B8111FCCFE4
:101810000895693000F11092516B60E0982F2FE02D
:10182000629F900D1124692F615F6F3EB8F0109296
:1018300003601092526B1092516B20E04EEE81E3E8
:101840000E94600620E040E06091036080E30E9417
:1018500060060C9437076093516BE0CF6093036090
:101860008093526BEFCF0F931F93CF93DF9307E4D7
:101870001CE6C0E8D0E1CE010E94EC00F8018193A3
:101880008F012196C03AF0E1DF07A9F76091476C1C
:101890008FEF860F8E3F08F453C081E0809307607E
:1018A00020E040E085E20E94600620E040E0609198
:1018B000076084E20E9460066091486C8FEB860F9F
:1018C0008A3108F440C081E48093066020E040E063
:1018D00087E20E94600620E040E06091066086E2B8
:1018E0000E9460066091496C8FEF860F803F70F117
:1018F00081E08093056020E040E081E20E94600684
:1019000020E040E06091056080E20E946006609106
:101910004A6C662351F08FE0860F8E3030F020E065
:1019200040E083E20E94600660EF6093046020E084
:1019300040E082E2DF91CF911F910F910C946006FD
:1019400060930760B2CF60930660C5CF6093056077
:10195000D7CFCF92DF92EF92FF920F931F93CF9347
:10196000DF936B017C018091746CC7EF8111CFEE26
:10197000D0E008E110E00E94E7008111FCCFC70130
:10198000B601002E04C096958795779567950A94C1
:10199000D2F7CE019C5E0E94D80008501109219612
:1019A000083F8FEF180739F743EF60E070E490E0ED
:1019B00080E00E947A054BEF6FEF7FEF80E090E4CC
:1019C000DF91CF911F910F91FF90EF90DF90CF901B
:1019D0000C947A05BF92CF92DF92EF92FF920F9311
:1019E0001F93CF93DF93B82EC62FD42F79014AEDE2
:1019F00052E06FEF70E082E298E60E94420DB092F2
:101A0000746C20E040E060E080E10E9460060E948B
:101A1000330C6D2F8C2F0E94090CC701B8010E9456
:101A2000A90C83E295E00E94670288E395E00E949A
:101A30005C01E0E0F4E08189887F8360818B8091A4
:101A4000056090E0880F991F0E94350262EE80E0E9
:101A50000E94D90720E040E060E081E1DF91CF9172
:101A60001F910F91FF90EF90DF90CF90BF900C945B
:101A70006006FB01DC0102C001900D924150504014
:101A8000D8F70895DC0101C06D9341505040E0F754
:061A90000895F894FFCF59
:0A1A96000101FFEEF0014101010023
:02000004008278
:090000000A00000000D0100020ED
:02000004008377
:04000000A33A3AA342
:00000001FF
