:104000000C9457200C9474200C9474200C947420FD
:104010000C9474200C94C5220C9408230C947420E6
:104020000C9466210C9474200C9474200C945823E6
:104030000C9474200C9474200C9474200C947420B0
:104040000C9474200C9474200C9474200C947420A0
:104050000C9474200C94C3240C94E7240C940B252A
:104060000C94AD210C9474200C9474200C94742046
:104070000C9474200C949F210C9474200C94742044
:104080000C9474200C9474200C94ED210C947420E6
:1040900005A84CCDB2D44EB93836A9020C50B9910E
:1040A0008688083CA6AAAA2ABE000000803F1124E8
:1040B0001FBECFEFCDBFDFE7DEBF10E6A0E0B0E66A
:1040C000E8E9F7E602C005900D92A031B107D9F7F3
:1040D0002EE6A0E1B0E601C01D92A63EB207E1F7D0
:1040E0000E94B2280C94CA330C940020482F6DE92A
:1040F00080E090E10C94D220E0E0F0E182818F78C2
:10410000828308950E947C20109201100895FB0183
:1041100084910895FC01808108951F93CF93DF93CC
:10412000EC01162F83E10E947620188380E0DF9156
:10413000CF911F910C94762080910210869581700A
:104140000895FC0180810895E0E4F9E01082118275
:104150001382128208950C94A42080934409089538
:104160009091400990FD10C0E82FF0E0EE0FFF1F86
:10417000E45FFF4981818093410910924209808167
:104180008093400981E0089580E00895809140097E
:1041900080FF06C08091430985FB882780F9089538
:1041A00080E00895FC0164BF408308950895089558
:1041B00008950895089508950895CF93DF9380E0BA
:1041C00094E029E0FC012083C0E4D4E01882A0E65A
:1041D000B4E020ED2C9340EA54E0FA01108221E093
:1041E000FC0124831C8214961C921497FA011482F9
:1041F000FC01108A118A128A138A148A158A168A77
:10420000178A188A198A1A8A1B8A1C8A1D8A1E8A8A
:104210001F8A50961C92509751961C925197529615
:104220001C92529753961C92539754961C925497F3
:1042300055961C92559756961C92569757961C92D7
:10424000FA01108A118A128A138A148A158A168A28
:10425000178AE0EEF5E01182108284E085831782F0
:10426000108611861682128286ED90E280931C6081
:1042700090931D6088ED90E280931A6090931B608C
:1042800089ED90E280931860909319608AED90E236
:1042900080931660909317608BED90E2809314608A
:1042A000909315608CED90E2809312609093136070
:1042B00087ED90E28093106090931160DF91CF9131
:1042C000089580931C6090931D6008951F920F9233
:1042D0000FB60F9211242F933F934F935F936F93D9
:1042E0007F938F939F93AF93BF93EF93FF93199B0C
:1042F00005C0E0911C60F0911D600995189B05C0F8
:10430000E0911A60F0911B6009951B9B05C0E0913C
:104310001860F091196009958FEF83B9FF91EF91C3
:10432000BF91AF919F918F917F916F915F914F91CD
:104330003F912F910F900FBE0F901F9018951F92D5
:104340000F920FB60F9211248F938FEF8BB98F912D
:104350000F900FBE0F901F9018951F920F920FB6DF
:104360000F9211242F933F934F935F936F937F93FB
:104370008F939F93AF93BF93EF93FF937D9B05C064
:10438000E0911660F091176009957C9B05C0E09163
:104390001460F091156009957E9B05C0E091126054
:1043A000F091136009957F9B05C0E0911060F0913A
:1043B000116009958FEF8FB9FF91EF91BF91AF9188
:1043C0009F918F917F916F915F914F913F912F912D
:1043D0000F900FBE0F901F9018951F920F920FB65F
:1043E0000F9211248F938FEF87BB8F910F900FBE89
:1043F0000F901F9018954AE068ED80E091E00E94D0
:10440000D22040E868ED81E091E00E94D22080E077
:1044100008950E941F220E94DD200E9482200E9497
:1044200098220E94A4200E9435230E9484230E9487
:10443000FB210C946022462F68ED0C94D22060E0A2
:1044400080E690E00E941B2260E081E690E00E94FE
:104450001B2260E085E690E00E941B2260E088E776
:1044600090E00E941B2264E288E690E00E941B22FA
:1044700060E089E690E00E941B2260E080E790E027
:104480000E941B2260E08CE790E00E941B2260E00B
:1044900082E690E00E941B2260E083E690E00E94AA
:1044A0001B2260E084E690E00E941B2260E080E82E
:1044B00090E00E941B228091650081FFFCCF08954F
:1044C00040E068ED80E191E00E94D220E0E1F1E07F
:1044D0001282138280E00895019708F40895EFE6B0
:1044E000F7E13197F1F700C00000F6CF9C012032D0
:1044F000310588F4AC0125E0569547952A95E1F7FA
:1045000060EE64039001659F300D1124820F931FAC
:10451000019750F40895EFEBF0E03197F1F700C008
:10452000000020523109E3CFF8E0FA95F1F7F0CF1F
:10453000809141018111FCCF8FEF9FE780934C0167
:1045400090934D0110924801109249018FEF9FEF17
:1045500080934A0190934B011092470110924201BF
:1045600010924501809151018111FCCF81E080932F
:1045700052011092550181E18093500180E008952D
:1045800080931E6090931F6008951F920F920FB644
:104590000F9211242F933F934F935F936F937F93C9
:1045A0008F939F93AF93BF93EF93FF9380914201BB
:1045B00080FF0BC08091430180FF07C0E091226023
:1045C000F0912360309709F009958091420181FFB5
:1045D0000BC08091430181FF07C0E0912060F09102
:1045E0002160309709F0099583E080934301FF91A2
:1045F000EF91BF91AF919F918F917F916F915F915B
:104600004F913F912F910F900FBE0F901F901895D3
:104610001F920F920FB60F9211242F933F934F9337
:104620005F936F937F938F939F93AF93BF93EF931A
:10463000FF93E0911E60F0911F60309709F009959B
:1046400081E080935301FF91EF91BF91AF919F91D2
:104650008F917F916F915F914F913F912F910F902B
:104660000FBE0F901F9018950895E0E0FAE010A695
:1046700011A612A613A614A615A610A211A21182A5
:104680001282138214821582168217821686118670
:1046900080E18287138689EE90E086A397A3178630
:1046A0008FE0808308958093006090930160089567
:1046B0001F920F920FB60F9211242F933F934F9397
:1046C0005F936F937F938F939F93AF93BF93EF937A
:1046D000FF93E0910060F0910160309709F0099537
:1046E00080E180930B0AFF91EF91BF91AF919F9171
:1046F0008F917F916F915F914F913F912F910F908B
:104700000FBE0F901F9018958AE094E28093D96EA7
:104710009093DA6E8BE994E28093DB6E9093DC6E7B
:10472000E0E0F8E080EC90E08087918781ED858380
:1047300080EC868383E0878313861486168615862D
:1047400080EC94E28093E26E9093E36E82EC94E2CC
:104750008093DD6E9093DE6E81EC94E28093E46E44
:104760009093E56E10922860109229601092AF66C7
:104770001092AE6680E88093DF6E10922C661092E5
:104780002D6610922A6610922B661092E06E10929F
:10479000E16E85818068858308952091E06E309177
:1047A000E16E81E0232B09F480E008959091DF6EA3
:1047B00081E0911101C080E00895E0912A66F091B6
:1047C0002B66E65DFB49808120912A6630912B663D
:1047D0002F5F3F4F317020932A6630932B66909164
:1047E00005089F77909305082091E06E3091E16E67
:1047F000232B51F02091E06E3091E16E2150310970
:104800002093E06E3093E16E90910508906890934C
:1048100005080895E0912C66F0912D66EE0FFF1FBC
:10482000E65DFF49108211828091010882FF12C06B
:10483000E0912C66F0912D66EE0FFF1FE65DFF49BB
:10484000808182608083E091E26EF091E36E309728
:1048500009F009958091010881FF0CC080912860C2
:10486000816080932860E091E46EF091E56E30976E
:1048700009F009958091010886FF12C0E0912C662D
:10488000F0912D66EE0FFF1FE65DFF498081846089
:104890008083E091DD6EF091DE6E309709F009952E
:1048A0002091000880912C6690912D660196917060
:1048B00040912A6650912B6648175907A1F0E09164
:1048C0002C66F0912D66E65DFB49208380932C6673
:1048D00090932D668091E06E9091E16E01968093A9
:1048E000E06E9093E16EE0912460F0912560309746
:1048F00009F0099408959091DF6E9923B1F0E09149
:10490000AF66F0E0E25DF94980838091AF668F5F2A
:104910008F778093AF66809105088F7D809305081F
:104920008091DF6E81508093DF6E809105088062F8
:104930008093050808958091DF6E87FD1AC0E0918D
:10494000AE66F0E0E25DF9498081809302088091D3
:10495000AE668F5F8F778093AE668091DF6E8F5FDC
:104960008093DF6EE0912660F0912760309739F0F8
:104970000994809105088F7D80930508F3CF0895F1
:104980000895089508951F920F920FB60F92112463
:104990002F933F934F935F936F937F938F939F9347
:1049A000AF93BF93EF93FF930E940A24FF91EF917F
:1049B000BF91AF919F918F917F916F915F914F9137
:1049C0003F912F910F900FBE0F901F9018951F923F
:1049D0000F920FB60F9211242F933F934F935F9333
:1049E0006F937F938F939F93AF93BF93EF93FF93B7
:1049F0000E949B24FF91EF91BF91AF919F918F9166
:104A00007F916F915F914F913F912F910F900FBECA
:104A10000F901F9018951F920F920FB60F921124AE
:104A20008F93EF93FF93E0E0F8E0848180648483C8
:104A3000FF91EF918F910F900FBE0F901F901895DF
:104A4000FC01808180937C6A818180937B6A828172
:104A50008093036081E080937D6A0895FC018081EA
:104A600080958093026081818093786A8281823010
:104A700008F080E081708093796A8091796A882358
:104A800041F08AE695E20E94532381E080937D6A9B
:104A9000089590E080E0F7CF8823C1F080E1809313
:104AA000650400000000000000000000000000009D
:104AB0000000000080936604000000000000000079
:104AC00000000000000000000000089580E18093D5
:104AD0006504ECCF80917F6A882309F18091816A17
:104AE0008823E9F080917B6A8823C9F08091036074
:104AF0008823A9F080917A6A8F5F80937A6A909177
:104B00007A6A80910260981750F010927A6A8091C8
:104B10007C6A8F5F80937C6A81E080937D6A0895D0
:104B2000CF93873030F4811107C0611161E0609349
:104B30007E6A862FCF910895813049F4613F08F055
:104B400060EF6093816A81E080937D6AF2CF82306A
:104B5000A1F4C62F653008F0C4E0C093806A81E0FC
:104B600080937D6A643028F00E94AB20C4E06C2FF3
:104B7000E0CF8C2F0E94B020FACF833031F4643024
:104B800008F06FEF6093B466DECF843031F46430A8
:104B900008F06FEF6093B566D6CF853031F464309E
:104BA00008F06FEF6093B666CECF863011F66430B2
:104BB00008F06FEF6093B766C6CF2F923F924F9287
:104BC0005F926F927F928F929F92AF92BF92CF929D
:104BD000DF92EF92FF920F931F93CF93DF93CDB7A6
:104BE000DEB72A97CDBFDEBF8C0169877A87FC01CB
:104BF000618170E090E080E00E94073221E830E8B7
:104C000040E85BE30E94F8326B017C01F8016281AD
:104C100070E090E080E00E94073221E830E840E850
:104C20005BE30E94F8326D837E838F839887F8015F
:104C3000608170E090E080E00E94073225EB34EB69
:104C400044EB5FE30E94F83220ED3FE049E450E49A
:104C50000E94F83220E030E044E353E40E946631E1
:104C6000162F072F382E292E2CE73AE046E050E485
:104C70000E945C315801410187FD1EC02BE83AE0DB
:104C800046E850E4612F702F832D922D0E945C31F5
:104C90002CE73AE046E050E487FD04C02BE83AE018
:104CA00046E850E4612F702F832D922D0E94EF3043
:104CB000B62EA72E982E892E6B2D7A2D892D982D04
:104CC0000E9461312B013C012B2D3A2D492D582D8D
:104CD0006AE87AE086E89FE30E94EF300E94613143
:104CE00069837A838B839C8320E030E04FE753E431
:104CF000C701B6010E94F8322D813E814F8158854F
:104D00000E94F83220E030E040E450E40E94663136
:104D10004B015C0129813A814B815C81C301B20165
:104D20000E9466312B013C0120E030E040E85FE367
:104D30000E94F030A50194010E94F8320E94D831FF
:104D40006983A301920160E070E080E89FE30E9424
:104D5000EF3020E030E040E85FE30E94F030A50152
:104D600094010E94F8320E94D831B62EA701960114
:104D700060E070E080E89FE30E94EF3020E030E0E8
:104D80004FE753E40E94F8322D813E814F815885D0
:104D90000E94F8320E94D831F62E2CE73AE046E025
:104DA00050E4612F702F832D922D0E945C3187FF7C
:104DB0001DC08981E985FA858083B1821282F382E0
:104DC0002A96CDBFDEBFDF91CF911F910F91FF904B
:104DD000EF90DF90CF90BF90AF909F908F907F909B
:104DE0006F905F904F903F902F9008952BE83AE09E
:104DF00046E850E4612F702F832D922D0E945C3184
:104E000087FF07C08981E985FA858183B282108294
:104E1000D6CF8981E985FA858283B0821182CFCF8E
:104E2000CF93C82F881F8827881F0E944C25C6FB58
:104E3000882780F90E944C25C5FB882780F90E94AD
:104E40004C25C4FB882780F90E944C25C3FB88278A
:104E500080F90E944C25C2FB882780F90E944C25CE
:104E6000C1FB882780F90E944C258C2F8170CF913F
:104E70000C944C2580E1809366048CE291E00C94C4
:104E800076220F931F93CF93DF932091806A8C013A
:104E900008541949C8EBD6E62430C9F40E943A27D1
:104EA000F894C8EBD6E6C017D10731F47894DF91B7
:104EB000CF911F910F91089589910E941027F3CFF0
:104EC0000E94C6208823E1F389910E94AD20C0177B
:104ED000D107B1F7ECCF779B07C080E880936604D9
:104EE0008CE291E00C946C220895779907C080E8D9
:104EF000809365048CE291E00C946C2208952F92CB
:104F00003F924F925F926F927F928F929F92AF9259
:104F1000BF92CF92DF92EF92FF920F931F93CF93A6
:104F2000DF93CDB7DEB72997CDBFDEBF7090816A22
:104F3000772009F44FC080917F6A882309F44AC022
:104F4000D090B46601E02FEFD21201C000E0C09013
:104F5000B5663FEFC3120F5FB090B6666FEFB61243
:104F60000F5FA090B7668FEFA81691F10F5F079DB6
:104F70008001112480917C6A898380917B6A8A8375
:104F8000809103608B838091796A811166C060EBA8
:104F900076E6CE0101960E94DD2590E080E0ED2DC1
:104FA000F0E0DF01A055B9494D01AC2DB0E0A055AE
:104FB000B9492B2D30E0205539494A2D50E0405554
:104FC000594980179107E0F0C8010E94412702C0AB
:104FD0000111CDCF2996CDBFDEBFDF91CF911F91BB
:104FE0000F91FF90EF90DF90CF90BF90AF909F9088
:104FF0008F907F906F905F904F903F902F9008958B
:10500000EFEFDE1641F0BC0168547949F401F080FD
:10501000FB01F0820196FFEFCF1639F0BC01685416
:105020007949FC90FB01F0820196FFEFBF1641F039
:10503000BC0168547949F901F080FB01F0820196C6
:10504000FFEFAF1609F4BDCFBC0168547949FA01EE
:10505000F080FB01F0820196B4CF8091786A672DD1
:105060000E94AE33682F70E090E080E00E94093229
:105070001B012C01612CF12CE12C8D2D90E09C0169
:10508000205539492C833D838C2D90E0DC01A055BF
:10509000B949AE83BF838B2D90E0FC01E055F949FF
:1050A000E887F9878A2D90E09C012055394949010C
:1050B00060EB76E6CE0101960E94DD25698170E005
:1050C00090E080E00E940932A20191010E94F0303C
:1050D0000E94D83169833FEFD31651F0F701E854AD
:1050E000F949AC81BD818C918083BFEFEB1AFB0A3B
:1050F000EFEFCE1651F0F701E854F949AE81BF81C8
:105100008C918083BFEFEB1AFB0AEFEFBE1651F0D4
:10511000F701E854F949A885B9858C918083BFEFE0
:10512000EB1AFB0AEFEFAE1649F0F701E854F94924
:10513000D4018C918083BFEFEB1AFB0A6394761045
:10514000B7CF42CF80917E6A80937F6A80917E6ADA
:10515000882331F00E94752781E080937D6A08954D
:105160000C946B270E94092278940E946B2780E997
:1051700095E20E94BC298EE295E20E94B72980E266
:1051800095E20E94B2290CE31AE42FEF35E640E0E5
:1051900067E080E00E94A03080917D6A882321F042
:1051A00010927D6A0E947F2790917E6A80917F6A2B
:1051B00098130E94A2280E94B82FA895EDCF809145
:1051C000846A9091856A01968093846A9093856A37
:1051D0008091846A9091856A803E914020F010927F
:1051E000846A1092856A08951092846A1092856A82
:1051F0000895FC01680F791F8FEF91E3E617F70719
:1052000009F408952191822728E030E087FF06C045
:10521000880F892721503109C9F7F0CF880FFACFBD
:10522000CF92DF92EF92FF92642728E06B017C011E
:10523000F694E794D794C7946170772788279927C5
:1052400090958095709561957F4F8F4F9F4F6072BD
:105250007378887B9D7E6C257D258E259F2521502A
:1052600029F7FF90EF90DF90CF9008958F929F9253
:10527000AF92BF92CF92DF92EF92FF920F931F9364
:10528000CF93DF938B01C42F6C01F12CE12C882488
:105290008A94982C5401C016D10648F1D0E008E158
:1052A00010E00E949C208111FCCFC501B401002EAA
:1052B00004C096958795779567950A94D2F7CE01A5
:1052C0009C5E0E948D20085011092196083F8FEFA7
:1052D000180739F7DF91CF911F910F91FF90EF9051
:1052E000DF90CF90BF90AF909F908F900895C701AF
:1052F000B6010E948720482FC501B4010E941029E1
:105300004B015C018FEFC81AD80AE80AF80AC3CF2C
:10531000982F80910860891759F080910760981341
:1053200002C0911105C081E09F3F19F080E008950F
:1053300081E00895882361F0813061F0803F61F061
:105340009FE0980F9E3050F08F3F51F081E008951C
:1053500080E0089582E0089584E0089583E0089550
:1053600085E008958093A76E9093A86E089580932A
:10537000A96E9093AA6E08958093A56E9093A66EE1
:105380000895CF92DF92EF92FF921F93CF93DF9316
:10539000CDB7DEB7142FCDB6DEB6443478F020E0BA
:1053A00043E4612F82E50E94162A8091D66E8F3FDA
:1053B00019F08F5F8093D66E80E02BC095E0940F3C
:1053C000492F50E0EDB7FEB7E41BF50BEDBFFEBF74
:1053D00031967F01EDB7FEB7918390910860F70198
:1053E000918382836383922FADB7BEB71596F9017F
:1053F0008E2F891B8117B8F0BA0162507109C7015D
:105400000E94F928F701E10FF11D8483C7010E9472
:105410001C2BCDBEDEBEDF91CF911F91FF90EF9090
:10542000DF90CF90089581918D93E2CFEF92FF921C
:105430000F931F93CF93DF9300D000D0CDB7DEB78B
:10544000182FE62EF42E022FE091CE6EF091CF6E43
:10545000309709F009958091CD6E882371F0113550
:1054600061F01983EA82FB820C839E012F5F3F4F1C
:1054700044E068EE80E00E94C1292496CDBFDEBFE3
:10548000DF91CF911F910F91FF90EF900895E0ED84
:10549000FEE6108211821282138214821582168215
:1054A000178220E040E060E083E80C94162ACF9356
:1054B000682F40910660841740F020E08BE30E9443
:1054C000162AC0E08C2FCF910895E82FF0E0E95420
:1054D000F249C08120E04C2F87E30E94162AF2CFC8
:1054E000EF92FF921F93CF93DF93C82F162F8091D7
:1054F0000660C81768F020E0482F6C2F8BE30E94ED
:10550000162A80E0DF91CF911F91FF90EF900895D0
:105510008C2F90E09C01295432497901411104C03B
:10552000F90180818617D9F0E091A56EF091A66E01
:10553000D12F309761F0612F8C2F0995D82F181734
:1055400031F0282F412F6C2F8AE30E94162A20E089
:105550004D2F6C2F89E30E94162AF701D08381E03A
:10556000D1CFCF9320E040E06091066084E30E94B9
:10557000162AC0E080910660C81710F0CF910895F8
:1055800041E060E08C2F0E94702ACF5FF3CFCF9371
:10559000C0E080910660C81788F00E949C208111AD
:1055A000FCCF62E48FEF94E10E948D2020E040E088
:1055B0006091066085E3CF910C94162A0E949C208E
:1055C0008111FCCF8C2F90E0FC01E954F2496081FD
:1055D0009C5E0E948D20CF5FDCCFCF938FEF94E154
:1055E0000E948A2020E0823451F042E4682F83E355
:1055F0000E94162A0E94B12ACF910C94C72A40E03B
:105600006091066082E30E94162AC0E080910660E5
:10561000C81710F0CF9108950E949C208111FCCFF3
:105620008C2F90E09C5E0E948A2041E0682F8C2F96
:105630000E94702ACF5FEACF30E020E0F901EA57FC
:10564000F54940814F3F71F4DC014C9150E0240F4B
:10565000351F2B3D324068F4BC01CF010E94BA33A4
:1056600081E008952A3D52E0350770F7240F311D7F
:10567000E5CF20E040E060E081E50E94162A8091BD
:10568000D76E8F3F19F08F5F8093D76E80E00895BB
:105690000F931F93CF93DF931F92CDB7DEB790EF99
:1056A000980F9F3EA0F190910560981781F1182FF7
:1056B00080930560662349F089839E012F5F3F4FE9
:1056C00041E06DEE8FEF0E94C1298091B36D909102
:1056D000B46D892BE1F08091B56D8823F1F0103124
:1056E000E0F4012F819F000D11244091B66D040F4D
:1056F000802F0E94572A61E0811101C060E041E0E3
:10570000400FE091B36DF091B46D812F09950F902A
:10571000DF91CF911F910F9108950FEFEFCF0F936E
:105720001F93CF93DF93CDB7DEB76497CDBFDEBFB6
:10573000182F062F80910A608983809109608A83DF
:10574000809107608B838091D86E91E089278C834C
:105750008FEE94E10E948A208D8380EF94E10E9475
:105760008A208E8381EF94E10E948A208F8382EFCA
:1057700094E10E948A20888783EF94E10E948A2026
:10578000898784EF94E10E948A208A8785EF94E1DB
:105790000E948A208B8786EF94E10E948A208C8762
:1057A00087EF94E10E948A208D8788EF94E10E9420
:1057B0008A208E8789EF94E10E948A208F878AEF62
:1057C00094E10E948A20888B8BEF94E10E948A20CA
:1057D000898B8CEF94E10E948A208A8B8DEF94E173
:1057E0000E948A208B8B8EEF94E10E948A208C8B02
:1057F0009E012F5F3F4F44E1602F812F0E94C129FE
:105800006496CDBFDEBFDF91CF911F910F910895B8
:105810007F928F929F92AF92BF92CF92DF92EF9240
:10582000FF920F931F93CF93DF93CDB7DEB72897E7
:10583000CDBFDEBFFC01ADB6BEB6E0801181828077
:1058400003818BEFF82EFE0C8DB79EB78F1991094F
:105850008DBF9EBF01966C013496982FD6018A2F7A
:10586000891B8F1570F0812F0E949A2981508230F8
:1058700058F020E0412F602F81E60E94162A11E0A7
:10588000E8C081918D93EBCF0F3F39F5F11007C040
:1058900041E068ED81E490E00E94D220FFCF92E0E9
:1058A000F91216C0F601908181819F3F21F020916D
:1058B0000A602913E4CF8F3F21F09091096098137B
:1058C000DECF41E068ED81E490E00E94D220FFCF7E
:1058D0002F2D42E06FEF80E6D0CF013F51F420E062
:1058E00040E060E083E50E94162A81E08093046036
:1058F000C6CF003F49F420E040E060E084E50E942C
:10590000162A10920460BBCF0D3E61F4F1E02F2DFA
:1059100041E06DEEFF12DFCF60E0F60180810E9472
:10592000482BADCF0C3EF9F481E080930B60E09101
:10593000CB6EF091CC6E81E090E0309701F58BE278
:10594000800F823008F0F2C0F1E02F2D42E0602F8E
:10595000FF1508F69090D86E992009F491C020E0C8
:1059600040E082E68ACF0B3E61F410920B60E0913A
:10597000CB6EF091CC6E309711F390E080E00995FA
:10598000DECF0A3E09F068C120E040E060E081E837
:105990000E94162A81E08093CD6E71CF073E19F4E4
:1059A0000E94472A6CCF053E09F58091D06E89830D
:1059B0008091D16E8A838091D26E8B838091D36ED9
:1059C0008C838091D46E8D838091D56E8E838091EF
:1059D000D66E8F838091D76E88879E012F5F3F4F51
:1059E00048E066EE812F0E94C12949CF033E29F489
:1059F00030E020E040E064EEF5CF003E29F461EEB7
:105A0000812F0E948F2B3BCF0F3D51F41091D86E08
:105A100020E040E06FED111119C00E94B12A2FCF94
:105A20000E3D51F41091D86E20E040E06EED111162
:105A30000DC00E94C72A23CF0D3D09F080CF1091E1
:105A4000D86E1123D1F020E040E06DED82E60E9497
:105A5000162A812FADBEBEBE2896CDBFDEBFDF9118
:105A6000CF911F910F91FF90EF90DF90CF90BF905B
:105A7000AF909F908F907F9008950E94ED2AFFCE67
:105A80002FEF821204C020E040E083E6F6CEF6015C
:105A9000F0808F2D90E0FAEFEF0EF98220910660F2
:105AA000422F50E0F21670F04E2D6F2D8BE30E94C6
:105AB000162A9E012F5F3F4F41E0053D09F0DFCEE2
:105AC00068ED90CF2E1520F44E2D6F2D8CE3EFCF87
:105AD0008E0D911D4817590720F44E2D6F2D8DE323
:105AE000E6CF20E04E2D6F2D88E30E94162A2FEF7F
:105AF000C21AD20A812C77247394F60161916F0146
:105B000040E08F2D880D0E94702A8725982A839463
:105B10008E1498F3053D09F0B2CE9E012F5F3F4FE2
:105B200041E067ED992009F45DCFCACF003D09F04F
:105B30006BC08DB69EB6F2E0FF1649F02F2D42E005
:105B400060ED80E60E94162A8DBE9EBE98CE8091A2
:105B5000D86E882329F020E040E060ED82E6F2CFA5
:105B6000F6010081E02EF12C718020910660422F19
:105B700050E0021770F020E0472D602F8BE30E9469
:105B8000162A30E020E040E061ED812F0E94C1291B
:105B9000DBCF271520F4472D602F8CE3F0CFF2E404
:105BA000F71510F422E4F7CFC72CD12CC6018E0DC7
:105BB0009F1D4817590720F4472D602F8DE3DFCF35
:105BC00020E0472D602F86E30E94162A2FEFC21A8D
:105BD000D20A8DB79EB78C199D098DBF9EBF2DB778
:105BE0003EB72F5F3F4FEDB7FEB70183F701E95492
:105BF000F249D901119680E041E0480F871521F262
:105C000081918D93842FF8CF013B99F4F3E02F2DF0
:105C100043E061EBFF125FCEE091A96EF091AA6EB6
:105C2000309711F0C601099511E0002309F411CF56
:105C300011C0003BC9F723E0F21621F02F2D43E0FD
:105C400060EB49CEE091A76EF091A86E309711F00D
:105C5000C601099510E0FDCE093E09F09FCE20E077
:105C600040E060E082E80E94162A1092CD6E07CED6
:105C7000E091666DF091676D309779F480916C6D6D
:105C80000E94882981110FC0E091646DF091656DCB
:105C9000309729F18AE69DE609948AE69DE6099502
:105CA000882361F3F1CFE091626DF091636D3097DD
:105CB00081F48AE69DE60E94082C8111E5CFE091EF
:105CC000606DF091616D3097F9F28AE69DE6099575
:105CD000DBCF8AE69DE609958111D6CFEACF0895FC
:105CE0001F93CF93DF93D2E0C1E00E94CD238111B7
:105CF00004C0DF91CF911F9108950E94DD2382346B
:105D000019F4C093686DF1CF9091686D9923D1F02B
:105D10001092686D893919F4C093B26DE6CF86365A
:105D200081F01092B26D20E040E060E081E40E94DA
:105D3000162A8091D16E8F3FC1F28F5F8093D16E12
:105D4000D4CF82E49091B26D91110EC020E040E07A
:105D500060E082E40E94162A8091D26E8F3F29F281
:105D60008F5F8093D26EC1CF9130E1F42BEF280F7B
:105D7000243438F480936A6D9093696DD093B26D3A
:105D8000B4CF1092B26D20E048E4682F83E40E9403
:105D9000162A8091D36E8F3F09F4A7CF8F5F80932F
:105DA000D36EA3CF923009F0A0CF9091696D20916E
:105DB0006A6D921740F4E92FF0E0E659F2498083CA
:105DC0009F5F9093696D60916A6D8091696D6813B2
:105DD0008CCF1092B26D70E0FB01E759F24910814F
:105DE000625071098AE69DE60E94F928181779F039
:105DF00020E0482F612F84E40E94162A8091D46EFF
:105E00008F3F09F472CF8F5F8093D46E6ECF8091F5
:105E1000D06E8F3F19F08F5F8093D06E0E94382E26
:105E200064CF0F931F93CF93DF93C82FD0E00AED79
:105E300012E00C1B1D0BBE016A577549A80186E8CC
:105E40009AE60E94BA33AE016FEF70E0C8018A573C
:105E50009549DF91CF911F910F910C94C333EF922D
:105E6000FF920F931F93CF93DF93CDB7DEB7C85444
:105E7000D109CDBFDEBF0091866A0F3F69F410E003
:105E8000812FC85BDF4FCDBFDEBFDF91CF911F9168
:105E90000F91FF90EF900895402F50E066E87AE66A
:105EA000CE0101960E94BA3380910460882339F3B1
:105EB0008091D56E8F3F19F08F5F8093D56E802FC4
:105EC0000E94112FE091826AF091836A309751F01D
:105ED000CE0101960995182F882321F0802F0E946A
:105EE000112FCECF8C81895F8430C8F40E94D623D5
:105EF0008823E1F382E40E947B240E94D623182F9A
:105F00008823D9F389E90E947B2400E0898108175E
:105F100098F01092846A1092856AB2CFA895209169
:105F2000846A3091856A8091086090E0880F991F9B
:105F30008217930799F7DACF0E94D6238823E1F3DB
:105F4000EE24E394F12CEC0EFD1EE00EF11CF701A3
:105F500080810E947B24F7018081823439F40E9481
:105F6000D6238823E1F386E60E947B240F5FCECF01
:105F70000E94702E0E942F2F8111FCCF089569304E
:105F800000F11092B56D60E0982F2FE0629F900DA8
:105F90001124692F615F6F3EB8F010920660109275
:105FA000B66D1092B56D20E04EEE81E30E94162A88
:105FB00020E040E06091066080E30E94162A0C9485
:105FC000ED2A6093B56DE0CF609306608093B66D67
:105FD000EFCF0F931F93CF93DF930BEA1EE6C0E83A
:105FE000D0E1CE010E94A120F80181938F0121967A
:105FF000C03AF0E1DF07A9F76091AB6E8FEF860F33
:106000008E3F08F453C081E080930A6020E040E0B6
:1060100085E20E94162A20E040E060910A6084E256
:106020000E94162A6091AC6E8FEB860F8A3108F4BD
:1060300040C081E48093096020E040E087E20E9454
:10604000162A20E040E06091096086E20E94162A4C
:106050006091AD6E8FEF860F803F70F181E080938D
:10606000086020E040E081E20E94162A20E040E043
:106070006091086080E20E94162A6091AE6E6623ED
:1060800051F08FE0860F8E3030F020E040E083E268
:106090000E94162A60EF6093076020E040E082E2F1
:1060A000DF91CF911F910F910C94162A60930A6093
:1060B000B2CF60930960C5CF60930860D7CFCF920D
:1060C000DF92EF92FF920F931F93CF93DF936B01B9
:1060D0007C018091D86EC7EF8111CFEED0E008E14E
:1060E00010E00E949C208111FCCFC701B601002E58
:1060F00004C096958795779567950A94D2F7CE0157
:106100009C5E0E948D20085011092196083F8FEF58
:10611000180739F743EF60E070E490E080E00E94F8
:1061200036294BEF6FEF7FEF80E090E4DF91CF9166
:106130001F910F91FF90EF90DF90CF900C94362934
:10614000BF92CF92DF92EF92FF920F931F93CF9364
:10615000DF93B82EC62FD42F79014AED52E06FEFAE
:1061600070E086E89AE60E94C333B092D86E20E0D1
:1061700040E060E080E10E94162A0E94E92F6D2F26
:106180008C2F0E94BF2FC701B8010E945F308FED96
:1061900098E20E94C02284EF98E20E946121E0E030
:1061A000F4E08189887F8360818B8091086090E032
:1061B000880F991F0E946C2262EE80E00E948F2B54
:1061C00020E040E060E081E1DF91CF911F910F91ED
:1061D000FF90EF90DF90CF90BF900C94162A50580C
:1061E000BB27AA270E9407310C94AA320E94713261
:1061F00038F00E94783220F039F49F3F19F426F4E9
:106200000C946E320EF4E095E7FB0C946832E92FA3
:106210000E94CF3258F3BA176207730784079507B5
:1062200020F079F4A6F50C94F1320EF4E0950B2EE3
:10623000BA2FA02D0B01B90190010C01CA01A001D8
:106240001124FF27591B99F0593F50F4503E68F133
:106250001A16F040A22F232F342F4427585FF3CF74
:10626000469537952795A795F0405395C9F77EF445
:106270001F16BA0B620B730B840BBAF09150A1F08E
:10628000FF0FBB1F661F771F881FC2F70EC0BA0F14
:10629000621F731F841F48F4879577956795B7959C
:1062A000F7959E3F08F0B0CF9395880F08F0992797
:1062B000EE0F9795879508950E94443208F481E087
:1062C00008950E948132E3950C94BB320E947A318A
:1062D0000C94AA320E94783258F00E94713240F039
:1062E00029F45F3F29F00C94683251110C94F2327A
:1062F0000C946E320E94CF3268F39923B1F3552388
:1063000091F3951B550BBB27AA27621773078407C8
:1063100038F09F5F5F4F220F331F441FAA1FA9F35E
:1063200035D00E2E3AF0E0E832D091505040E6954C
:10633000001CCAF72BD0FE2F29D0660F771F881FAD
:10634000BB1F261737074807AB07B0E809F0BB0BA0
:10635000802DBF01FF2793585F4F3AF09E3F5105B4
:1063600078F00C9468320C94F2325F3FE4F3983E7C
:10637000D4F3869577956795B795F7959F5FC9F79D
:10638000880F911D9695879597F90895E1E0660F1E
:10639000771F881FBB1F621773078407BA0720F097
:1063A000621B730B840BBA0BEE1F88F7E095089500
:1063B0000E94D73288F09F5798F0B92F9927B7518C
:1063C000B0F0E1F0660F771F881F991F1AF0BA9599
:1063D000C9F714C0B13091F00E94F132B1E00895D4
:1063E0000C94F132672F782F8827B85F39F0B93FC6
:1063F000CCF3869577956795B395D9F73EF490954C
:106400008095709561957F4F8F4F9F4F0895E894C9
:1064100009C097FB3EF490958095709561957F4FEC
:106420008F4F9F4F9923A9F0F92F96E9BB2793959A
:10643000F695879577956795B795F111F8CFFAF4AA
:10644000BB0F11F460FF1BC06F5F7F4F8F4F9F4FDB
:1064500016C0882311F096E911C0772321F09EE839
:10646000872F762F05C0662371F096E8862F70E09F
:1064700060E02AF09A95660F771F881FDAF7880F79
:106480009695879597F90895990F0008550FAA0BCF
:10649000E0E8FEEF16161706E807F907C0F0121637
:1064A0001306E407F50798F0621B730B840B950B3A
:1064B00039F40A2661F0232B242B252B21F408958F
:1064C0000A2609F4A140A6958FEF811D811D08952C
:1064D00097F99F6780E870E060E008959FEF80EC97
:1064E000089500240A94161617061806090608953A
:1064F00000240A94121613061406050608950C9437
:106500006E320E94D732D8F3E894E0E0BB279F5761
:10651000F0F02AED3FE049EC06C0EE0FBB0F661F1E
:10652000771F881F28F0B23A62077307840728F0A4
:10653000B25A620B730B840BE3959A9572F780380D
:1065400030F49A95BB0F661F771F881FD2F79048CB
:106550000C946733092E0394000C11F4882352F035
:10656000BB0F40F4BF2B11F460FF04C06F5F7F4F7F
:106570008F4F9F4F0895EF93E0FF07C0A2EA2AEDE7
:106580003FE049EC5FEB0E9407310E94AA320F9076
:10659000039401FC9058E0E9F0E40C94733357FD48
:1065A0009058440F551F59F05F3F71F04795880F81
:1065B00097FB991F61F09F3F79F087950895121618
:1065C00013061406551FF2CF4695F1DF08C01616C4
:1065D00017061806991FF1CF869571056105089475
:1065E0000895E894BB2766277727CB0197F908958C
:1065F0000E940B330C94AA320E94713238F00E9430
:10660000783220F0952311F00C9468320C946E329D
:1066100011240C94F2320E94CF3270F3959FC1F393
:10662000950F50E0551F629FF001729FBB27F00D40
:10663000B11D639FAA27F00DB11DAA1F649F662795
:10664000B00DA11D661F829F2227B00DA11D621FE4
:10665000739FB00DA11D621F839FA00D611D221F9E
:10666000749F3327A00D611D231F849F600D211D82
:10667000822F762F6A2F11249F5750409AF0F1F005
:1066800088234AF0EE0FFF1FBB1F661F771F881F6E
:1066900091505040A9F79E3F510580F00C9468320C
:1066A0000C94F2325F3FE4F3983ED4F386957795ED
:1066B0006795B795F795E7959F5FC1F7FE2B880F14
:1066C000911D9695879597F908959F3F31F09150C8
:1066D00020F4879577956795B795880F911D9695C6
:1066E000879597F908959F938F937F936F93FF9367
:1066F000EF939B01AC010E94F832EF91FF910E9451
:1067000087332F913F914F915F910C94F832DF9333
:10671000CF931F930F93FF92EF92DF927B018C0137
:10672000689406C0DA2EEF010E940B33FE01E89454
:10673000A5912591359145915591A6F3EF010E94C0
:106740000731FE019701A801DA9469F7DF90EF9015
:10675000FF900F911F91CF91DF910895991B79E0E0
:1067600004C0991F961708F0961B881F7A95C9F7E1
:1067700080950895FB01DC0102C001900D9241500B
:106780005040D8F70895DC0101C06D93415050404E
:08679000E0F70895F894FFCF33
:106798003423FFFF01FFEEF00141010127C535C495
:02000004008278
:090000000A00000000D0100020ED
:0400000300004000B9
:00000001FF
