:104000000C9457200C9474200C9474200C947420FD
:104010000C9474200C94C5220C9408230C947420E6
:104020000C9466210C9474200C9474200C945823E6
:104030000C9474200C9474200C9474200C947420B0
:104040000C9474200C9474200C9474200C947420A0
:104050000C9474200C94C3240C94E7240C940B252A
:104060000C94AD210C9474200C9474200C94742046
:104070000C9474200C949F210C9474200C94742044
:104080000C9474200C9474200C94ED210C947420E6
:1040900005A84CCDB2D44EB93836A9020C50B9910E
:1040A0008688083CA6AAAA2ABE000000803F1124E8
:1040B0001FBECFEFCDBFDFE7DEBF10E6A0E0B0E66A
:1040C000EEE4FAE602C005900D92A231B107D9F7ED
:1040D0002EE6A2E1B0E601C01D92A43EB207E1F7D0
:1040E0000E94192A0C9425350C940020482F6DE964
:1040F00080E090E10C94D220E0E0F0E182818F78C2
:10410000828308950E947C20109201100895FB0183
:1041100084910895FC01808108951F93CF93DF93CC
:10412000EC01162F83E10E947620188380E0DF9156
:10413000CF911F910C94762080910210869581700A
:104140000895FC0180810895E0E4F9E01082118275
:104150001382128208950C94A42080934409089538
:104160009091400990FD10C0E82FF0E0EE0FFF1F86
:10417000E35FFF4981818093410910924209808168
:104180008093400981E0089580E00895809140097E
:1041900080FF06C08091430985FB882780F9089538
:1041A00080E00895FC0164BF408308950895089558
:1041B00008950895089508950895CF93DF9380E0BA
:1041C00094E029E0FC012083C0E4D4E01882A0E65A
:1041D000B4E020ED2C9340EA54E0FA01108221E093
:1041E000FC0124831C8214961C921497FA011482F9
:1041F000FC01108A118A128A138A148A158A168A77
:10420000178A188A198A1A8A1B8A1C8A1D8A1E8A8A
:104210001F8A50961C92509751961C925197529615
:104220001C92529753961C92539754961C925497F3
:1042300055961C92559756961C92569757961C92D7
:10424000FA01108A118A128A138A148A158A168A28
:10425000178AE0EEF5E01182108284E085831782F0
:10426000108611861682128286ED90E280931E607F
:1042700090931F6088ED90E280931C6090931D6086
:1042800089ED90E280931A6090931B608AED90E232
:1042900080931860909319608BED90E28093166084
:1042A000909317608CED90E280931460909315606A
:1042B00087ED90E28093126090931360DF91CF912D
:1042C000089580931E6090931F6008951F920F922F
:1042D0000FB60F9211242F933F934F935F936F93D9
:1042E0007F938F939F93AF93BF93EF93FF93199B0C
:1042F00005C0E0911E60F0911F600995189B05C0F4
:10430000E0911C60F0911D6009951B9B05C0E09138
:104310001A60F0911B6009958FEF83B9FF91EF91BF
:10432000BF91AF919F918F917F916F915F914F91CD
:104330003F912F910F900FBE0F901F9018951F92D5
:104340000F920FB60F9211248F938FEF8BB98F912D
:104350000F900FBE0F901F9018951F920F920FB6DF
:104360000F9211242F933F934F935F936F937F93FB
:104370008F939F93AF93BF93EF93FF937D9B05C064
:10438000E0911860F091196009957C9B05C0E0915F
:104390001660F091176009957E9B05C0E09114604E
:1043A000F091156009957F9B05C0E0911260F09136
:1043B000136009958FEF8FB9FF91EF91BF91AF9186
:1043C0009F918F917F916F915F914F913F912F912D
:1043D0000F900FBE0F901F9018951F920F920FB65F
:1043E0000F9211248F938FEF87BB8F910F900FBE89
:1043F0000F901F9018954AE068ED80E091E00E94D0
:10440000D22040E868ED81E091E00E94D22080E077
:1044100008950E941F220E94DD200E9482200E9497
:1044200098220E94A4200E9435230E9484230E9487
:10443000FB210C946022462F68ED0C94D22060E0A2
:1044400080E690E00E941B2260E081E690E00E94FE
:104450001B2260E085E690E00E941B2260E088E776
:1044600090E00E941B2264E288E690E00E941B22FA
:1044700060E089E690E00E941B2260E080E790E027
:104480000E941B2260E08CE790E00E941B2260E00B
:1044900082E690E00E941B2260E083E690E00E94AA
:1044A0001B2260E084E690E00E941B2260E080E82E
:1044B00090E00E941B228091650081FFFCCF08954F
:1044C00040E068ED80E191E00E94D220E0E1F1E07F
:1044D0001282138280E00895019708F40895EFE6B0
:1044E000F7E13197F1F700C00000F6CF9C012032D0
:1044F000310588F4AC0125E0569547952A95E1F7FA
:1045000060EE64039001659F300D1124820F931FAC
:10451000019750F40895EFEBF0E03197F1F700C008
:10452000000020523109E3CFF8E0FA95F1F7F0CF1F
:10453000809141018111FCCF8FEF9FE780934C0167
:1045400090934D0110924801109249018FEF9FEF17
:1045500080934A0190934B011092470110924201BF
:1045600010924501809151018111FCCF81E080932F
:1045700052011092550181E18093500180E008952D
:10458000809320609093216008951F920F920FB640
:104590000F9211242F933F934F935F936F937F93C9
:1045A0008F939F93AF93BF93EF93FF9380914201BB
:1045B00080FF0BC08091430180FF07C0E091246021
:1045C000F0912560309709F009958091420181FFB3
:1045D0000BC08091430181FF07C0E0912260F09100
:1045E0002360309709F0099583E080934301FF91A0
:1045F000EF91BF91AF919F918F917F916F915F915B
:104600004F913F912F910F900FBE0F901F901895D3
:104610001F920F920FB60F9211242F933F934F9337
:104620005F936F937F938F939F93AF93BF93EF931A
:10463000FF93E0912060F0912160309709F0099597
:1046400081E080935301FF91EF91BF91AF919F91D2
:104650008F917F916F915F914F913F912F910F902B
:104660000FBE0F901F9018950895E0E0FAE010A695
:1046700011A612A613A614A615A610A211A21182A5
:104680001282138214821582168217821686118670
:1046900080E18287138689EE90E086A397A3178630
:1046A0008FE0808308958093006090930160089567
:1046B0001F920F920FB60F9211242F933F934F9397
:1046C0005F936F937F938F939F93AF93BF93EF937A
:1046D000FF93E0910060F0910160309709F0099537
:1046E00080E180930B0AFF91EF91BF91AF919F9171
:1046F0008F917F916F915F914F913F912F910F908B
:104700000FBE0F901F9018958AE094E28093D76EA9
:104710009093D86E8BE994E28093D96E9093DA6E81
:10472000E0E0F8E080EC90E08087918781ED858380
:1047300080EC868383E0878313861486168615862D
:1047400080EC94E28093E06E9093E16E82EC94E2D0
:104750008093DB6E9093DC6E81EC94E28093E26E4A
:104760009093E36E10922A6010922B601092B166C3
:104770001092B06680E88093DD6E10922E661092E3
:104780002F6610922C6610922D661092DE6E10929B
:10479000DF6E85818068858308952091DE6E30917B
:1047A000DF6E81E0232B09F480E008959091DD6EA7
:1047B00081E0911101C080E00895E0912C66F091B4
:1047C0002D66E45DFB49808120912C6630912D6639
:1047D0002F5F3F4F317020932C6630932D66909160
:1047E00005089F77909305082091DE6E3091DF6E6B
:1047F000232B51F02091DE6E3091DF6E2150310974
:104800002093DE6E3093DF6E909105089068909350
:1048100005080895E0912E66F0912F66EE0FFF1FB8
:10482000E45DFF49108211828091010882FF12C06D
:10483000E0912E66F0912F66EE0FFF1FE45DFF49B9
:10484000808182608083E091E06EF091E16E30972C
:1048500009F009958091010881FF0CC080912A60C0
:10486000816080932A60E091E26EF091E36E309770
:1048700009F009958091010886FF12C0E0912E662B
:10488000F0912F66EE0FFF1FE45DFF498081846089
:104890008083E091DB6EF091DC6E309709F0099532
:1048A0002091000880912E6690912F66019691705C
:1048B00040912C6650912D6648175907A1F0E09160
:1048C0002E66F0912F66E45DFB49208380932E666F
:1048D00090932F668091DE6E9091DF6E01968093AB
:1048E000DE6E9093DF6EE0912660F0912760309746
:1048F00009F0099408959091DD6E9923B1F0E0914B
:10490000B166F0E0E05DF94980838091B1668F5F28
:104910008F778093B166809105088F7D809305081D
:104920008091DD6E81508093DD6E809105088062FC
:104930008093050808958091DD6E87FD1AC0E0918F
:10494000B066F0E0E05DF9498081809302088091D3
:10495000B0668F5F8F778093B0668091DD6E8F5FDA
:104960008093DD6EE0912860F0912960309739F0F6
:104970000994809105088F7D80930508F3CF0895F1
:104980000895089508951F920F920FB60F92112463
:104990002F933F934F935F936F937F938F939F9347
:1049A000AF93BF93EF93FF930E940A24FF91EF917F
:1049B000BF91AF919F918F917F916F915F914F9137
:1049C0003F912F910F900FBE0F901F9018951F923F
:1049D0000F920FB60F9211242F933F934F935F9333
:1049E0006F937F938F939F93AF93BF93EF93FF93B7
:1049F0000E949B24FF91EF91BF91AF919F918F9166
:104A00007F916F915F914F913F912F910F900FBECA
:104A10000F901F9018951F920F920FB60F921124AE
:104A20008F93EF93FF93E0E0F8E0848180648483C8
:104A3000FF91EF918F910F900FBE0F901F901895DF
:104A4000FC01808180937A6A81818093796A828176
:104A500090910460981730F49093036081E0809304
:104A60007B6A089580930360F9CFFC018081809573
:104A70008093026081818093766A8281823008F01F
:104A800080E081708093776A8091776A882341F013
:104A900081E795E20E94532381E080937B6A089529
:104AA00090E080E0F7CF8823C1F080E18093650437
:104AB00000000000000000000000000000000000F6
:104AC0000000809366040000000000000000000069
:104AD0000000000000000000089580E1809365045C
:104AE000ECCF80917D6A882309F180917F6A8823C9
:104AF000E9F08091796A8823C9F080910360882366
:104B0000A9F08091786A8F5F8093786A9091786A33
:104B100080910260981750F01092786A80917A6ABA
:104B20008F5F80937A6A81E080937B6A08951F93F8
:104B3000CF93DF9300D01F92CDB7DEB7162F84300E
:104B400030F481110CC0611111E010937C6A812F47
:104B50002396CDBFDEBFDF91CF911F9108958130A5
:104B600049F4613F08F010EF10937F6A81E0809371
:104B70007B6AEDCF823071F4862F611181E08093E2
:104B80007E6A81E080937B6A111114C080E00E94EC
:104B9000B020DDCF6093046080917A6A8983809130
:104BA000796A8A83809103608B83CE0101960E948B
:104BB0002025CDCF0E94AB2011E0C9CF2F923F928C
:104BC0004F925F926F927F928F929F92AF92BF921D
:104BD000CF92DF92EF92FF920F931F93CF93DF93C9
:104BE000CDB7DEB72A97CDBFDEBF8C0169877A8744
:104BF000FC01618170E090E080E00E946E3321E86A
:104C000030E840E85BE30E945F346B017C01F8010F
:104C1000628170E090E080E00E946E3321E830E82D
:104C200040E85BE30E945F346D837E838F839887C7
:104C3000F801608170E090E080E00E946E3325EB27
:104C400034EB44EB5FE30E945F3420ED3FE049E446
:104C500050E40E945F3420E030E044E353E40E94DB
:104C6000CD32162F072F382E292E2CE73AE046E0BA
:104C700050E40E94C3325801410187FD1EC02BE859
:104C80003AE046E850E4612F702F832D922D0E9468
:104C9000C3322CE73AE046E050E487FD04C02BE83D
:104CA0003AE046E850E4612F702F832D922D0E9448
:104CB0005632B62EA72E982E892E6B2D7A2D892D41
:104CC000982D0E94C8322B013C012B2D3A2D492DE5
:104CD000582D6AE87AE086E89FE30E9456320E94E7
:104CE000C83269837A838B839C8320E030E04FE76E
:104CF00053E4C701B6010E945F342D813E814F818C
:104D000058850E945F3420E030E040E450E40E9487
:104D1000CD324B015C0129813A814B815C81C30119
:104D2000B2010E94CD322B013C0120E030E040E88E
:104D30005FE30E945732A50194010E945F340E94F4
:104D40003F336983A301920160E070E080E89FE354
:104D50000E94563220E030E040E85FE30E94573284
:104D6000A50194010E945F340E943F33B62EA70133
:104D7000960160E070E080E89FE30E94563220E0F8
:104D800030E04FE753E40E945F342D813E814F8134
:104D900058850E945F340E943F33F62E2CE73AE09C
:104DA00046E050E4612F702F832D922D0E94C33274
:104DB00087FF1DC08981E985FA858083B1821282CF
:104DC000F3822A96CDBFDEBFDF91CF911F910F9165
:104DD000FF90EF90DF90CF90BF90AF909F908F901B
:104DE0007F906F905F904F903F902F9008952BE8A9
:104DF0003AE046E850E4612F702F832D922D0E94F7
:104E0000C33287FF07C08981E985FA858183B28231
:104E10001082D6CF8981E985FA858283B08211829A
:104E2000CFCF2F923F924F925F926F927F928F924D
:104E30009F92AF92BF92CF92DF92EF92FF920F9329
:104E40001F93CF93DF93CDB7DEB72997CDBFDEBFDA
:104E50008C0168877987FC01618170E090E080E0D7
:104E60000E946E3321E830E840E85BE30E945F3443
:104E70004B015C01F801628170E090E080E00E94EB
:104E80006E3321E830E840E85BE30E945F346B0159
:104E90007C01F801608170E090E080E00E946E3358
:104EA00025EB34EB44EB5FE30E945F3420ED3FE001
:104EB00049E450E40E945F3420E030E044E353E4EE
:104EC0000E94CD32162F072F382E292E2CE73AE0DC
:104ED00046E050E40E94C33287FDB7C02BE83AE0B9
:104EE00046E850E4612F702F832D922D0E94C3322B
:104EF0002CE73AE046E050E487FD04C02BE83AE0B6
:104F000046E850E4612F702F832D922D0E94563277
:104F100069837A838E839F8369817A818E819F8161
:104F20000E94C8322B013C0129813A814E815F8168
:104F30006AE87AE086E89FE30E9456320E94C8320F
:104F40006A837B838C839D8320E030E04FE753E4CA
:104F5000C701B6010E945F3420E030E040E450E435
:104F60000E94CD326B017C01A3019201C501B40105
:104F70000E945F342A813B814C815D810E94CD3249
:104F800020E030E040E85FE30E945732A70196013D
:104F90000E945F340E943F3369832A813B814C81A8
:104FA0005D81C301B2010E94CD329B01AC0160E082
:104FB00070E080E89FE30E945632A50194010E94B0
:104FC0005F3420E030E040E85FE30E945732A70101
:104FD00096010E945F340E943F33762EA501940112
:104FE00060E070E080E89FE30E945632A7019601DE
:104FF0000E945F340E943F33F62E2CE73AE046E0F1
:1050000050E4612F702F832D922D0E94C33287FFB1
:1050100021C08981E885F98580837182F282299691
:10502000CDBFDEBFDF91CF911F910F91FF90EF9029
:10503000DF90CF90BF90AF909F908F907F906F90B8
:105040005F904F903F902F90089519830A833E827E
:105050002F8262CF2BE83AE046E850E4612F702FB0
:10506000832D922D0E94C33287FF07C08981E88576
:10507000F98581837282F082D2CF8981E885F985B2
:1050800082837082F182CBCFCF93C82F881F88276D
:10509000881F0E945325C6FB882780F90E9453254C
:1050A000C5FB882780F90E945325C4FB882780F917
:1050B0000E945325C3FB882780F90E945325C2FB19
:1050C000882780F90E945325C1FB882780F90E9418
:1050D00053258C2F8170CF910C94532580E18093C0
:1050E00066048CE291E00C947622EF92FF920F938B
:1050F0001F93CF93DF93EC0180917E6A811109C0E9
:1051000006EB16E6CE018A5499497C010E151F055F
:10511000B1F480917E6A813059F40E946E28F8942F
:1051200006EB16E6CA54D9490C171D0791F478947A
:10513000DF91CF911F910F91FF90EF9008950E9402
:10514000C6208823E1F3F80181918F010E94AD20F0
:10515000DDCFF80181918F010E944428E5CF779B34
:1051600007C080E8809366048CE291E00C946C2286
:105170000895779907C080E8809365048CE291E0F8
:105180000C946C2208953F924F925F926F927F929F
:105190008F929F92AF92BF92CF92DF92EF92FF9247
:1051A0000F931F93CF93DF9300D01F92CDB7DEB73D
:1051B000D0907F6ADD2009F4CAC080917D6A88237F
:1051C00009F4C5C084E0D89E70011124C0907A6AA9
:1051D000C9828091796A8A83809103608B831D2DB7
:1051E00012951F701F5F8091776A00917E6A81110E
:1051F0005EC0011136C01092B6661092B76610926A
:10520000B8661092B96684E090E00E94752862EB5F
:1052100076E6CE0101960E9411274091B466309146
:10522000B3662091B266E6EBF6E65FEF508341830A
:10523000328323833496CF01865B96468E159F0575
:10524000A8F3C7010E947528E6EBF6E6812F90E0EF
:105250004FEF9F01265B36462817390730F10E9431
:10526000752880917E6A813009F071C062EB76E624
:10527000CE0101960E94DE255091B5664091B2663E
:105280003091B3662091B466E6EBF6E65083418335
:10529000328323833496CF01865B96468E159F0515
:1052A000A8F3C7010E94752852C04193D2CF6091E4
:1052B000766A70E090E080E00E946E334B015C0102
:1052C0006D2D70E090E080E00E946E339B01AC0198
:1052D000C501B4010E94CD322B013C016C2D70E060
:1052E00090E080E00E946E334B015C01011127C009
:1052F0001092B6661092B7661092B8661092B966B0
:1053000084E090E00E94752886EBC82E86E6D82EB1
:1053100033243A9480917F6A081770F1C7010E9484
:105320007528E6EBF6E6812F90E04FEF9F01265BB4
:1053300036462817390708F442C00E947528809124
:105340007E6A06EB16E6D12C813009F45DC0239607
:10535000CDBFDEBFDF91CF911F910F91FF90EF90F6
:10536000DF90CF90BF90AF909F908F907F906F9085
:105370005F904F903F900895C501B4010E943F3364
:10538000698362EB76E6CE0101960E941127A301A4
:105390009201C501B4010E9457324B015C01F60134
:1053A00030828091B46681838091B36682838091DC
:1053B000B26683830F5FF4E0CF0ED11CABCF419375
:1053C000B5CFC501B4010E943F33698362EB76E635
:1053D000CE0101960E94DE25A3019201C501B40110
:1053E0000E9457324B015C018091B566F8018083C1
:1053F0008091B26681838091B36682838091B46626
:105400008383D3940C5F1F4F80917F6AD816C8F2B4
:1054100048CF80917C6A80937D6A80917C6A8823E2
:1054200031F00E94B92881E080937B6A08950C9442
:10543000AF280E94092278940E94AF2887E995E25C
:105440000E94232B85E395E20E941E2B80E295E2C9
:105450000E94192B0FE91AEE2FEF35E640E064E0C9
:1054600080E00E94073280917B6A882321F01092AD
:105470007B6A0E94C32890917C6A80917D6A981310
:105480000E94092A0E941F31A895EDCF8091826A5F
:105490009091836A01968093826A9093836A809147
:1054A000826A9091836A803E914020F01092826AD5
:1054B0001092836A08951092826A1092836A089506
:1054C000FC01680F791F8FEF91E3E617F70709F4E6
:1054D00008952191822728E030E087FF06C0880FD9
:1054E000892721503109C9F7F0CF880FFACFCF9221
:1054F000DF92EF92FF92642728E06B017C01F69423
:10550000E794D794C7946170772788279927909557
:105510008095709561957F4F8F4F9F4F6072737824
:10552000887B9D7E6C257D258E259F25215029F722
:10553000FF90EF90DF90CF9008958F929F92AF925F
:10554000BF92CF92DF92EF92FF920F931F93CF9370
:10555000DF938B01C42F6C01F12CE12C88248A94F9
:10556000982C5401C016D10648F1D0E008E110E0B3
:105570000E949C208111FCCFC501B401002E04C003
:1055800096958795779567950A94D2F7CE019C5E9C
:105590000E948D20085011092196083F8FEF1807AF
:1055A00039F7DF91CF911F910F91FF90EF90DF902E
:1055B000CF90BF90AF909F908F900895C701B60194
:1055C0000E948720482FC501B4010E94772A4B0111
:1055D0005C018FEFC81AD80AE80AF80AC3CF982FDF
:1055E00080910960891759F080910860981302C072
:1055F000911105C081E09F3F19F080E0089581E09E
:105600000895882361F0813061F0803F61F09FE070
:10561000980F9E3050F08F3F51F081E0089580E068
:10562000089582E0089584E0089583E0089585E078
:1056300008958093A56E9093A66E08958093A76EAB
:105640009093A86E08958093A36E9093A46E08958E
:10565000CF92DF92EF92FF921F93CF93DF93CDB75C
:10566000DEB7142FCDB6DEB6443478F020E043E444
:10567000612F82E50E947D2B8091D46E8F3F19F0BF
:105680008F5F8093D46E80E02BC095E0940F492FFC
:1056900050E0EDB7FEB7E41BF50BEDBFFEBF319652
:1056A0007F01EDB7FEB7918390910960F701918377
:1056B00082836383922FADB7BEB71596F9018E2F03
:1056C000891B8117B8F0BA0162507109C7010E94A5
:1056D000602AF701E10FF11D8483C7010E94832C2A
:1056E000CDBEDEBEDF91CF911F91FF90EF90DF9096
:1056F000CF90089581918D93E2CFEF92FF920F9317
:105700001F93CF93DF9300D000D0CDB7DEB7182F13
:10571000E62EF42E022FE091CC6EF091CD6E3097F4
:1057200009F009958091CB6E882371F0113561F0F5
:105730001983EA82FB820C839E012F5F3F4F44E076
:1057400068EE80E00E94282B2496CDBFDEBFDF915B
:10575000CF911F910F91FF90EF900895EEECFEE630
:10576000108211821282138214821582168217828D
:1057700020E040E060E083E80C947D2BCF93682F1D
:1057800040910760841740F020E08BE30E947D2B5E
:10579000C0E08C2FCF910895E82FF0E0EB54F24950
:1057A000C08120E04C2F87E30E947D2BF2CFEF9247
:1057B000FF921F93CF93DF93C82F162F809107601E
:1057C000C81768F020E0482F6C2F8BE30E947D2BD8
:1057D00080E0DF91CF911F91FF90EF9008958C2F83
:1057E00090E09C012B5432497901411104C0F90128
:1057F00080818617D9F0E091A36EF091A46ED12F2D
:10580000309761F0612F8C2F0995D82F181731F040
:10581000282F412F6C2F8AE30E947D2B20E04D2FF3
:105820006C2F89E30E947D2BF701D08381E0D1CFDB
:10583000CF9320E040E06091076084E30E947D2BDD
:10584000C0E080910760C81710F0CF91089541E043
:1058500060E08C2F0E94D72BCF5FF3CFCF93C0E0B7
:1058600080910760C81788F00E949C208111FCCFAE
:1058700062E48FEF94E10E948D2020E040E060918F
:10588000076085E3CF910C947D2B0E949C208111B1
:10589000FCCF8C2F90E0FC01EB54F24960819C5EC0
:1058A0000E948D20CF5FDCCFCF938FEF94E10E94D9
:1058B0008A2020E0823451F042E4682F83E30E9482
:1058C0007D2B0E94182CCF910C942E2C40E06091DF
:1058D000076082E30E947D2BC0E080910760C817BB
:1058E00010F0CF9108950E949C208111FCCF8C2F45
:1058F00090E09C5E0E948A2041E0682F8C2F0E94DD
:10590000D72BCF5FEACF30E020E0F901EC57F54923
:1059100040814F3F71F4DC014C9150E0240F351F62
:105920002B3D324068F4BC01CF010E94153581E067
:1059300008952A3D52E0350770F7240F311DE5CF59
:1059400020E040E060E081E50E947D2B8091D56EF3
:105950008F3F19F08F5F8093D56E80E008950F938D
:105960001F93CF93DF931F92CDB7DEB790EF980FC1
:105970009F3EA0F190910660981781F1182F8093B7
:105980000660662349F089839E012F5F3F4F41E007
:105990006DEE8FEF0E94282B8091B16D9091B26DCA
:1059A000892BE1F08091B36D8823F1F01031E0F4A0
:1059B000012F819F000D11244091B46D040F802FA1
:1059C0000E94BE2B61E0811101C060E041E0400F08
:1059D000E091B16DF091B26D812F09950F90DF913B
:1059E000CF911F910F9108950FEFEFCF0F931F935A
:1059F000CF93DF93CDB7DEB76497CDBFDEBF182F4F
:105A0000062F80910B60898380910A608A83809140
:105A100008608B838091D66E91E089278C838FEE0E
:105A200094E10E948A208D8380EF94E10E948A2075
:105A30008E8381EF94E10E948A208F8382EF94E12C
:105A40000E948A20888783EF94E10E948A208987B8
:105A500084EF94E10E948A208A8785EF94E10E9476
:105A60008A208B8786EF94E10E948A208C8787EFBB
:105A700094E10E948A208D8788EF94E10E948A2019
:105A80008E8789EF94E10E948A208F878AEF94E1C4
:105A90000E948A20888B8BEF94E10E948A20898B58
:105AA0008CEF94E10E948A208A8B8DEF94E10E9412
:105AB0008A208B8B8EEF94E10E948A208C8B9E0132
:105AC0002F5F3F4F44E1602F812F0E94282B649667
:105AD000CDBFDEBFDF91CF911F910F9108957F92CF
:105AE0008F929F92AF92BF92CF92DF92EF92FF92EE
:105AF0000F931F93CF93DF93CDB7DEB72897CDBF1A
:105B0000DEBFFC01ADB6BEB6E080118182800381AC
:105B10008BEFF82EFE0C8DB79EB78F1991098DBFB4
:105B20009EBF01966C013496982FD6018A2F891B4F
:105B30008F1570F0812F0E94012B8150823058F018
:105B400020E0412F602F81E60E947D2B11E0E8C00C
:105B500081918D93EBCF0F3F39F5F11007C041E0F4
:105B600068ED81E490E00E94D220FFCF92E0F9122C
:105B700016C0F601908181819F3F21F020910B603A
:105B80002913E4CF8F3F21F090910A609813DECF64
:105B900041E068ED81E490E00E94D220FFCF2F2DFC
:105BA00042E06FEF80E6D0CF013F51F420E040E0CB
:105BB00060E083E50E947D2B81E080930560C6CF85
:105BC000003F49F420E040E060E084E50E947D2B46
:105BD00010920560BBCF0D3E61F4F1E02F2D41E046
:105BE0006DEEFF12DFCF60E0F60180810E94AF2CE6
:105BF000ADCF0C3EF9F481E080930C60E091C96E6A
:105C0000F091CA6E81E090E0309701F58BE2800F51
:105C1000823008F0F2C0F1E02F2D42E0602FFF1536
:105C200008F69090D66E992009F491C020E040E0EB
:105C300082E68ACF0B3E61F410920C60E091C96E4F
:105C4000F091CA6E309711F390E080E00995DECFB5
:105C50000A3E09F068C120E040E060E081E80E946F
:105C60007D2B81E08093CB6E71CF073E19F40E94AB
:105C7000AE2B6CCF053E09F58091CE6E8983809165
:105C8000CF6E8A838091D06E8B838091D16E8C830E
:105C90008091D26E8D838091D36E8E838091D46EED
:105CA0008F838091D56E88879E012F5F3F4F48E09C
:105CB00066EE812F0E94282B49CF033E29F430E065
:105CC00020E040E064EEF5CF003E29F461EE812F44
:105CD0000E94F62C3BCF0F3D51F41091D66E20E080
:105CE00040E06FED111119C00E94182C2FCF0E3D0E
:105CF00051F41091D66E20E040E06EED11110DC010
:105D00000E942E2C23CF0D3D09F080CF1091D66E2E
:105D10001123D1F020E040E06DED82E60E947D2B62
:105D2000812FADBEBEBE2896CDBFDEBFDF91CF9125
:105D30001F910F91FF90EF90DF90CF90BF90AF90A9
:105D40009F908F907F9008950E94542CFFCE2FEF4C
:105D5000821204C020E040E083E6F6CEF601F08037
:105D60008F2D90E0FAEFEF0EF98220910760422F1D
:105D700050E0F21670F04E2D6F2D8BE30E947D2BBC
:105D80009E012F5F3F4F41E0053D09F0DFCE68EDFA
:105D900090CF2E1520F44E2D6F2D8CE3EFCF8E0D6E
:105DA000911D4817590720F44E2D6F2D8DE3E6CF36
:105DB00020E04E2D6F2D88E30E947D2B2FEFC21A1D
:105DC000D20A812C77247394F60161916F0140E02F
:105DD0008F2D880D0E94D72B8725982A83948E14A7
:105DE00098F3053D09F0B2CE9E012F5F3F4F41E091
:105DF00067ED992009F45DCFCACF003D09F06BC073
:105E00008DB69EB6F2E0FF1649F02F2D42E060ED10
:105E100080E60E947D2B8DBE9EBE98CE8091D66E70
:105E2000882329F020E040E060ED82E6F2CFF60121
:105E30000081E02EF12C718020910760422F50E00C
:105E4000021770F020E0472D602F8BE30E947D2B1E
:105E500030E020E040E061ED812F0E94282BDBCF75
:105E6000271520F4472D602F8CE3F0CFF2E4F715CF
:105E700010F422E4F7CFC72CD12CC6018E0D9F1D44
:105E80004817590720F4472D602F8DE3DFCF20E01E
:105E9000472D602F86E30E947D2B2FEFC21AD20A76
:105EA0008DB79EB78C199D098DBF9EBF2DB73EB78C
:105EB0002F5F3F4FEDB7FEB70183F701EB54F24977
:105EC000D901119680E041E0480F871521F28191B8
:105ED0008D93842FF8CF013B99F4F3E02F2D43E00D
:105EE00061EBFF125FCEE091A76EF091A86E309744
:105EF00011F0C601099511E0002309F411CF11C07A
:105F0000003BC9F723E0F21621F02F2D43E060EBB0
:105F100049CEE091A56EF091A66E309711F0C601C2
:105F2000099510E0FDCE093E09F09FCE20E040E04B
:105F300060E082E80E947D2B1092CB6E07CEE0914C
:105F4000646DF091656D309779F480916A6D0E946F
:105F5000EF2A81110FC0E091626DF091636D30976F
:105F600029F188E69DE6099488E69DE6099588234F
:105F700061F3F1CFE091606DF091616D309781F444
:105F800088E69DE60E946F2D8111E5CFE0915E6D60
:105F9000F0915F6D3097F9F288E69DE60995DBCFC9
:105FA00088E69DE609958111D6CFEACF08951F9323
:105FB000CF93DF93D2E0C1E00E94CD23811104C0D2
:105FC000DF91CF911F9108950E94DD23823419F44F
:105FD000C093666DF1CF9091666D9923D1F01092C8
:105FE000666D893919F4C093B06DE6CF863681F0BD
:105FF0001092B06D20E040E060E081E40E947D2BD3
:106000008091CF6E8F3FC1F28F5F8093CF6ED4CFE0
:1060100082E49091B06D91110EC020E040E060E00C
:1060200082E40E947D2B8091D06E8F3F29F28F5F9A
:106030008093D06EC1CF9130E1F42BEF280F243440
:1060400038F48093686D9093676DD093B06DB4CF42
:106050001092B06D20E048E4682F83E40E947D2B0D
:106060008091D16E8F3F09F4A7CF8F5F8093D16E5F
:10607000A3CF923009F0A0CF9091676D2091686D09
:10608000921740F4E92FF0E0E859F24980839F5FCE
:106090009093676D6091686D8091676D68138CCF88
:1060A0001092B06D70E0FB01E959F2491081625025
:1060B000710988E69DE60E94602A181779F020E0B1
:1060C000482F612F84E40E947D2B8091D26E8F3FF8
:1060D00009F472CF8F5F8093D26E6ECF8091CE6EB7
:1060E0008F3F19F08F5F8093CE6E0E949F2F64CFF9
:1060F0000F931F93CF93DF93C82FD0E00AED12E0E8
:106100000C1B1D0BBE016C577549A80184E89AE66B
:106110000E941535AE016FEF70E0C8018C579549AC
:10612000DF91CF911F910F910C941E35EF92FF924A
:106130000F931F93CF93DF93CDB7DEB7C854D10928
:10614000CDBFDEBF0091846A0F3F69F410E0812F5C
:10615000C85BDF4FCDBFDEBFDF91CF911F910F91A5
:10616000FF90EF900895402F50E064E87AE6CE016A
:1061700001960E94153580910560882339F380913E
:10618000D36E8F3F19F08F5F8093D36E802F0E9464
:106190007830E091806AF091816A309751F0CE01B9
:1061A00001960995182F882321F0802F0E947830BE
:1061B000CECF8C81895F8430C8F40E94D623882397
:1061C000E1F382E40E947B240E94D623182F8823C7
:1061D000D9F389E90E947B2400E08981081798F0AF
:1061E0001092826A1092836AB2CFA8952091826A37
:1061F0003091836A8091096090E0880F991F82171F
:10620000930799F7DACF0E94D6238823E1F3EE248F
:10621000E394F12CEC0EFD1EE00EF11CF7018081E1
:106220000E947B24F7018081823439F40E94D623B6
:106230008823E1F386E60E947B240F5FCECF0E9485
:10624000D72F0E9496308111FCCF0895693000F15C
:106250001092B36D60E0982F2FE0629F900D112493
:10626000692F615F6F3EB8F0109207601092B46DB5
:106270001092B36D20E04EEE81E30E947D2B20E072
:1062800040E06091076080E30E947D2B0C94542CC9
:106290006093B36DE0CF609307608093B46DEFCFF0
:1062A0000F931F93CF93DF9309EA1EE6C0E8D0E176
:1062B000CE010E94A120F80181938F012196C03A5E
:1062C000F0E1DF07A9F76091A96E8FEF860F8E3F8F
:1062D00008F453C081E080930B6020E040E085E249
:1062E0000E947D2B20E040E060910B6084E20E94E0
:1062F0007D2B6091AA6E8FEB860F8A3108F440C027
:1063000081E480930A6020E040E087E20E947D2BD8
:1063100020E040E060910A6086E20E947D2B60915F
:10632000AB6E8FEF860F803F70F181E08093096044
:1063300020E040E081E20E947D2B20E040E060917F
:10634000096080E20E947D2B6091AC6E662351F063
:106350008FE0860F8E3030F020E040E083E20E9434
:106360007D2B60EF6093086020E040E082E2DF91E7
:10637000CF911F910F910C947D2B60930B60B2CF46
:1063800060930A60C5CF60930960D7CFCF92DF9248
:10639000EF92FF920F931F93CF93DF936B017C01DA
:1063A0008091D66EC7EF8111CFEED0E008E110E00A
:1063B0000E949C208111FCCFC701B601002E04C0B1
:1063C00096958795779567950A94D2F7CE019C5E4E
:1063D0000E948D20085011092196083F8FEF180761
:1063E00039F743EF60E070E490E080E00E949D2A7E
:1063F0004BEF6FEF7FEF80E090E4DF91CF911F9143
:106400000F91FF90EF90DF90CF900C949D2ABF9258
:10641000CF92DF92EF92FF920F931F93CF93DF9370
:10642000B82EC62FD42F79014AED52E06FEF70E0FD
:1064300084E89AE60E941E35B092D66E20E040E0D5
:1064400060E080E10E947D2B0E9450316D2F8C2FE7
:106450000E942631C701B8010E94C63186E49AE243
:106460000E94C0228BE59AE20E946121E0E0F4E004
:106470008189887F8360818B8091096090E0880F9B
:10648000991F0E946C2262EE80E00E94F62C20E0B0
:1064900040E060E081E1DF91CF911F910F91FF908B
:1064A000EF90DF90CF90BF900C947D2B5058BB277E
:1064B000AA270E946E320C9411340E94D83338F00F
:1064C0000E94DF3320F039F49F3F19F426F40C9436
:1064D000D5330EF4E095E7FB0C94CF33E92F0E94FF
:1064E000363458F3BA17620773078407950720F00C
:1064F00079F4A6F50C9458340EF4E0950B2EBA2FCF
:10650000A02D0B01B90190010C01CA01A0011124B9
:10651000FF27591B99F0593F50F4503E68F11A1665
:10652000F040A22F232F342F4427585FF3CF4695F6
:1065300037952795A795F0405395C9F77EF41F1618
:10654000BA0B620B730B840BBAF09150A1F0FF0FE2
:10655000BB1F661F771F881FC2F70EC0BA0F621FCE
:10656000731F841F48F4879577956795B795F795BE
:106570009E3F08F0B0CF9395880F08F09927EE0F53
:106580009795879508950E94AB3308F481E00895AC
:106590000E94E833E3950C9422340E94E1320C947B
:1065A00011340E94DF3358F00E94D83340F029F4B0
:1065B0005F3F29F00C94CF3351110C9459340C9453
:1065C000D5330E94363468F39923B1F3552391F300
:1065D000951B550BBB27AA2762177307840738F052
:1065E0009F5F5F4F220F331F441FAA1FA9F335D0AF
:1065F0000E2E3AF0E0E832D091505040E695001C63
:10660000CAF72BD0FE2F29D0660F771F881FBB1F1C
:10661000261737074807AB07B0E809F0BB0B802DFA
:10662000BF01FF2793585F4F3AF09E3F510578F026
:106630000C94CF330C9459345F3FE4F3983ED4F379
:10664000869577956795B795F7959F5FC9F7880FFA
:10665000911D9695879597F90895E1E0660F771F4C
:10666000881FBB1F621773078407BA0720F0621BDD
:10667000730B840BBA0BEE1F88F7E09508950E9408
:106680003E3488F09F5798F0B92F9927B751B0F052
:10669000E1F0660F771F881F991F1AF0BA95C9F7A6
:1066A00014C0B13091F00E945834B1E008950C94B8
:1066B0005834672F782F8827B85F39F0B93FCCF36B
:1066C000869577956795B395D9F73EF49095809523
:1066D000709561957F4F8F4F9F4F0895E89409C043
:1066E00097FB3EF490958095709561957F4F8F4F05
:1066F0009F4F9923A9F0F92F96E9BB279395F6951B
:10670000879577956795B795F111F8CFFAF4BB0F98
:1067100011F460FF1BC06F5F7F4F8F4F9F4F16C0FC
:10672000882311F096E911C0772321F09EE8872F86
:10673000762F05C0662371F096E8862F70E060E042
:106740002AF09A95660F771F881FDAF7880F9695BB
:10675000879597F90895990F0008550FAA0BE0E85F
:10676000FEEF16161706E807F907C0F01216130613
:10677000E407F50798F0621B730B840B950B39F453
:106780000A2661F0232B242B252B21F408950A26B9
:1067900009F4A140A6958FEF811D811D089597F9F9
:1067A0009F6780E870E060E008959FEF80EC0895B7
:1067B00000240A94161617061806090608950024E0
:1067C0000A94121613061406050608950C94D53380
:1067D0000E943E34D8F3E894E0E0BB279F57F0F0E6
:1067E0002AED3FE049EC06C0EE0FBB0F661F771F96
:1067F000881F28F0B23A62077307840728F0B25A5C
:10680000620B730B840BE3959A9572F7803830F422
:106810009A95BB0F661F771F881FD2F790480C947C
:10682000CE34092E0394000C11F4882352F0BB0FD0
:1068300040F4BF2B11F460FF04C06F5F7F4F8F4F98
:106840009F4F0895EF93E0FF07C0A2EA2AED3FE0D3
:1068500049EC5FEB0E946E320E9411340F9003945A
:1068600001FC9058E0E9F0E40C94DA3457FD9058BC
:10687000440F551F59F05F3F71F04795880F97FB04
:10688000991F61F09F3F79F08795089512161306BE
:106890001406551FF2CF4695F1DF08C016161706ED
:1068A0001806991FF1CF8695710561050894089522
:1068B000E894BB2766277727CB0197F908950E94B4
:1068C00072340C9411340E94D83338F00E94DF33B4
:1068D00020F0952311F00C94CF330C94D533112470
:1068E0000C9459340E94363470F3959FC1F3950F80
:1068F00050E0551F629FF001729FBB27F00DB11D44
:10690000639FAA27F00DB11DAA1F649F6627B00DD3
:10691000A11D661F829F2227B00DA11D621F739FBC
:10692000B00DA11D621F839FA00D611D221F749FCA
:106930003327A00D611D231F849F600D211D822F11
:10694000762F6A2F11249F5750409AF0F1F0882338
:106950004AF0EE0FFF1FBB1F661F771F881F915065
:106960005040A9F79E3F510580F00C94CF330C9412
:1069700059345F3FE4F3983ED4F386957795679555
:10698000B795F795E7959F5FC1F7FE2B880F911D8F
:106990009695879597F908959F3F31F0915020F48F
:1069A000879577956795B795880F911D96958795EB
:1069B00097F908959F938F937F936F93FF93EF932E
:1069C0009B01AC010E945F34EF91FF910E94EE3475
:1069D0002F913F914F915F910C945F34DF93CF9350
:1069E0001F930F93FF92EF92DF927B018C016894CB
:1069F00006C0DA2EEF010E947234FE01E894A591E0
:106A00002591359145915591A6F3EF010E946E3283
:106A1000FE019701A801DA9469F7DF90EF90FF90EB
:106A20000F911F91CF91DF910895FB01DC0102C00E
:106A300001900D9241505040D8F70895DC0101C0FB
:0E6A40006D9341505040E0F70895F894FFCF59
:106A4E003423FFFFFF01FFEEF00141010127C535A1
:026A5E00C40072
:02000004008278
:090000000A00000000D0100020ED
:0400000300004000B9
:00000001FF
