:104000000C9448200C9465200C9465200C94652039
:104010000C9465200C94CF220C9412230C946520F0
:104020000C943A210C9465200C9465200C94482D36
:104030000C9465200C9465200C9465200C946520EC
:104040000C9465200C9465200C9465200C946520DC
:104050000C9465200C947D240C94A1240C94C5240C
:104060000C9481210C9465200C9465200C9465209F
:104070000C9465200C9473210C9465200C9465209D
:104080000C9465200C9465200C94B3210C9465204D
:1040900011241FBECFEFCDBFDFE7DEBF10E6A0E0EB
:1040A000B0E6E0E5FBE502C005900D92AC30B1074B
:1040B000D9F72BE6ACE0B0E601C01D92A131B20702
:1040C000E1F70E945E220C94A62D0C940020462F4E
:1040D00068ED0C94C12160E080E690E00E946720CA
:1040E00060E081E690E00E94672060E085E690E075
:1040F0000E94672060E088E790E00E94672064E209
:1041000088E690E00E94672060E089E690E00E94E7
:10411000672060E080E790E00E94672060E08CE725
:1041200090E00E94672060E082E690E00E946720B5
:1041300060E083E690E00E94672060E084E690E023
:104140000E94672060E080E890E00E9467208091F4
:10415000650081FFFCCF089540E068ED80E191E0CB
:104160000E94C121E0E1F1E01282138280E0089513
:1041700008950895089508950895CF93DF9380E0FA
:1041800094E029E0FC012083C0E4D4E01882A0E69A
:10419000B4E020E42C9340EA54E0FA01108221E0DC
:1041A000FC0124831C8214961C921497FA01148239
:1041B000FC01108A118A128A138A148A158A168AB7
:1041C000178A188A198A1A8A1B8A1C8A1D8A1E8ACB
:1041D0001F8A50961C92509751961C925197529656
:1041E0001C92529753961C92539754961C92549734
:1041F00055961C92559756961C92569788E057965E
:104200008C93FA01108A118A128A138A148A158AE9
:10421000168A178AE0EEF5E0118210821582178265
:10422000108611861682128288EB90E280931460C9
:10423000909315608AEB90E28093126090931360E4
:104240008BEB90E280931060909311608CEB90E286
:1042500080930E6090930F6089EB90E280930C60E6
:1042600090930D60DF91CF910895809314609093A7
:10427000156008951F920F920FB60F9211242F937D
:104280003F934F935F936F937F938F939F93AF93DE
:10429000BF93EF93FF93199B05C0E0911460F091D9
:1042A00015600995189B05C0E0911260F0911360AC
:1042B00009951B9B05C0E0911060F0911160099574
:1042C0008FEF83B9FF91EF91BF91AF919F918F9144
:1042D0007F916F915F914F913F912F910F900FBE02
:1042E0000F901F9018951F920F920FB60F921124E6
:1042F0008F938FEF8BB98F910F900FBE0F901F9000
:1043000018951F920F920FB60F9211242F933F937F
:104310004F935F936F937F938F939F93AF93BF93CD
:10432000EF93FF937F9B05C0E0910E60F0910F60CB
:1043300009957E9B05C0E0910C60F0910D60099598
:104340008FEF8FB9FF91EF91BF91AF919F918F91B7
:104350007F916F915F914F913F912F910F900FBE81
:104360000F901F9018951F920F920FB60F92112465
:104370008F938FEF87BB8F910F900FBE0F901F9081
:104380001895FC0164BF408308954AE068ED80E021
:1043900091E00E94C12140E868ED81E091E00E9437
:1043A000C12180E008950E946B200E94BD200E94E0
:1043B000E6240E949F220E94252D0E943E230E94F7
:1043C000C5210C94AC2080910060823021F480E4FF
:1043D000809366040895811104C080E4809365048D
:1043E00008958130B9F780911E60882381F3F5CF5D
:1043F00080930160813019F48093006004C08111C2
:1044000004C0109200600C94E32182E0F5CF0E947A
:10441000EF25811104C081E080930160089510921E
:1044200001600895CF938091196090911A60A091D6
:104430001B60B0911C600196A11DB11D8093196095
:1044400090931A60A0931B60B0931C6060911960F8
:1044500070911A6080911B6090911C6024E630E09E
:1044600040E050E00E94742D672B682B692B19F4F3
:1044700081E080931D608EB1C0911760CC0F809554
:10448000881F8827881FC82BC0931760CF70809122
:104490001660811109C0CF3039F481E08093166035
:1044A000809318600E94072280911660882321F073
:1044B000C11102C010921660CF9108950E94D321BD
:1044C000789483EE91E20E942C2588EF91E20E947D
:1044D000EA2507E112E824EF35E640E060E080E0FD
:1044E0000E94D52C0E94E32182E192E20E94432D9A
:1044F000C1E080911D60882349F010921D60809179
:104500001E608C2780931E600E94E32180911860BA
:10451000882331F01092186060E081E00E94C72C7F
:104520000E94EF2590910160891729F08091016028
:1045300061E00E9491270E94DF2BA895DACF80913D
:1045400041018111FCCF8FEF9FE780934C01909345
:104550004D0110924801109249018FEF9FEF809317
:104560004A0190934B011092470110924201109220
:10457000450181E080934001809151018111FCCF80
:1045800081E0809352011092550181E180935001A6
:1045900080E0089580931F609093206008951F929B
:1045A0000F920FB60F9211242F933F934F935F9367
:1045B0006F937F938F939F93AF93BF93EF93FF93EB
:1045C0008091420180FF0BC08091430180FF07C0B2
:1045D000E0912360F0912460309709F00995809173
:1045E000420181FF0BC08091430181FF07C0E09130
:1045F0002160F0912260309709F0099583E0809363
:104600004301FF91EF91BF91AF919F918F917F9166
:104610006F915F914F913F912F910F900FBE0F902F
:104620001F9018951F920F920FB60F9211242F937F
:104630003F934F935F936F937F938F939F93AF932A
:10464000BF93EF93FF93E0911F60F091206030974C
:1046500009F0099581E080935301FF91EF91BF919B
:10466000AF919F918F917F916F915F914F913F910A
:104670002F910F900FBE0F901F90189584EC93E22E
:104680008093046B9093056B85E594E28093066BB1
:104690009093076BE0E0F8E080EC90E080879187F2
:1046A00081ED858380EC868383E08783138614867F
:1046B000168615868AE794E280930D6B90930E6BB5
:1046C0008CE794E28093086B9093096B8BE794E2FC
:1046D00080930F6B9093106B1092296010922A6058
:1046E0001092B0661092AF6680E880930A6B1092C9
:1046F0002D6610922E6610922B6610922C661092E8
:104700000B6B10920C6B85818068858308952091D6
:104710000B6B30910C6B81E0232B09F480E0089542
:1047200090910A6B81E0911101C080E00895E091C1
:104730002B66F0912C66E55DFB49808120912B660C
:1047400030912C662F5F3F4F317020932B66309352
:104750002C66909105089F779093050820910B6B2C
:1047600030910C6B232B51F020910B6B30910C6B23
:104770002150310920930B6B30930C6B90910508FD
:104780009068909305080895E0912D66F0912E664B
:10479000EE0FFF1FE55DFF49108211828091010835
:1047A00082FF12C0E0912D66F0912E66EE0FFF1F82
:1047B000E55DFF49808182608083E0910D6BF0911F
:1047C0000E6B309709F009958091010881FF0CC0AC
:1047D00080912960816080932960E0910F6BF09156
:1047E000106B309709F009958091010886FF12C07F
:1047F000E0912D66F0912E66EE0FFF1FE55DFF49FB
:10480000808184608083E091086BF091096B309720
:1048100009F009952091000880912D6690912E66EF
:104820000196917040912B6650912C66481759075C
:10483000A1F0E0912D66F0912E66E55DFB492083A5
:1048400080932D6690932E6680910B6B90910C6BEC
:10485000019680930B6B90930C6BE0912560F09127
:104860002660309709F00994089590910A6B992376
:10487000B1F0E091B066F0E0E15DF94980838091AC
:10488000B0668F5F8F778093B066809105088F7DCB
:104890008093050880910A6B815080930A6B809108
:1048A0000508806280930508089580910A6B87FD52
:1048B0001AC0E091AF66F0E0E15DF9498081809334
:1048C00002088091AF668F5F8F778093AF6680918B
:1048D0000A6B8F5F80930A6BE0912760F0912860EC
:1048E000309739F00994809105088F7D80930508F1
:1048F000F3CF08950895089508951F920F920FB66B
:104900000F9211242F933F934F935F936F937F9355
:104910008F939F93AF93BF93EF93FF930E94C42312
:10492000FF91EF91BF91AF919F918F917F916F9187
:104930005F914F913F912F910F900FBE0F901F905D
:1049400018951F920F920FB60F9211242F933F9339
:104950004F935F936F937F938F939F93AF93BF9387
:10496000EF93FF930E945524FF91EF91BF91AF9178
:104970009F918F917F916F915F914F913F912F9177
:104980000F900FBE0F901F9018951F920F920FB6A9
:104990000F9211248F93EF93FF93E0E0F8E084816E
:1049A00080648483FF91EF918F910F900FBE0F90E1
:1049B0001F901895482F6DE980E090E10C94C1217B
:1049C000E0E0F0E182818F78828308950E94E02404
:1049D000109201100895FB0184910895FC018081DB
:1049E00008951F93CF93DF93EC01162F83E10E946C
:1049F000DA24188380E0DF91CF911F910C94DA24A0
:104A000080910210869581700895FC01808108953F
:104A1000019708F40895EFE6F7E13197F1F700C048
:104A20000000F6CF8091B3669091B46601968093B2
:104A3000B3669093B4668091B3669091B466803EFD
:104A4000914020F01092B3661092B46608951092CF
:104A5000B3661092B46608958093F66A9093F76AED
:104A60000895FC01680F791F8FEF91E3E617F707B0
:104A700009F408952191822728E030E087FF06C0DD
:104A8000880F892721503109C9F7F0CF880FFACF55
:104A9000CF92DF92EF92FF92642728E06B017C01B6
:104AA000F694E794D794C79461707727882799275D
:104AB00090958095709561957F4F8F4F9F4F607255
:104AC0007378887B9D7E6C257D258E259F252150C2
:104AD00029F7FF90EF90DF90CF9008958F929F92EB
:104AE000AF92BF92CF92DF92EF92FF920F931F93FC
:104AF000CF93DF938B01C42F6C01F12CE12C882420
:104B00008A94982C5401C016D10648F1D0E008E1EF
:104B100010E00E9400258111FCCFC501B401002ED8
:104B200004C096958795779567950A94D2F7CE013C
:104B30009C5E0E94F124085011092196083F8FEFD6
:104B4000180739F7DF91CF911F910F91FF90EF90E8
:104B5000DF90CF90BF90AF909F908F900895C70146
:104B6000B6010E94EB24482FC501B4010E944825DC
:104B70004B015C018FEFC81AD80AE80AF80AC3CFC4
:104B8000982F80910660891759F0809105609813DD
:104B900002C0911105C081E09F3F19F080E00895A7
:104BA00081E00895882361F0813061F0803F61F0F9
:104BB0009FE0980F9E3050F08F3F51F081E00895B4
:104BC00080E0089582E0089584E0089583E00895E8
:104BD00085E008958093E2699093E3690895809158
:104BE00003600895CF92DF92EF92FF921F93CF93CD
:104BF000DF93CDB7DEB7142FCDB6DEB6443478F0F0
:104C000020E043E4612F82E50E9447268091016BFA
:104C10008F3F19F08F5F8093016B80E02BC095E090
:104C2000940F492F50E0EDB7FEB7E41BF50BEDBF35
:104C3000FEBF31967F01EDB7FEB79183909106607C
:104C4000F701918382836383922FADB7BEB7159628
:104C5000F9018E2F891B8117B8F0BA0162507109D2
:104C6000C7010E943125F701E10FF11D8483C701BF
:104C70000E944D27CDBEDEBEDF91CF911F91FF90E8
:104C8000EF90DF90CF90089581918D93E2CFEF92D6
:104C9000FF920F931F93CF93DF9300D000D0CDB737
:104CA000DEB7182FE62EF42E022FE091F96AF0916C
:104CB000FA6A309709F009958091F86A882371F0B3
:104CC000113561F01983EA82FB820C839E012F5F0C
:104CD0003F4F44E068EE80E00E94F2252496CDBF6D
:104CE000DEBFDF91CF911F910F91FF90EF9008955C
:104CF000EBEFFAE61082118212821382148215827F
:104D00001682178220E040E060E083E80C9447269A
:104D1000CF93682F40910460841740F020E08BE32C
:104D20000E944726C0E08C2FCF910895E82FF0E035
:104D3000EA51F649C08120E04C2F87E30E944726C4
:104D4000F2CFEF92FF921F93CF93DF93C82F162FCE
:104D500080910460C81768F020E0482F6C2F8BE327
:104D60000E94472680E0DF91CF911F91FF90EF9046
:104D700008958C2F90E09C012A5136497901411108
:104D800004C0F90180818617D9F0E091D46AF091CE
:104D9000D56AD12F309761F0612F8C2F0995D82FCC
:104DA000181731F0282F412F6C2F8AE30E944726D5
:104DB00020E04D2F6C2F89E30E944726F701D08316
:104DC00081E0D1CFCF9320E040E06091046084E3A4
:104DD0000E944726C0E080910460C81710F0CF9170
:104DE000089541E060E08C2F0E94A126CF5FF3CFB1
:104DF000CF93C0E080910460C81788F00E9400251E
:104E00008111FCCF62E48FEF94E10E94F12420E055
:104E100040E06091046085E3CF910C9447260E94A6
:104E200000258111FCCF8C2F90E0FC01EA51F6495E
:104E300060819C5E0E94F124CF5FDCCFCF938FEF27
:104E400094E10E94EE2420E0823451F042E4682F85
:104E500083E30E9447260E94E226CF910C94F82615
:104E600040E06091046082E30E944726C0E08091A8
:104E70000460C81710F0CF9108950E940025811199
:104E8000FCCF8C2F90E09C5E0E94EE2441E0682FC6
:104E90008C2F0E94A126CF5FEACF30E020E0F901FD
:104EA000EB54F94940814F3F71F4DC014C9150E0E3
:104EB000240F351F2B3D324068F4BC01CF010E9406
:104EC000962D81E008952A3D52E0350770F7240FB2
:104ED000311DE5CF20E040E060E081E50E944726FB
:104EE0008091026B8F3F19F08F5F8093026B80E09F
:104EF000089580910960811113C081E08093096059
:104F0000E091F66AF091F76A309719F081E090E04D
:104F1000099530E020E040E06CEE8FEF0C94F22534
:104F200008950F931F93CF93DF931F92CDB7DEB7F2
:104F300090EF980F9F3EA0F190910360981781F138
:104F4000182F80930360662349F089839E012F5FA9
:104F50003F4F41E06DEE8FEF0E94F2258091E269B4
:104F60009091E369892BE1F08091E4698823F1F065
:104F70001031E0F4012F819F000D11244091E5696B
:104F8000040F802F0E94882661E0811101C060E03B
:104F900041E0400FE091E269F091E369812F0995CA
:104FA0000F90DF91CF911F910F9108950FEFEFCFE9
:104FB0000F931F93CF93DF93CDB7DEB76497CDBF29
:104FC000DEBF182F062F80910860898380910760CB
:104FD0008A83809105608B838091036B91E08927A0
:104FE0008C838FEE94E10E94EE248D8380EF94E118
:104FF0000E94EE248E8381EF94E10E94EE248F8341
:1050000082EF94E10E94EE24888783EF94E10E946E
:10501000EE24898784EF94E10E94EE248A8785EF4D
:1050200094E10E94EE248B8786EF94E10E94EE24A7
:105030008C8787EF94E10E94EE248D8788EF94E1BE
:105040000E94EE248E8789EF94E10E94EE248F87E0
:105050008AEF94E10E94EE24888B8BEF94E10E940A
:10506000EE24898B8CEF94E10E94EE248A8B8DEFE5
:1050700094E10E94EE248B8B8EEF94E10E94EE244B
:105080008C8B9E012F5F3F4F44E1602F812F0E9448
:10509000F2256496CDBFDEBFDF91CF911F910F91B6
:1050A00008957F928F929F92AF92BF92CF92DF929C
:1050B000EF92FF920F931F93CF93DF93CDB7DEB79D
:1050C0002897CDBFDEBFFC01ADB6BEB6C080118152
:1050D000828003818BEFD82EDC0C8DB79EB78D19A3
:1050E00091098DBF9EBF01967C013496982FD70100
:1050F0008A2F891B8D1570F0812F0E94D225815037
:10510000823058F020E0412F602F81E60E94472630
:1051100011E0E8C081918D93EBCF0F3F39F5D110AD
:1051200007C041E068ED81E490E00E94C121FFCF1B
:1051300092E0D91216C0F701908181819F3F21F042
:10514000209108602913E4CF8F3F21F090910760F0
:105150009813DECF41E068ED81E490E00E94C12128
:10516000FFCF2D2D42E06FEF80E6D0CF013F51F40D
:1051700020E040E060E083E50E94472681E08093E4
:105180000260C6CF003F49F420E040E060E084E5E3
:105190000E94472610920260BBCF0D3E61F4F1E001
:1051A0002D2D41E06DEEDF12DFCF60E0F701808151
:1051B0000E949127ADCF0C3EF9F481E08093096005
:1051C000E091F66AF091F76A81E090E0309701F59E
:1051D0008BE2800F823008F0F2C0F1E02D2D42E02A
:1051E000602FFD1508F69090036B992009F491C08B
:1051F00020E040E082E68ACF0B3E61F41092096025
:10520000E091F66AF091F76A309711F390E080E050
:105210000995DECF0A3E09F046C120E040E060E09B
:1052200081E80E94472681E08093F86A71CF073EAB
:1052300019F40E9478266CCF053E09F58091FB6A2F
:1052400089838091FC6A8A838091FD6A8B83809137
:10525000FE6A8C838091FF6A8D838091006B8E83C0
:105260008091016B8F838091026B88879E012F5FF5
:105270003F4F48E066EE812F0E94F22549CF033E62
:1052800029F430E020E040E064EEF5CF003E29F460
:1052900061EE812F0E94D8273BCF0F3D51F4109132
:1052A000036B20E040E06FED111119C00E94E2266F
:1052B0002FCF0E3D51F41091036B20E040E06EEDD6
:1052C00011110DC00E94F82623CF0D3D09F080CFAB
:1052D0001091036B1123D1F020E040E06DED82E6E8
:1052E0000E944726812FADBEBEBE2896CDBFDEBF31
:1052F000DF91CF911F910F91FF90EF90DF90CF90B2
:10530000BF90AF909F908F907F9008950E941E272E
:10531000FFCE2FEF821204C020E040E083E6F6CEFD
:10532000F701D0808D2D90E0FAEFCF0ED982209139
:105330000460422F50E0D21670F04C2D6D2D8BE39F
:105340000E9447269E012F5F3F4F41E0053D09F037
:10535000DFCE68ED90CF2C1520F44C2D6D2D8CE315
:10536000EFCF8C0D911D4817590720F44C2D6D2D52
:105370008DE3E6CF20E04C2D6D2D88E30E9447267B
:105380002FEFE21AF20A812C77247394F7016191CE
:105390007F0140E08D2D880D0E94A1268725982A47
:1053A00083948C1498F3053D09F0B2CE9E012F5FD3
:1053B0003F4F41E067ED992009F45DCFCACF003D32
:1053C00009F06BC08DB69EB6F2E0DF1649F02D2DC8
:1053D00042E060ED80E60E9447268DBE9EBE98CEDC
:1053E0008091036B882329F020E040E060ED82E6A5
:1053F000F2CFF7010081C02ED12C71802091046082
:10540000422F50E0021770F020E0472D602F8BE311
:105410000E94472630E020E040E061ED812F0E94AD
:10542000F225DBCF271520F4472D602F8CE3F0CF3A
:10543000F2E4F71510F422E4F7CFE72CF12CC701C2
:105440008C0D9D1D4817590720F4472D602F8DE3C3
:10545000DFCF20E0472D602F86E30E9447262FEF05
:10546000E21AF20A8DB79EB78E199F098DBF9EBFB3
:105470002DB73EB72F5F3F4FEDB7FEB70183F60163
:10548000EA51F649D901119680E041E0480F8715AD
:1054900021F281918D93842FF8CF11E0002309F43C
:1054A00021CF10E01FCF093E09F0C1CE20E040E03F
:1054B00060E082E80E9447261092F86A29CEE091C7
:1054C0009569F0919669309779F480919B690E9473
:1054D000C02581110FC0E0919369F09194693097D4
:1054E00029F189E999E6099489E999E609958823DA
:1054F00061F3F1CFE0919169F0919269309781F475
:1055000089E999E60E9451288111E5CFE0918F69E0
:10551000F09190693097F9F289E999E60995DBCF26
:1055200089E999E609958111D6CFEACF08951F93AD
:10553000CF93DF93D2E0C1E00E948723811104C0A2
:10554000DF91CF911F9108950E949723823419F41F
:10555000C0939769F1CF909197699923D1F01092F8
:105560009769893919F4C093E169E6CF863681F0ED
:105570001092E16920E040E060E081E40E9447266B
:105580008091FC6A8F3FC1F28F5F8093FC6AD4CF19
:1055900082E49091E16991110EC020E040E060E06A
:1055A00082E40E9447268091FD6A8F3F29F28F5F37
:1055B0008093FD6AC1CF9130E1F42BEF280F2434A2
:1055C00038F48093996990939869D093E169B4CF46
:1055D0001092E16920E048E4682F83E40E944726A6
:1055E0008091FE6A8F3F09F4A7CF8F5F8093FE6A98
:1055F000A3CF923009F0A0CF90919869209199693A
:10560000921740F4E92FF0E0E756F64980839F5F58
:1056100090939869609199698091986968138CCF8B
:105620001092E16970E0FB01E856F6491081625082
:10563000710989E999E60E943125181779F020E06F
:10564000482F612F84E40E9447268091FF6A8F3F94
:1056500009F472CF8F5F8093FF6A6ECF8091FB6AEF
:105660008F3F19F08F5F8093FB6A0E945F2A64CF9F
:105670000F931F93CF93DF93C82FD0E00AED12E072
:105680000C1B1D0BBE016B547949A80185EB96E6F6
:105690000E94962DAE016FEF70E0C8018B549949BE
:1056A000DF91CF911F910F910C949F2DEF92FF925C
:1056B0000F931F93CF93DF93CDB7DEB7C854D109B3
:1056C000CDBFDEBF0091B5660F3F69F410E0812FBA
:1056D000C85BDF4FCDBFDEBFDF91CF911F910F9130
:1056E000FF90EF900895402F50E065EB76E6CE01F5
:1056F00001960E94962D80910260882339F3809153
:10570000006B8F3F19F08F5F8093006B802F0E949A
:10571000382BE091B166F091B266309751F0CE012E
:1057200001960995182F882321F0802F0E94382B8D
:10573000CECF8C81895F8430C8F40E949023882367
:10574000E1F382E40E9435240E949023182F8823DD
:10575000D9F389E90E94352400E08981081798F07F
:105760001092B3661092B466B2CFA8952091B3663A
:105770003091B4668091066090E0880F991F82177F
:10578000930799F7DACF0E9490238823E1F3EE2460
:10579000E394F12CEC0EFD1EE00EF11CF70180816C
:1057A0000E943524F7018081823439F40E949023CD
:1057B0008823E1F386E60E9435240F5FCECF0E9456
:1057C000972A0E94562B8111FCCF0895693000F171
:1057D0001092E46960E0982F2FE0629F900D1124F1
:1057E000692F615F6F3EB8F0109204601092E56916
:1057F0001092E46920E04EEE81E30E94472620E00B
:1058000040E06091046080E30E9447260C941E27CC
:105810006093E469E0CF609304608093E569EFCF23
:105820000F931F93CF93DF9306ED1AE6C0E8D0E104
:10583000CE010E940525F80181938F012196C03A7F
:10584000F0E1DF07A9F76091D66A8FEF860F8E3FF0
:1058500008F453C081E08093086020E040E085E2D6
:105860000E94472620E040E06091086084E20E94A8
:1058700047266091D76A8FEB860F8A3108F440C0C3
:1058800081E48093076020E040E087E20E944726A1
:1058900020E040E06091076086E20E944726609128
:1058A000D86A8FEF860F803F70F181E080930660A9
:1058B00020E040E081E20E94472620E040E0609145
:1058C000066080E20E9447266091D96A662351F003
:1058D0008FE0860F8E3030F020E040E083E20E94BF
:1058E000472660EF6093056020E040E082E2DF91B0
:1058F000CF911F910F910C94472660930860B2CF0F
:1059000060930760C5CF60930660D7CFCF92DF92D8
:10591000EF92FF920F931F93CF93DF936B017C0164
:105920008091036BC7EF8111CFEED0E008E110E06A
:105930000E9400258111FCCFC701B601002E04C0D2
:1059400096958795779567950A94D2F7CE019C5ED8
:105950000E94F124085011092196083F8FEF180783
:1059600039F743EF60E070E490E080E00E946E253C
:105970004BEF6FEF7FEF80E090E4DF91CF911F91CD
:105980000F91FF90EF90DF90CF900C946E25CF9306
:10599000C62F81110E947927CC2329F061E08FEF77
:1059A000CF910C949127CF910895BF92CF92DF921F
:1059B000EF92FF920F931F93CF93DF93B82EC62FD2
:1059C000D42F79014AED52E06FEF70E085EB96E657
:1059D0000E949F2DB092036B20E040E060E080E1E8
:1059E0000E9447260E94102C6D2F8C2F0E94E62BC0
:1059F000C701B8010E94862C82E195E20E94CA226A
:105A000087E295E20E943521E0E0F4E08189887F19
:105A10008360818B8091066090E0880F991F0E94BF
:105A2000082562EE80E00E94D82720E040E060E098
:105A300081E1DF91CF911F910F91FF90EF90DF9067
:105A4000CF90BF900C9447260895E0E0FAE010A6AE
:105A500011A612A613A614A615A610A211A21182B1
:105A6000128213821482158216821782168611867C
:105A700080E18287138689EE90E086A397A317863C
:105A80008FE08083089580930A6090930B6008955F
:105A90001F920F920FB60F9211242F933F934F93A3
:105AA0005F936F937F938F939F93AF93BF93EF9386
:105AB000FF93E0910A60F0910B60309709F009952F
:105AC00080E180930B0AFF91EF91BF91AF919F917D
:105AD0008F917F916F915F914F913F912F910F9097
:105AE0000FBE0F901F901895A1E21A2EAA1BBB1B88
:105AF000FD010DC0AA1FBB1FEE1FFF1FA217B3079A
:105B0000E407F50720F0A21BB30BE40BF50B661FAF
:105B1000771F881F991F1A9469F760957095809573
:105B200090959B01AC01BD01CF010895FB01DC0103
:105B300002C001900D9241505040D8F70895DC0109
:105B400001C06D9341505040E0F70895F894FFCFA5
:0C5B500002FF01FFEEF001410101242DD5
:02000004008278
:090000000A00000000D0100020ED
:0400000300004000B9
:00000001FF
