:104000000C9448200C9465200C9465200C94652039
:104010000C9465200C9480220C94C3220C9465208F
:104020000C9433210C9465200C9465200C9413237C
:104030000C9465200C9465200C9465200C946520EC
:104040000C9465200C9465200C9465200C946520DC
:104050000C9465200C942E240C9465200C946520FF
:104060000C947A210C9465200C9465200C946520A6
:104070000C9465200C946C210C9465200C946520A4
:104080000C9465200C9465200C9488210C94652078
:1040900011241FBECFEFCDBFDFE7DEBF10E6A0E0EB
:1040A000B0E6E4E2FCE502C005900D92AC30B10749
:1040B000D9F72AE6ACE0B0E601C01D92AA39B207F2
:1040C000E1F70E9479250C94102E0C940020482FC3
:1040D0006DE980E090E10C942722E0E0F0E182813C
:1040E0008F78828308950E946D20109201100895A8
:1040F000FB0184910895FC01808108951F93CF9363
:10410000DF93EC01162F83E10E946720188380E083
:10411000DF91CF911F910C946720809102108695BA
:1041200081700895FC01808108950895089508958F
:10413000089508950895089508950895CF93DF93FD
:1041400080E094E029E0FC012083C0E4D4E0188200
:10415000A0E6B4E01C9240EA54E02BE1FA0120838F
:1041600021E0FC0124831C8214961C921497FA010E
:104170001482FC01108A118A128A138A148A158A01
:10418000168A178A188A198A1A8A1B8A1C8A1D8A13
:104190001E8A1F8A50961C92509751961C925197D6
:1041A00052961C92529753961C92539754961C9277
:1041B000549755961C92559756961C92569757961B
:1041C0001C92FA01108A118A88E0828B138A148A61
:1041D000858B168A178AE0EEF5E01182108215822F
:1041E0001782108611861682128285E990E28093EA
:1041F0001C6090931D6087E990E280931A60909311
:104200001B6088E990E2809318609093196089E9B7
:1042100090E280931660909317608AE990E2809311
:104220001460909315608BE990E2809312609093F4
:1042300013608CE990E280931060909311608DE997
:1042400090E280930E6090930F6086E990E28093F5
:104250000C6090930D60DF91CF91089580931C6066
:1042600090931D6008951F920F920FB60F92112424
:104270002F933F934F935F936F937F938F939F936E
:10428000AF93BF93EF93FF93199B05C0E0911C6020
:10429000F0911D600995189B05C0E0911A60F0919E
:1042A0001B6009951B9B05C0E0911860F091196097
:1042B00009958FEF83B9FF91EF91BF91AF919F91D6
:1042C0008F917F916F915F914F913F912F910F90BF
:1042D0000FBE0F901F9018951F920F920FB60F925E
:1042E00011248F938FEF8BB98F910F900FBE0F908A
:1042F0001F9018951F920F920FB60F9211248F9353
:104300008FEF8FB98F910F900FBE0F901F90189560
:104310001F920F920FB60F9211242F933F934F933A
:104320005F936F937F938F939F93AF93BF93EF931D
:10433000FF93BA9B05C0E0911660F0911760099554
:10434000BD9B05C0E0911460F09115600995B89B84
:1043500005C0E0911260F09113600995B99B05C00A
:10436000E0911060F09111600995BB9B05C0E09150
:104370000E60F0910F600995BC9B05C0E0910C6048
:10438000F0910D6009958FEF87BBFF91EF91BF9181
:10439000AF919F918F917F916F915F914F913F91DD
:1043A0002F910F900FBE0F901F901895462F68ED1C
:1043B0000C94272260E080E690E00E94D62160E025
:1043C00081E690E00E94D62160E085E690E00E94C0
:1043D000D62160E088E790E00E94D62164E288E67A
:1043E00090E00E94D62160E089E690E00E94D6210C
:1043F00060E080E790E00E94D62160E08CE790E0EA
:104400000E94D62160E082E690E00E94D62160E022
:1044100083E690E00E94D62160E084E690E00E946E
:10442000D62160E080E890E00E94D621809165006E
:1044300081FFFCCF089540E068ED80E191E00E94AB
:104440002722E0E1F1E01282138280E00895FC016E
:1044500064BF408308954AE068ED80E091E00E94E7
:10446000272240E868ED81E091E00E94272280E069
:1044700008950E94DA210E949E200E9473200E94CB
:1044800053220E94F0220E943F230E942B220C9470
:104490001B22019708F40895EFE6F7E13197F1F751
:1044A00000C00000F6CF809141018111FCCF8FEF59
:1044B0009FE780934C0190934D0110924801109218
:1044C00049018FEF9FEF80934A0190934B01109227
:1044D00047011092420110924501809151018111D2
:1044E000FCCF81E0809352011092550181E18093CD
:1044F000500180E0089580931E6090931F6008959E
:104500001F920F920FB60F9211242F933F934F9348
:104510005F936F937F938F939F93AF93BF93EF932B
:10452000FF938091420180FF0BC08091430180FF87
:1045300007C0E0912260F0912360309709F009955F
:104540008091420181FF0BC08091430181FF07C030
:10455000E0912060F0912160309709F0099583E0A7
:1045600080934301FF91EF91BF91AF919F918F9104
:104570007F916F915F914F913F912F910F900FBE5F
:104580000F901F9018951F920F920FB60F92112443
:104590002F933F934F935F936F937F938F939F934B
:1045A000AF93BF93EF93FF93E0911E60F0911F6074
:1045B000309709F0099581E080935301FF91EF91C5
:1045C000BF91AF919F918F917F916F915F914F912B
:1045D0003F912F910F900FBE0F901F901895089547
:1045E000E0E0FAE010A611A612A613A614A615A6DE
:1045F00010A211A2118212821382148215821682D5
:1046000017821686118680E18287138689EE90E0F4
:1046100086A397A317868FE0808308958093006018
:104620009093016008951F920F920FB60F9211247C
:104630002F933F934F935F936F937F938F939F93AA
:10464000AF93BF93EF93FF93E0910060F09101600F
:10465000309709F0099580E180930B0AFF91EF9163
:10466000BF91AF919F918F917F916F915F914F918A
:104670003F912F910F900FBE0F901F90189587EBD1
:1046800093E28093906A9093916AE0E0F8E080EC86
:1046900090E08087918781E9858380EC868383E041
:1046A000878313861486168615868BE294E28093A0
:1046B000966A9093976A8DE294E28093926A9093BF
:1046C000936A8CE294E28093986A9093996A10922C
:1046D00026601092276010922A6610922B66109224
:1046E0002866109229661092946A1092956A8581C4
:1046F0008068858308952091946A3091956A81E05D
:10470000232B09F480E008958091040885FB882715
:1047100080F90895E0912866F0912966E85DFB49EB
:10472000808120912866309129662F5F3F4F31703C
:104730002093286630932966909105089F7790937F
:1047400005082091946A3091956A232B51F02091AD
:10475000946A3091956A215031092093946A30937C
:10476000956A909105089068909305080895E091E6
:104770002A66F0912B66EE0FFF1FE85DFF4910825D
:1047800011828091010882FF12C0E0912A66F091A7
:104790002B66EE0FFF1FE85DFF49808182608083FA
:1047A000E091966AF091976A309709F009958091A7
:1047B000010881FF0CC08091266081608093266093
:1047C000E091986AF091996A309709F00995809183
:1047D000010886FF12C0E0912A66F0912B66EE0F69
:1047E000FF1FE85DFF49808184608083E091926AC9
:1047F000F091936A309709F0099520910008809113
:104800002A6690912B66019691704091286650918E
:10481000296648175907A1F0E0912A66F0912B66A6
:10482000E85DFB49208380932A6690932B668091F4
:10483000946A9091956A01968093946A9093956A90
:10484000E0912460F0912560309709F00994089573
:104850008093020808950895089508951F920F9275
:104860000FB60F9211242F933F934F935F936F9343
:104870007F938F939F93AF93BF93EF93FF930E9488
:10488000B723FF91EF91BF91AF919F918F917F914E
:104890006F915F914F913F912F910F900FBE0F90AD
:1048A0001F9018950E94D925811107C080E180933F
:1048B000A60482E08093A60434C0809132668430DE
:1048C00021F482E08093A60405C0813049F482E09F
:1048D0008093A50480913166843091F480E1EACF21
:1048E0008823A9F3833029F480913C66882349F317
:1048F000EECF823079F790913C66992319F3E8CF97
:10490000813021F480E18093A50408958823D1F3B8
:10491000833029F480913C66882301F3F3CF823001
:10492000C9F30895809302608130F1F482E08093AE
:104930003266109233661092346610923566109289
:10494000366680E00E943327282F30E0A4E6B0E0EE
:104950000E94F12D609337667093386680933966B4
:1049600090933A660C9452241092326610923766F5
:10497000109238661092396610923A66F3CFCF9350
:1049800091E090933066813069F4C82F0E949A2696
:10499000813021F0C0930260CF9108958FEF809312
:1049A0000260FACF8111F8CF10920260F5CFDF924A
:1049B000EF92FF920F931F93CF93DF938091336613
:1049C00090913466A0913566B09136660196A11D2E
:1049D000B11D8093336690933466A0933566B0938F
:1049E00036668091376690913866A0913966B091AD
:1049F0003A66892B8A2B8B2B39F140913366509183
:104A00003466609135667091366680913766909114
:104A10003866A0913966B0913A6684179507A60763
:104A2000B70790F410923766109238661092396684
:104A300010923A6610923366109234661092356680
:104A400010923666109202606091336670913466FF
:104A5000809135669091366624E630E040E050E083
:104A60000E94CF2D672B682B692B19F481E080936E
:104A70003B6636B320912F66220F41E032FB33278D
:104A800030F93427232B20932F6696B380912E661E
:104A9000880F95FB992790F99427892B80932E6690
:104AA0008EE2E82E86E6F82ECCE2D6E600E0DD24A3
:104AB000D394F70111917F011F708881811106C085
:104AC0001F3021F4D882802F0E94BF248881882340
:104AD00019F0111101C018822196013041F4DF91C3
:104AE000CF911F910F91FF90EF90DF90089501E01B
:104AF000E0CF0E943922789482E594E20E94D42586
:104B000082E994E20E94952604E11AE221ED35E65D
:104B100040E061E080E00E94802D0E94522487EDF9
:104B200094E20E940E23C1E080913B66882349F005
:104B300010923B6680913C668C2780933C660E9475
:104B4000522480913066882331F01092306660E004
:104B500081E00E94722D0E949A269091026089172E
:104B600029F08091026061E00E943C280E948A2C1A
:104B7000A895DACF80913F66909140660196809328
:104B80003F669093406680913F6690914066803E7C
:104B9000914020F010923F66109240660895109266
:104BA0003F661092406608958093826A9093836A6C
:104BB000089580910A600895FC01680F791F8FEFB6
:104BC00091E3E617F70709F408952191822728E079
:104BD00030E087FF06C0880F892721503109C9F7C7
:104BE000F0CF880FFACFCF92DF92EF92FF92642737
:104BF00028E06B017C01F694E794D794C794617028
:104C000077278827992790958095709561957F4F94
:104C10008F4F9F4F60727378887B9D7E6C257D25BA
:104C20008E259F25215029F7FF90EF90DF90CF90A0
:104C300008958F929F92AF92BF92CF92DF92EF92A0
:104C4000FF920F931F93CF93DF938B01C42F6C01BF
:104C5000F12CE12C88248A94982C5401C016D1069A
:104C600048F1D0E008E110E00E948D208111FCCFD6
:104C7000C501B401002E04C0969587957795679578
:104C80000A94D2F7CE019C5E0E947E200850110942
:104C90002196083F8FEF180739F7DF91CF911F91C9
:104CA0000F91FF90EF90DF90CF90BF90AF909F90CB
:104CB0008F900895C701B6010E947820482FC50142
:104CC000B4010E94F3254B015C018FEFC81AD80A8A
:104CD000E80AF80AC3CF982F80910760891759F026
:104CE00080910660981302C0911105C081E09F3F3A
:104CF00019F080E0089581E00895882361F0813003
:104D000061F0803F61F09FE0980F9E3050F08F3F40
:104D100051F081E0089580E0089582E0089584E0F4
:104D2000089583E0089585E0089580936E699093D7
:104D30006F690895809104600895CF92DF92EF9299
:104D4000FF921F93CF93DF93CDB7DEB7142FCDB66D
:104D5000DEB6443478F020E043E4612F82E50E941F
:104D6000F22680918D6A8F3F19F08F5F80938D6A54
:104D700080E02BC095E0940F492F50E0EDB7FEB7CF
:104D8000E41BF50BEDBFFEBF31967F01EDB7FEB71B
:104D9000918390910760F701918382836383922FBF
:104DA000ADB7BEB71596F9018E2F891B8117B8F0E4
:104DB000BA0162507109C7010E94DC25F701E10FB9
:104DC000F11D8483C7010E94F827CDBEDEBEDF91AE
:104DD000CF911F91FF90EF90DF90CF900895819138
:104DE0008D93E2CFEF92FF920F931F93CF93DF93B8
:104DF00000D000D0CDB7DEB7182FE62EF42E022F4C
:104E0000E091856AF091866A309709F00995809162
:104E1000846A882371F0113561F01983EA82FB827C
:104E20000C839E012F5F3F4F44E068EE80E00E94BC
:104E30009D262496CDBFDEBFDF91CF911F910F91AC
:104E4000FF90EF900895E7E8FAE61082118212824F
:104E50001382148215821682178220E040E060E0FF
:104E600083E80C94F226CF93682F40910560841755
:104E700040F020E08BE30E94F226C0E08C2FCF911F
:104E80000895E82FF0E0EE58F649C08120E04C2F5D
:104E900087E30E94F226F2CFEF92FF921F93CF9307
:104EA000DF93C82F162F80910560C81768F020E0A7
:104EB000482F6C2F8BE30E94F22680E0DF91CF9188
:104EC0001F91FF90EF9008958C2F90E09C012E5839
:104ED00036497901411104C0F90180818617D9F062
:104EE000E091606AF091616AD12F309761F0612F93
:104EF0008C2F0995D82F181731F0282F412F6C2FA0
:104F00008AE30E94F22620E04D2F6C2F89E30E9455
:104F1000F226F701D08381E0D1CFCF9320E040E0AB
:104F20006091056084E30E94F226C0E080910560F4
:104F3000C81710F0CF91089541E060E08C2F0E94D7
:104F40004C27CF5FF3CFCF93C0E080910560C817A7
:104F500088F00E948D208111FCCF62E48FEF94E1F4
:104F60000E947E2020E040E06091056085E3CF91C3
:104F70000C94F2260E948D208111FCCF8C2F90E0A2
:104F8000FC01EE58F64960819C5E0E947E20CF5F56
:104F9000DCCFCF938FEF94E10E947B2020E082341E
:104FA00051F042E4682F83E30E94F2260E948D278D
:104FB000CF910C94A32740E06091056082E30E94AA
:104FC000F226C0E080910560C81710F0CF910895D7
:104FD0000E948D208111FCCF8C2F90E09C5E0E945E
:104FE0007B2041E0682F8C2F0E944C27CF5FEACFB7
:104FF00030E020E0F901EF5BF94940814F3F71F467
:10500000DC014C9150E0240F351F2B3D324068F4F9
:10501000BC01CF010E94002E81E008952A3D52E09C
:10502000350770F7240F311DE5CF20E040E060E048
:1050300081E50E94F22680918E6A8F3F19F08F5F82
:1050400080938E6A80E0089580910A60811113C078
:1050500081E080930A60E091826AF091836A3097E0
:1050600019F081E090E0099530E020E040E06CEE3E
:105070008FEF0C949D2608950F931F93CF93DF938A
:105080001F92CDB7DEB790EF980F9F3EA0F19091A1
:105090000460981781F1182F80930460662349F00B
:1050A00089839E012F5F3F4F41E06DEE8FEF0E949D
:1050B0009D2680916E6990916F69892BE1F08091B6
:1050C00070698823F1F01031E0F4012F819F000D09
:1050D000112440917169040F802F0E94332761E0F1
:1050E000811101C060E041E0400FE0916E69F091F4
:1050F0006F69812F09950F90DF91CF911F910F91CB
:1051000008950FEFEFCF0F931F93CF93DF93CDB79A
:10511000DEB76497CDBFDEBF182F062F80910960E0
:105120008983809108608A83809106608B83809157
:105130008F6A91E089278C838FEE94E10E947B2017
:105140008D8380EF94E10E947B208E8381EF94E138
:105150000E947B208F8382EF94E10E947B208887CE
:1051600083EF94E10E947B20898784EF94E10E9481
:105170007B208A8785EF94E10E947B208B8786EFD6
:1051800094E10E947B208C8787EF94E10E947B2032
:105190008D8788EF94E10E947B208E8789EF94E1D0
:1051A0000E947B208F878AEF94E10E947B20888B6E
:1051B0008BEF94E10E947B20898B8CEF94E10E941D
:1051C0007B208A8B8DEF94E10E947B208B8B8EEF6E
:1051D00094E10E947B208C8B9E012F5F3F4F44E126
:1051E000602F812F0E949D266496CDBFDEBFDF9188
:1051F000CF911F910F9108957F928F929F92AF92BE
:10520000BF92CF92DF92EF92FF920F931F93CF93B3
:10521000DF93CDB7DEB72897CDBFDEBFFC01ADB6BB
:10522000BEB6C0801181828003818BEFD82EDC0C4A
:105230008DB79EB78D1991098DBF9EBF01967C01D8
:105240003496982FD7018A2F891B8D1570F0812FE6
:105250000E947D268150823058F020E0412F602F3F
:1052600081E60E94F22611E0E8C081918D93EBCF98
:105270000F3F39F5D11007C041E068ED81E490E0BF
:105280000E942722FFCF92E0D91216C0F701908129
:1052900081819F3F21F0209109602913E4CF8F3F46
:1052A00021F0909108609813DECF41E068ED81E431
:1052B00090E00E942722FFCF2D2D42E06FEF80E685
:1052C000D0CF013F51F420E040E060E083E50E9450
:1052D000F22681E080930360C6CF003F49F420E0CE
:1052E00040E060E084E50E94F22610920360BBCFAC
:1052F0000D3E61F4F1E02D2D41E06DEEDF12DFCFC8
:1053000060E0F70180810E943C28ADCF0C3EF9F4AB
:1053100081E080930A60E091826AF091836A81E083
:1053200090E0309701F58BE2800F823008F0F2C0F8
:10533000F1E02D2D42E0602FFD1508F690908F6A68
:10534000992009F491C020E040E082E68ACF0B3E2C
:1053500061F410920A60E091826AF091836A30975A
:1053600011F390E080E00995DECF0A3E09F046C1D6
:1053700020E040E060E081E80E94F22681E0809336
:10538000846A71CF073E19F40E9423276CCF053E33
:1053900009F58091876A89838091886A8A838091E0
:1053A000896A8B8380918A6A8C8380918B6A8D83D2
:1053B00080918C6A8E8380918D6A8F8380918E6AB2
:1053C00088879E012F5F3F4F48E066EE812F0E9445
:1053D0009D2649CF033E29F430E020E040E064EE12
:1053E000F5CF003E29F461EE812F0E9483283BCF48
:1053F0000F3D51F410918F6A20E040E06FED1111E4
:1054000019C00E948D272FCF0E3D51F410918F6A45
:1054100020E040E06EED11110DC00E94A32723CFC4
:105420000D3D09F080CF10918F6A1123D1F020E05B
:1054300040E06DED82E60E94F226812FADBEBEBE39
:105440002896CDBFDEBFDF91CF911F910F91FF90C6
:10545000EF90DF90CF90BF90AF909F908F907F9014
:1054600008950E94C927FFCE2FEF821204C020E0CA
:1054700040E083E6F6CEF701D0808D2D90E0FAEF84
:10548000CF0ED98220910560422F50E0D21670F0E5
:105490004C2D6D2D8BE30E94F2269E012F5F3F4F16
:1054A00041E0053D09F0DFCE68ED90CF2C1520F4EA
:1054B0004C2D6D2D8CE3EFCF8C0D911D48175907A6
:1054C00020F44C2D6D2D8DE3E6CF20E04C2D6D2D7D
:1054D00088E30E94F2262FEFE21AF20A812C772449
:1054E0007394F70161917F0140E08D2D880D0E943A
:1054F0004C278725982A83948C1498F3053D09F04E
:10550000B2CE9E012F5F3F4F41E067ED992009F435
:105510005DCFCACF003D09F06BC08DB69EB6F2E0FC
:10552000DF1649F02D2D42E060ED80E60E94F22664
:105530008DBE9EBE98CE80918F6A882329F020E090
:1055400040E060ED82E6F2CFF7010081C02ED12C61
:10555000718020910560422F50E0021770F020E02A
:10556000472D602F8BE30E94F22630E020E040E0E0
:1055700061ED812F0E949D26DBCF271520F4472D5A
:10558000602F8CE3F0CFF2E4F71510F422E4F7CFAC
:10559000E72CF12CC7018C0D9D1D4817590720F4ED
:1055A000472D602F8DE3DFCF20E0472D602F86E36E
:1055B0000E94F2262FEFE21AF20A8DB79EB78E19DB
:1055C0009F098DBF9EBF2DB73EB72F5F3F4FEDB7F1
:1055D000FEB70183F601EE58F649D901119680E035
:1055E00041E0480F871521F281918D93842FF8CFE8
:1055F00011E0002309F421CF10E01FCF093E09F08C
:10560000C1CE20E040E060E082E80E94F2261092E5
:10561000846A29CEE0912169F0912269309779F46A
:10562000809127690E946B2681110FC0E0911F694C
:10563000F0912069309729F185E299E6099485E295
:1056400099E60995882361F3F1CFE0911D69F09106
:105650001E69309781F485E299E60E94FC28811149
:10566000E5CFE0911B69F0911C693097F9F285E272
:1056700099E60995DBCF85E299E609958111D6CFA8
:10568000EACF08951F93CF93DF93D2E0C1E00E9449
:105690007B23811104C0DF91CF911F9108950E9457
:1056A0008A23823419F4C0932369F1CF909123693E
:1056B0009923D1F010922369893919F4C0936D6947
:1056C000E6CF863681F010926D6920E040E060E020
:1056D00081E40E94F2268091886A8F3FC1F28F5F39
:1056E0008093886AD4CF82E490916D6991110EC045
:1056F00020E040E060E082E40E94F2268091896A26
:105700008F3F29F28F5F8093896AC1CF9130E1F496
:105710002BEF280F243438F4809325699093246963
:10572000D0936D69B4CF10926D6920E048E4682F82
:1057300083E40E94F22680918A6A8F3F09F4A7CF02
:105740008F5F80938A6AA3CF923009F0A0CF9091A7
:10575000246920912569921740F4E92FF0E0EB5D70
:10576000F64980839F5F90932469609125698091B9
:10577000246968138CCF10926D6970E0FB01EC5DB9
:10578000F64910816250710985E299E60E94DC2594
:10579000181779F020E0482F612F84E40E94F22648
:1057A00080918B6A8F3F09F472CF8F5F80938B6AF1
:1057B0006ECF8091876A8F3F19F08F5F8093876AE1
:1057C0000E940A2B64CF0F931F93CF93DF93C82FB0
:1057D000D0E00AED12E00C1B1D0BBE016F5B794996
:1057E000A80181E496E60E94002EAE016FEF70E002
:1057F000C8018F5B9949DF91CF911F910F910C9454
:10580000092EEF92FF920F931F93CF93DF93CDB7A3
:10581000DEB7C854D109CDBFDEBF009141660F3F4E
:1058200069F410E0812FC85BDF4FCDBFDEBFDF9191
:10583000CF911F910F91FF90EF900895402F50E06E
:1058400061E476E6CE0101960E94002E809103600D
:10585000882339F380918C6A8F3F19F08F5F809392
:105860008C6A802F0E94E32BE0913D66F0913E66AA
:10587000309751F0CE0101960995182F882321F019
:10588000802F0E94E32BCECF8C81895F8430C8F4B7
:105890000E9484238823E1F382E40E9428240E944A
:1058A0008423182F8823D9F389E90E94282400E053
:1058B0008981081798F010923F6610924066B2CF27
:1058C000A89520913F66309140668091076090E0F6
:1058D000880F991F8217930799F7DACF0E948423C4
:1058E0008823E1F3EE24E394F12CEC0EFD1EE00E90
:1058F000F11CF70180810E942824F7018081823405
:1059000039F40E9484238823E1F386E60E94282448
:105910000F5FCECF0E94422B0E94012C8111FCCF41
:105920000895693000F11092706960E0982F2FE0BF
:10593000629F900D1124692F615F6F3EB8F0109245
:105940000560109271691092706920E04EEE81E35B
:105950000E94F22620E040E06091056080E30E9412
:10596000F2260C94C92760937069E0CF60930560BC
:1059700080937169EFCF0F931F93CF93DF9302E66C
:105980001AE6C0E8D0E1CE010E949220F80181938E
:105990008F012196C03AF0E1DF07A9F76091626AB2
:1059A0008FEF860F8E3F08F453C081E0809309602B
:1059B00020E040E085E20E94F22620E040E0609195
:1059C000096084E20E94F2266091636A8FEB860F81
:1059D0008A3108F440C081E48093086020E040E010
:1059E00087E20E94F22620E040E06091086086E2B3
:1059F0000E94F2266091646A8FEF860F803F70F1FB
:105A000081E08093076020E040E081E20E94F2267E
:105A100020E040E06091076080E20E94F226609101
:105A2000656A662351F08FE0860F8E3030F020E0FB
:105A300040E083E20E94F22660EF6093066020E07F
:105A400040E082E2DF91CF911F910F910C94F226FA
:105A500060930960B2CF60930860C5CF6093076020
:105A6000D7CFCF92DF92EF92FF920F931F93CF93F6
:105A7000DF936B017C0180918F6AC7EF8111CFEEBC
:105A8000D0E008E110E00E948D208111FCCFC70119
:105A9000B601002E04C096958795779567950A9470
:105AA000D2F7CE019C5E0E947E20085011092196FB
:105AB000083F8FEF180739F743EF60E070E490E09C
:105AC00080E00E9419264BEF6FEF7FEF80E090E4BB
:105AD000DF91CF911F910F91FF90EF90DF90CF90CA
:105AE0000C941926CF93C62F81110E942428CC2311
:105AF00029F061E08FEFCF910C943C28CF9108956D
:105B0000BF92CF92DF92EF92FF920F931F93CF93AA
:105B1000DF93B82EC62FD42F79014AED52E06FEFF4
:105B200070E081E496E60E94092EB0928F6A20E030
:105B300040E060E080E10E94F2260E94BB2C6D2FC5
:105B40008C2F0E94912CC701B8010E94312D8AEB45
:105B500095E20E947B228FEC95E20E942E21E0E0EC
:105B6000F4E08189887F8360818B8091076090E079
:105B7000880F991F0E94492262EE80E00E948328CC
:105B800020E040E060E081E1DF91CF911F910F9133
:105B9000FF90EF90DF90CF90BF900C94F226A1E29F
:105BA0001A2EAA1BBB1BFD010DC0AA1FBB1FEE1F97
:105BB000FF1FA217B307E407F50720F0A21BB30BE2
:105BC000E40BF50B661F771F881F991F1A9469F75E
:105BD00060957095809590959B01AC01BD01CF01BA
:105BE0000895A29FB001B39FC001A39F700D811DB6
:105BF0001124911DB29F700D811D1124911D0895D6
:105C0000FB01DC0102C001900D9241505040D8F7D9
:105C10000895DC0101C06D9341505040E0F70895B4
:045C2000F894FFCF26
:0C5C2400EF22FF01FFEEF0014101010042
:02000004008278
:090000000A00000000D0100020ED
:0400000300004000B9
:00000001FF
