:104000000C9448200C9465200C9465200C94652039
:104010000C9465200C9405230C9448230C94652083
:104020000C94C8210C9465200C9465200C94A22358
:104030000C9465200C9465200C9465200C946520EC
:104040000C9465200C9465200C9465200C946520DC
:104050000C9465200C94BD240C9465200C94652070
:104060000C942C220C9465200C9465200C946520F3
:104070000C9465200C9401220C9465200C9465200E
:104080000C9465200C9465200C947A220C94652085
:1040900011241FBECFEFCDBFDFE7DEBF10E6A0E0EB
:1040A000B0E6E6E8FEE502C005900D92A031B1074A
:1040B000D9F72AE6A0E1B0E601C01D92A53AB20701
:1040C000E1F70E94DA260C94412F0C940020482F2F
:1040D0006DE980E090E10C94C822E0E0F0E182819B
:1040E0008F78828308950E946D20109201100895A8
:1040F000FB0184910895FC01808108951F93CF9363
:10410000DF93EC01162F83E10E946720188380E083
:10411000DF91CF911F910C946720809102108695BA
:1041200081700895FC0180810895462F68ED0C94FC
:10413000C82260E080E690E00E94952060E081E681
:1041400090E00E94952060E085E690E00E94952036
:1041500060E088E790E00E94952064E288E690E0C5
:104160000E94952060E089E690E00E94952060E042
:1041700080E790E00E94952060E08CE790E00E944C
:10418000952060E082E690E00E94952060E083E662
:1041900090E00E94952060E084E690E00E949520E7
:1041A00060E080E890E00E9495208091650081FFAA
:1041B000FCCF08954AE068ED80E091E00E94C822BB
:1041C00040E868ED81E091E00E94C82280E0089517
:1041D0000E9499200E9408210E9473200E94D822E8
:1041E0000E947F230E94CE230E94DA200C94CC22CE
:1041F00008950895089508950895089508950895D7
:1042000008950895089508950895089508950895C6
:10421000CF93DF9380E094E029E0FC012083C0E4A9
:10422000D4E028E02883A0E6B4E03CE63C9340EAF2
:1042300054E036E3FA01308331E0FC0134831C8220
:1042400014961C921497FA011482FC01108A118AA8
:10425000128A138A148A158A168A178A188A198A62
:104260001A8A1B8A1C8A1D8A1E8A1F8A50961C92D3
:10427000509751962C93519752961C925297539661
:104280001C92539754962C93549755961C9255977D
:1042900056961C92569757961C92FA01208B118ABB
:1042A000128A238B148A158A168A178AE0EEF5E0A3
:1042B0001182108215821782108611861682128250
:1042C00088EF90E280932E6090932F608AEF90E2C7
:1042D00080932C6090932D608BEF90E280932A6006
:1042E00090932B608CEF90E28093286090932960EC
:1042F0008DEF90E280932660909327608EEF90E29E
:1043000080932460909325608FEF90E280932260E9
:104310009093236080E091E28093206090932160ED
:1043200081E091E280931E6090931F6082E091E2B1
:1043300080931C6090931D6083E091E280931A60EB
:1043400090931B6084E091E28093186090931960D1
:1043500085E091E2809316609093176086E091E289
:10436000809314609093156087E091E280931260CF
:104370009093136089EF90E28093106090931160A6
:10438000DF91CF91089580932E6090932F600895D0
:104390001F920F920FB60F9211242F933F934F93BA
:1043A0005F936F937F938F939F93AF93BF93EF939D
:1043B000FF93199B05C0E0912E60F0912F60099545
:1043C000189B05C0E0912C60F0912D6009951B9B16
:1043D00005C0E0912A60F0912B6009958FEF83B9B9
:1043E000FF91EF91BF91AF919F918F917F916F91CD
:1043F0005F914F913F912F910F900FBE0F901F90A3
:1044000018951F920F920FB60F9211242F933F937E
:104410004F935F936F937F938F939F93AF93BF93CC
:10442000EF93FF935B9B05C0E0912060F0912160CA
:1044300009958FEF8BB9FF91EF91BF91AF919F914C
:104440008F917F916F915F914F913F912F910F903D
:104450000FBE0F901F9018951F920F920FB60F92DC
:1044600011242F933F934F935F936F937F938F9379
:104470009F93AF93BF93EF93FF93799B05C0E09118
:104480002860F091296009957C9B05C0E091266029
:10449000F091276009957A9B05C0E0911E60F0912C
:1044A0001F6009957B9B05C0E0911C60F0911D6029
:1044B00009957D9B05C0E0911A60F0911B600995FC
:1044C0007E9B05C0E0911860F091196009958FEF0F
:1044D0008FB9FF91EF91BF91AF919F918F917F9194
:1044E0006F915F914F913F912F910F900FBE0F9061
:1044F0001F9018951F920F920FB60F9211242F93B1
:104500003F934F935F936F937F938F939F93AF935B
:10451000BF93EF93FF93B89B05C0E0912460F091A7
:1045200025600995BB9B05C0E0912260F091236056
:104530000995B99B05C0E0911660F0911760099547
:10454000BA9B05C0E0911460F09115600995BC9B81
:1045500005C0E0911260F09113600995BD9B05C004
:10456000E0911060F091116009958FEF87BBFF918A
:10457000EF91BF91AF919F918F917F916F915F91DB
:104580004F913F912F910F900FBE0F901F90189554
:10459000FC0164BF4083089540E068ED80E191E054
:1045A0000E94C822E0E1F1E01282138280E00895C7
:1045B000809141018111FCCF8FEF9FE780934C01E7
:1045C00090934D0110924801109249018FEF9FEF97
:1045D00080934A0190934B0110924701109242013F
:1045E00010924501809151018111FCCF81E08093AF
:1045F00052011092550181E18093500180E00895AD
:10460000809330609093316008951F920F920FB69F
:104610000F9211242F933F934F935F936F937F9348
:104620008F939F93AF93BF93EF93FF93809142013A
:1046300080FF0BC08091430180FF07C0E091346090
:10464000F0913560309709F009958091420181FF22
:104650000BC08091430181FF07C0E0913260F0916F
:104660003360309709F0099583E080934301FF910F
:10467000EF91BF91AF919F918F917F916F915F91DA
:104680004F913F912F910F900FBE0F901F90189553
:104690001F920F920FB60F9211242F933F934F93B7
:1046A0005F936F937F938F939F93AF93BF93EF939A
:1046B000FF93E0913060F0913160309709F00995F7
:1046C00081E080935301FF91EF91BF91AF919F9152
:1046D0008F917F916F915F914F913F912F910F90AB
:1046E0000FBE0F901F901895019708F40895EFE6FC
:1046F000F7E13197F1F700C00000F6CF0895E0E050
:10470000FAE010A611A612A613A614A615A610A2CA
:1047100011A21182128213821482158216821782CC
:104720001686118680E18287138689EE90E086A343
:1047300097A317868FE080830895809300609093FD
:10474000016008951F920F920FB60F9211242F93BC
:104750003F934F935F936F937F938F939F93AF9309
:10476000BF93EF93FF93E0910060F0910160309769
:1047700009F0099580E180930B0AFF91EF91BF91B9
:10478000AF919F918F917F916F915F914F913F91E9
:104790002F910F900FBE0F901F90189586E494E212
:1047A00080939B6A90939C6AE0E0F8E080EC90E054
:1047B0008087918781E9858380EC868383E0878386
:1047C00013861486168615868AEB94E28093A16A76
:1047D0009093A26A8CEB94E280939D6A90939E6A78
:1047E0008BEB94E28093A36A9093A46A1092386052
:1047F0001092396010923C6610923D6610923A66B3
:1048000010923B6610929F6A1092A06A8581806820
:104810008583089520919F6A3091A06A81E0232BBF
:1048200009F480E008958091040885FB882780F9C9
:104830000895E0913A66F0913B66E65CFB49808121
:1048400020913A6630913B662F5F3F4F3170209345
:104850003A6630933B66909105089F7790930508E0
:1048600020919F6A3091A06A232B51F020919F6A7A
:104870003091A06A2150310920939F6A3093A06A39
:10488000909105089068909305080895E0913C6622
:10489000F0913D66EE0FFF1FE65CFF49108211822A
:1048A0008091010882FF12C0E0913C66F0913D6664
:1048B000EE0FFF1FE65CFF49808182608083E091FC
:1048C000A16AF091A26A309709F0099580910108D8
:1048D00081FF0CC080913860816080933860E091E6
:1048E000A36AF091A46A309709F0099580910108B4
:1048F00086FF12C0E0913C66F0913D66EE0FFF1F0F
:10490000E65CFF49808184608083E0919D6AF0913C
:104910009E6A309709F009952091000880913C66C5
:1049200090913D660196917040913A6650913B6638
:1049300048175907A1F0E0913C66F0913D66E65CAE
:10494000FB49208380933C6690933D6680919F6AEB
:104950009091A06A019680939F6A9093A06AE091DB
:104960003660F0913760309709F00994089580938C
:10497000020808950895089508951F920F920FB6A2
:104980000F9211242F933F934F935F936F937F93D5
:104990008F939F93AF93BF93EF93FF930E9446240F
:1049A000FF91EF91BF91AF919F918F917F916F9107
:1049B0005F914F913F912F910F900FBE0F901F90DD
:1049C0001895811108C06F3F21F460E002C0623089
:1049D000E0F7862F08958150990B80FFF8CF64305F
:1049E000A0F7F7CF0E943427811117C094E090936D
:1049F000660488E08093660480E28093660420E485
:104A00002093660422E02093A6049093A60490E1EC
:104A10009093A6048093A604089580910560823047
:104A200039F484E08093660488E08093660408C0CB
:104A3000813089F484E08093660488E08093650483
:104A400080910460823069F480E28093660480E49F
:104A5000809366040EC08111F3CF84E080936504D7
:104A6000E3CF813081F480E28093660480E4809318
:104A7000650480910360823061F48093A60484E031
:104A80008093A6040EC08111F4CF80E28093650468
:104A9000DECF813079F482E08093A60484E08093B5
:104AA000A50480910260823059F480E18093A604CD
:104AB00080E2B0CF8111F5CF82E08093A504DFCFF3
:104AC000813039F480E18093A60480E28093A504CC
:104AD00008958111A1CF80E18093A504E9CF6623D9
:104AE00029F0842F0E9495288093476608958111AC
:104AF00005C090910660911101C083E080934766E4
:104B000081E0809346660895DF92EF92FF920F93C3
:104B10001F93CF93DF933EB120914566220F41E072
:104B2000369531703427232B209345663EB1209172
:104B30004466220F329531703427232B209344662C
:104B400036B320914366220F30953170232B20938A
:104B5000436696B380914266880F93FB992790F93C
:104B60009427892B8093426682E4E82E86E6F82E0D
:104B7000CEE3D6E610E0DD24D394F70101917F0166
:104B80000F708881811106C00F3021F4D882812FE7
:104B90000E9477258881882319F0011101C01882AD
:104BA0001F5F2196143049F7DF91CF911F910F912C
:104BB000FF90EF90DF900895EF92FF921F93CF93B5
:104BC000DF93CDB7DEB72697CDBFDEBF162F80931C
:104BD00006608093476692E090930560909304602E
:104BE00090930360909302608330C9F4662391F040
:104BF0009E012F5F3F4F790196E0F90111929A953E
:104C0000E9F78A8380E00E949528970142E066EDEB
:104C10000E94FF271092056081E0809302608091DE
:104C200006608230C9F4112391F09E012F5F3F4F3F
:104C3000790196E0F90111929A95E9F78A8380E06B
:104C40000E949528970142E066ED0E94FF2710928E
:104C5000046081E080930260809106608130C9F435
:104C6000112391F09E012F5F3F4F790196E0F901EA
:104C700011929A95E9F78A8380E00E94952897011E
:104C800042E066ED0E94FF271092036081E080936E
:104C900002608091066081110FC0112359F01982C2
:104CA0001A820E9495289E012F5F3F4F42E066EDD9
:104CB0000E94FF27109202600E94F2242696CDBF28
:104CC000DEBFDF91CF911F91FF90EF90089581118A
:104CD00014C0633021F460E083E00C94DC25623082
:104CE00019F460E082E0F9CF613019F460E081E00E
:104CF000F4CF611102C080E0F0CF0895BF92CF924F
:104D0000DF92EF92FF920F931F93CF93DF93CDB774
:104D1000DEB7FC01EDB6FEB68081C28093812BEF39
:104D2000280F4DB75EB7421B51094DBF5EBF0DB78F
:104D30001EB70F5F1F4F3496402FD8013A2F341BF8
:104D4000321760F1955D9230E0F4F801B0802B2DC0
:104D500030E02E3E3105A8F49AEFD92ED80EFEEEA3
:104D6000FD1578F02D0D311D2F3E310550F480E0FA
:104D70000E9495288C1105C00F5F1F4FC12CCD14C8
:104D800080F080E0EDBEFEBEDF91CF911F910F91CC
:104D9000FF90EF90DF90CF90BF90089531913D93B9
:104DA000CDCFF80161918F018C2D8B0D0E9467266C
:104DB000C394E5CF0E94E820789481EE94E20E94AB
:104DC000F02782EF94E20E942F278FE695E20E945F
:104DD000F5278EE796E20E94FA270BE212EF2DEFFD
:104DE00035E641E061E080E00E94E22E0E94F2247C
:104DF00084E895E20E949D2380914666882331F0E5
:104E00001092466661E081E00E94D42E9091476640
:104E100080910660981729F08091476661E00E94B2
:104E2000DC250E94EC2DA895E7CF80914A669091F1
:104E30004B66019680934A6690934B6680914A66D2
:104E400090914B66803E914020F010924A661092FD
:104E50004B66089510924A6610924B6608958093AF
:104E60008D6A90938E6A089580910E600895FC017A
:104E7000680F791F8FEF91E3E617F70709F408959C
:104E80002191822728E030E087FF06C0880F89271C
:104E900021503109C9F7F0CF880FFACFCF92DF92B6
:104EA000EF92FF92642728E06B017C01F694E7946F
:104EB000D794C79461707727882799279095809514
:104EC000709561957F4F8F4F9F4F60727378887B8D
:104ED0009D7E6C257D258E259F25215029F7FF90ED
:104EE000EF90DF90CF9008958F929F92AF92BF92F4
:104EF000CF92DF92EF92FF920F931F93CF93DF93A6
:104F00008B01C42F6C01F12CE12C88248A94982CFD
:104F10005401C016D10648F1D0E008E110E00E942B
:104F20008D208111FCCFC501B401002E04C09695DF
:104F30008795779567950A94D2F7CE019C5E0E947B
:104F40007E20085011092196083F8FEF180739F786
:104F5000DF91CF911F910F91FF90EF90DF90CF9055
:104F6000BF90AF909F908F900895C701B6010E94A7
:104F70007820482FC501B4010E944E274B015C01E7
:104F80008FEFC81AD80AE80AF80AC3CF982F809181
:104F90000B60891759F080910A60981302C0911133
:104FA00005C081E09F3F19F080E0089581E00895F9
:104FB000882361F0813061F0803F61F09FE0980FBD
:104FC0009E3050F08F3F51F081E0089580E00895C9
:104FD00082E0089584E0089583E0089585E00895CF
:104FE00080936B6A90936C6A08958093796990932B
:104FF0007A69089580932A6990932B690895CF92D6
:10500000DF92EF92FF921F93CF93DF93CDB7DEB77E
:10501000142FCDB6DEB6443478F020E043E4612F9F
:1050200082E50E9454288091986A8F3F19F08F5F23
:105030008093986A80E02BC095E0940F492F50E050
:10504000EDB7FEB7E41BF50BEDBFFEBF31967F0158
:10505000EDB7FEB7918390910B60F7019183828346
:105060006383922FADB7BEB71596F9018E2F891BBA
:105070008117B8F0BA0162507109C7010E94372741
:10508000F701E10FF11D8483C7010E945A29CDBEAB
:10509000DEBEDF91CF911F91FF90EF90DF90CF9018
:1050A000089581918D93E2CFEF92FF920F931F931A
:1050B000CF93DF9300D000D0CDB7DEB7182FE62E08
:1050C000F42E022FE091906AF091916A309709F0E6
:1050D000099580918F6A882371F0113561F01983E9
:1050E000EA82FB820C839E012F5F3F4F44E068EE13
:1050F00080E00E94FF272496CDBFDEBFDF91CF91D5
:105100001F910F91FF90EF900895E2E9FAE6108267
:10511000118212821382148215821682178220E075
:1051200040E060E083E80C945428CF93682F4091CE
:105130000960841740F020E08BE30E945428C0E00F
:105140008C2FCF910895E82FF0E0E358F649C08105
:1051500020E04C2F87E30E945428F2CFEF92FF9279
:105160001F93CF93DF93C82F162F80910960C81724
:1051700068F020E0482F6C2F8BE30E94542880E0D9
:10518000DF91CF911F91FF90EF9008958C2F90E0C9
:105190009C01235836497901411104C0F9018081ED
:1051A0008617D9F0E0916B6AF0916C6AD12F309735
:1051B00061F0612F8C2F0995D82F181731F0282F07
:1051C000412F6C2F8AE30E94542820E04D2F6C2F32
:1051D00089E30E945428F701D08381E0D1CFCF9397
:1051E00020E040E06091096084E30E945428C0E020
:1051F00080910960C81710F0CF91089541E060E0F8
:105200008C2F0E94AE28CF5FF3CFCF93C0E0809168
:105210000960C81788F00E948D208111FCCF62E4DC
:105220008FEF94E10E947E2020E040E060910960D1
:1052300085E3CF910C9454280E948D208111FCCFDE
:105240008C2F90E0FC01E358F64960819C5E0E943F
:105250007E20CF5FDCCFCF938FEF94E10E947B2045
:1052600020E0823451F042E4682F83E30E94542806
:105270000E94EF28CF910C94052940E060910960CD
:1052800082E30E945428C0E080910960C81710F0A2
:10529000CF9108950E948D208111FCCF8C2F90E03A
:1052A0009C5E0E947B2041E0682F8C2F0E94AE28DC
:1052B000CF5FEACF30E020E0F901E45BF9494081BB
:1052C0004F3F71F4DC014C9150E0240F351F2B3D12
:1052D000324068F4BC01CF010E94312F81E0089573
:1052E0002A3D52E0350770F7240F311DE5CF20E04D
:1052F00040E060E081E50E9454288091996A8F3FE8
:1053000019F08F5F8093996A80E0089580910E6014
:10531000811113C081E080930E60E0918D6AF0915D
:105320008E6A309719F081E090E0099530E020E036
:1053300040E06CEE8FEF0C94FF2708950F931F93BE
:10534000CF93DF931F92CDB7DEB790EF980F9F3EBC
:10535000A0F190910860981781F1182F8093086050
:10536000662349F089839E012F5F3F4F41E06DEE38
:105370008FEF0E94FF278091796990917A69892B3C
:10538000E1F080917B698823F1F01031E0F4012F86
:10539000819F000D112440917C69040F802F0E9491
:1053A000952861E0811101C060E041E0400FE0918B
:1053B0007969F0917A69812F09950F90DF91CF91EA
:1053C0001F910F9108950FEFEFCF0F931F93CF937E
:1053D000DF93CDB7DEB76497CDBFDEBF182F062FA2
:1053E00080910D60898380910C608A8380910A602E
:1053F0008B8380919A6A91E089278C838FEE94E168
:105400000E947B208D8380EF94E10E947B208E831D
:1054100081EF94E10E947B208F8382EF94E10E94D0
:105420007B20888783EF94E10E947B20898784EF2B
:1054300094E10E947B208A8785EF94E10E947B2083
:105440008B8786EF94E10E947B208C8787EF94E125
:105450000E947B208D8788EF94E10E947B208E87BD
:1054600089EF94E10E947B208F878AEF94E10E946C
:105470007B20888B8BEF94E10E947B20898B8CEFC3
:1054800094E10E947B208A8B8DEF94E10E947B2027
:105490008B8B8EEF94E10E947B208C8B9E012F5F83
:1054A0003F4F44E1602F812F0E94FF276496CDBFBC
:1054B000DEBFDF91CF911F910F9108957F928F9260
:1054C0009F92AF92BF92CF92DF92EF92FF920F9393
:1054D0001F93CF93DF93CDB7DEB72897CDBFDEBF45
:1054E000FC01ADB6BEB6C0801181828003818BEF16
:1054F000D82EDC0C8DB79EB78D1991098DBF9EBF3C
:1055000001967C013496982FD7018A2F891B8D151F
:1055100070F0812F0E94D8278150823058F020E00F
:10552000412F602F81E60E94542811E0E8C081914C
:105530008D93EBCF0F3F39F5D11007C041E068EDF7
:1055400081E490E00E94C822FFCF92E0D91216C0F9
:10555000F701908181819F3F21F020910D602913F7
:10556000E4CF8F3F21F090910C609813DECF41E0A3
:1055700068ED81E490E00E94C822FFCF2D2D42E02B
:105580006FEF80E6D0CF013F51F420E040E060E0D3
:1055900083E50E94542881E080930760C6CF003FD6
:1055A00049F420E040E060E084E50E945428109235
:1055B0000760BBCF0D3E61F4F1E02D2D41E06DEEB3
:1055C000DF12DFCF60E0F70180810E949E29ADCF1E
:1055D0000C3EF9F481E080930E60E0918D6AF091C9
:1055E0008E6A81E090E0309701F58BE2800F823087
:1055F00008F0F2C0F1E02D2D42E0602FFD1508F615
:1056000090909A6A992009F491C020E040E082E6E7
:105610008ACF0B3E61F410920E60E0918D6AF0919A
:105620008E6A309711F390E080E00995DECF0A3E54
:1056300009F046C120E040E060E081E80E94542883
:1056400081E080938F6A71CF073E19F40E9485280C
:105650006CCF053E09F58091926A89838091936AA7
:105660008A838091946A8B838091956A8C838091E0
:10567000966A8D838091976A8E838091986A8F83D2
:105680008091996A88879E012F5F3F4F48E066EEC0
:10569000812F0E94FF2749CF033E29F430E020E00C
:1056A00040E064EEF5CF003E29F461EE812F0E94C8
:1056B000E5293BCF0F3D51F410919A6A20E040E07C
:1056C0006FED111119C00E94EF282FCF0E3D51F43C
:1056D00010919A6A20E040E06EED11110DC00E9419
:1056E000052923CF0D3D09F080CF10919A6A11232F
:1056F000D1F020E040E06DED82E60E945428812F39
:10570000ADBEBEBE2896CDBFDEBFDF91CF911F914B
:105710000F91FF90EF90DF90CF90BF90AF909F9050
:105720008F907F9008950E942B29FFCE2FEF821239
:1057300004C020E040E083E6F6CEF701D0808D2D56
:1057400090E0FAEFCF0ED98220910960422F50E00D
:10575000D21670F04C2D6D2D8BE30E9454289E01C3
:105760002F5F3F4F41E0053D09F0DFCE68ED90CF60
:105770002C1520F44C2D6D2D8CE3EFCF8C0D911D4D
:105780004817590720F44C2D6D2D8DE3E6CF20E00E
:105790004C2D6D2D88E30E9454282FEFE21AF20A57
:1057A000812C77247394F70161917F0140E08D2D66
:1057B000880D0E94AE288725982A83948C1498F32C
:1057C000053D09F0B2CE9E012F5F3F4F41E067EDEE
:1057D000992009F45DCFCACF003D09F06BC08DB6AA
:1057E0009EB6F2E0DF1649F02D2D42E060ED80E636
:1057F0000E9454288DBE9EBE98CE80919A6A8823BE
:1058000029F020E040E060ED82E6F2CFF701008170
:10581000C02ED12C718020910960422F50E00217D8
:1058200070F020E0472D602F8BE30E94542830E079
:1058300020E040E061ED812F0E94FF27DBCF27159C
:1058400020F4472D602F8CE3F0CFF2E4F71510F42D
:1058500022E4F7CFE72CF12CC7018C0D9D1D4817D2
:10586000590720F4472D602F8DE3DFCF20E0472D2F
:10587000602F86E30E9454282FEFE21AF20A8DB7B8
:105880009EB78E199F098DBF9EBF2DB73EB72F5F64
:105890003F4FEDB7FEB70183F601E358F649D90152
:1058A000119680E041E0480F871521F281918D9398
:1058B000842FF8CF11E0002309F421CF10E01FCF8F
:1058C000093E09F0C1CE20E040E060E082E80E949D
:1058D000542810928F6A29CEE0912C69F0912D699D
:1058E000309779F4809132690E94C62781110FC0E8
:1058F000E0912A69F0912B69309729F180E399E6CC
:10590000099480E399E60995882361F3F1CFE0914A
:105910002869F0912969309781F480E399E60E9423
:105920005E2A8111E5CFE0912669F09127693097D1
:10593000F9F280E399E60995DBCF80E399E60995D2
:105940008111D6CFEACF08951F93CF93DF93D2E092
:10595000C1E00E940A24811104C0DF91CF911F9100
:1059600008950E941924823419F4C0932E69F1CF4E
:1059700090912E699923D1F010922E69893919F4EA
:10598000C0937869E6CF863681F01092786920E07E
:1059900040E060E081E40E9454288091936A8F3F48
:1059A000C1F28F5F8093936AD4CF82E4909178693B
:1059B00091110EC020E040E060E082E40E94542893
:1059C0008091946A8F3F29F28F5F8093946AC1CF50
:1059D0009130E1F42BEF280F243438F480933069B0
:1059E00090932F69D0937869B4CF1092786920E0B2
:1059F00048E4682F83E40E9454288091956A8F3F81
:105A000009F4A7CF8F5F8093956AA3CF923009F0F6
:105A1000A0CF90912F6920913069921740F4E92F1F
:105A2000F0E0E05DF64980839F5F90932F6960917D
:105A3000306980912F6968138CCF1092786970E07B
:105A4000FB01E15DF64910816250710980E399E63E
:105A50000E943727181779F020E0482F612F84E43F
:105A60000E9454288091966A8F3F09F472CF8F5F0D
:105A70008093966A6ECF8091926A8F3F19F08F5F04
:105A80008093926A0E946C2C64CF0F931F93CF93E4
:105A9000DF93C82FD0E00AED12E00C1B1D0BBE01F6
:105AA000645B7949A8018CE496E60E94312FAE012F
:105AB0006FEF70E0C801845B9949DF91CF911F912E
:105AC0000F910C943A2FEF92FF920F931F93CF9365
:105AD000DF93CDB7DEB7C854D109CDBFDEBF00918B
:105AE0004C660F3F69F410E0812FC85BDF4FCDBFDC
:105AF000DEBFDF91CF911F910F91FF90EF9008953E
:105B0000402F50E06CE476E6CE0101960E94312FE2
:105B100080910760882339F38091976A8F3F19F04D
:105B20008F5F8093976A802F0E94452DE091486691
:105B3000F0914966309751F0CE0101960995182FE2
:105B4000882321F0802F0E94452DCECF8C81895F44
:105B50008430C8F40E9413248823E1F382E40E9475
:105B6000B7240E941324182F8823D9F389E90E94AF
:105B7000B72400E08981081798F010924A661092C5
:105B80004B66B2CFA89520914A6630914B668091C2
:105B90000B6090E0880F991F8217930799F7DACF6F
:105BA0000E9413248823E1F3EE24E394F12CEC0EFD
:105BB000FD1EE00EF11CF70180810E94B724F70161
:105BC0008081823439F40E9413248823E1F386E62D
:105BD0000E94B7240F5FCECF0E94A42C0E94632D99
:105BE0008111FCCF0895693000F110927B6960E06B
:105BF000982F2FE0629F900D1124692F615F6F3EF7
:105C0000B8F01092096010927C6910927B6920E0D4
:105C10004EEE81E30E94542820E040E0609109604C
:105C200080E30E9454280C942B2960937B69E0CF79
:105C30006093096080937C69EFCF0F931F93CF939C
:105C4000DF930DE61AE6C0E8D0E1CE010E94922073
:105C5000F80181938F012196C03AF0E1DF07A9F79F
:105C600060916D6A8FEF860F8E3F08F453C081E01C
:105C700080930D6020E040E085E20E94542820E0FF
:105C800040E060910D6084E20E94542860916E6A49
:105C90008FEB860F8A3108F440C081E480930C605A
:105CA00020E040E087E20E94542820E040E060913C
:105CB0000C6086E20E94542860916F6A8FEF860F15
:105CC000803F70F181E080930B6020E040E081E252
:105CD0000E94542820E040E060910B6080E20E9426
:105CE00054286091706A662351F08FE0860F8E30E1
:105CF00030F020E040E083E20E94542860EF60939F
:105D00000A6020E040E082E2DF91CF911F910F9185
:105D10000C94542860930D60B2CF60930C60C5CF93
:105D200060930B60D7CFCF92DF92EF92FF920F93E9
:105D30001F93CF93DF936B017C0180919A6AC7EF29
:105D40008111CFEED0E008E110E00E948D2081119A
:105D5000FCCFC701B601002E04C0969587957795B4
:105D600067950A94D2F7CE019C5E0E947E2008506F
:105D700011092196083F8FEF180739F743EF60E0CC
:105D800070E490E080E00E9474274BEF6FEF7FEFAC
:105D900080E090E4DF91CF911F910F91FF90EF9001
:105DA000DF90CF900C947427CF93C62F81110E945F
:105DB0008629CC2329F061E08FEFCF910C949E29A6
:105DC000CF910895BF92CF92DF92EF92FF920F93FF
:105DD0001F93CF93DF93B82EC62FD42F79014AEDAE
:105DE00052E06FEF70E08CE496E60E943A2FB0929A
:105DF0009A6A20E040E060E080E10E9454280E941E
:105E00001D2E6D2F8C2F0E94F32DC701B8010E940B
:105E1000932E85E197E20E9400238AE297E20E9496
:105E2000C321E0E0F4E08189887F8360818B8091E9
:105E30000B6090E0880F991F0E94742362EE80E04F
:105E40000E94E52920E040E060E081E1DF91CF9110
:105E50001F910F91FF90EF90DF90CF90BF900C9427
:105E60005428FB01DC0102C001900D9241505040CA
:105E7000D8F70895DC0101C06D9341505040E0F720
:065E80000895F894FFCF25
:105E86007E23020202020401FFEEF001410101003D
:02000004008278
:090000000A00000000D0100020ED
:0400000300004000B9
:00000001FF
