:104000000C9448200C9465200C9465200C94652039
:104010000C9465200C94EB220C942E230C946520B8
:104020000C946A210C9465200C9465200C947E23DA
:104030000C9465200C9465200C9465200C946520EC
:104040000C9465200C9465200C9465200C946520DC
:104050000C9465200C9499240C9465200C94652094
:104060000C94B1210C9465200C9465200C9465206F
:104070000C9465200C94A3210C9465200C9465206D
:104080000C9465200C9465200C94FF210C94652001
:1040900011241FBECFEFCDBFDFE7DEBF10E6A0E0EB
:1040A000B0E6E2E8FFE502C005900D92A231B1074B
:1040B000D9F72AE6A2E1B0E601C01D92A93AB207FB
:1040C000E1F70E94CD260C94BF2F0C940020482FBE
:1040D0006DE980E090E10C944D22E0E0F0E1828116
:1040E0008F78828308950E946D20109201100895A8
:1040F000FB0184910895FC01808108951F93CF9363
:10410000DF93EC01162F83E10E946720188380E083
:10411000DF91CF911F910C946720809102108695BA
:1041200081700895FC018081089540E068ED80E190
:1041300091E00E944D22E0E1F1E01282138280E0E2
:104140000895089508950895089508950895089587
:104150000895089508950895089508950895089577
:10416000CF93DF9380E094E029E0FC012083C0E45A
:10417000D4E01882A0E6B4E02CE62C9340EA54E0A8
:1041800026E3FA01208321E0FC0124831C8214969B
:104190001C921497FA011482FC01108A118A128A67
:1041A000138A148A158A168A178A188A198A1A8A0B
:1041B0001B8A1C8A1D8A1E8A1F8A50961C92509741
:1041C0008BE051968C93519752961C92529753962E
:1041D0001C92539754968C93549755961C925597CE
:1041E00056961C92569757961C92FA01808B118A0C
:1041F000128A838B148A158A168A178AE0EEF5E0F4
:104200001182108215821782108611861682128200
:1042100081EA90E280932E6090932F6083EA90E28F
:1042200080932C6090932D6084EA90E280932A60C2
:1042300090932B6085EA90E28093286090932960A8
:1042400086EA90E2809326609093276087EA90E266
:10425000809324609093256088EA90E280932260A6
:104260009093236089EA90E280932060909321608C
:104270008AEA90E280931E6090931F608BEA90E23E
:1042800080931C6090931D608CEA90E280931A608A
:1042900090931B608DEA90E2809318609093196070
:1042A0008EEA90E280931660909317608FEA90E216
:1042B000809314609093156082EA90E2809312607C
:1042C00090931360DF91CF91089580932E60909327
:1042D0002F6008951F920F920FB60F9211242F9303
:1042E0003F934F935F936F937F938F939F93AF937E
:1042F000BF93EF93FF93199B05C0E0912E60F0915F
:104300002F600995189B05C0E0912C60F0912D60FD
:1043100009951B9B05C0E0912A60F0912B600995DF
:104320008FEF83B9FF91EF91BF91AF919F918F91E3
:104330007F916F915F914F913F912F910F900FBEA1
:104340000F901F9018951F920F920FB60F92112485
:104350008F938FEF8BB98F910F900FBE0F901F909F
:1043600018951F920F920FB60F9211242F933F931F
:104370004F935F936F937F938F939F93AF93BF936D
:10438000EF93FF93799B05C0E0912860F09129603D
:1043900009957C9B05C0E0912660F0912760099506
:1043A0007A9B05C0E0912060F091216009957B9B8C
:1043B00005C0E0911E60F0911F6009957D9B05C0CE
:1043C000E0911C60F0911D6009957E9B05C0E09115
:1043D0001A60F0911B6009958FEF8FB9FF91EF91F3
:1043E000BF91AF919F918F917F916F915F914F910D
:1043F0003F912F910F900FBE0F901F9018951F9215
:104400000F920FB60F9211242F933F934F935F9308
:104410006F937F938F939F93AF93BF93EF93FF938C
:10442000B89B05C0E0912460F09125600995BB9B85
:1044300005C0E0912260F09123600995B99B05C009
:10444000E0911860F09119600995BA9B05C0E09160
:104450001660F09117600995BC9B05C0E09114604F
:10446000F09115600995BD9B05C0E0911260F09137
:10447000136009958FEF87BBFF91EF91BF91AF91CB
:104480009F918F917F916F915F914F913F912F916C
:104490000F900FBE0F901F901895FC0164BF4083D2
:1044A0000895462F68ED0C944D2260E080E690E080
:1044B0000E94512260E081E690E00E94512260E07B
:1044C00085E690E00E94512260E088E790E00E943B
:1044D000512264E288E690E00E94512260E089E681
:1044E00090E00E94512260E080E790E00E9451221B
:1044F00060E08CE790E00E94512260E082E690E06C
:104500000E94512260E083E690E00E94512260E028
:1045100084E690E00E94512260E080E890E00E94F2
:1045200051228091650081FFFCCF08954AE068ED3B
:1045300080E091E00E944D2240E868ED81E091E04A
:104540000E944D2280E008950E9455220E94B020D2
:104550000E9473200E94BE220E945B230E94AA2315
:104560000E9496220C949520019708F40895EFE696
:10457000F7E13197F1F700C00000F6CF80914101DB
:104580008111FCCF8FEF9FE780934C0190934D01F9
:1045900010924801109249018FEF9FEF80934A01DA
:1045A00090934B01109247011092420110924501E5
:1045B000809151018111FCCF81E0809352011092D2
:1045C000550181E18093500180E00895809330602F
:1045D0009093316008951F920F920FB60F9211249D
:1045E0002F933F934F935F936F937F938F939F93FB
:1045F000AF93BF93EF93FF938091420180FF0BC075
:104600008091430180FF07C0E0913460F0913560F4
:10461000309709F009958091420181FF0BC080918C
:10462000430181FF07C0E0913260F0913360309721
:1046300009F0099583E080934301FF91EF91BF91C9
:10464000AF919F918F917F916F915F914F913F912A
:104650002F910F900FBE0F901F9018951F920F92E1
:104660000FB60F9211242F933F934F935F936F9345
:104670007F938F939F93AF93BF93EF93FF93E091BB
:104680003060F0913160309709F0099581E08093B6
:104690005301FF91EF91BF91AF919F918F917F91C6
:1046A0006F915F914F913F912F910F900FBE0F909F
:1046B0001F9018950895E0E0FAE010A611A612A642
:1046C00013A614A615A610A211A21182128213829B
:1046D00014821582168217821686118680E18287DF
:1046E000138689EE90E086A397A317868FE08083D8
:1046F0000895809300609093016008951F920F9237
:104700000FB60F9211242F933F934F935F936F93A4
:104710007F938F939F93AF93BF93EF93FF93E0911A
:104720000060F0910160309709F0099580E1809375
:104730000B0AFF91EF91BF91AF919F918F917F9164
:104740006F915F914F913F912F910F900FBE0F90FE
:104750001F90189582E294E280939F6A9093A06ADA
:10476000E0E0F8E080EC90E08087918781E9858344
:1047700080EC868383E087831386148616861586ED
:1047800086E994E28093A56A9093A66A88E994E208
:104790008093A16A9093A26A87E994E28093A76AC2
:1047A0009093A86A109238601092396010923C661B
:1047B00010923D6610923A6610923B661092A36A80
:1047C0001092A46A85818068858308952091A36AE8
:1047D0003091A46A81E0232B09F480E00895809150
:1047E000040885FB882780F90895E0913A66F091E6
:1047F0003B66E65CFB49808120913A6630913B66DE
:104800002F5F3F4F317020933A6630933B66909113
:1048100005089F77909305082091A36A3091A46AB8
:10482000232B51F02091A36A3091A46A21503109C1
:104830002093A36A3093A46A90910508906890939E
:1048400005080895E0913C66F0913D66EE0FFF1F6C
:10485000E65CFF49108211828091010882FF12C03C
:10486000E0913C66F0913D66EE0FFF1FE65CFF496C
:10487000808182608083E091A56AF091A66A30977A
:1048800009F009958091010881FF0CC08091386082
:10489000816080933860E091A76AF091A86A3097B0
:1048A00009F009958091010886FF12C0E0913C66ED
:1048B000F0913D66EE0FFF1FE65CFF49808184604A
:1048C0008083E091A16AF091A26A309709F009957E
:1048D0002091000880913C6690913D660196917010
:1048E00040913A6650913B6648175907A1F0E09114
:1048F0003C66F0913D66E65CFB49208380933C6614
:1049000090933D668091A36A9091A46A01968093EA
:10491000A36A9093A46AE0913660F0913760309773
:1049200009F0099408958093020808950895089560
:1049300008951F920F920FB60F9211242F933F9359
:104940004F935F936F937F938F939F93AF93BF9397
:10495000EF93FF930E942224FF91EF91BF91AF91BB
:104960009F918F917F916F915F914F913F912F9187
:104970000F900FBE0F901F901895262F883098F437
:1049800080FD09C08FEF860F8F3E38F481E0809361
:104990003E66822F08956F3EC8F32FEFF7CF223087
:1049A000C0F320E0F6CF8850990B65E070E00E94DC
:1049B000872F8823A1F3813061F7233050F322E061
:1049C000E8CF0E946827811117C094E09093660495
:1049D00088E08093660480E28093660420E420935C
:1049E000660422E02093A6049093A60490E190939D
:1049F000A6048093A604089580910960813029F56A
:104A000084E08093660488E0809365048091086068
:104A1000813041F580E28093660480E480936504F0
:104A200080910760813059F582E08093A60484E08C
:104A30008093A50480910660813071F580E18093B8
:104A4000A60480E28093A5040895811107C084E044
:104A50008093650488E080936604D8CF84E08093D7
:104A60006604F8CF811107C080E28093650480E47A
:104A700080936604D5CF80E280936604F8CF8111DD
:104A800007C082E08093A50484E08093A604D2CF7F
:104A900082E08093A604F8CF811105C080E1809365
:104AA000A50480E2A6CF80E18093A604FACF31E08E
:104AB0003093476690E0FC01EA5FFF4920812111B5
:104AC00005C08E5F9F49FC0130830895213021F499
:104AD0008E5F9F49FC0110820895DF92EF92FF9252
:104AE0000F931F93CF93DF933EB120914666220F21
:104AF00041E0369531703427232B209346663EB132
:104B000020914566220F329531703427232B209354
:104B1000456636B320914466220F30953170232BC1
:104B20002093446696B380914366880F93FB992740
:104B300090F99427892B8093436683E4E82E86E6D8
:104B4000F82ECFE3D6E610E0DD24D394F7010191EF
:104B50007F010F708881811106C00F3021F4D88247
:104B6000812F0E9457258881882319F0011101C0E7
:104B700018821F5F2196143049F7DF91CF911F9162
:104B80000F91FF90EF90DF900895DF92EF92FF92E8
:104B90000F931F93CF93DF9300D0CDB7DEB7142FC1
:104BA000E82FF0E09F012A5F3F497901D9019C91EC
:104BB000EE5FFF49923019F4908310E01DC06083CE
:104BC0009617D9F3F9016083442309F1082F000FE8
:104BD000802F0E94C928D82E81E0800F0E94C9280A
:104BE0008983D7018C918A839E012F5F3F4F42E0DA
:104BF00066ED8D2D0E943328812F0F900F90DF914D
:104C0000CF911F910F91FF90EF90DF90089511E0E9
:104C1000F3CF1F93CF93DF936623C9F0142FD0E017
:104C2000C0E0812F8C0F0E94C928823030F441E00F
:104C3000682F8C2F0E94C525D82BCF5FC43089F7F1
:104C4000DD2329F0DF91CF911F910C94E124DF91B6
:104C5000CF911F910895EF92FF920F931F93CF93DF
:104C6000DF93F82EE62E142F423008F010E0C0E05B
:104C7000D0E00C2F000F802F0E94C9288F110CC08C
:104C800081E0800F0E94C9288E1106C040E0612F8C
:104C90008C2F0E94C525D82BCF5FC43051F78D2FA4
:104CA000DF91CF911F910F91FF90EF9008954F9258
:104CB0005F926F927F928F929F92AF92BF92CF92AC
:104CC000DF92EF92FF920F931F93CF93DF93CDB7B5
:104CD000DEB7FC01CDB6DEB6E0807180A280B38085
:104CE0008BEF8E0D2DB73EB7281B31092DBF3EBF70
:104CF0000DB71EB70F5F1F4F3496202FD8019A2F84
:104D0000921B981788F131EDF12CB3120AC0F8010B
:104D100041904F018AEF582E5E0C612CF12C6514E6
:104D200030F18BE28B0D823040F4F80101914F019C
:104D30001AEF1E0DE12CE11628F1F1100E94E1247A
:104D400080E0CDBEDEBEDF91CF911F910F91FF902D
:104D5000EF90DF90CF90BF90AF909F908F907F901B
:104D60006F905F904F90089591919D93C8CFF401FB
:104D700041914F01642D660D872D0E942B26F82A44
:104D80006394CDCFF40141914F01602F6E0D8A2DB8
:104D90000E942B26F82AE394CECF0E94A422789476
:104DA0008DEB94E20E94242881EE94E20E94632716
:104DB00089E096E20E94292887E596E20E942E2843
:104DC00008E71AE02FEF35E644E068E080E00E9453
:104DD000382F0E94E1248DE695E20E94792392E02B
:104DE000E92E80914766882331F01092476661E092
:104DF00081E00E942A2F80913E668823D1F0109294
:104E00003E66C6E0D0E6F12C8F2D0E94C9288E01A7
:104E1000065010468F3F71F5F801EE5FFF49E082C2
:104E2000E882F394F394219688E0F812EDCF0E9483
:104E3000E12486E0C82E80E6D82ED0E0C0E010E065
:104E4000FE01EE5FFF499081D6018D916D019817AB
:104E500031F0608141E08C2F0E94C525182B2196EE
:104E6000C430D10569F711110E94E1240E94422E3D
:104E7000A895B7CF81E08F0D0E94C9288F3F61F2BE
:104E80008881823071F6F801EE5FFF491082188246
:104E9000C8CF80914A6690914B66019680934A668E
:104EA00090934B6680914A6690914B66803E91400C
:104EB00020F010924A6610924B66089510924A664E
:104EC00010924B6608958093916A9093926A089528
:104ED000809111600895FC01680F791F8FEF91E3B5
:104EE000E617F70709F408952191822728E030E0BA
:104EF00087FF06C0880F892721503109C9F7F0CFF5
:104F0000880FFACFCF92DF92EF92FF92642728E0CA
:104F10006B017C01F694E794D794C794617077276E
:104F20008827992790958095709561957F4F8F4F31
:104F30009F4F60727378887B9D7E6C257D258E25C2
:104F40009F25215029F7FF90EF90DF90CF90089593
:104F50008F929F92AF92BF92CF92DF92EF92FF9289
:104F60000F931F93CF93DF938B01C42F6C01F12C10
:104F7000E12C88248A94982C5401C016D10648F15B
:104F8000D0E008E110E00E948D208111FCCFC50126
:104F9000B401002E04C096958795779567950A947D
:104FA000D2F7CE019C5E0E947E2008501109219606
:104FB000083F8FEF180739F7DF91CF911F910F91BD
:104FC000FF90EF90DF90CF90BF90AF909F908F9029
:104FD0000895C701B6010E947820482FC501B40189
:104FE0000E9482274B015C018FEFC81AD80AE80A99
:104FF000F80AC3CF982F80910E60891759F08091DD
:105000000D60981302C0911105C081E09F3F19F017
:1050100080E0089581E00895882361F0813061F097
:10502000803F61F09FE0980F9E3050F08F3F51F02D
:1050300081E0089580E0089582E0089584E0089575
:1050400083E0089585E0089580936B6A90936C6A7D
:1050500008958093796990937A69089580932A6975
:1050600090932B690895CF92DF92EF92FF921F9356
:10507000CF93DF93CDB7DEB7142FCDB6DEB6443471
:1050800078F020E043E4612F82E50E948828809137
:105090009C6A8F3F19F08F5F80939C6A80E02BC0E1
:1050A00095E0940F492F50E0EDB7FEB7E41BF50BE8
:1050B000EDBFFEBF31967F01EDB7FEB791839091B2
:1050C0000E60F701918382836383922FADB7BEB7E1
:1050D0001596F9018E2F891B8117B8F0BA0162501D
:1050E0007109C7010E946B27F701E10FF11D84834D
:1050F000C7010E948E29CDBEDEBEDF91CF911F91E8
:10510000FF90EF90DF90CF90089581918D93E2CF43
:10511000EF92FF920F931F93CF93DF9300D000D0B5
:10512000CDB7DEB7182FE62EF42E022FE091946A49
:10513000F091956A309709F009958091936A8823D8
:1051400071F0113561F01983EA82FB820C839E01B4
:105150002F5F3F4F44E068EE80E00E9433282496A2
:10516000CDBFDEBFDF91CF911F910F91FF90EF90E8
:105170000895E6E9FAE610821182128213821482FF
:1051800015821682178220E040E060E083E80C94EC
:105190008828CF93682F40910C60841740F020E05E
:1051A0008BE30E948828C0E08C2FCF910895E82FD0
:1051B000F0E0E358F649C08120E04C2F87E30E94DD
:1051C0008828F2CFEF92FF921F93CF93DF93C82FDF
:1051D000162F80910C60C81768F020E0482F6C2FC4
:1051E0008BE30E94882880E0DF91CF911F91FF9090
:1051F000EF9008958C2F90E09C0123583649790157
:10520000411104C0F90180818617D9F0E0916B6AE1
:10521000F0916C6AD12F309761F0612F8C2F099536
:10522000D82F181731F0282F412F6C2F8AE30E94B6
:10523000882820E04D2F6C2F89E30E948828F701F1
:10524000D08381E0D1CFCF9320E040E060910C602B
:1052500084E30E948828C0E080910C60C81710F099
:10526000CF91089541E060E08C2F0E94E228CF5F4B
:10527000F3CFCF93C0E080910C60C81788F00E94F4
:105280008D208111FCCF62E48FEF94E10E947E209B
:1052900020E040E060910C6085E3CF910C94882879
:1052A0000E948D208111FCCF8C2F90E0FC01E358EF
:1052B000F64960819C5E0E947E20CF5FDCCFCF9359
:1052C0008FEF94E10E947B2020E0823451F042E491
:1052D000682F83E30E9488280E942329CF910C9491
:1052E000392940E060910C6082E30E948828C0E088
:1052F00080910C60C81710F0CF9108950E948D2006
:105300008111FCCF8C2F90E09C5E0E947B2041E0BD
:10531000682F8C2F0E94E228CF5FEACF30E020E098
:10532000F901E45BF94940814F3F71F4DC014C9194
:1053300050E0240F351F2B3D324068F4BC01CF01F3
:105340000E94AF2F81E008952A3D52E0350770F7A3
:10535000240F311DE5CF20E040E060E081E50E94B0
:10536000882880919D6A8F3F19F08F5F80939D6A96
:1053700080E0089580911160811113C081E08093D5
:105380001160E091916AF091926A309719F081E092
:1053900090E0099530E020E040E06CEE8FEF0C9457
:1053A000332808950F931F93CF93DF931F92CDB7A8
:1053B000DEB790EF980F9F3EA0F190910B60981789
:1053C00081F1182F80930B60662349F089839E0139
:1053D0002F5F3F4F41E06DEE8FEF0E9433288091A9
:1053E000796990917A69892BE1F080917B698823B2
:1053F000F1F01031E0F4012F819F000D1124409154
:105400007C69040F802F0E94C92861E0811101C0CE
:1054100060E041E0400FE0917969F0917A69812F75
:1054200009950F90DF91CF911F910F9108950FEF84
:10543000EFCF0F931F93CF93DF93CDB7DEB7649772
:10544000CDBFDEBF182F062F809110608983809119
:105450000F608A8380910D608B8380919E6A91E0BA
:1054600089278C838FEE94E10E947B208D8380EFCF
:1054700094E10E947B208E8381EF94E10E947B2047
:105480008F8382EF94E10E947B20888783EF94E1F1
:105490000E947B20898784EF94E10E947B208A8789
:1054A00085EF94E10E947B208B8786EF94E10E9438
:1054B0007B208C8787EF94E10E947B208D8788EF8B
:1054C00094E10E947B208E8789EF94E10E947B20EB
:1054D0008F878AEF94E10E947B20888B8BEF94E189
:1054E0000E947B20898B8CEF94E10E947B208A8B29
:1054F0008DEF94E10E947B208B8B8EEF94E10E94D4
:105500007B208C8B9E012F5F3F4F44E1602F812FCA
:105510000E9433286496CDBFDEBFDF91CF911F91EB
:105520000F9108957F928F929F92AF92BF92CF92E8
:10553000DF92EF92FF920F931F93CF93DF93CDB73C
:10554000DEB72897CDBFDEBFFC01ADB6BEB6E080AA
:105550001181828003818BEFF82EFE0C8DB79EB7F0
:105560008F1991098DBF9EBF01966C013496982FBB
:10557000D6018A2F891B8F1570F0812F0E940C286D
:105580008150823058F020E0412F602F81E60E9448
:10559000882811E0E8C081918D93EBCF0F3F39F55A
:1055A000F11007C041E068ED81E490E00E944D22D7
:1055B000FFCF92E0F91216C0F601908181819F3FE2
:1055C00021F0209110602913E4CF8F3F21F09091BA
:1055D0000F609813DECF41E068ED81E490E00E9417
:1055E0004D22FFCF2F2D42E06FEF80E6D0CF013F5D
:1055F00051F420E040E060E083E50E94882881E0EB
:1056000080930A60C6CF003F49F420E040E060E0AC
:1056100084E50E94882810920A60BBCF0D3E61F499
:10562000F1E02F2D41E06DEEFF12DFCF60E0F601DB
:1056300080810E94D229ADCF0C3EF9F481E08093A5
:105640001160E091916AF091926A81E090E0309768
:1056500001F58BE2800F823008F0F2C0F1E02F2DCF
:1056600042E0602FFF1508F690909E6A992009F499
:1056700091C020E040E082E68ACF0B3E61F41092B8
:105680001160E091916AF091926A309711F390E085
:1056900080E00995DECF0A3E09F068C120E040E0D5
:1056A00060E081E80E94882881E08093936A71CF4E
:1056B000073E19F40E94B9286CCF053E09F5809188
:1056C000966A89838091976A8A838091986A8B838E
:1056D0008091996A8C8380919A6A8D8380919B6A6C
:1056E0008E8380919C6A8F8380919D6A88879E01BA
:1056F0002F5F3F4F48E066EE812F0E94332849CF4D
:10570000033E29F430E020E040E064EEF5CF003EB7
:1057100029F461EE812F0E94192A3BCF0F3D51F4ED
:1057200010919E6A20E040E06FED111119C00E94B7
:1057300023292FCF0E3D51F410919E6A20E040E0C6
:105740006EED11110DC00E94392923CF0D3D09F0D6
:1057500080CF10919E6A1123D1F020E040E06DEDE2
:1057600082E60E948828812FADBEBEBE2896CDBF9E
:10577000DEBFDF91CF911F910F91FF90EF90DF90EF
:10578000CF90BF90AF909F908F907F9008950E9490
:105790005F29FFCE2FEF821204C020E040E083E6B5
:1057A000F6CEF601F0808F2D90E0FAEFEF0EF98241
:1057B00020910C60422F50E0F21670F04E2D6F2DAC
:1057C0008BE30E9488289E012F5F3F4F41E0053DFB
:1057D00009F0DFCE68ED90CF2E1520F44E2D6F2D01
:1057E0008CE3EFCF8E0D911D4817590720F44E2DF5
:1057F0006F2D8DE3E6CF20E04E2D6F2D88E30E94C4
:1058000088282FEFC21AD20A812C77247394F601CC
:1058100061916F0140E08F2D880D0E94E22887255D
:10582000982A83948E1498F3053D09F0B2CE9E0118
:105830002F5F3F4F41E067ED992009F45DCFCACF5C
:10584000003D09F06BC08DB69EB6F2E0FF1649F040
:105850002F2D42E060ED80E60E9488288DBE9EBE1E
:1058600098CE80919E6A882329F020E040E060ED88
:1058700082E6F2CFF6010081E02EF12C71802091BA
:105880000C60422F50E0021770F020E0472D602F8F
:105890008BE30E94882830E020E040E061ED812F1A
:1058A0000E943328DBCF271520F4472D602F8CE38F
:1058B000F0CFF2E4F71510F422E4F7CFC72CD12C87
:1058C000C6018E0D9F1D4817590720F4472D602FE4
:1058D0008DE3DFCF20E0472D602F86E30E948828EC
:1058E0002FEFC21AD20A8DB79EB78C199D098DBFB2
:1058F0009EBF2DB73EB72F5F3F4FEDB7FEB7018379
:10590000F701E358F649D901119680E041E0480FCC
:10591000871521F281918D93842FF8CF013B99F463
:10592000F3E02F2D43E061EBFF125FCEE0916F6A51
:10593000F091706A309711F0C601099511E00023CB
:1059400009F411CF11C0003BC9F723E0F21621F092
:105950002F2D43E060EB49CEE0916D6AF0916E6AC5
:10596000309711F0C601099510E0FDCE093E09F00F
:105970009FCE20E040E060E082E80E9488281092FC
:10598000936A07CEE0912C69F0912D69309779F4F4
:10599000809132690E94FA2781110FC0E0912A6933
:1059A000F0912B69309729F180E399E6099480E31F
:1059B00099E60995882361F3F1CFE0912869F09188
:1059C0002969309781F480E399E60E94922A811137
:1059D000E5CFE0912669F09127693097F9F280E3ED
:1059E00099E60995DBCF80E399E609958111D6CF39
:1059F000EACF08951F93CF93DF93D2E0C1E00E94D6
:105A0000E623811104C0DF91CF911F9108950E9478
:105A1000F523823419F4C0932E69F1CF90912E6949
:105A20009923D1F010922E69893919F4C0937869BD
:105A3000E6CF863681F01092786920E040E060E0A1
:105A400081E40E9488288091976A8F3FC1F28F5F1E
:105A50008093976AD4CF82E49091786991110EC0B7
:105A600020E040E060E082E40E9488288091986A0B
:105A70008F3F29F28F5F8093986AC1CF9130E1F414
:105A80002BEF280F243438F48093306990932F69DA
:105A9000D0937869B4CF1092786920E048E4682FF9
:105AA00083E40E9488288091996A8F3F09F4A7CFE8
:105AB0008F5F8093996AA3CF923009F0A0CF909125
:105AC0002F6920913069921740F4E92FF0E0E05DF2
:105AD000F64980839F5F90932F6960913069809130
:105AE0002F6968138CCF1092786970E0FB01E15D3B
:105AF000F64910816250710980E399E60E946B2794
:105B0000181779F020E0482F612F84E40E9488283C
:105B100080919A6A8F3F09F472CF8F5F80939A6A5F
:105B20006ECF8091966A8F3F19F08F5F8093966A4F
:105B30000E94C22C64CF0F931F93CF93DF93C82F83
:105B4000D0E00AED12E00C1B1D0BBE01645B79492D
:105B5000A8018CE496E60E94AF2FAE016FEF70E0D3
:105B6000C801845B9949DF91CF911F910F910C94EB
:105B7000B82FEF92FF920F931F93CF93DF93CDB780
:105B8000DEB7C854D109CDBFDEBF00914C660F3FD0
:105B900069F410E0812FC85BDF4FCDBFDEBFDF911E
:105BA000CF911F910F91FF90EF900895402F50E0FB
:105BB0006CE476E6CE0101960E94AF2F80910A60D8
:105BC000882339F380919B6A8F3F19F08F5F809310
:105BD0009B6A802F0E949B2DE0914866F091496658
:105BE000309751F0CE0101960995182F882321F0A6
:105BF000802F0E949B2DCECF8C81895F8430C8F48A
:105C00000E94EF238823E1F382E40E9493240E9400
:105C1000EF23182F8823D9F389E90E94932400E009
:105C20008981081798F010924A6610924B66B2CF9D
:105C3000A89520914A6630914B6680910E6090E065
:105C4000880F991F8217930799F7DACF0E94EF23E5
:105C50008823E1F3EE24E394F12CEC0EFD1EE00E1C
:105C6000F11CF70180810E949324F7018081823426
:105C700039F40E94EF238823E1F386E60E949324FF
:105C80000F5FCECF0E94FA2C0E94B92D8111FCCF5C
:105C90000895693000F110927B6960E0982F2FE041
:105CA000629F900D1124692F615F6F3EB8F01092D2
:105CB0000C6010927C6910927B6920E04EEE81E3CB
:105CC0000E94882820E040E060910C6080E30E9400
:105CD00088280C945F2960937B69E0CF60930C6007
:105CE00080937C69EFCF0F931F93CF93DF9301E7EE
:105CF0001AE6C0E8D0E1CE010E949220F80181931B
:105D00008F012196C03AF0E1DF07A9F76091716A2F
:105D10008FEF860F8E3F08F453C081E080931060B0
:105D200020E040E085E20E94882820E040E0609189
:105D3000106084E20E9488286091726A8FEB860F5F
:105D40008A3108F440C081E480930F6020E040E095
:105D500087E20E94882820E040E060910F6086E2A0
:105D60000E9488286091736A8FEF860F803F70F1E0
:105D700081E080930E6020E040E081E20E9488286C
:105D800020E040E060910E6080E20E9488286091EF
:105D9000746A662351F08FE0860F8E3030F020E079
:105DA00040E083E20E94882860EF60930D6020E06D
:105DB00040E082E2DF91CF911F910F910C948828EF
:105DC00060931060B2CF60930F60C5CF60930E6098
:105DD000D7CFCF92DF92EF92FF920F931F93CF9383
:105DE000DF936B017C0180919E6AC7EF8111CFEE3A
:105DF000D0E008E110E00E948D208111FCCFC701A6
:105E0000B601002E04C096958795779567950A94FC
:105E1000D2F7CE019C5E0E947E2008501109219687
:105E2000083F8FEF180739F743EF60E070E490E028
:105E300080E00E94A8274BEF6FEF7FEF80E090E4B7
:105E4000DF91CF911F910F91FF90EF90DF90CF9056
:105E50000C94A827CF93C62F81110E94BA29CC2376
:105E600029F061E08FEFCF910C94D229CF91089562
:105E7000BF92CF92DF92EF92FF920F931F93CF9337
:105E8000DF93B82EC62FD42F79014AED52E06FEF81
:105E900070E08CE496E60E94B82FB0929E6A20E0F3
:105EA00040E060E080E10E9488280E94732E6D2F00
:105EB0008C2F0E94492EC701B8010E94E92E89E467
:105EC00097E20E94E6228EE597E20E946521E0E0DB
:105ED000F4E08189887F8360818B80910E6090E0FF
:105EE000880F991F0E94B42262EE80E00E94192A56
:105EF00020E040E060E081E1DF91CF911F910F91C0
:105F0000FF90EF90DF90CF90BF900C94882897FB84
:105F1000072E16F4009407D077FD09D00E949B2F1E
:105F200007FC05D03EF4909581959F4F089570959C
:105F300061957F4F0895AA1BBB1B51E107C0AA1FA3
:105F4000BB1FA617B70710F0A61BB70B881F991F1A
:105F50005A95A9F780959095BC01CD010895FB0154
:105F6000DC0102C001900D9241505040D8F70895D5
:105F7000DC0101C06D9341505040E0F70895F89462
:025F8000FFCF51
:105F82005A23020202020202020201FFEEF0014162
:025F920001010B
:02000004008278
:090000000A00000000D0100020ED
:0400000300004000B9
:00000001FF
