:104000000C9448200C9465200C9465200C94652039
:104010000C9465200C94EB220C942E230C946520B8
:104020000C946A210C9465200C9465200C947E23DA
:104030000C9465200C9465200C9465200C946520EC
:104040000C9465200C9465200C9465200C946520DC
:104050000C9465200C9499240C9465200C94652094
:104060000C94B1210C9465200C9465200C9465206F
:104070000C9465200C94A3210C9465200C9465206D
:104080000C9465200C9465200C94FF210C94652001
:1040900011241FBECFEFCDBFDFE7DEBF10E6A0E0EB
:1040A000B0E6E0EBFFE502C005900D92A631B10746
:1040B000D9F72AE6A6E1B0E601C01D92A93AB207F7
:1040C000E1F70E9402270C94D62F0C940020482F71
:1040D0006DE980E090E10C944D22E0E0F0E1828116
:1040E0008F78828308950E946D20109201100895A8
:1040F000FB0184910895FC01808108951F93CF9363
:10410000DF93EC01162F83E10E946720188380E083
:10411000DF91CF911F910C946720809102108695BA
:1041200081700895FC018081089540E068ED80E190
:1041300091E00E944D22E0E1F1E01282138280E0E2
:104140000895089508950895089508950895089587
:104150000895089508950895089508950895089577
:10416000CF93DF9380E094E029E0FC012083C0E45A
:10417000D4E01882A0E6B4E02CE62C9340EA54E0A8
:1041800026E3FA01208321E0FC0124831C8214969B
:104190001C921497FA011482FC01108A118A128A67
:1041A000138A148A158A168A178A188A198A1A8A0B
:1041B0001B8A1C8A1D8A1E8A1F8A50961C92509741
:1041C0008BE051968C93519752961C92529753962E
:1041D0001C92539754968C93549755961C925597CE
:1041E00056961C92569757961C92FA01808B118A0C
:1041F000128A838B148A158A168A178AE0EEF5E0F4
:104200001182108215821782108611861682128200
:1042100081EA90E2809332609093336083EA90E287
:10422000809330609093316084EA90E280932E60B6
:1042300090932F6085EA90E280932C6090932D609C
:1042400086EA90E280932A6090932B6087EA90E25E
:10425000809328609093296088EA90E2809326609A
:104260009093276089EA90E2809324609093256080
:104270008AEA90E280932260909323608BEA90E236
:1042800080932060909321608CEA90E280931E607E
:1042900090931F608DEA90E280931C6090931D6064
:1042A0008EEA90E280931A6090931B608FEA90E20E
:1042B000809318609093196082EA90E28093166070
:1042C00090931760DF91CF9108958093326090931F
:1042D000336008951F920F920FB60F9211242F93FF
:1042E0003F934F935F936F937F938F939F93AF937E
:1042F000BF93EF93FF93199B05C0E0913260F0915B
:1043000033600995189B05C0E0913060F0913160F1
:1043100009951B9B05C0E0912E60F0912F600995D7
:104320008FEF83B9FF91EF91BF91AF919F918F91E3
:104330007F916F915F914F913F912F910F900FBEA1
:104340000F901F9018951F920F920FB60F92112485
:104350008F938FEF8BB98F910F900FBE0F901F909F
:1043600018951F920F920FB60F9211242F933F931F
:104370004F935F936F937F938F939F93AF93BF936D
:10438000EF93FF93799B05C0E0912C60F0912D6035
:1043900009957C9B05C0E0912A60F0912B600995FE
:1043A0007A9B05C0E0912460F091256009957B9B84
:1043B00005C0E0912260F091236009957D9B05C0C6
:1043C000E0912060F091216009957E9B05C0E0910D
:1043D0001E60F0911F6009958FEF8FB9FF91EF91EB
:1043E000BF91AF919F918F917F916F915F914F910D
:1043F0003F912F910F900FBE0F901F9018951F9215
:104400000F920FB60F9211242F933F934F935F9308
:104410006F937F938F939F93AF93BF93EF93FF938C
:10442000B89B05C0E0912860F09129600995BB9B7D
:1044300005C0E0912660F09127600995B99B05C001
:10444000E0911C60F0911D600995BA9B05C0E09158
:104450001A60F0911B600995BC9B05C0E091186043
:10446000F09119600995BD9B05C0E0911660F0912F
:10447000176009958FEF87BBFF91EF91BF91AF91C7
:104480009F918F917F916F915F914F913F912F916C
:104490000F900FBE0F901F901895FC0164BF4083D2
:1044A0000895462F68ED0C944D2260E080E690E080
:1044B0000E94512260E081E690E00E94512260E07B
:1044C00085E690E00E94512260E088E790E00E943B
:1044D000512264E288E690E00E94512260E089E681
:1044E00090E00E94512260E080E790E00E9451221B
:1044F00060E08CE790E00E94512260E082E690E06C
:104500000E94512260E083E690E00E94512260E028
:1045100084E690E00E94512260E080E890E00E94F2
:1045200051228091650081FFFCCF08954AE068ED3B
:1045300080E091E00E944D2240E868ED81E091E04A
:104540000E944D2280E008950E9455220E94B020D2
:104550000E9473200E94BE220E945B230E94AA2315
:104560000E9496220C949520019708F40895EFE696
:10457000F7E13197F1F700C00000F6CF80914101DB
:104580008111FCCF8FEF9FE780934C0190934D01F9
:1045900010924801109249018FEF9FEF80934A01DA
:1045A00090934B01109247011092420110924501E5
:1045B000809151018111FCCF81E0809352011092D2
:1045C000550181E18093500180E00895809334602B
:1045D0009093356008951F920F920FB60F92112499
:1045E0002F933F934F935F936F937F938F939F93FB
:1045F000AF93BF93EF93FF938091420180FF0BC075
:104600008091430180FF07C0E0913860F0913960EC
:10461000309709F009958091420181FF0BC080918C
:10462000430181FF07C0E0913660F0913760309719
:1046300009F0099583E080934301FF91EF91BF91C9
:10464000AF919F918F917F916F915F914F913F912A
:104650002F910F900FBE0F901F9018951F920F92E1
:104660000FB60F9211242F933F934F935F936F9345
:104670007F938F939F93AF93BF93EF93FF93E091BB
:104680003460F0913560309709F0099581E08093AE
:104690005301FF91EF91BF91AF919F918F917F91C6
:1046A0006F915F914F913F912F910F900FBE0F909F
:1046B0001F9018950895E0E0FAE010A611A612A642
:1046C00013A614A615A610A211A21182128213829B
:1046D00014821582168217821686118680E18287DF
:1046E000138689EE90E086A397A317868FE08083D8
:1046F0000895809300609093016008951F920F9237
:104700000FB60F9211242F933F934F935F936F93A4
:104710007F938F939F93AF93BF93EF93FF93E0911A
:104720000060F0910160309709F0099580E1809375
:104730000B0AFF91EF91BF91AF919F918F917F9164
:104740006F915F914F913F912F910F900FBE0F90FE
:104750001F90189582E294E280939F6A9093A06ADA
:10476000E0E0F8E080EC90E08087918781E9858344
:1047700080EC868383E087831386148616861586ED
:1047800086E994E28093A56A9093A66A88E994E208
:104790008093A16A9093A26A87E994E28093A76AC2
:1047A0009093A86A10923C6010923D60109240660F
:1047B0001092416610923E6610923F661092A36A74
:1047C0001092A46A85818068858308952091A36AE8
:1047D0003091A46A81E0232B09F480E00895809150
:1047E000040885FB882780F90895E0913E66F091E2
:1047F0003F66E25CFB49808120913E6630913F66D6
:104800002F5F3F4F317020933E6630933F6690910B
:1048100005089F77909305082091A36A3091A46AB8
:10482000232B51F02091A36A3091A46A21503109C1
:104830002093A36A3093A46A90910508906890939E
:1048400005080895E0914066F0914166EE0FFF1F64
:10485000E25CFF49108211828091010882FF12C040
:10486000E0914066F0914166EE0FFF1FE25CFF4968
:10487000808182608083E091A56AF091A66A30977A
:1048800009F009958091010881FF0CC080913C607E
:10489000816080933C60E091A76AF091A86A3097AC
:1048A00009F009958091010886FF12C0E0914066E9
:1048B000F0914166EE0FFF1FE25CFF49808184604A
:1048C0008083E091A16AF091A26A309709F009957E
:1048D0002091000880914066909141660196917008
:1048E00040913E6650913F6648175907A1F0E0910C
:1048F0004066F0914166E25CFB492083809340660C
:10490000909341668091A36A9091A46A01968093E6
:10491000A36A9093A46AE0913A60F0913B6030976B
:1049200009F0099408958093020808950895089560
:1049300008951F920F920FB60F9211242F933F9359
:104940004F935F936F937F938F939F93AF93BF9397
:10495000EF93FF930E942224FF91EF91BF91AF91BB
:104960009F918F917F916F915F914F913F912F9187
:104970000F900FBE0F901F901895262F8830B8F417
:1049800080FD0DC09FEF960F9F3E58F48695E82F4F
:10499000F0E0EE5FFF4982E08083822F08956F3E52
:1049A000A8F32FEFF3CF2230C0F320E0F6CF8850EA
:1049B000990B65E070E00E949E2F8823A1F381305F
:1049C00061F7233050F322E0E8CF0E94A127811144
:1049D00017C094E09093660488E08093660480E2B8
:1049E0008093660420E42093660422E02093A604CA
:1049F0009093A60490E19093A6048093A604089552
:104A000080910960813029F584E08093660488E014
:104A10008093650480910860813041F580E2809345
:104A2000660480E48093650480910760813059F5C5
:104A300082E08093A60484E08093A50480910660C0
:104A4000813071F580E18093A60480E28093A50413
:104A50000895811107C084E08093650488E0809305
:104A60006604D8CF84E080936604F8CF811107C034
:104A700080E28093650480E480936604D5CF80E271
:104A800080936604F8CF811107C082E08093A5046B
:104A900084E08093A604D2CF82E08093A604F8CF6E
:104AA000811105C080E18093A50480E2A6CF80E15A
:104AB0008093A604FACF31E030934A6690E0FC017F
:104AC000EA5FFF492081211105C08E5F9F49FC01EB
:104AD00030830895213021F48E5F9F49FC011082BC
:104AE0000895DF92EF92FF920F931F93CF93DF937E
:104AF00080910A6090910B60A0910C60B0910D6064
:104B00000196A11DB11D813325E79207A105B105CD
:104B100008F059C080930A6090930B60A0930C60DA
:104B2000B0930D603EB120914966220F41E0369569
:104B300031703427232B209349663EB1209148667B
:104B4000220F329531703427232B2093486636B3D9
:104B500020914766220F30953170232B20934766B2
:104B600096B380914666880F93FB992790F9942716
:104B7000892B8093466686E4E82E86E6F82EC2E40A
:104B8000D6E610E0DD24D394F70101917F010F7088
:104B90008881811106C00F3021F4D882812F0E94B4
:104BA0005B258881882319F0011101C018821F5FDD
:104BB0002196143049F7DF91CF911F910F91FF900B
:104BC000EF90DF90089510920A6010920B6010929F
:104BD0000C6010920D6081E080934B66A3CFDF9252
:104BE000EF92FF920F931F93CF93DF9300D0CDB737
:104BF000DEB7142FE82FF0E09F012A5F3F497901CB
:104C0000D9019C91EE5FFF49442329F0923019F4B9
:104C1000908310E01FC060836917D9F3F7016083A8
:104C2000112319F16230B1F0082F000F802F0E947C
:104C30000229D82E81E0800F0E9402298983D701A2
:104C40008C918A839E012F5F3F4F42E066ED8D2D50
:104C50000E946C28812F0F900F90DF91CF911F91B0
:104C60000F91FF90EF90DF90089511E0F3CFCF9375
:104C7000DF93662381F0D42FC0E08D2F8C0F0E942C
:104C80000229823028F441E0682F8C2F0E94EF2502
:104C9000CF5FC43091F7DF91CF910895DF92EF920B
:104CA000FF920F931F93CF93DF93E82ED62ED42F2E
:104CB0008FEF8E0DF12C8E3F20F5423008F0D0E0C2
:104CC00006E010E6C0E0F12C8C2F0E940229E812C9
:104CD00013C081E08C0F0E940229D8120DC0F80188
:104CE000E650F046EE5FFF49D083F8018081D81787
:104CF00089F0D08381E0F82ACE5F0F5F1F4FC83064
:104D000019F78F2DDF91CF911F910F91FF90EF90A9
:104D1000DF90089580E0EFCF4F925F926F927F9285
:104D20008F929F92AF92BF92CF92DF92EF92FF92BB
:104D30000F931F93CF93DF93CDB7DEB7FC01CDB6B2
:104D4000DEB6E0807180A280B3808BEF8E0D2DB730
:104D50003EB7281B31092DBF3EBF0DB71EB70F5FF1
:104D60001F4F3496202FD8019A2F921B981788F145
:104D700031EDF12CB3120AC0F80141904F018AEFD6
:104D8000582E5E0C612CF12C651430F18BE28B0DEA
:104D9000823040F4F80101914F011AEF1E0DE12C11
:104DA000E11628F1F1100E94E52480E0CDBEDEBEC0
:104DB000DF91CF911F910F91FF90EF90DF90CF90F7
:104DC000BF90AF909F908F907F906F905F904F902B
:104DD000089591919D93C8CFF40141914F01642DA5
:104DE000660D872D0E944E26F82A6394CDCFF401DC
:104DF00041914F01602F6E0D8A2D0E944E26F82A98
:104E0000E394CECFCF93DF9300D0CDB7DEB70E942F
:104E1000A42278948DEB94E20E945D2885EE94E2C2
:104E20000E949C2787E396E20E9462288CE896E223
:104E30000E9467280FE711E321ED35E644E068E0C2
:104E400080E00E944F2F0E94E52481E795E20E94B6
:104E50007923EE24E39480914A66882331F01092FE
:104E60004A6661E081E00E94412F80914B66882371
:104E700039F110924B6696E0C92E90E6D92E10E0DB
:104E8000D6018D916D018230C1F4812F0E940229DB
:104E9000082F81E0810F0E9402299FEF900F9E3F13
:104EA00060F48F3F51F08983EA829E012F5F3F4F6C
:104EB00042E060ED802F0E946C281E5F183001F7E1
:104EC00086E0C82E80E6D82E10E000E0F12CF80134
:104ED000EE5FFF499081D6018D916D01981731F0F9
:104EE000608141E0802F0E94EF25F82A0F5F1F4F5D
:104EF0000430110561F7F1100E94E5240E94592E3B
:104F0000A895A9CF80914E6690914F6601968093A7
:104F10004E6690934F6680914E6690914F66803EAC
:104F2000914020F010924E6610924F6608951092B4
:104F30004E6610924F6608958093916A9093926A9C
:104F40000895809115600895FC01680F791F8FEF17
:104F500091E3E617F70709F408952191822728E0E5
:104F600030E087FF06C0880F892721503109C9F733
:104F7000F0CF880FFACFCF92DF92EF92FF926427A3
:104F800028E06B017C01F694E794D794C794617094
:104F900077278827992790958095709561957F4F01
:104FA0008F4F9F4F60727378887B9D7E6C257D2527
:104FB0008E259F25215029F7FF90EF90DF90CF900D
:104FC00008958F929F92AF92BF92CF92DF92EF920D
:104FD000FF920F931F93CF93DF938B01C42F6C012C
:104FE000F12CE12C88248A94982C5401C016D10607
:104FF00048F1D0E008E110E00E948D208111FCCF43
:10500000C501B401002E04C09695879577956795E4
:105010000A94D2F7CE019C5E0E947E2008501109AE
:105020002196083F8FEF180739F7DF91CF911F9135
:105030000F91FF90EF90DF90CF90BF90AF909F9037
:105040008F900895C701B6010E947820482FC501AE
:10505000B4010E94BB274B015C018FEFC81AD80A2C
:10506000E80AF80AC3CF982F80911260891759F087
:1050700080911160981302C0911105C081E09F3F9B
:1050800019F080E0089581E00895882361F081306F
:1050900061F0803F61F09FE0980F9E3050F08F3FAD
:1050A00051F081E0089580E0089582E0089584E061
:1050B000089583E0089585E0089580936F6A909342
:1050C000706A089580937D6990937E6908958093B6
:1050D0002E6990932F690895CF92DF92EF92FF92FD
:1050E0001F93CF93DF93CDB7DEB7142FCDB6DEB6C7
:1050F000443478F020E043E4612F82E50E94C12827
:1051000080919C6A8F3F19F08F5F80939C6A80E04A
:105110002BC095E0940F492F50E0EDB7FEB7E41B8C
:10512000F50BEDBFFEBF31967F01EDB7FEB7918362
:1051300090911260F701918382836383922FADB7C0
:10514000BEB71596F9018E2F891B8117B8F0BA01E9
:1051500062507109C7010E94A427F701E10FF11DF8
:105160008483C7010E94C729CDBEDEBEDF91CF91E7
:105170001F91FF90EF90DF90CF90089581918D93D4
:10518000E2CFEF92FF920F931F93CF93DF9300D064
:1051900000D0CDB7DEB7182FE62EF42E022FE09107
:1051A000946AF091956A309709F009958091936A15
:1051B000882371F0113561F01983EA82FB820C8338
:1051C0009E012F5F3F4F44E068EE80E00E946C2814
:1051D0002496CDBFDEBFDF91CF911F910F91FF903D
:1051E000EF900895E6E9FAE61082118212821382A6
:1051F000148215821682178220E040E060E083E886
:105200000C94C128CF93682F40911060841740F010
:1052100020E08BE30E94C128C0E08C2FCF9108953D
:10522000E82FF0E0EF57F649C08120E04C2F87E3EC
:105230000E94C128F2CFEF92FF921F93CF93DF938A
:10524000C82F162F80911060C81768F020E0482FF3
:105250006C2F8BE30E94C12880E0DF91CF911F91DA
:10526000FF90EF9008958C2F90E09C012F573649C6
:105270007901411104C0F90180818617D9F0E091CC
:105280006F6AF091706AD12F309761F0612F8C2F87
:105290000995D82F181731F0282F412F6C2F8AE34A
:1052A0000E94C12820E04D2F6C2F89E30E94C12865
:1052B000F701D08381E0D1CFCF9320E040E060912F
:1052C000106084E30E94C128C0E080911060C8177C
:1052D00010F0CF91089541E060E08C2F0E941B29CF
:1052E000CF5FF3CFCF93C0E080911060C81788F0F4
:1052F0000E948D208111FCCF62E48FEF94E10E9427
:105300007E2020E040E06091106085E3CF910C9416
:10531000C1280E948D208111FCCF8C2F90E0FC01D0
:10532000EF57F64960819C5E0E947E20CF5FDCCF04
:10533000CF938FEF94E10E947B2020E0823451F0E4
:1053400042E4682F83E30E94C1280E945C29CF9128
:105350000C94722940E06091106082E30E94C128A1
:10536000C0E080911060C81710F0CF9108950E949E
:105370008D208111FCCF8C2F90E09C5E0E947B20C1
:1053800041E0682F8C2F0E941B29CF5FEACF30E0CD
:1053900020E0F901E05BF94940814F3F71F4DC0105
:1053A0004C9150E0240F351F2B3D324068F4BC0176
:1053B000CF010E94C62F81E008952A3D52E03507B3
:1053C00070F7240F311DE5CF20E040E060E081E57B
:1053D0000E94C12880919D6A8F3F19F08F5F809352
:1053E0009D6A80E0089580911560811113C081E06D
:1053F00080931560E091916AF091926A309719F06C
:1054000081E090E0099530E020E040E06CEE8FEF25
:105410000C946C2808950F931F93CF93DF931F92E2
:10542000CDB7DEB790EF980F9F3EA0F190910F603F
:10543000981781F1182F80930F60662349F08983B4
:105440009E012F5F3F4F41E06DEE8FEF0E946C2871
:1054500080917D6990917E69892BE1F080917F69CF
:105460008823F1F01031E0F4012F819F000D112409
:1054700040918069040F802F0E94022961E0811110
:1054800001C060E041E0400FE0917D69F0917E69EC
:10549000812F09950F90DF91CF911F910F91089562
:1054A0000FEFEFCF0F931F93CF93DF93CDB7DEB7FF
:1054B0006497CDBFDEBF182F062F809114608983BB
:1054C000809113608A83809111608B8380919E6AA2
:1054D00091E089278C838FEE94E10E947B208D835D
:1054E00080EF94E10E947B208E8381EF94E10E9403
:1054F0007B208F8382EF94E10E947B20888783EF5B
:1055000094E10E947B20898784EF94E10E947B20B4
:105510008A8785EF94E10E947B208B8786EF94E158
:105520000E947B208C8787EF94E10E947B208D87EF
:1055300088EF94E10E947B208E8789EF94E10E949E
:105540007B208F878AEF94E10E947B20888B8BEFF2
:1055500094E10E947B20898B8CEF94E10E947B2058
:105560008A8B8DEF94E10E947B208B8B8EEF94E1F0
:105570000E947B208C8B9E012F5F3F4F44E1602F68
:10558000812F0E946C286496CDBFDEBFDF91CF9142
:105590001F910F9108957F928F929F92AF92BF9229
:1055A000CF92DF92EF92FF920F931F93CF93DF93EF
:1055B000CDB7DEB72897CDBFDEBFFC01ADB6BEB616
:1055C000C0801181828003818BEFD82EDC0C8DB7D7
:1055D0009EB78D1991098DBF9EBF01967C013496AF
:1055E000982FD7018A2F891B8D1570F0812F0E946B
:1055F00045288150823058F020E0412F602F81E60D
:105600000E94C12811E0E8C081918D93EBCF0F3F3C
:1056100039F5D11007C041E068ED81E490E00E94C7
:105620004D22FFCF92E0D91216C0F70190818181FF
:105630009F3F21F0209114602913E4CF8F3F21F088
:10564000909113609813DECF41E068ED81E490E023
:105650000E944D22FFCF2D2D42E06FEF80E6D0CF8C
:10566000013F51F420E040E060E083E50E94C12862
:1056700081E080930E60C6CF003F49F420E040E017
:1056800060E084E50E94C12810920E60BBCF0D3E01
:1056900061F4F1E02D2D41E06DEEDF12DFCF60E02F
:1056A000F70180810E940B2AADCF0C3EF9F481E016
:1056B00080931560E091916AF091926A81E090E0A8
:1056C000309701F58BE2800F823008F0F2C0F1E0F4
:1056D0002D2D42E0602FFD1508F690909E6A9920CE
:1056E00009F491C020E040E082E68ACF0B3E61F4ED
:1056F00010921560E091916AF091926A309711F3DF
:1057000090E080E00995DECF0A3E09F046C120E036
:1057100040E060E081E80E94C12881E08093936AC4
:1057200071CF073E19F40E94F2286CCF053E09F5AF
:105730008091966A89838091976A8A838091986A1A
:105740008B838091996A8C8380919A6A8D838091F2
:105750009B6A8E8380919C6A8F8380919D6A8887E3
:105760009E012F5F3F4F48E066EE812F0E946C281C
:1057700049CF033E29F430E020E040E064EEF5CF6D
:10578000003E29F461EE812F0E94522A3BCF0F3D4B
:1057900051F410919E6A20E040E06FED111119C0A4
:1057A0000E945C292FCF0E3D51F410919E6A20E09B
:1057B00040E06EED11110DC00E94722923CF0D3D06
:1057C00009F080CF10919E6A1123D1F020E040E0D3
:1057D0006DED82E60E94C128812FADBEBEBE289627
:1057E000CDBFDEBFDF91CF911F910F91FF90EF9062
:1057F000DF90CF90BF90AF909F908F907F90089553
:105800000E949829FFCE2FEF821204C020E040E0D2
:1058100083E6F6CEF701D0808D2D90E0FAEFCF0E23
:10582000D98220911060422F50E0D21670F04C2D9A
:105830006D2D8BE30E94C1289E012F5F3F4F41E0F9
:10584000053D09F0DFCE68ED90CF2C1520F44C2DEE
:105850006D2D8CE3EFCF8C0D911D4817590720F467
:105860004C2D6D2D8DE3E6CF20E04C2D6D2D88E382
:105870000E94C1282FEFE21AF20A812C7724739438
:10588000F70161917F0140E08D2D880D0E941B2959
:105890008725982A83948C1498F3053D09F0B2CE9D
:1058A0009E012F5F3F4F41E067ED992009F45DCFE6
:1058B000CACF003D09F06BC08DB69EB6F2E0DF1690
:1058C00049F02D2D42E060ED80E60E94C1288DBE9A
:1058D0009EBE98CE80919E6A882329F020E040E009
:1058E00060ED82E6F2CFF7010081C02ED12C7180ED
:1058F00020911060422F50E0021770F020E0472DF9
:10590000602F8BE30E94C12830E020E040E061ED91
:10591000812F0E946C28DBCF271520F4472D602FA4
:105920008CE3F0CFF2E4F71510F422E4F7CFE72C84
:10593000F12CC7018C0D9D1D4817590720F4472DE8
:10594000602F8DE3DFCF20E0472D602F86E30E949C
:10595000C1282FEFE21AF20A8DB79EB78E199F0960
:105960008DBF9EBF2DB73EB72F5F3F4FEDB7FEB740
:105970000183F601EF57F649D901119680E041E025
:10598000480F871521F281918D93842FF8CF11E074
:10599000002309F421CF10E01FCF093E09F0C1CE4A
:1059A00020E040E060E082E80E94C1281092936A03
:1059B00029CEE0913069F0913169309779F4809186
:1059C00036690E94332881110FC0E0912E69F09151
:1059D0002F69309729F184E399E6099484E399E6E5
:1059E0000995882361F3F1CFE0912C69F0912D693D
:1059F000309781F484E399E60E94CB2A8111E5CFA8
:105A0000E0912A69F0912B693097F9F284E399E6E5
:105A10000995DBCF84E399E609958111D6CFEACFCA
:105A200008951F93CF93DF93D2E0C1E00E94E62355
:105A3000811104C0DF91CF911F9108950E94F52339
:105A4000823419F4C0933269F1CF9091326999236D
:105A5000D1F010923269893919F4C0937C69E6CF8C
:105A6000863681F010927C6920E040E060E081E4BD
:105A70000E94C1288091976A8F3FC1F28F5F809307
:105A8000976AD4CF82E490917C6991110EC020E096
:105A900040E060E082E40E94C1288091986A8F3FD4
:105AA00029F28F5F8093986AC1CF9130E1F42BEF98
:105AB000280F243438F48093346990933369D09359
:105AC0007C69B4CF10927C6920E048E4682F83E4BD
:105AD0000E94C1288091996A8F3F09F4A7CF8F5FF8
:105AE0008093996AA3CF923009F0A0CF9091336947
:105AF00020913469921740F4E92FF0E0EC5CF6490C
:105B000080839F5F9093336960913469809133699A
:105B100068138CCF10927C6970E0FB01ED5CF64954
:105B200010816250710984E399E60E94A427181736
:105B300079F020E0482F612F84E40E94C1288091F1
:105B40009A6A8F3F09F472CF8F5F80939A6A6ECF03
:105B50008091966A8F3F19F08F5F8093966A0E94BA
:105B6000D92C64CF0F931F93CF93DF93C82FD0E02E
:105B70000AED12E00C1B1D0BBE01605B7949A80108
:105B800080E596E60E94C62FAE016FEF70E0C80177
:105B9000805B9949DF91CF911F910F910C94CF2F8A
:105BA000EF92FF920F931F93CF93DF93CDB7DEB7A2
:105BB000C854D109CDBFDEBF009150660F3F69F4D4
:105BC00010E0812FC85BDF4FCDBFDEBFDF91CF91EB
:105BD0001F910F91FF90EF900895402F50E060E5E6
:105BE00076E6CE0101960E94C62F80910E60882332
:105BF00039F380919B6A8F3F19F08F5F80939B6A86
:105C0000802F0E94B22DE0914C66F0914D66309746
:105C100051F0CE0101960995182F882321F0802F8D
:105C20000E94B22DCECF8C81895F8430C8F40E944F
:105C3000EF238823E1F382E40E9493240E94EF2360
:105C4000182F8823D9F389E90E94932400E08981E1
:105C5000081798F010924E6610924F66B2CFA89532
:105C600020914E6630914F668091126090E0880FCF
:105C7000991F8217930799F7DACF0E94EF238823A1
:105C8000E1F3EE24E394F12CEC0EFD1EE00EF11C8A
:105C9000F70180810E949324F7018081823439F4D6
:105CA0000E94EF238823E1F386E60E9493240F5F8E
:105CB000CECF0E94112D0E94D02D8111FCCF0895CE
:105CC000693000F110927F6960E0982F2FE0629FA9
:105CD000900D1124692F615F6F3EB8F01092106033
:105CE0001092806910927F6920E04EEE81E30E945D
:105CF000C12820E040E06091106080E30E94C1284C
:105D00000C94982960937F69E0CF60931060809332
:105D10008069EFCF0F931F93CF93DF9301E71AE6CC
:105D2000C0E8D0E1CE010E949220F80181938F015A
:105D30002196C03AF0E1DF07A9F76091716A8FEF11
:105D4000860F8E3F08F453C081E08093146020E0FA
:105D500040E085E20E94C12820E040E060911460AC
:105D600084E20E94C1286091726A8FEB860F8A31AB
:105D700008F440C081E48093136020E040E087E2B3
:105D80000E94C12820E040E06091136086E20E94FA
:105D9000C1286091736A8FEF860F803F70F181E0B8
:105DA0008093126020E040E081E20E94C12820E060
:105DB00040E06091126080E20E94C1286091746AA4
:105DC000662351F08FE0860F8E3030F020E040E007
:105DD00083E20E94C12860EF6093116020E040E000
:105DE00082E2DF91CF911F910F910C94C1286093B3
:105DF0001460B2CF60931360C5CF60931260D7CFA9
:105E0000CF92DF92EF92FF920F931F93CF93DF9386
:105E10006B017C0180919E6AC7EF8111CFEED0E0CB
:105E200008E110E00E948D208111FCCFC701B6016E
:105E3000002E04C096958795779567950A94D2F7BA
:105E4000CE019C5E0E947E20085011092196083FD9
:105E50008FEF180739F743EF60E070E490E080E0DF
:105E60000E94E1274BEF6FEF7FEF80E090E4DF913E
:105E7000CF911F910F91FF90EF90DF90CF900C94F6
:105E8000E127CF93C62F81110E94F329CC2329F05B
:105E900061E08FEFCF910C940B2ACF910895BF92C0
:105EA000CF92DF92EF92FF920F931F93CF93DF93E6
:105EB000B82EC62FD42F79014AED52E06FEF70E073
:105EC00080E596E60E94CF2FB0929E6A20E040E0E7
:105ED00060E080E10E94C1280E948A2E6D2F8C2FE5
:105EE0000E94602EC701B8010E94002F82E897E24D
:105EF0000E94E62287E997E20E946521E0E0F4E053
:105F00008189887F8360818B8091126090E0880F07
:105F1000991F0E94B42262EE80E00E94522A20E083
:105F200040E060E081E1DF91CF911F910F91FF9000
:105F3000EF90DF90CF90BF900C94C12897FB072E75
:105F400016F4009407D077FD09D00E94B22F07FC09
:105F500005D03EF4909581959F4F08957095619579
:105F60007F4F0895AA1BBB1B51E107C0AA1FBB1F8F
:105F7000A617B70710F0A61BB70B881F991F5A95D5
:105F8000A9F780959095BC01CD010895FB01DC0136
:105F900002C001900D9241505040D8F70895DC01A5
:105FA00001C06D9341505040E0F70895F894FFCF41
:105FB0005A2302020202020202020474000001FFDC
:065FC000EEF001410101B9
:02000004008278
:090000000A00000000D0100020ED
:0400000300004000B9
:00000001FF
