:104000000C9448200C9465200C9465200C94652039
:104010000C9465200C94EB220C942E230C946520B8
:104020000C948C210C9465200C9465200C947E23B8
:104030000C9465200C9465200C9465200C946520EC
:104040000C9465200C9465200C9465200C946520DC
:104050000C9465200C9499240C9465200C94652094
:104060000C94D3210C9465200C9465200C9465204D
:104070000C9465200C94C5210C9465200C9465204B
:104080000C9465200C9465200C9421220C946520DE
:1040900011241FBECFEFCDBFDFE7DEBF10E6A0E0EB
:1040A000B0E6E4EEFCE502C005900D92A031B10748
:1040B000D9F72AE6A0E1B0E601C01D92AA3AB207FC
:1040C000E1F70E94ED250C94702E0C940020482FEF
:1040D0006DE980E090E10C94A120E0E0F0E18281C4
:1040E0008F78828308950E946D20109201100895A8
:1040F000FB0184910895FC01808108951F93CF9363
:10410000DF93EC01162F83E10E946720188380E083
:10411000DF91CF911F910C946720809102108695BA
:1041200081700895FC018081089540E068ED80E190
:1041300091E00E94A120E0E1F1E01282138280E090
:104140000895FC0164BF408308954AE068ED80E073
:1041500091E00E94A12040E868ED81E091E00E949A
:10416000A12080E008950E9473220E94D2200E9424
:1041700073200E94BE220E945B230E94AA230E94F9
:10418000A5200C9495200895089508950895089504
:104190000895089508950895089508950895089537
:1041A00008950895CF93DF9380E094E029E0FC0127
:1041B0002083C0E4D4E01882A0E6B4E02CE62C937F
:1041C00040EA54E026E3FA01208321E0FC01248345
:1041D0001C8214961C921497FA011482FC01108A16
:1041E000118A128A138A148A158A168A178A188ADB
:1041F000198A1A8A1B8A1C8A1D8A1E8A1F8A50964F
:104200001C92509788E051968C93519752961C922D
:10421000529753961C92539754968C935497559655
:104220001C92559756961C92569757961C92FA01D7
:10423000808B118A128A838B148A158A168A178AB0
:10424000E0EEF5E011821082158217821086118649
:104250001682128283EC90E280932C6090932D6002
:1042600085EC90E280932A6090932B6086EC90E23C
:10427000809328609093296087EC90E28093266079
:104280009093276088EC90E280932460909325605F
:1042900089EC90E280932260909323608AEC90E214
:1042A00080932060909321608BEC90E280931E605D
:1042B00090931F608CEC90E280931C6090931D6043
:1042C0008DEC90E280931A6090931B608EEC90E2EC
:1042D00080931860909319608FEC90E28093166041
:1042E0009093176080ED90E2809314609093156036
:1042F00081ED90E2809312609093136084EC90E2E1
:104300008093106090931160DF91CF910895809316
:104310002C6090932D6008951F920F920FB60F920C
:1043200011242F933F934F935F936F937F938F93BA
:104330009F93AF93BF93EF93FF93199B05C0E091B9
:104340002C60F0912D600995189B05C0E0912A60C2
:10435000F0912B6009951B9B05C0E0912860F091BE
:10436000296009958FEF83B9FF91EF91BF91AF91CC
:104370009F918F917F916F915F914F913F912F917D
:104380000F900FBE0F901F9018951F920F920FB6AF
:104390000F9211248F938FEF8BB98F910F900FBED7
:1043A0000F901F9018951F920F920FB60F92112425
:1043B0002F933F934F935F936F937F938F939F932D
:1043C000AF93BF93EF93FF93799B05C0E091266075
:1043D000F091276009957C9B05C0E0912460F091E5
:1043E000256009957A9B05C0E0911E60F0911F60E1
:1043F00009957B9B05C0E0911C60F0911D600995BB
:104400007D9B05C0E0911A60F0911B6009957E9B31
:1044100005C0E0911860F091196009958FEF8FB990
:10442000FF91EF91BF91AF919F918F917F916F918C
:104430005F914F913F912F910F900FBE0F901F9062
:1044400018951F920F920FB60F9211242F933F933E
:104450004F935F936F937F938F939F93AF93BF938C
:10446000EF93FF93B89B05C0E0912260F091236029
:104470000995BB9B05C0E0912060F09121600995F2
:10448000B99B05C0E0911660F09117600995BA9B41
:1044900005C0E0911460F09115600995BC9B05C0C2
:1044A000E0911260F09113600995BD9B05C0E09109
:1044B0001060F091116009958FEF87BBFF91EF912C
:1044C000BF91AF919F918F917F916F915F914F912C
:1044D0003F912F910F900FBE0F901F901895462F70
:1044E00068ED0C94A12060E080E690E00E946F22CD
:1044F00060E081E690E00E946F2260E085E690E057
:104500000E946F2260E088E790E00E946F2264E2E0
:1045100088E690E00E946F2260E089E690E00E94C9
:104520006F2260E080E790E00E946F2260E08CE7FD
:1045300090E00E946F2260E082E690E00E946F228D
:1045400060E083E690E00E946F2260E084E690E005
:104550000E946F2260E080E890E00E946F228091CC
:10456000650081FFFCCF0895019708F40895EFE6F8
:10457000F7E13197F1F700C00000F6CF80914101DB
:104580008111FCCF8FEF9FE780934C0190934D01F9
:1045900010924801109249018FEF9FEF80934A01DA
:1045A00090934B01109247011092420110924501E5
:1045B000809151018111FCCF81E0809352011092D2
:1045C000550181E18093500180E0089580932E6031
:1045D00090932F6008951F920F920FB60F9211249F
:1045E0002F933F934F935F936F937F938F939F93FB
:1045F000AF93BF93EF93FF938091420180FF0BC075
:104600008091430180FF07C0E0913260F0913360F8
:10461000309709F009958091420181FF0BC080918C
:10462000430181FF07C0E0913060F0913160309725
:1046300009F0099583E080934301FF91EF91BF91C9
:10464000AF919F918F917F916F915F914F913F912A
:104650002F910F900FBE0F901F9018951F920F92E1
:104660000FB60F9211242F933F934F935F936F9345
:104670007F938F939F93AF93BF93EF93FF93E091BB
:104680002E60F0912F60309709F0099581E08093BA
:104690005301FF91EF91BF91AF919F918F917F91C6
:1046A0006F915F914F913F912F910F900FBE0F909F
:1046B0001F9018950895E0E0FAE010A611A612A642
:1046C00013A614A615A610A211A21182128213829B
:1046D00014821582168217821686118680E18287DF
:1046E000138689EE90E086A397A317868FE08083D8
:1046F0000895809300609093016008951F920F9237
:104700000FB60F9211242F933F934F935F936F93A4
:104710007F938F939F93AF93BF93EF93FF93E0911A
:104720000060F0910160309709F0099580E1809375
:104730000B0AFF91EF91BF91AF919F918F917F9164
:104740006F915F914F913F912F910F900FBE0F90FE
:104750001F90189582E294E28093A06A9093A16AD8
:10476000E0E0F8E080EC90E08087918781E9858344
:1047700080EC868383E087831386148616861586ED
:1047800086E994E28093A66A9093A76A88E994E206
:104790008093A26A9093A36A87E994E28093A86ABF
:1047A0009093A96A109236601092376010923A6620
:1047B00010923B6610923866109239661092A46A85
:1047C0001092A56A85818068858308952091A46AE6
:1047D0003091A56A81E0232B09F480E0089580914F
:1047E000040885FB882780F90895E0913866F091E8
:1047F0003966E85CFB4980812091386630913966E2
:104800002F5F3F4F31702093386630933966909117
:1048100005089F77909305082091A46A3091A56AB6
:10482000232B51F02091A46A3091A56A21503109BF
:104830002093A46A3093A56A90910508906890939C
:1048400005080895E0913A66F0913B66EE0FFF1F70
:10485000E85CFF49108211828091010882FF12C03A
:10486000E0913A66F0913B66EE0FFF1FE85CFF496E
:10487000808182608083E091A66AF091A76A309778
:1048800009F009958091010881FF0CC08091366084
:10489000816080933660E091A86AF091A96A3097B0
:1048A00009F009958091010886FF12C0E0913A66EF
:1048B000F0913B66EE0FFF1FE85CFF49808184604A
:1048C0008083E091A26AF091A36A309709F009957C
:1048D0002091000880913A6690913B660196917014
:1048E000409138665091396648175907A1F0E09118
:1048F0003A66F0913B66E85CFB49208380933A6618
:1049000090933B668091A46A9091A56A01968093EA
:10491000A46A9093A56AE0913460F0913560309775
:1049200009F0099408958093020808950895089560
:1049300008951F920F920FB60F9211242F933F9359
:104940004F935F936F937F938F939F93AF93BF9397
:10495000EF93FF930E942224FF91EF91BF91AF91BB
:104960009F918F917F916F915F914F913F912F9187
:104970000F900FBE0F901F9018950E944326811133
:1049800017C094E09093660488E08093660480E208
:104990008093660420E42093660422E02093A6041A
:1049A0009093A60490E19093A6048093A6040895A2
:1049B00080910560823039F484E08093660488E059
:1049C0008093660408C0813089F484E08093660493
:1049D00088E08093650480910460823069F480E20D
:1049E0008093660480E4809366040EC08111F3CF47
:1049F00084E080936504E3CF813081F480E280938A
:104A0000660480E48093650480910360823061F4E1
:104A10008093A60484E08093A6040EC08111F4CF95
:104A200080E280936504DECF813079F482E0809368
:104A3000A60484E08093A50480910260823059F43A
:104A400080E18093A60480E2B0CF8111F5CF82E0AF
:104A50008093A504DFCF813039F480E18093A604F0
:104A600080E28093A50408958111A1CF80E1809315
:104A7000A504E9CF8093066092E09093056090933F
:104A8000046090930360909302609091486698133D
:104A900006C0909148669F3F11F01092056090917A
:104AA0004766981306C0909147669F3F11F0109299
:104AB000046090914666981306C0909146669F3FA9
:104AC00011F01092036090914566981306C0809192
:104AD00045668F3F11F0109202600C94BD24CF9375
:104AE000C62F843088F4603108F0CFEFE82FF0E073
:104AF000EB5BF94980818C1739F0C0830E9409274C
:104B000040E060E00E943A258C2FCF910895E82F75
:104B1000F0E0EB5BF94980818F3F19F08081809351
:104B2000066081E0809344660895DF92EF92FF92E1
:104B30000F931F93CF93DF933EB120914366220FD3
:104B400041E0369531703427232B209343663EB1E4
:104B500020914266220F329531703427232B209307
:104B6000426636B320914166220F30953170232B77
:104B70002093416696B380914066880F93FB9927F6
:104B800090F99427892B8093406680E4E82E86E68E
:104B9000F82ECCE3D6E610E0DD24D394F7010191A2
:104BA0007F010F708881811106C00F3021F4D882F7
:104BB000812F0E9487258881882319F0011101C067
:104BC00018821F5F2196143049F7DF91CF911F9112
:104BD0000F91FF90EF90DF9008950E94B32078949A
:104BE0008FE695E20E94FF268DEB94E20E943E261E
:104BF0008AE395E20E94042701E810E02FEF35E6F2
:104C000040E064E080E00E94112E0E94BD2485E90E
:104C100095E20E94792380914466882331F01092B6
:104C2000446660E081E00E94032E0E940927909173
:104C30000660891729F08091066061E00E94AB2828
:104C40000E941B2DA895E7CF80914B6690914C66F2
:104C5000019680934B6690934C6680914B66909141
:104C60004C66803E914020F010924B6610924C664C
:104C7000089510924B6610924C6608958093926A44
:104C80009093936A089580910E600895FC01680FD7
:104C9000791F8FEF91E3E617F70709F40895219143
:104CA000822728E030E087FF06C0880F892721503F
:104CB0003109C9F7F0CF880FFACFCF92DF92EF9288
:104CC000FF92642728E06B017C01F694E794D79467
:104CD000C79461707727882799279095809570955C
:104CE00061957F4F8F4F9F4F60727378887B9D7E59
:104CF0006C257D258E259F25215029F7FF90EF906B
:104D0000DF90CF9008958F929F92AF92BF92CF92F3
:104D1000DF92EF92FF920F931F93CF93DF938B015C
:104D2000C42F6C01F12CE12C88248A94982C540116
:104D3000C016D10648F1D0E008E110E00E948D20B5
:104D40008111FCCFC501B401002E04C09695879552
:104D5000779567950A94D2F7CE019C5E0E947E20DB
:104D6000085011092196083F8FEF180739F7DF9196
:104D7000CF911F910F91FF90EF90DF90CF90BF9058
:104D8000AF909F908F900895C701B6010E94782040
:104D9000482FC501B4010E945D264B015C018FEFD5
:104DA000C81AD80AE80AF80AC3CF982F80910B6076
:104DB000891759F080910A60981302C0911105C0BB
:104DC00081E09F3F19F080E0089581E008958823F5
:104DD00061F0813061F0803F61F09FE0980F9E307C
:104DE00050F08F3F51F081E0089580E0089582E017
:104DF000089584E0089583E0089585E00895809300
:104E00006C6A90936D6A089580937A6990937B6938
:104E10000895809108600895CF92DF92EF92FF92FB
:104E20001F93CF93DF93CDB7DEB7142FCDB6DEB689
:104E3000443478F020E043E4612F82E50E9461274A
:104E400080919D6A8F3F19F08F5F80939D6A80E00B
:104E50002BC095E0940F492F50E0EDB7FEB7E41B4F
:104E6000F50BEDBFFEBF31967F01EDB7FEB7918325
:104E700090910B60F701918382836383922FADB78A
:104E8000BEB71596F9018E2F891B8117B8F0BA01AC
:104E900062507109C7010E944626F701E10FF11D1A
:104EA0008483C7010E946728CDBEDEBEDF91CF910B
:104EB0001F91FF90EF90DF90CF90089581918D9397
:104EC000E2CFEF92FF920F931F93CF93DF9300D027
:104ED00000D0CDB7DEB7182FE62EF42E022FE091CA
:104EE000956AF091966A309709F009958091946AD5
:104EF000882371F0113561F01983EA82FB820C83FB
:104F00009E012F5F3F4F44E068EE80E00E940C2737
:104F10002496CDBFDEBFDF91CF911F910F91FF90FF
:104F2000EF900895E7E9FAE6108211821282138267
:104F3000148215821682178220E040E060E083E848
:104F40000C946127CF93682F40910960841740F03B
:104F500020E08BE30E946127C0E08C2FCF91089561
:104F6000E82FF0E0E258F649C08120E04C2F87E3BB
:104F70000E946127F2CFEF92FF921F93CF93DF93AE
:104F8000C82F162F80910960C81768F020E0482FBD
:104F90006C2F8BE30E94612780E0DF91CF911F91FE
:104FA000FF90EF9008958C2F90E09C012258364995
:104FB0007901411104C0F90180818617D9F0E0918F
:104FC0006C6AF0916D6AD12F309761F0612F8C2F50
:104FD0000995D82F181731F0282F412F6C2F8AE30D
:104FE0000E94612720E04D2F6C2F89E30E946127EA
:104FF000F701D08381E0D1CFCF9320E040E06091F2
:10500000096084E30E946127C0E080910960C817AD
:1050100010F0CF91089541E060E08C2F0E94BB27F3
:10502000CF5FF3CFCF93C0E080910960C81788F0BD
:105030000E948D208111FCCF62E48FEF94E10E94E9
:105040007E2020E040E06091096085E3CF910C94E0
:1050500061270E948D208111FCCF8C2F90E0FC01F4
:10506000E258F64960819C5E0E947E20CF5FDCCFD3
:10507000CF938FEF94E10E947B2020E0823451F0A7
:1050800042E4682F83E30E9461270E94FC27CF91AE
:105090000C94122840E06091096082E30E9461272D
:1050A000C0E080910960C81710F0CF9108950E9468
:1050B0008D208111FCCF8C2F90E09C5E0E947B2084
:1050C00041E0682F8C2F0E94BB27CF5FEACF30E0F2
:1050D00020E0F901E35BF94940814F3F71F4DC01C5
:1050E0004C9150E0240F351F2B3D324068F4BC0139
:1050F000CF010E94602E81E008952A3D52E03507DD
:1051000070F7240F311DE5CF20E040E060E081E53D
:105110000E94612780919E6A8F3F19F08F5F809374
:105120009E6A80E0089580910E60811113C081E035
:1051300080930E60E091926AF091936A309719F033
:1051400081E090E0099530E020E040E06CEE8FEFE8
:105150000C940C2708950F931F93CF93DF931F9206
:10516000CDB7DEB790EF980F9F3EA0F19091086009
:10517000981781F1182F80930860662349F089837E
:105180009E012F5F3F4F41E06DEE8FEF0E940C2795
:1051900080917A6990917B69892BE1F080917C699B
:1051A0008823F1F01031E0F4012F819F000D1124CC
:1051B00040917D69040F802F0E94A22761E0811138
:1051C00001C060E041E0400FE0917A69F0917B69B5
:1051D000812F09950F90DF91CF911F910F91089525
:1051E0000FEFEFCF0F931F93CF93DF93CDB7DEB7C2
:1051F0006497CDBFDEBF182F062F80910D60898385
:1052000080910C608A8380910A608B8380919F6A71
:1052100091E089278C838FEE94E10E947B208D831F
:1052200080EF94E10E947B208E8381EF94E10E94C5
:105230007B208F8382EF94E10E947B20888783EF1D
:1052400094E10E947B20898784EF94E10E947B2077
:105250008A8785EF94E10E947B208B8786EF94E11B
:105260000E947B208C8787EF94E10E947B208D87B2
:1052700088EF94E10E947B208E8789EF94E10E9461
:105280007B208F878AEF94E10E947B20888B8BEFB5
:1052900094E10E947B20898B8CEF94E10E947B201B
:1052A0008A8B8DEF94E10E947B208B8B8EEF94E1B3
:1052B0000E947B208C8B9E012F5F3F4F44E1602F2B
:1052C000812F0E940C276496CDBFDEBFDF91CF9166
:1052D0001F910F9108957F928F929F92AF92BF92EC
:1052E000CF92DF92EF92FF920F931F93CF93DF93B2
:1052F000CDB7DEB72897CDBFDEBFFC01ADB6BEB6D9
:10530000E0801181828003818BEFF82EFE0C8DB737
:105310009EB78F1991098DBF9EBF01966C0134967F
:10532000982FD6018A2F891B8F1570F0812F0E942C
:10533000E7268150823058F020E0412F602F81E62F
:105340000E94612711E0E8C081918D93EBCF0F3F60
:1053500039F5F11007C041E068ED81E490E00E946A
:10536000A120FFCF92E0F91216C0F6019081818151
:105370009F3F21F020910D602913E4CF8F3F21F052
:1053800090910C609813DECF41E068ED81E490E0ED
:105390000E94A120FFCF2F2D42E06FEF80E6D0CFFB
:1053A000013F51F420E040E060E083E50E94612786
:1053B00081E080930760C6CF003F49F420E040E0E1
:1053C00060E084E50E94612710920760BBCF0D3E2C
:1053D00061F4F1E02F2D41E06DEEFF12DFCF60E0D0
:1053E000F60180810E94AB28ADCF0C3EF9F481E03C
:1053F00080930E60E091926AF091936A81E090E070
:10540000309701F58BE2800F823008F0F2C0F1E0B6
:105410002F2D42E0602FFF1508F690909F6A99208B
:1054200009F491C020E040E082E68ACF0B3E61F4AF
:1054300010920E60E091926AF091936A309711F3A6
:1054400090E080E00995DECF0A3E09F068C120E0D7
:1054500040E060E081E80E94612781E08093946AE7
:1054600071CF073E19F40E9492276CCF053E09F5D3
:105470008091976A89838091986A8A838091996ADA
:105480008B8380919A6A8C8380919B6A8D838091B3
:105490009C6A8E8380919D6A8F8380919E6A8887A3
:1054A0009E012F5F3F4F48E066EE812F0E940C2740
:1054B00049CF033E29F430E020E040E064EEF5CF30
:1054C000003E29F461EE812F0E94F2283BCF0F3D70
:1054D00051F410919F6A20E040E06FED111119C066
:1054E0000E94FC272FCF0E3D51F410919F6A20E0BF
:1054F00040E06EED11110DC00E94122823CF0D3D2A
:1055000009F080CF10919F6A1123D1F020E040E094
:105510006DED82E60E946127812FADBEBEBE28964A
:10552000CDBFDEBFDF91CF911F910F91FF90EF9024
:10553000DF90CF90BF90AF909F908F907F90089515
:105540000E943828FFCE2FEF821204C020E040E0F6
:1055500083E6F6CEF601F0808F2D90E0FAEFEF0EA5
:10556000F98220910960422F50E0F21670F04E2D22
:105570006F2D8BE30E9461279E012F5F3F4F41E01B
:10558000053D09F0DFCE68ED90CF2E1520F44E2DAD
:105590006F2D8CE3EFCF8E0D911D4817590720F426
:1055A0004E2D6F2D8DE3E6CF20E04E2D6F2D88E33D
:1055B0000E9461272FEFC21AD20A812C772473949C
:1055C000F60161916F0140E08F2D880D0E94BB278D
:1055D0008725982A83948E1498F3053D09F0B2CE5E
:1055E0009E012F5F3F4F41E067ED992009F45DCFA9
:1055F000CACF003D09F06BC08DB69EB6F2E0FF1633
:1056000049F02F2D42E060ED80E60E9461278DBEBB
:105610009EBE98CE80919F6A882329F020E040E0CA
:1056200060ED82E6F2CFF6010081E02EF12C718070
:1056300020910960422F50E0021770F020E0472DC2
:10564000602F8BE30E94612730E020E040E061EDB5
:10565000812F0E940C27DBCF271520F4472D602FC8
:105660008CE3F0CFF2E4F71510F422E4F7CFC72C67
:10567000D12CC6018E0D9F1D4817590720F4472DC8
:10568000602F8DE3DFCF20E0472D602F86E30E945F
:1056900061272FEFC21AD20A8DB79EB78C199D09C8
:1056A0008DBF9EBF2DB73EB72F5F3F4FEDB7FEB703
:1056B0000183F701E258F649D901119680E041E0F3
:1056C000480F871521F281918D93842FF8CF013BEC
:1056D00099F4F3E02F2D43E061EBFF125FCEE091F0
:1056E000706AF091716A309711F0C601099511E066
:1056F000002309F411CF11C0003BC9F723E0F216D3
:1057000021F02F2D43E060EB49CEE0916E6AF091DD
:105710006F6A309711F0C601099510E0FDCE093E81
:1057200009F09FCE20E040E060E082E80E9461271F
:105730001092946A07CEE0912D69F0912E6930970E
:1057400079F4809133690E94D52681110FC0E091D0
:105750002B69F0912C69309729F181E399E609943E
:1057600081E399E60995882361F3F1CFE0912969F6
:10577000F0912A69309781F481E399E60E946B29C0
:105780008111E5CFE0912769F09128693097F9F20E
:1057900081E399E60995DBCF81E399E609958111CB
:1057A000D6CFEACF08951F93CF93DF93D2E0C1E025
:1057B0000E94E623811104C0DF91CF911F910895CB
:1057C0000E94F523823419F4C0932F69F1CF909190
:1057D0002F699923D1F010922F69893919F4C09358
:1057E0007969E6CF863681F01092796920E040E051
:1057F00060E081E40E9461278091986A8F3FC1F246
:105800008F5F8093986AD4CF82E4909179699111E7
:105810000EC020E040E060E082E40E9461278091B9
:10582000996A8F3F29F28F5F8093996AC1CF913037
:10583000E1F42BEF280F243438F4809331699093EE
:105840003069D0937969B4CF1092796920E048E447
:10585000682F83E40E94612780919A6A8F3F09F440
:10586000A7CF8F5F80939A6AA3CF923009F0A0CF21
:105870009091306920913169921740F4E92FF0E05E
:10588000EF5CF64980839F5F909330696091316946
:105890008091306968138CCF1092796970E0FB01B8
:1058A000E05DF64910816250710981E399E60E943A
:1058B0004626181779F020E0482F612F84E40E94D3
:1058C000612780919B6A8F3F09F472CF8F5F80932D
:1058D0009B6A6ECF8091976A8F3F19F08F5F80939C
:1058E000976A0E949B2B64CF0F931F93CF93DF93F4
:1058F000C82FD0E00AED12E00C1B1D0BBE01635B4C
:105900007949A8018DE496E60E94602EAE016FEF02
:1059100070E0C801835B9949DF91CF911F910F918E
:105920000C94692EEF92FF920F931F93CF93DF9306
:10593000CDB7DEB7C854D109CDBFDEBF00914D66EB
:105940000F3F69F410E0812FC85BDF4FCDBFDEBF92
:10595000DF91CF911F910F91FF90EF900895402F0D
:1059600050E06DE476E6CE0101960E94602E8091B3
:105970000760882339F380919C6A8F3F19F08F5F0D
:1059800080939C6A802F0E94742CE0914966F0916C
:105990004A66309751F0CE0101960995182F882359
:1059A00021F0802F0E94742CCECF8C81895F8430AF
:1059B000C8F40E94EF238823E1F382E40E94932439
:1059C0000E94EF23182F8823D9F389E90E9493249A
:1059D00000E08981081798F010924B6610924C668F
:1059E000B2CFA89520914B6630914C6680910B60A8
:1059F00090E0880F991F8217930799F7DACF0E94DA
:105A0000EF238823E1F3EE24E394F12CEC0EFD1E4A
:105A1000E00EF11CF70180810E949324F701808140
:105A2000823439F40E94EF238823E1F386E60E9452
:105A300093240F5FCECF0E94D32B0E94922C811112
:105A4000FCCF0895693000F110927C6960E0982FD6
:105A50002FE0629F900D1124692F615F6F3EB8F0B7
:105A60001092096010927D6910927C6920E04EEEE0
:105A700081E30E94612720E040E06091096080E3BB
:105A80000E9461270C94382860937C69E0CF609372
:105A9000096080937D69EFCF0F931F93CF93DF93BE
:105AA00002E71AE6C0E8D0E1CE010E949220F80198
:105AB00081938F012196C03AF0E1DF07A9F7609149
:105AC000726A8FEF860F8E3F08F453C081E0809397
:105AD0000D6020E040E085E20E94612720E040E088
:105AE00060910D6084E20E9461276091736A8FEB80
:105AF000860F8A3108F440C081E480930C6020E076
:105B000040E087E20E94612720E040E060910C6065
:105B100086E20E9461276091746A8FEF860F803F52
:105B200070F181E080930B6020E040E081E20E9410
:105B3000612720E040E060910B6080E20E946127D5
:105B40006091756A662351F08FE0860F8E3030F0D9
:105B500020E040E083E20E94612760EF60930A60EA
:105B600020E040E082E2DF91CF911F910F910C94F1
:105B7000612760930D60B2CF60930C60C5CF6093D6
:105B80000B60D7CFCF92DF92EF92FF920F931F93CC
:105B9000CF93DF936B017C0180919F6AC7EF8111E6
:105BA000CFEED0E008E110E00E948D208111FCCF03
:105BB000C701B601002E04C0969587957795679525
:105BC0000A94D2F7CE019C5E0E947E2008501109F3
:105BD0002196083F8FEF180739F743EF60E070E434
:105BE00090E080E00E9483264BEF6FEF7FEF80E034
:105BF00090E4DF91CF911F910F91FF90EF90DF9094
:105C0000CF900C948326CF93C62F81110E949328A6
:105C1000CC2329F061E08FEFCF910C94AB28CF918A
:105C20000895BF92CF92DF92EF92FF920F931F934E
:105C3000CF93DF93B82EC62FD42F79014AED52E0CF
:105C40006FEF70E08DE496E60E94692EB0929F6A35
:105C500020E040E060E080E10E9461270E944C2D3E
:105C60006D2F8C2F0E94222DC701B8010E94C22DDA
:105C700084E296E20E94E62289E396E20E9487216E
:105C8000E0E0F4E08189887F8360818B80910B6004
:105C900090E0880F991F0E94B42262EE80E00E947B
:105CA000F22820E040E060E081E1DF91CF911F9198
:105CB0000F91FF90EF90DF90CF90BF900C946127F1
:105CC000FB01DC0102C001900D9241505040D8F719
:105CD0000895DC0101C06D9341505040E0F70895F4
:045CE000F894FFCF66
:105CE4005A2302020202FF01FFEEF001410101000A
:02000004008278
:090000000A00000000D0100020ED
:0400000300004000B9
:00000001FF
