:104000000C9448200C9465200C9465200C94652039
:104010000C9465200C9447220C948A220C94652001
:104020000C9426210C9465200C9465200C94DA22C3
:104030000C9465200C9465200C9465200C946520EC
:104040000C9465200C9465200C9465200C946520DC
:104050000C9465200C94F5230C9465200C94652039
:104060000C946D210C9465200C9465200C946520B3
:104070000C9465200C945F210C9465200C946520B1
:104080000C9465200C9465200C947B210C94652085
:1040900011241FBECFEFCDBFDFE7DEBF10E6A0E0EB
:1040A000B0E6ECEDF9E502C005900D92AA30B1073B
:1040B000D9F72AE6AAE0B0E601C01D92A638B207F9
:1040C000E1F70E9480240C94EC2C0C940020482FE3
:1040D0006DE980E090E10C949520E0E0F0E18281D0
:1040E0008F78828308950E946D20109201100895A8
:1040F000FB0184910895FC01808108951F93CF9363
:10410000DF93EC01162F83E10E946720188380E083
:10411000DF91CF911F910C946720809102108695BA
:1041200081700895FC0180810895FC0164BF408383
:10413000089540E068ED80E191E00E949520E0E183
:10414000F1E01282138280E00895089508950895A1
:1041500008950895CF93DF9380E094E029E0FC0177
:104160002083C0E4D4E01882A0E6B4E01C9240EAC8
:1041700054E0FA01108221E0FC0124831C82149691
:104180001C921497FA011482FC01108A118A128A77
:10419000138A148A158A168A178A188A198A1A8A1B
:1041A0001B8A1C8A1D8A1E8A1F8A50961C92509751
:1041B00051961C92519752961C92529753961C926C
:1041C000539754961C92549755961C925597569611
:1041D0001C92569757961C92FA01108A118A128ADD
:1041E00088E0838B848B158A168A178AE0EEF5E0C7
:1041F0001182108215821782108611861682128211
:1042000085EA90E2809312609093136087EA90E2CF
:10421000809310609093116088EA90E280930E6022
:1042200090930F6089EA90E280930C6090930D6008
:1042300086EA90E280930A6090930B60DF91CF91C1
:104240000895809312609093136008951F920F92C7
:104250000FB60F9211242F933F934F935F936F9359
:104260007F938F939F93AF93BF93EF93FF93199B8C
:1042700005C0E0911260F09113600995189B05C08C
:10428000E0911060F091116009951B9B05C0E091D1
:104290000E60F0910F6009958FEF83B9FF91EF9158
:1042A000BF91AF919F918F917F916F915F914F914E
:1042B0003F912F910F900FBE0F901F9018951F9256
:1042C0000F920FB60F9211248F938FEF8BB98F91AE
:1042D0000F900FBE0F901F9018951F920F920FB660
:1042E0000F9211248F938FEF8FB98F910F900FBE84
:1042F0000F901F9018951F920F920FB60F921124D6
:104300002F933F934F935F936F937F938F939F93DD
:10431000AF93BF93EF93FF93BB9B05C0E0910C60FD
:10432000F0910D600995BC9B05C0E0910A60F09189
:104330000B6009958FEF87BBFF91EF91BF91AF9114
:104340009F918F917F916F915F914F913F912F91AD
:104350000F900FBE0F901F9018954AE068ED80E017
:1043600091E00E94952040E868ED81E091E00E9494
:10437000952080E008950E94CF210E94AA200E94EB
:1043800073200E941A220E94B7220E9406230E94D4
:10439000AD210C949920462F68ED0C94952060E097
:1043A00080E690E00E94CB2160E081E690E00E94F0
:1043B000CB2160E085E690E00E94CB2160E088E7B9
:1043C00090E00E94CB2164E288E690E00E94CB213D
:1043D00060E089E690E00E94CB2160E080E790E019
:1043E0000E94CB2160E08CE790E00E94CB2160E04E
:1043F00082E690E00E94CB2160E083E690E00E949C
:10440000CB2160E084E690E00E94CB2160E080E870
:1044100090E00E94CB218091650081FFFCCF089540
:10442000019708F40895EFE6F7E13197F1F700C03E
:104430000000F6CF809141018111FCCF8FEF9FE703
:1044400080934C0190934D011092480110924901C4
:104450008FEF9FEF80934A0190934B011092470199
:104460001092420110924501809151018111FCCFBF
:1044700081E0809352011092550181E180935001B7
:1044800080E00895809314609093156008951F92C2
:104490000F920FB60F9211242F933F934F935F9378
:1044A0006F937F938F939F93AF93BF93EF93FF93FC
:1044B0008091420180FF0BC08091430180FF07C0C3
:1044C000E0911860F0911960309709F0099580919A
:1044D000420181FF0BC08091430181FF07C0E09141
:1044E0001660F0911760309709F0099583E080938A
:1044F0004301FF91EF91BF91AF919F918F917F9178
:104500006F915F914F913F912F910F900FBE0F9040
:104510001F9018951F920F920FB60F9211242F9390
:104520003F934F935F936F937F938F939F93AF933B
:10453000BF93EF93FF93E0911460F0911560309773
:1045400009F0099581E080935301FF91EF91BF91AC
:10455000AF919F918F917F916F915F914F913F911B
:104560002F910F900FBE0F901F9018950895E0E0C7
:10457000FAE010A611A612A613A614A615A610A25C
:1045800011A211821282138214821582168217825E
:104590001686118680E18287138689EE90E086A3D5
:1045A00097A317868FE0808308958093006090938F
:1045B000016008951F920F920FB60F9211242F934E
:1045C0003F934F935F936F937F938F939F93AF939B
:1045D000BF93EF93FF93E0910060F09101603097FB
:1045E00009F0099580E180930B0AFF91EF91BF914B
:1045F000AF919F918F917F916F915F914F913F917B
:104600002F910F900FBE0F901F9018958EE793E299
:1046100080937C6A90937D6AE0E0F8E080EC90E023
:104620008087918781E9858380EC868383E0878317
:10463000138614861686158682EF93E28093826A2B
:104640009093836A84EF93E280937E6A90937F6A6B
:1046500083EF93E28093846A9093856A10921C6042
:1046600010921D60109220661092216610921E66B4
:1046700010921F661092806A1092816A858180680C
:10468000858308952091806A3091816A81E0232B8F
:1046900009F480E008958091040885FB882780F95B
:1046A0000895E0911E66F0911F66E25EFB498081ED
:1046B00020911E6630911F662F5F3F4F317020930F
:1046C0001E6630931F66909105089F7790930508AA
:1046D0002091806A3091816A232B51F02091806A69
:1046E0003091816A215031092093806A3093816A28
:1046F000909105089068909305080895E0912066D0
:10470000F0912166EE0FFF1FE25EFF4910821182D9
:104710008091010882FF12C0E0912066F09121662D
:10472000EE0FFF1FE25EFF49808182608083E0918F
:10473000826AF091836A309709F0099580910108A7
:1047400081FF0CC080911C60816080931C60E091AF
:10475000846AF091856A309709F009958091010883
:1047600086FF12C0E0912066F0912166EE0FFF1FD8
:10477000E25EFF49808184608083E0917E6AF091EF
:104780007F6A309709F00995209100088091206692
:10479000909121660196917040911E6650911F661E
:1047A00048175907A1F0E0912066F0912166E25E7A
:1047B000FB49208380932066909321668091806AD4
:1047C0009091816A01968093806A9093816AE091CA
:1047D0001A60F0911B60309709F009940895809356
:1047E000020808950895089508951F920F920FB634
:1047F0000F9211242F933F934F935F936F937F9367
:104800008F939F93AF93BF93EF93FF930E947E2369
:10481000FF91EF91BF91AF919F918F917F916F9198
:104820005F914F913F912F910F900FBE0F901F906E
:104830001895862F623008F080E00895662361F0B5
:10484000842F0E942926811104C081E0809327666D
:10485000089581E080932866089591E090932666FC
:10486000813019F4809328660895811102C09093D5
:1048700027660895DF92EF92FF920F931F93CF93D5
:10488000DF9336B320912566220F41E033FB3327B7
:1048900030F93427232B2093256696B38091246624
:1048A000880F929591709427892B8093246684E2D7
:1048B000E82E86E6F82EC2E2D6E600E0DD24D394A8
:1048C000F70111917F011F708881811106C01F308F
:1048D00021F4D882802F0E942D248881882319F00A
:1048E000111101C018822196013041F4DF91CF915E
:1048F0001F910F91FF90EF90DF90089501E0E0CFBE
:104900000E94BB21789489E194E20E9489258EE17E
:1049100094E20E948E250DEF17E221ED35E641E08D
:1049200060E080E00E948D2C8AE394E20E94D52210
:1049300080912666882331F01092266661E080E03F
:104940000E947F2C80912866882321F0109228668F
:104950000E941A2780912766882321F010922766EB
:104960000E9432270E94972BA895E2CF80912B6658
:1049700090912C66019680932B6690932C66809183
:104980002B6690912C66803E914020F010922B6611
:1049900010922C66089510922B6610922C66089542
:1049A000FC01680F791F8FEF91E3E617F70709F411
:1049B00008952191822728E030E087FF06C0880F04
:1049C000892721503109C9F7F0CF880FFACFCF924C
:1049D000DF92EF92FF92642728E06B017C01F6944E
:1049E000E794D794C7946170772788279927909583
:1049F0008095709561957F4F8F4F9F4F6072737850
:104A0000887B9D7E6C257D258E259F25215029F74D
:104A1000FF90EF90DF90CF9008958F929F92AF928A
:104A2000BF92CF92DF92EF92FF920F931F93CF939B
:104A3000DF938B01C42F6C01F12CE12C88248A9424
:104A4000982C5401C016D10648F1D0E008E110E0DE
:104A50000E948D208111FCCFC501B401002E04C03D
:104A600096958795779567950A94D2F7CE019C5EC7
:104A70000E947E20085011092196083F8FEF1807E9
:104A800039F7DF91CF911F910F91FF90EF90DF9059
:104A9000CF90BF90AF909F908F900895C701B601BF
:104AA0000E947820482FC501B4010E94E7244B01E1
:104AB0005C018FEFC81AD80AE80AF80AC3CF982F0A
:104AC00080910660891759F080910560981302C0A3
:104AD000911105C081E09F3F19F080E0089581E0C9
:104AE0000895882361F0813061F0803F61F09FE09C
:104AF000980F9E3050F08F3F51F081E0089580E094
:104B0000089582E0089584E0089583E0089585E0A3
:104B1000089580934C6A90934D6A089580935A69E2
:104B200090935B690895CF92DF92EF92FF921F936B
:104B3000CF93DF93CDB7DEB7142FCDB6DEB64434B6
:104B400078F020E043E4612F82E50E94E82580911F
:104B5000796A8F3F19F08F5F8093796A80E02BC06C
:104B600095E0940F492F50E0EDB7FEB7E41BF50B2D
:104B7000EDBFFEBF31967F01EDB7FEB791839091F7
:104B80000660F701918382836383922FADB7BEB72E
:104B90001596F9018E2F891B8117B8F0BA01625062
:104BA0007109C7010E94D024F701E10FF11D848330
:104BB000C7010E94EE26CDBEDEBEDF91CF911F91D0
:104BC000FF90EF90DF90CF90089581918D93E2CF89
:104BD000EF92FF920F931F93CF93DF9300D000D0FB
:104BE000CDB7DEB7182FE62EF42E022FE091716AB2
:104BF000F091726A309709F009958091706A882364
:104C000071F0113561F01983EA82FB820C839E01F9
:104C10002F5F3F4F44E068EE80E00E94932524968A
:104C2000CDBFDEBFDF91CF911F910F91FF90EF902D
:104C30000895E3E7FAE61082118212821382148249
:104C400015821682178220E040E060E083E80C9431
:104C5000E825CF93682F40910460841740F020E04E
:104C60008BE30E94E825C0E08C2FCF910895E82FB8
:104C7000F0E0E25AF649C08120E04C2F87E30E9421
:104C8000E825F2CFEF92FF921F93CF93DF93C82FC7
:104C9000162F80910460C81768F020E0482F6C2F11
:104CA0008BE30E94E82580E0DF91CF911F91FF9078
:104CB000EF9008958C2F90E09C01225A364979019B
:104CC000411104C0F90180818617D9F0E0914C6A46
:104CD000F0914D6AD12F309761F0612F8C2F09959B
:104CE000D82F181731F0282F412F6C2F8AE30E94FC
:104CF000E82520E04D2F6C2F89E30E94E825F7017D
:104D0000D08381E0D1CFCF9320E040E06091046078
:104D100084E30E94E825C0E080910460C81710F089
:104D2000CF91089541E060E08C2F0E944226CF5F32
:104D3000F3CFCF93C0E080910460C81788F00E9441
:104D40008D208111FCCF62E48FEF94E10E947E20E0
:104D500020E040E06091046085E3CF910C94E82569
:104D60000E948D208111FCCF8C2F90E0FC01E25A33
:104D7000F64960819C5E0E947E20CF5FDCCFCF939E
:104D80008FEF94E10E947B2020E0823451F042E4D6
:104D9000682F83E30E94E8250E948326CF910C941C
:104DA000992640E06091046082E30E94E825C0E01B
:104DB00080910460C81710F0CF9108950E948D2053
:104DC0008111FCCF8C2F90E09C5E0E947B2041E003
:104DD000682F8C2F0E944226CF5FEACF30E020E080
:104DE000F901E35DF94940814F3F71F4DC014C91D9
:104DF00050E0240F351F2B3D324068F4BC01CF0139
:104E00000E94DC2C81E008952A3D52E0350770F7BE
:104E1000240F311DE5CF20E040E060E081E50E94F5
:104E2000E82580917A6A8F3F19F08F5F80937A6AC4
:104E300080E0089580910960811113C081E0809322
:104E40000960E0916E6AF0916F6A309719F081E025
:104E500090E0099530E020E040E06CEE8FEF0C949C
:104E60009325089580910960882391F0109209603C
:104E7000E0916E6AF0916F6A309719F090E080E0EF
:104E8000099530E020E040E06BEE8FEF0C94932525
:104E900008950F931F93CF93DF931F92CDB7DEB783
:104EA00090EF980F9F3EA0F190910360981781F1C9
:104EB000182F80930360662349F089839E012F5F3A
:104EC0003F4F41E06DEE8FEF0E94932580915A692C
:104ED00090915B69892BE1F080915C698823F1F006
:104EE0001031E0F4012F819F000D112440915D6984
:104EF000040F802F0E94292661E0811101C060E02B
:104F000041E0400FE0915A69F0915B69812F09956A
:104F10000F90DF91CF911F910F9108950FEFEFCF79
:104F20000F931F93CF93DF93CDB7DEB76497CDBFB9
:104F3000DEBF182F062F809108608983809107605B
:104F40008A83809105608B8380917B6A91E08927B9
:104F50008C838FEE94E10E947B208D8380EF94E11F
:104F60000E947B208E8381EF94E10E947B208F83BF
:104F700082EF94E10E947B20888783EF94E10E9476
:104F80007B20898784EF94E10E947B208A8785EFCC
:104F900094E10E947B208B8786EF94E10E947B2026
:104FA0008C8787EF94E10E947B208D8788EF94E1C6
:104FB0000E947B208E8789EF94E10E947B208F875F
:104FC0008AEF94E10E947B20888B8BEF94E10E9412
:104FD0007B20898B8CEF94E10E947B208A8B8DEF64
:104FE00094E10E947B208B8B8EEF94E10E947B20CA
:104FF0008C8B9E012F5F3F4F44E1602F812F0E94D9
:1050000093256496CDBFDEBFDF91CF911F910F91A5
:1050100008957F928F929F92AF92BF92CF92DF922C
:10502000EF92FF920F931F93CF93DF93CDB7DEB72D
:105030002897CDBFDEBFFC01ADB6BEB6C0801181E2
:10504000828003818BEFD82EDC0C8DB79EB78D1933
:1050500091098DBF9EBF01967C013496982FD70190
:105060008A2F891B8D1570F0812F0E947125815028
:10507000823058F020E0412F602F81E60E94E82521
:1050800011E0E8C081918D93EBCF0F3F39F5D1103E
:1050900007C041E068ED81E490E00E949520FFCFD9
:1050A00092E0D91216C0F701908181819F3F21F0D3
:1050B000209108602913E4CF8F3F21F09091076081
:1050C0009813DECF41E068ED81E490E00E949520E6
:1050D000FFCF2D2D42E06FEF80E6D0CF013F51F49E
:1050E00020E040E060E083E50E94E82581E08093D5
:1050F0000260C6CF003F49F420E040E060E084E574
:105100000E94E82510920260BBCF0D3E61F4F1E0F1
:105110002D2D41E06DEEDF12DFCF60E0F7018081E1
:105120000E944927ADCF0C3EF9F481E080930960DD
:10513000E0916E6AF0916F6A81E090E0309701F53E
:105140008BE2800F823008F0F2C0F1E02D2D42E0BA
:10515000602FFD1508F690907B6A992009F491C0A4
:1051600020E040E082E68ACF0B3E61F410920960B5
:10517000E0916E6AF0916F6A309711F390E080E0F1
:105180000995DECF0A3E09F046C120E040E060E02C
:1051900081E80E94E82581E08093706A71CF073E24
:1051A00019F40E9419266CCF053E09F58091736AA7
:1051B00089838091746A8A838091756A8B838091D8
:1051C000766A8C838091776A8D838091786A8E83EA
:1051D0008091796A8F8380917A6A88879E012F5F98
:1051E0003F4F48E066EE812F0E94932549CF033E52
:1051F00029F430E020E040E064EEF5CF003E29F4F1
:1052000061EE812F0E9490273BCF0F3D51F410910A
:105210007B6A20E040E06FED111119C00E948326E7
:105220002FCF0E3D51F410917B6A20E040E06EEDEF
:1052300011110DC00E94992623CF0D3D09F080CF9A
:1052400010917B6A1123D1F020E040E06DED82E601
:105250000E94E825812FADBEBEBE2896CDBFDEBF21
:10526000DF91CF911F910F91FF90EF90DF90CF9042
:10527000BF90AF909F908F907F9008950E94BF261F
:10528000FFCE2FEF821204C020E040E083E6F6CE8E
:10529000F701D0808D2D90E0FAEFCF0ED9822091CA
:1052A0000460422F50E0D21670F04C2D6D2D8BE330
:1052B0000E94E8259E012F5F3F4F41E0053D09F028
:1052C000DFCE68ED90CF2C1520F44C2D6D2D8CE3A6
:1052D000EFCF8C0D911D4817590720F44C2D6D2DE3
:1052E0008DE3E6CF20E04C2D6D2D88E30E94E8256C
:1052F0002FEFE21AF20A812C77247394F70161915F
:105300007F0140E08D2D880D0E9442268725982A36
:1053100083948C1498F3053D09F0B2CE9E012F5F63
:105320003F4F41E067ED992009F45DCFCACF003DC2
:1053300009F06BC08DB69EB6F2E0DF1649F02D2D58
:1053400042E060ED80E60E94E8258DBE9EBE98CECC
:1053500080917B6A882329F020E040E060ED82E6BE
:10536000F2CFF7010081C02ED12C71802091046012
:10537000422F50E0021770F020E0472D602F8BE3A2
:105380000E94E82530E020E040E061ED812F0E949E
:105390009325DBCF271520F4472D602F8CE3F0CF2A
:1053A000F2E4F71510F422E4F7CFE72CF12CC70153
:1053B0008C0D9D1D4817590720F4472D602F8DE354
:1053C000DFCF20E0472D602F86E30E94E8252FEFF6
:1053D000E21AF20A8DB79EB78E199F098DBF9EBF44
:1053E0002DB73EB72F5F3F4FEDB7FEB70183F601F4
:1053F000E25AF649D901119680E041E0480F87153D
:1054000021F281918D93842FF8CF11E0002309F4CC
:1054100021CF10E01FCF093E09F0C1CE20E040E0CF
:1054200060E082E80E94E8251092706A29CEE0913F
:105430000D69F0910E69309779F4809113690E949B
:105440005F2581110FC0E0910B69F0910C693097D5
:1054500029F181E199E6099481E199E6099588238A
:1054600061F3F1CFE0910969F0910A69309781F415
:1054700081E199E60E9409288111E5CFE091076951
:10548000F09108693097F9F281E199E60995DBCF4F
:1054900081E199E609958111D6CFEACF08951F934E
:1054A000CF93DF93D2E0C1E00E944223811104C078
:1054B000DF91CF911F9108950E945123823419F4F6
:1054C000C0930F69F1CF90910F699923D1F0109299
:1054D0000F69893919F4C0935969E6CF863681F08E
:1054E0001092596920E040E060E081E40E94E825E4
:1054F0008091746A8F3FC1F28F5F8093746AD4CFBA
:1055000082E49091596991110EC020E040E060E082
:1055100082E40E94E8258091756A8F3F29F28F5FAF
:105520008093756AC1CF9130E1F42BEF280F2434BA
:1055300038F48093116990931069D0935969B4CF6E
:105540001092596920E048E4682F83E40E94E8251E
:105550008091766A8F3F09F4A7CF8F5F8093766A38
:10556000A3CF923009F0A0CF9091106920911169DA
:10557000921740F4E92FF0E0EF5EF64980839F5FD9
:1055800090931069609111698091106968138CCFB4
:105590001092596970E0FB01E05FF649108162509A
:1055A000710981E199E60E94D024181779F020E072
:1055B000482F612F84E40E94E8258091776A8F3F0D
:1055C00009F472CF8F5F8093776A6ECF8091736A90
:1055D0008F3F19F08F5F8093736A0E94172A64CF00
:1055E0000F931F93CF93DF93C82FD0E00AED12E003
:1055F0000C1B1D0BBE01635D7949A8018DE296E687
:105600000E94DC2CAE016FEF70E0C801835D994908
:10561000DF91CF911F910F910C94E52CEF92FF92A7
:105620000F931F93CF93DF93CDB7DEB7C854D10943
:10563000CDBFDEBF00912D660F3F69F410E0812FD2
:10564000C85BDF4FCDBFDEBFDF91CF911F910F91C0
:10565000FF90EF900895402F50E06DE276E6CE0186
:1056600001960E94DC2C80910260882339F380919E
:10567000786A8F3F19F08F5F8093786A802F0E943D
:10568000F02AE0912966F0912A66309751F0CE0118
:1056900001960995182F882321F0802F0E94F02A67
:1056A000CECF8C81895F8430C8F40E944B2388233D
:1056B000E1F382E40E94EF230E944B23182F8823FA
:1056C000D9F389E90E94EF2300E08981081798F057
:1056D00010922B6610922C66B2CFA89520912B6663
:1056E00030912C668091066090E0880F991F821798
:1056F000930799F7DACF0E944B238823E1F3EE2436
:10570000E394F12CEC0EFD1EE00EF11CF7018081FC
:105710000E94EF23F7018081823439F40E944B23E9
:105720008823E1F386E60E94EF230F5FCECF0E942D
:105730004F2A0E940E2B8111FCCF0895693000F191
:1057400010925C6960E0982F2FE0629F900D112409
:10575000692F615F6F3EB8F01092046010925D692E
:1057600010925C6920E04EEE81E30E94E82520E083
:1057700040E06091046080E30E94E8250C94BF261D
:1057800060935C69E0CF6093046080935D69EFCFC4
:105790000F931F93CF93DF930EE41AE6C0E8D0E196
:1057A000CE010E949220F80181938F012196C03A88
:1057B000F0E1DF07A9F760914E6A8FEF860F8E3F09
:1057C00008F453C081E08093086020E040E085E267
:1057D0000E94E82520E040E06091086084E20E9499
:1057E000E82560914F6A8FEB860F8A3108F440C03C
:1057F00081E48093076020E040E087E20E94E82592
:1058000020E040E06091076086E20E94E825609118
:10581000506A8FEF860F803F70F181E080930660C1
:1058200020E040E081E20E94E82520E040E0609135
:10583000066080E20E94E8256091516A662351F07B
:105840008FE0860F8E3030F020E040E083E20E944F
:10585000E82560EF6093056020E040E082E2DF91A0
:10586000CF911F910F910C94E82560930860B2CFFF
:1058700060930760C5CF60930660D7CFCF92DF9269
:10588000EF92FF920F931F93CF93DF936B017C01F5
:1058900080917B6AC7EF8111CFEED0E008E110E084
:1058A0000E948D208111FCCFC701B601002E04C0DB
:1058B00096958795779567950A94D2F7CE019C5E69
:1058C0000E947E20085011092196083F8FEF18078B
:1058D00039F743EF60E070E490E080E00E940D252E
:1058E0004BEF6FEF7FEF80E090E4DF91CF911F915E
:1058F0000F91FF90EF90DF90CF900C940D25CF93F8
:10590000C62F81110E941A27CC2329F061E08FEF66
:10591000CF910C944927CF910895BF92CF92DF92F7
:10592000EF92FF920F931F93CF93DF93B82EC62F62
:10593000D42F79014AED52E06FEF70E08DE296E6E8
:105940000E94E52CB0927B6A20E040E060E080E1BC
:105950000E94E8250E94C82B6D2F8C2F0E949E2B41
:10596000C701B8010E943E2C86EB94E20E944222BD
:105970008BEC94E20E942121E0E0F4E08189887FB1
:105980008360818B8091066090E0880F991F0E9450
:10599000102262EE80E00E94902720E040E060E06C
:1059A00081E1DF91CF911F910F91FF90EF90DF90F8
:1059B000CF90BF900C94E825FB01DC0102C0019060
:1059C0000D9241505040D8F70895DC0101C06D930D
:0C59D00041505040E0F70895F894FFCFDC
:0A59DC00B62201FFEEF001410101C7
:02000004008278
:090000000A00000000D0100020ED
:0400000300004000B9
:00000001FF
