:104000000C9448200C9465200C9465200C94652039
:104010000C9465200C94B6220C94F9220C94652023
:104020000C94BB210C9465200C9465200C945323B4
:104030000C9465200C9465200C9465200C946520EC
:104040000C9465200C9465200C9465200C946520DC
:104050000C9465200C946E240C9465200C946520BF
:104060000C9402220C9465200C9465200C9465201D
:104070000C9465200C94F4210C9465200C9465201C
:104080000C9465200C9465200C943B220C946520C4
:1040900011241FBECFEFCDBFDFE7DEBF10E6A0E0EB
:1040A000B0E6EAEBFEE502C005900D92A031B10743
:1040B000D9F72AE6A0E1B0E601C01D92A93AB207FD
:1040C000E1F70E94A4260C945B2F0C940020482F4B
:1040D0006DE980E090E10C949520E0E0F0E18281D0
:1040E0008F78828308950E946D20109201100895A8
:1040F000FB0184910895FC01808108951F93CF9363
:10410000DF93EC01162F83E10E946720188380E083
:10411000DF91CF911F910C946720809102108695BA
:1041200081700895FC0180810895FC0164BF408383
:1041300008954AE068ED80E091E00E94952040E813
:1041400068ED81E091E00E94952080E008950E9452
:10415000BB200E9414210E9473200E9489220E9489
:1041600030230E947F230E9499200C94FC20462F2C
:1041700068ED0C94952060E080E690E00E94B72006
:1041800060E081E690E00E94B72060E085E690E084
:104190000E94B72060E088E790E00E94B72064E2C8
:1041A00088E690E00E94B72060E089E690E00E94F7
:1041B000B72060E080E790E00E94B72060E08CE7E5
:1041C00090E00E94B72060E082E690E00E94B72075
:1041D00060E083E690E00E94B72060E084E690E033
:1041E0000E94B72060E080E890E00E94B7208091B4
:1041F000650081FFFCCF089540E068ED80E191E02B
:104200000E949520E0E1F1E01282138280E008959F
:1042100008950895089508950895089508950895B6
:104220000895089508950895CF93DF9380E094E072
:1042300029E0FC012083C0E4D4E01882A0E6B4E0C9
:104240001C9240EA54E020E3FA01208321E0FC01C3
:1042500024831C8214961C921497FA011482FC0188
:10426000108A118A128A138A148A158A168A178A62
:10427000188A198A1A8A1B8A1C8A1D8A1E8A1F8A12
:1042800050961C92509751961C92519752961C92A0
:10429000529753961C92539788E054968C93549758
:1042A00055968C93559756968C93569757961C9285
:1042B000FA01808B818B828B838B148A158A168AF4
:1042C000178AE0EEF5E011821082158217821086BF
:1042D00011861682128288E091E280932660909384
:1042E00027608AE091E280932460909325608BE0C0
:1042F00091E280932260909323608CE091E280931E
:104300002060909321608DE091E280931E609093F5
:104310001F608EE091E280931C6090931D608FE09F
:1043200091E280931A6090931B6080E191E2809308
:1043300018609093196081E191E2809316609093E8
:10434000176082E191E2809314609093156083E19D
:1043500091E2809312609093136089E091E28093E0
:10436000106090931160DF91CF9108958093266043
:104370009093276008951F920F920FB60F92112409
:104380002F933F934F935F936F937F938F939F935D
:10439000AF93BF93EF93FF93199B05C0E091266005
:1043A000F09127600995189B05C0E0912460F09179
:1043B000256009951B9B05C0E0912260F091236068
:1043C00009958FEF83B9FF91EF91BF91AF919F91C5
:1043D0008F917F916F915F914F913F912F910F90AE
:1043E0000FBE0F901F9018951F920F920FB60F924D
:1043F00011248F938FEF8BB98F910F900FBE0F9079
:104400001F9018951F920F920FB60F9211242F93A1
:104410003F934F935F936F937F938F939F93AF934C
:10442000BF93EF93FF937C9B05C0E0912060F091D8
:10443000216009957D9B05C0E0911E60F0911F6091
:1044400009957E9B05C0E0911C60F0911D60099567
:104450008FEF8FB9FF91EF91BF91AF919F918F91A6
:104460007F916F915F914F913F912F910F900FBE70
:104470000F901F9018951F920F920FB60F92112454
:104480002F933F934F935F936F937F938F939F935C
:10449000AF93BF93EF93FF93B89B05C0E0911A6071
:1044A000F0911B600995B99B05C0E0911860F091EF
:1044B00019600995BA9B05C0E0911660F0911760EC
:1044C0000995BB9B05C0E0911460F09115600995BA
:1044D000BC9B05C0E0911260F09113600995BD9BF3
:1044E00005C0E0911060F091116009958FEF87BBD6
:1044F000FF91EF91BF91AF919F918F917F916F91BC
:104500005F914F913F912F910F900FBE0F901F9091
:104510001895809141018111FCCF8FEF9FE7809327
:104520004C0190934D0110924801109249018FEF78
:104530009FEF80934A0190934B0110924701109294
:10454000420110924501809151018111FCCF81E01F
:10455000809352011092550181E18093500180E0D7
:104560000895809328609093296008951F920F9278
:104570000FB60F9211242F933F934F935F936F9336
:104580007F938F939F93AF93BF93EF93FF9380910C
:10459000420180FF0BC08091430180FF07C0E09182
:1045A0002C60F0912D60309709F0099580914201BF
:1045B00081FF0BC08091430181FF07C0E0912A6019
:1045C000F0912B60309709F0099583E080934301C7
:1045D000FF91EF91BF91AF919F918F917F916F91DB
:1045E0005F914F913F912F910F900FBE0F901F90B1
:1045F00018951F920F920FB60F9211242F933F938D
:104600004F935F936F937F938F939F93AF93BF93DA
:10461000EF93FF93E0912860F0912960309709F0C3
:10462000099581E080935301FF91EF91BF91AF9184
:104630009F918F917F916F915F914F913F912F91BA
:104640000F900FBE0F901F901895019708F40895D2
:10465000EFE6F7E13197F1F700C00000F6CF0895DB
:10466000E0E0FAE010A611A612A613A614A615A65D
:1046700010A211A211821282138214821582168254
:1046800017821686118680E18287138685E490E082
:1046900086A397A317868FE0808308958093006098
:1046A0009093016008951F920F920FB60F921124FC
:1046B0002F933F934F935F936F937F938F939F932A
:1046C000AF93BF93EF93FF93E0910060F09101608F
:1046D000309709F0099580E180930B0AFF91EF91E3
:1046E000BF91AF919F918F917F916F915F914F910A
:1046F0003F912F910F900FBE0F901F90189587EF4D
:1047000093E280939F6A9093A06AE0E0F8E080ECE7
:1047100090E08087918781E9858380EC868383E0C0
:10472000878313861486168615868BE694E280931B
:10473000A56A9093A66A8DE694E28093A16A90930D
:10474000A26A8CE694E28093A76A9093A86A10927A
:10475000306010923160109234661092356610927B
:104760003266109233661092A36A1092A46A858111
:104770008068858308952091A36A3091A46A81E0BE
:10478000232B09F480E008958091040885FB882795
:1047900080F90895E0913266F0913366EE5CFB4952
:1047A000808120913266309133662F5F3F4F3170A8
:1047B0002093326630933366909105089F779093EB
:1047C00005082091A36A3091A46A232B51F020910F
:1047D000A36A3091A46A215031092093A36A3093CF
:1047E000A46A909105089068909305080895E09157
:1047F0003466F0913566EE0FFF1FEE5CFF491082C4
:1048000011828091010882FF12C0E0913466F0911C
:104810003566EE0FFF1FEE5CFF498081826080836A
:10482000E091A56AF091A66A309709F00995809108
:10483000010881FF0CC080913060816080933060FE
:10484000E091A76AF091A86A309709F009958091E4
:10485000010886FF12C0E0913466F0913566EE0FD4
:10486000FF1FEE5CFF49808184608083E091A16A34
:10487000F091A26A309709F0099520910008809183
:1048800034669091356601969170409132665091F0
:10489000336648175907A1F0E0913466F091356608
:1048A000EE5CFB492083809334669093356680915B
:1048B000A36A9091A46A01968093A36A9093A46AD4
:1048C000E0912E60F0912F60309709F009940895DF
:1048D0008093020808950895089508951F920F92F5
:1048E0000FB60F9211242F933F934F935F936F93C3
:1048F0007F938F939F93AF93BF93EF93FF930E9408
:10490000F723FF91EF91BF91AF919F918F917F918D
:104910006F915F914F913F912F910F900FBE0F902C
:104920001F9018950E942727811107C080E180936E
:10493000A60480E28093A6040895809141668230A7
:10494000A9F3813039F480E18093A60480E280935A
:10495000A50408958111F0CF80E18093A504E9CFEB
:10496000CF936623B1F0C42F842F0E948D288093AB
:10497000466681E08C0F0E948D288093446682E019
:104980008C0F0E948D2891E0811101C090E09093DE
:104990004266CF910895282F30E0F901E45FFF4986
:1049A0008081681738F0265F3F49F90180816817D8
:1049B00008F4862F0895882349F0482F4150550B5D
:1049C0009A01237029F4623008F060E0862F089580
:1049D00081E0213019F02230B1F780E00C94CB2433
:1049E000CF93DF93EC01688181E00E94CB24809318
:1049F000466680934766698180E00E94CB2480935D
:104A000044668093456681E09A81911101C080E0FF
:104A10008093426680934366DF91CF910C949224F9
:104A2000DF92EF92FF920F931F93CF93DF93CDB757
:104A3000DEB7FC01EDB6FEB6D28093818081855051
:104A40002DB73EB7281B31092DBF3EBF0DB71EB78E
:104A50000F5F1F4F3496302FD8012A2F231B2817A2
:104A6000B8F0913B51F4833041F480E00E948D28EE
:104A70008D1103C0C8010E94F02480E0EDBEFEBE8F
:104A8000DF91CF911F910F91FF90EF90DF900895EC
:104A900021912D93E2CF70E0641B710947FD73955E
:104AA00090E0FC01E25FFF492081211115C014163E
:104AB0004CF4845F9F49FC0180818617170669F1D9
:104AC00064F10895442349F1865F9F49FC01808188
:104AD0008617170614F50895141684F4FC01E45F94
:104AE000FF49208126171706C1F0BCF0865F9F4959
:104AF000FC0180818F5F821B860F0895442369F03B
:104B0000FC01E65FFF4920812617170634F4845F15
:104B10009F49FC0180818150EECF862F0895282F78
:104B200030E0F901E45FFF498081265F3F49F901E8
:104B30009081861780F4691778F470E0492F481B3C
:104B4000550B9A0157FF02C02F5F3F4F35952795B0
:104B5000621773070CF0892F089591E090934066D7
:104B6000823041F46091466681E00E948F258093F7
:104B700046660895813041F46091446680E00E9469
:104B80008F25809344660895811105C08091426607
:104B90008927809342660895DF92EF92FF920F93E8
:104BA0001F93CF93DF933EB120913B66220F41E0EC
:104BB00036FB332730F93427232B20933B6636B35B
:104BC00020913A66220F32FB332730F93427232B0A
:104BD00020933A6696B380913966880F93FB9927A4
:104BE00090F99427892B8093396689E3E82E86E62D
:104BF000F82EC6E3D6E610E0DD24D394F701019148
:104C00007F010F708881811106C00F3021F4D88296
:104C1000812F0E94AD258881882319F0011101C0E0
:104C200018821F5F2196133049F7DF91CF911F91B2
:104C30000F91FF90EF90DF900895EEE3F6E630E0FD
:104C400020E041E0B09B21C083E0B1991AC091916E
:104C5000981B90FF0BC0DF0111978C93D901A45CC6
:104C6000B9498C9192708150980F9C9321303105F5
:104C700009F4089521E030E0749B05C083E0759B42
:104C8000E6CF8427E4CF80E0FACF80E0DECF0E9439
:104C9000CC250C941D261F93CF93DF9300D01F9239
:104CA000CDB7DEB79091476620914666921306C055
:104CB0002091446630914566321719F021E0209327
:104CC00042662091466692130CC0909144662091F2
:104CD0004566291306C090914266209143662917C4
:104CE00049F19091466690934766909144669093FF
:104CF00045669091426690934366992311F191E045
:104D000090934166182F0E949224112399F080916C
:104D100047668983809145668A83809143668B8349
:104D200080E00E948D289E012F5F3F4F43E061EBA2
:104D30000E94F7272396CDBFDEBFDF91CF911F9151
:104D4000089510924166DECF0E94A7201092466619
:104D50001092446678948BED94E20E94E82782E9F1
:104D600094E20E94222780EB94E20E94ED2780EFDC
:104D700094E20E94E32780E195E20E94F22705E396
:104D80001CE42FEF35E643E061E080E00E94FC2E5A
:104D90000E94922487E496E20E944E2311E0D0E024
:104DA000C0E0FE01E45CF94940814595459591F0EC
:104DB0008081837080831093406610934266440F15
:104DC000440F8C2FC130E1F4609146660E944B2560
:104DD00080934666219789F480914066882331F05C
:104DE0001092406661E081E00E94EE2E81E00E9418
:104DF0004B260E94062EA895D2CFC1E0D0E0D1CF9D
:104E00006091446680E00E944B2580934466E2CF27
:104E100080914A6690914B66019680934A66909382
:104E20004B6680914A6690914B66803E914020F09F
:104E300010924A6610924B66089510924A6610923C
:104E40004B6608958093916A9093926A0895809139
:104E500009600895FC01680F791F8FEF91E3E61751
:104E6000F70709F408952191822728E030E087FFB1
:104E700006C0880F892721503109C9F7F0CF880F64
:104E8000FACFCF92DF92EF92FF92642728E06B0176
:104E90007C01F694E794D794C794617077278827AC
:104EA000992790958095709561957F4F8F4F9F4F73
:104EB00060727378887B9D7E6C257D258E259F256D
:104EC000215029F7FF90EF90DF90CF9008958F92B7
:104ED0009F92AF92BF92CF92DF92EF92FF920F9389
:104EE0001F93CF93DF938B01C42F6C01F12CE12C26
:104EF00088248A94982C5401C016D10648F1D0E039
:104F000008E110E00E948D208111FCCFC501B401A1
:104F1000002E04C096958795779567950A94D2F7E9
:104F2000CE019C5E0E947E20085011092196083F08
:104F30008FEF180739F7DF91CF911F910F91FF90F5
:104F4000EF90DF90CF90BF90AF909F908F9008959B
:104F5000C701B6010E947820482FC501B4010E9404
:104F600041274B015C018FEFC81AD80AE80AF80AFA
:104F7000C3CF982F80910660891759F08091056002
:104F8000981302C0911105C081E09F3F19F080E0A5
:104F9000089581E00895882361F0813061F0803FB9
:104FA00061F09FE0980F9E3050F08F3F51F081E00C
:104FB000089580E0089582E0089584E0089583E0F4
:104FC000089585E0089580936F6A9093706A0895BC
:104FD00080936B6A90936C6A08958093796990933B
:104FE0007A69089580932A6990932B690895CF92E6
:104FF000DF92EF92FF921F93CF93DF93CDB7DEB78F
:10500000142FCDB6DEB6443478F020E043E4612FAF
:1050100082E50E944C2880919C6A8F3F19F08F5F37
:1050200080939C6A80E02BC095E0940F492F50E05C
:10503000EDB7FEB7E41BF50BEDBFFEBF31967F0168
:10504000EDB7FEB7918390910660F701918382835B
:105050006383922FADB7BEB71596F9018E2F891BCA
:105060008117B8F0BA0162507109C7010E942A275E
:10507000F701E10FF11D8483C7010E945229CDBEC3
:10508000DEBEDF91CF911F91FF90EF90DF90CF9028
:10509000089581918D93E2CFEF92FF920F931F932A
:1050A000CF93DF9300D000D0CDB7DEB7182FE62E18
:1050B000F42E022FE091946AF091956A309709F0EE
:1050C00009958091936A882371F0113561F01983F5
:1050D000EA82FB820C839E012F5F3F4F44E068EE23
:1050E00080E00E94F7272496CDBFDEBFDF91CF91ED
:1050F0001F910F91FF90EF900895E6E9FAE6108274
:10510000118212821382148215821682178220E085
:1051100040E060E083E80C944C28CF93682F4091E6
:105120000460841740F020E08BE30E944C28C0E02C
:105130008C2FCF910895E82FF0E0E358F649C08115
:1051400020E04C2F87E30E944C28F2CFEF92FF9291
:105150001F93CF93DF93C82F162F80910460C81739
:1051600068F020E0482F6C2F8BE30E944C2880E0F1
:10517000DF91CF911F91FF90EF9008958C2F90E0D9
:105180009C01235836497901411104C0F9018081FD
:105190008617D9F0E0916B6AF0916C6AD12F309745
:1051A00061F0612F8C2F0995D82F181731F0282F17
:1051B000412F6C2F8AE30E944C2820E04D2F6C2F4A
:1051C00089E30E944C28F701D08381E0D1CFCF93AF
:1051D00020E040E06091046084E30E944C28C0E03D
:1051E00080910460C81710F0CF91089541E060E00D
:1051F0008C2F0E94A628CF5FF3CFCF93C0E0809181
:105200000460C81788F00E948D208111FCCF62E4F1
:105210008FEF94E10E947E2020E040E060910460E6
:1052200085E3CF910C944C280E948D208111FCCFF6
:105230008C2F90E0FC01E358F64960819C5E0E944F
:105240007E20CF5FDCCFCF938FEF94E10E947B2055
:1052500020E0823451F042E4682F83E30E944C281E
:105260000E94E728CF910C94FD2840E060910460F3
:1052700082E30E944C28C0E080910460C81710F0BF
:10528000CF9108950E948D208111FCCF8C2F90E04A
:105290009C5E0E947B2041E0682F8C2F0E94A628F4
:1052A000CF5FEACF30E020E0F901E45BF9494081CB
:1052B0004F3F71F4DC014C9150E0240F351F2B3D22
:1052C000324068F4BC01CF010E944B2F81E0089569
:1052D0002A3D52E0350770F7240F311DE5CF20E05D
:1052E00040E060E081E50E944C2880919D6A8F3FFC
:1052F00019F08F5F80939D6A80E008958091096026
:10530000811113C081E080930960E091916AF0916E
:10531000926A309719F081E090E0099530E020E042
:1053200040E06CEE8FEF0C94F72708950F931F93D6
:10533000CF93DF931F92CDB7DEB790EF980F9F3ECC
:10534000A0F190910360981781F1182F809303606A
:10535000662349F089839E012F5F3F4F41E06DEE48
:105360008FEF0E94F7278091796990917A69892B54
:10537000E1F080917B698823F1F01031E0F4012F96
:10538000819F000D112440917C69040F802F0E94A1
:105390008D2861E0811101C060E041E0400FE091A3
:1053A0007969F0917A69812F09950F90DF91CF91FA
:1053B0001F910F9108950FEFEFCF0F931F93CF938E
:1053C000DF93CDB7DEB76497CDBFDEBF182F062FB2
:1053D000809108608983809107608A83809105604D
:1053E0008B8380919E6A91E089278C838FEE94E174
:1053F0000E947B208D8380EF94E10E947B208E832E
:1054000081EF94E10E947B208F8382EF94E10E94E0
:105410007B20888783EF94E10E947B20898784EF3B
:1054200094E10E947B208A8785EF94E10E947B2093
:105430008B8786EF94E10E947B208C8787EF94E135
:105440000E947B208D8788EF94E10E947B208E87CD
:1054500089EF94E10E947B208F878AEF94E10E947C
:105460007B20888B8BEF94E10E947B20898B8CEFD3
:1054700094E10E947B208A8B8DEF94E10E947B2037
:105480008B8B8EEF94E10E947B208C8B9E012F5F93
:105490003F4F44E1602F812F0E94F7276496CDBFD4
:1054A000DEBFDF91CF911F910F9108957F928F9270
:1054B0009F92AF92BF92CF92DF92EF92FF920F93A3
:1054C0001F93CF93DF93CDB7DEB72897CDBFDEBF55
:1054D000FC01ADB6BEB6E0801181828003818BEF06
:1054E000F82EFE0C8DB79EB78F1991098DBF9EBF08
:1054F00001966C013496982FD6018A2F891B8F153F
:1055000070F0812F0E94CB278150823058F020E02C
:10551000412F602F81E60E944C2811E0E8C0819164
:105520008D93EBCF0F3F39F5F11007C041E068EDE7
:1055300081E490E00E949520FFCF92E0F91216C01E
:10554000F601908181819F3F21F02091086029130D
:10555000E4CF8F3F21F0909107609813DECF41E0B8
:1055600068ED81E490E00E949520FFCF2F2D42E06E
:105570006FEF80E6D0CF013F51F420E040E060E0E3
:1055800083E50E944C2881E080930260C6CF003FF3
:1055900049F420E040E060E084E50E944C2810924D
:1055A0000260BBCF0D3E61F4F1E02F2D41E06DEEC6
:1055B000FF12DFCF60E0F60180810E949629ADCF17
:1055C0000C3EF9F481E080930960E091916AF091DA
:1055D000926A81E090E0309701F58BE2800F823093
:1055E00008F0F2C0F1E02F2D42E0602FFF1508F621
:1055F00090909E6A992009F491C020E040E082E6F4
:105600008ACF0B3E61F410920960E091916AF091AB
:10561000926A309711F390E080E00995DECF0A3E60
:1056200009F068C120E040E060E081E80E944C2879
:1056300081E08093936A71CF073E19F40E947D2820
:105640006CCF053E09F58091966A89838091976AAF
:105650008A838091986A8B838091996A8C838091E8
:105660009A6A8D8380919B6A8E8380919C6A8F83D6
:1056700080919D6A88879E012F5F3F4F48E066EECC
:10568000812F0E94F72749CF033E29F430E020E024
:1056900040E064EEF5CF003E29F461EE812F0E94D8
:1056A000DD293BCF0F3D51F410919E6A20E040E090
:1056B0006FED111119C00E94E7282FCF0E3D51F454
:1056C00010919E6A20E040E06EED11110DC00E9425
:1056D000FD2823CF0D3D09F080CF10919E6A112344
:1056E000D1F020E040E06DED82E60E944C28812F51
:1056F000ADBEBEBE2896CDBFDEBFDF91CF911F915C
:105700000F91FF90EF90DF90CF90BF90AF909F9060
:105710008F907F9008950E942329FFCE2FEF821251
:1057200004C020E040E083E6F6CEF601F0808F2D45
:1057300090E0FAEFEF0EF98220910460422F50E0E2
:10574000F21670F04E2D6F2D8BE30E944C289E01B7
:105750002F5F3F4F41E0053D09F0DFCE68ED90CF70
:105760002E1520F44E2D6F2D8CE3EFCF8E0D911D55
:105770004817590720F44E2D6F2D8DE3E6CF20E01A
:105780004E2D6F2D88E30E944C282FEFC21AD20AAB
:10579000812C77247394F60161916F0140E08F2D85
:1057A000880D0E94A6288725982A83948E1498F342
:1057B000053D09F0B2CE9E012F5F3F4F41E067EDFE
:1057C000992009F45DCFCACF003D09F06BC08DB6BA
:1057D0009EB6F2E0FF1649F02F2D42E060ED80E624
:1057E0000E944C288DBE9EBE98CE80919E6A8823D2
:1057F00029F020E040E060ED82E6F2CFF601008182
:10580000E02EF12C718020910460422F50E00217AD
:1058100070F020E0472D602F8BE30E944C2830E091
:1058200020E040E061ED812F0E94F727DBCF2715B4
:1058300020F4472D602F8CE3F0CFF2E4F71510F43D
:1058400022E4F7CFC72CD12CC6018E0D9F1D48171F
:10585000590720F4472D602F8DE3DFCF20E0472D3F
:10586000602F86E30E944C282FEFC21AD20A8DB710
:105870009EB78C199D098DBF9EBF2DB73EB72F5F78
:105880003F4FEDB7FEB70183F701E358F649D90161
:10589000119680E041E0480F871521F281918D93A8
:1058A000842FF8CF013B99F4F3E02F2D43E061EB17
:1058B000FF125FCEE0916F6AF091706A309711F03D
:1058C000C601099511E0002309F411CF11C0003B76
:1058D000C9F723E0F21621F02F2D43E060EB49CE0B
:1058E000E0916D6AF0916E6A309711F0C6010995EA
:1058F00010E0FDCE093E09F09FCE20E040E060E0E0
:1059000082E80E944C281092936A07CEE0912C699D
:10591000F0912D69309779F4809132690E94B9270E
:1059200081110FC0E0912A69F0912B69309729F11C
:1059300080E399E6099480E399E60995882361F369
:10594000F1CFE0912869F0912969309781F480E3E3
:1059500099E60E94562A8111E5CFE0912669F091DF
:1059600027693097F9F280E399E60995DBCF80E368
:1059700099E609958111D6CFEACF08951F93CF9369
:10598000DF93D2E0C1E00E94BB23811104C0DF910C
:10599000CF911F9108950E94CA23823419F4C093B5
:1059A0002E69F1CF90912E699923D1F010922E6932
:1059B000893919F4C0937869E6CF863681F0109260
:1059C000786920E040E060E081E40E944C2880910A
:1059D000976A8F3FC1F28F5F8093976AD4CF82E43A
:1059E0009091786991110EC020E040E060E082E47F
:1059F0000E944C288091986A8F3F29F28F5F809394
:105A0000986AC1CF9130E1F42BEF280F243438F499
:105A10008093306990932F69D0937869B4CF1092B6
:105A2000786920E048E4682F83E40E944C28809144
:105A3000996A8F3F09F4A7CF8F5F8093996AA3CFAC
:105A4000923009F0A0CF90912F6920913069921780
:105A500040F4E92FF0E0E05DF64980839F5F90938A
:105A60002F696091306980912F6968138CCF1092F3
:105A7000786970E0FB01E15DF649108162507109BF
:105A800080E399E60E942A27181779F020E0482F32
:105A9000612F84E40E944C2880919A6A8F3F09F418
:105AA00072CF8F5F80939A6A6ECF8091966A8F3F94
:105AB00019F08F5F8093966A0E94862C64CF0F93B3
:105AC0001F93CF93DF93C82FD0E00AED12E00C1B99
:105AD0001D0BBE01645B7949A8018CE496E60E9427
:105AE0004B2FAE016FEF70E0C801845B9949DF91E5
:105AF000CF911F910F910C94542FEF92FF920F931F
:105B00001F93CF93DF93CDB7DEB7C854D109CDBF74
:105B1000DEBF00914C660F3F69F410E0812FC85B37
:105B2000DF4FCDBFDEBFDF91CF911F910F91FF906F
:105B3000EF900895402F50E06CE476E6CE01019698
:105B40000E944B2F80910260882339F380919B6AD9
:105B50008F3F19F08F5F80939B6A802F0E945F2D8B
:105B6000E0914866F0914966309751F0CE01019678
:105B70000995182F882321F0802F0E945F2DCECF0A
:105B80008C81895F8430C8F40E94C4238823E1F3A8
:105B900082E40E9468240E94C423182F8823D9F32A
:105BA00089E90E94682400E08981081798F0109222
:105BB0004A6610924B66B2CFA89520914A66309102
:105BC0004B668091066090E0880F991F82179307BB
:105BD00099F7DACF0E94C4238823E1F3EE24E394FB
:105BE000F12CEC0EFD1EE00EF11CF70180810E94ED
:105BF0006824F7018081823439F40E94C423882309
:105C0000E1F386E60E9468240F5FCECF0E94BE2C8F
:105C10000E947D2D8111FCCF0895693000F1109212
:105C20007B6960E0982F2FE0629F900D1124692F0F
:105C3000615F6F3EB8F01092046010927C69109220
:105C40007B6920E04EEE81E30E944C2820E040E09A
:105C50006091046080E30E944C280C942329609397
:105C60007B69E0CF6093046080937C69EFCF0F93F2
:105C70001F93CF93DF9301E71AE6C0E8D0E1CE018E
:105C80000E949220F80181938F012196C03AF0E1A1
:105C9000DF07A9F76091716A8FEF860F8E3F08F4D6
:105CA00053C081E08093086020E040E085E20E94DC
:105CB0004C2820E040E06091086084E20E944C287B
:105CC0006091726A8FEB860F8A3108F440C081E4DC
:105CD0008093076020E040E087E20E944C2820E0AB
:105CE00040E06091076086E20E944C286091736AF0
:105CF0008FEF860F803F70F181E08093066020E097
:105D000040E081E20E944C2820E040E06091066083
:105D100080E20E944C286091746A662351F08FE003
:105D2000860F8E3030F020E040E083E20E944C2865
:105D300060EF6093056020E040E082E2DF91CF9168
:105D40001F910F910C944C2860930860B2CF609320
:105D50000760C5CF60930660D7CFCF92DF92EF92F6
:105D6000FF920F931F93CF93DF936B017C01809180
:105D70009E6AC7EF8111CFEED0E008E110E00E94EB
:105D80008D208111FCCFC701B601002E04C096956D
:105D90008795779567950A94D2F7CE019C5E0E940D
:105DA0007E20085011092196083F8FEF180739F718
:105DB00043EF60E070E490E080E00E9467274BEFE3
:105DC0006FEF7FEF80E090E4DF91CF911F910F9113
:105DD000FF90EF90DF90CF900C946727CF93C62F62
:105DE00081110E947E29CC2329F061E08FEFCF91B1
:105DF0000C949629CF910895BF92CF92DF92EF92A3
:105E0000FF920F931F93CF93DF93B82EC62FD42FFB
:105E100079014AED52E06FEF70E08CE496E60E9463
:105E2000542FB0929E6A20E040E060E080E10E9442
:105E30004C280E94372E6D2F8C2F0E940D2EC701EB
:105E4000B8010E94AD2E88E097E20E94B1228DE158
:105E500097E20E94B621E0E0F4E08189887F8360C8
:105E6000818B8091066090E0880F991F0E94252306
:105E700062EE80E00E94DD2920E040E060E081E108
:105E8000DF91CF911F910F91FF90EF90DF90CF9016
:105E9000BF900C944C28FB01DC0102C001900D92D4
:105EA00041505040D8F70895DC0101C06D93415036
:0A5EB0005040E0F70895F894FFCF8A
:105EBA002F2301FFEEF001410101FFFF0000000066
:02000004008278
:090000000A00000000D0100020ED
:0400000300004000B9
:00000001FF
