:104000000C9448200C9465200C9465200C94652039
:104010000C9465200C94B6220C94F9220C94652023
:104020000C94BB210C9465200C9465200C945323B4
:104030000C9465200C9465200C9465200C946520EC
:104040000C9465200C9465200C9465200C946520DC
:104050000C9465200C946E240C9465200C946520BF
:104060000C9402220C9465200C9465200C9465201D
:104070000C9465200C94F4210C9465200C9465201C
:104080000C9465200C9465200C943B220C946520C4
:1040900011241FBECFEFCDBFDFE7DEBF10E6A0E0EB
:1040A000B0E6EEEBFEE502C005900D92A031B1073F
:1040B000D9F72AE6A0E1B0E601C01D92A53AB20701
:1040C000E1F70E94D3260C945D2F0C940020482F1A
:1040D0006DE980E090E10C949520E0E0F0E18281D0
:1040E0008F78828308950E946D20109201100895A8
:1040F000FB0184910895FC01808108951F93CF9363
:10410000DF93EC01162F83E10E946720188380E083
:10411000DF91CF911F910C946720809102108695BA
:1041200081700895FC0180810895FC0164BF408383
:1041300008954AE068ED80E091E00E94952040E813
:1041400068ED81E091E00E94952080E008950E9452
:10415000BB200E9414210E9473200E9489220E9489
:1041600030230E947F230E9499200C94FC20462F2C
:1041700068ED0C94952060E080E690E00E94B72006
:1041800060E081E690E00E94B72060E085E690E084
:104190000E94B72060E088E790E00E94B72064E2C8
:1041A00088E690E00E94B72060E089E690E00E94F7
:1041B000B72060E080E790E00E94B72060E08CE7E5
:1041C00090E00E94B72060E082E690E00E94B72075
:1041D00060E083E690E00E94B72060E084E690E033
:1041E0000E94B72060E080E890E00E94B7208091B4
:1041F000650081FFFCCF089540E068ED80E191E02B
:104200000E949520E0E1F1E01282138280E008959F
:1042100008950895089508950895089508950895B6
:104220000895089508950895CF93DF9380E094E072
:1042300029E0FC012083C0E4D4E01882A0E6B4E0C9
:104240001C9240EA54E020E3FA01208321E0FC01C3
:1042500024831C8214961C921497FA011482FC0188
:10426000108A118A128A138A148A158A168A178A62
:10427000188A198A1A8A1B8A1C8A1D8A1E8A1F8A12
:1042800050961C92509751961C92519752961C92A0
:10429000529753961C92539788E054968C93549758
:1042A00055968C93559756968C93569757961C9285
:1042B000FA01808B818B828B838B148A158A168AF4
:1042C000178AE0EEF5E011821082158217821086BF
:1042D00011861682128288E091E280932660909384
:1042E00027608AE091E280932460909325608BE0C0
:1042F00091E280932260909323608CE091E280931E
:104300002060909321608DE091E280931E609093F5
:104310001F608EE091E280931C6090931D608FE09F
:1043200091E280931A6090931B6080E191E2809308
:1043300018609093196081E191E2809316609093E8
:10434000176082E191E2809314609093156083E19D
:1043500091E2809312609093136089E091E28093E0
:10436000106090931160DF91CF9108958093266043
:104370009093276008951F920F920FB60F92112409
:104380002F933F934F935F936F937F938F939F935D
:10439000AF93BF93EF93FF93199B05C0E091266005
:1043A000F09127600995189B05C0E0912460F09179
:1043B000256009951B9B05C0E0912260F091236068
:1043C00009958FEF83B9FF91EF91BF91AF919F91C5
:1043D0008F917F916F915F914F913F912F910F90AE
:1043E0000FBE0F901F9018951F920F920FB60F924D
:1043F00011248F938FEF8BB98F910F900FBE0F9079
:104400001F9018951F920F920FB60F9211242F93A1
:104410003F934F935F936F937F938F939F93AF934C
:10442000BF93EF93FF937C9B05C0E0912060F091D8
:10443000216009957D9B05C0E0911E60F0911F6091
:1044400009957E9B05C0E0911C60F0911D60099567
:104450008FEF8FB9FF91EF91BF91AF919F918F91A6
:104460007F916F915F914F913F912F910F900FBE70
:104470000F901F9018951F920F920FB60F92112454
:104480002F933F934F935F936F937F938F939F935C
:10449000AF93BF93EF93FF93B89B05C0E0911A6071
:1044A000F0911B600995B99B05C0E0911860F091EF
:1044B00019600995BA9B05C0E0911660F0911760EC
:1044C0000995BB9B05C0E0911460F09115600995BA
:1044D000BC9B05C0E0911260F09113600995BD9BF3
:1044E00005C0E0911060F091116009958FEF87BBD6
:1044F000FF91EF91BF91AF919F918F917F916F91BC
:104500005F914F913F912F910F900FBE0F901F9091
:104510001895809141018111FCCF8FEF9FE7809327
:104520004C0190934D0110924801109249018FEF78
:104530009FEF80934A0190934B0110924701109294
:10454000420110924501809151018111FCCF81E01F
:10455000809352011092550181E18093500180E0D7
:104560000895809328609093296008951F920F9278
:104570000FB60F9211242F933F934F935F936F9336
:104580007F938F939F93AF93BF93EF93FF9380910C
:10459000420180FF0BC08091430180FF07C0E09182
:1045A0002C60F0912D60309709F0099580914201BF
:1045B00081FF0BC08091430181FF07C0E0912A6019
:1045C000F0912B60309709F0099583E080934301C7
:1045D000FF91EF91BF91AF919F918F917F916F91DB
:1045E0005F914F913F912F910F900FBE0F901F90B1
:1045F00018951F920F920FB60F9211242F933F938D
:104600004F935F936F937F938F939F93AF93BF93DA
:10461000EF93FF93E0912860F0912960309709F0C3
:10462000099581E080935301FF91EF91BF91AF9184
:104630009F918F917F916F915F914F913F912F91BA
:104640000F900FBE0F901F901895019708F40895D2
:10465000EFE6F7E13197F1F700C00000F6CF0895DB
:10466000E0E0FAE010A611A612A613A614A615A65D
:1046700010A211A211821282138214821582168254
:1046800017821686118680E18287138685E490E082
:1046900086A397A317868FE0808308958093006098
:1046A0009093016008951F920F920FB60F921124FC
:1046B0002F933F934F935F936F937F938F939F932A
:1046C000AF93BF93EF93FF93E0910060F09101608F
:1046D000309709F0099580E180930B0AFF91EF91E3
:1046E000BF91AF919F918F917F916F915F914F910A
:1046F0003F912F910F900FBE0F901F90189587EF4D
:1047000093E280939B6A90939C6AE0E0F8E080ECEF
:1047100090E08087918781E9858380EC868383E0C0
:10472000878313861486168615868BE694E280931B
:10473000A16A9093A26A8DE694E280939D6A909319
:104740009E6A8CE694E28093A36A9093A46A109286
:10475000306010923160109234661092356610927B
:1047600032661092336610929F6A1092A06A858119
:1047700080688583089520919F6A3091A06A81E0C6
:10478000232B09F480E008958091040885FB882795
:1047900080F90895E0913266F0913366EE5CFB4952
:1047A000808120913266309133662F5F3F4F3170A8
:1047B0002093326630933366909105089F779093EB
:1047C000050820919F6A3091A06A232B51F0209117
:1047D0009F6A3091A06A2150310920939F6A3093DB
:1047E000A06A909105089068909305080895E0915B
:1047F0003466F0913566EE0FFF1FEE5CFF491082C4
:1048000011828091010882FF12C0E0913466F0911C
:104810003566EE0FFF1FEE5CFF498081826080836A
:10482000E091A16AF091A26A309709F00995809110
:10483000010881FF0CC080913060816080933060FE
:10484000E091A36AF091A46A309709F009958091EC
:10485000010886FF12C0E0913466F0913566EE0FD4
:10486000FF1FEE5CFF49808184608083E0919D6A38
:10487000F0919E6A309709F0099520910008809187
:1048800034669091356601969170409132665091F0
:10489000336648175907A1F0E0913466F091356608
:1048A000EE5CFB492083809334669093356680915B
:1048B0009F6A9091A06A019680939F6A9093A06AE4
:1048C000E0912E60F0912F60309709F009940895DF
:1048D0008093020808950895089508951F920F92F5
:1048E0000FB60F9211242F933F934F935F936F93C3
:1048F0007F938F939F93AF93BF93EF93FF930E9408
:10490000F723FF91EF91BF91AF919F918F917F918D
:104910006F915F914F913F912F910F900FBE0F902C
:104920001F9018950E945027811107C080E1809345
:10493000A60480E28093A6040895809141668230A7
:10494000A9F3813039F480E18093A60480E280935A
:10495000A50408958111F0CF80E18093A504E9CFEB
:10496000CF936623B1F0C42F842F0E94B128809387
:10497000466681E08C0F0E94B1288093446682E0F5
:104980008C0F0E94B12891E0811101C090E09093BA
:104990004266CF910895282F30E0F901E45FFF4986
:1049A0008081681738F0265F3F49F90180816817D8
:1049B00008F4862F089581110CC06F3F41F460E028
:1049C00006C0823011F480E00AC06230C0F7862F42
:1049D00008958150990B8370C1F3813091F70C9445
:1049E000CB2470E0641B710947FD739590E0FC01D6
:1049F000E25FFF492081211115C014164CF4845F39
:104A00009F49FC0180818617170669F164F10895BA
:104A1000442349F1865F9F49FC0180818617170670
:104A200014F50895141684F4FC01E45FFF49208115
:104A300026171706C1F0BCF0865F9F49FC018081F4
:104A40008F5F821B860F0895442369F0FC01E65FA7
:104A5000FF4920812617170634F4845F9F49FC0123
:104A600080818150EECF862F0895282F30E0F90104
:104A7000E45FFF498081265F3F49F90190818617F5
:104A800080F4691778F470E0492F481B550B9A01A0
:104A900057FF02C02F5F3F4F359527956217730769
:104AA0000CF0892F089591E090934066823041F494
:104AB0006091466681E00E943525809346660895A0
:104AC000813041F46091446680E00E9435258093F6
:104AD00044660895811105C08091426689278093BC
:104AE00042660895DF92EF92FF920F931F93CF9348
:104AF000DF933EB120913B66220F41E036FB332726
:104B000030F93427232B20933B6636B320913A6645
:104B1000220F32FB332730F93427232B20933A66B8
:104B200096B380913966880F93FB992790F9942763
:104B3000892B8093396689E3E82E86E6F82EC6E352
:104B4000D6E610E0DD24D394F70101917F010F70C8
:104B50008881811106C00F3021F4D882812F0E94F4
:104B600053258881882319F0011101C018821F5F25
:104B70002196133049F7DF91CF911F910F91FF904C
:104B8000EF90DF900895EEE3F6E630E020E041E0BC
:104B9000B09B21C083E0B1991AC09191981B90FFFE
:104BA0000BC0DF0111978C93D901A45CB9498C919A
:104BB00092708150980F9C932130310509F408952B
:104BC00021E030E0749B05C083E0759BE6CF84272D
:104BD000E4CF80E0FACF80E0DECF0E9472250C9413
:104BE000C3251F93CF93DF9300D0CDB7DEB7182F27
:104BF00080914666909147669817B1F0809146661D
:104C00008093476691E090934266112369F095E0A6
:104C100099838A8380E00E94B1289E012F5F3F4FD5
:104C200042E066ED0E941B288091446690914566A3
:104C30009817B1F0809144668093456691E0909317
:104C40004266112369F096E099838A8380E00E948E
:104C5000B1289E012F5F3F4F42E066ED0E941B2866
:104C600080914266909143669817E1F08091426688
:104C7000809343668823E1F081E0809341660E943F
:104C80009224112379F084E08983809143668A839A
:104C900080E00E94B1289E012F5F3F4F42E066ED09
:104CA0000E941B280F900F90DF91CF911F910895C4
:104CB00010924166E4CF843049F481E0611101C073
:104CC00080E08093426680E00C94F125853031F4D9
:104CD00081E00E94CB2480934666F5CF863031F484
:104CE00080E00E94CB2480934466EDCF0895BF926C
:104CF000CF92DF92EF92FF920F931F93CF93DF93A8
:104D0000CDB7DEB7FC01EDB6FEB68081C2809381DF
:104D10002BEF280F4DB75EB7421B51094DBF5EBF49
:104D20000DB71EB70F5F1F4F3496402FD8013A2F93
:104D3000341B321760F1955D9230E0F4F801B080D9
:104D40002B2D30E02E3E3105A8F49AEFD92ED80E47
:104D5000FEEEFD1578F02D0D311D2F3E310550F47E
:104D600080E00E94B1288C1105C00F5F1F4FC12C3D
:104D7000CD1480F080E0EDBEFEBEDF91CF911F919B
:104D80000F91FF90EF90DF90CF90BF9008953191F9
:104D90003D93CDCFF80161918F018C2D8B0D0E9439
:104DA0005B26C394E5CF0E94A7201092466610921E
:104DB000446678948BED94E20E940C2882E994E298
:104DC0000E944B2780EB94E20E94112887E796E22D
:104DD0000E9416280AE612E321ED35E643E061E081
:104DE00080E00E94FE2E0E9492248DEE95E20E94A9
:104DF0004E2311E0D0E0C0E0FE01E45CF9494081BF
:104E00004595459581F0808183708083109340663D
:104E1000109342668C2FC130E1F4609146660E9487
:104E2000F12480934666219789F480914066882317
:104E300031F01092406661E081E00E94F02E81E046
:104E40000E94F1250E94082EA895D4CFC1E0D0E0A1
:104E5000D3CF6091446680E00E94F1248093446641
:104E6000E2CF80914A6690914B66019680934A66A4
:104E700090934B6680914A6690914B66803E91403C
:104E800020F010924A6610924B66089510924A667E
:104E900010924B66089580938D6A90938E6A089560
:104EA000809109600895FC01680F791F8FEF91E3ED
:104EB000E617F70709F408952191822728E030E0EA
:104EC00087FF06C0880F892721503109C9F7F0CF25
:104ED000880FFACFCF92DF92EF92FF92642728E0FB
:104EE0006B017C01F694E794D794C794617077279F
:104EF0008827992790958095709561957F4F8F4F62
:104F00009F4F60727378887B9D7E6C257D258E25F2
:104F10009F25215029F7FF90EF90DF90CF900895C3
:104F20008F929F92AF92BF92CF92DF92EF92FF92B9
:104F30000F931F93CF93DF938B01C42F6C01F12C40
:104F4000E12C88248A94982C5401C016D10648F18B
:104F5000D0E008E110E00E948D208111FCCFC50156
:104F6000B401002E04C096958795779567950A94AD
:104F7000D2F7CE019C5E0E947E2008501109219636
:104F8000083F8FEF180739F7DF91CF911F910F91ED
:104F9000FF90EF90DF90CF90BF90AF909F908F9059
:104FA0000895C701B6010E947820482FC501B401B9
:104FB0000E946A274B015C018FEFC81AD80AE80AE1
:104FC000F80AC3CF982F80910660891759F0809115
:104FD0000560981302C0911105C081E09F3F19F050
:104FE00080E0089581E00895882361F0813061F0C8
:104FF000803F61F09FE0980F9E3050F08F3F51F05E
:1050000081E0089580E0089582E0089584E00895A5
:1050100083E0089585E0089580936B6A90936C6AAD
:1050200008958093796990937A69089580932A69A5
:1050300090932B690895CF92DF92EF92FF921F9386
:10504000CF93DF93CDB7DEB7142FCDB6DEB64434A1
:1050500078F020E043E4612F82E50E94702880917F
:10506000986A8F3F19F08F5F8093986A80E02BC019
:1050700095E0940F492F50E0EDB7FEB7E41BF50B18
:10508000EDBFFEBF31967F01EDB7FEB791839091E2
:105090000660F701918382836383922FADB7BEB719
:1050A0001596F9018E2F891B8117B8F0BA0162504D
:1050B0007109C7010E945327F701E10FF11D848395
:1050C000C7010E947629CDBEDEBEDF91CF911F9130
:1050D000FF90EF90DF90CF90089581918D93E2CF74
:1050E000EF92FF920F931F93CF93DF9300D000D0E6
:1050F000CDB7DEB7182FE62EF42E022FE091906A7E
:10510000F091916A309709F0099580918F6A882310
:1051100071F0113561F01983EA82FB820C839E01E4
:105120002F5F3F4F44E068EE80E00E941B282496EA
:10513000CDBFDEBFDF91CF911F910F91FF90EF9018
:105140000895E2E9FAE61082118212821382148233
:1051500015821682178220E040E060E083E80C941C
:105160007028CF93682F40910460841740F020E0AE
:105170008BE30E947028C0E08C2FCF910895E82F18
:10518000F0E0E358F649C08120E04C2F87E30E940D
:105190007028F2CFEF92FF921F93CF93DF93C82F27
:1051A000162F80910460C81768F020E0482F6C2FFC
:1051B0008BE30E94702880E0DF91CF911F91FF90D8
:1051C000EF9008958C2F90E09C0123583649790187
:1051D000411104C0F90180818617D9F0E0916B6A12
:1051E000F0916C6AD12F309761F0612F8C2F099567
:1051F000D82F181731F0282F412F6C2F8AE30E94E7
:10520000702820E04D2F6C2F89E30E947028F70151
:10521000D08381E0D1CFCF9320E040E06091046063
:1052200084E30E947028C0E080910460C81710F0E9
:10523000CF91089541E060E08C2F0E94CA28CF5F93
:10524000F3CFCF93C0E080910460C81788F00E942C
:105250008D208111FCCF62E48FEF94E10E947E20CB
:1052600020E040E06091046085E3CF910C947028C9
:105270000E948D208111FCCF8C2F90E0FC01E3581F
:10528000F64960819C5E0E947E20CF5FDCCFCF9389
:105290008FEF94E10E947B2020E0823451F042E4C1
:1052A000682F83E30E9470280E940B29CF910C94F1
:1052B000212940E06091046082E30E947028C0E0F0
:1052C00080910460C81710F0CF9108950E948D203E
:1052D0008111FCCF8C2F90E09C5E0E947B2041E0EE
:1052E000682F8C2F0E94CA28CF5FEACF30E020E0E1
:1052F000F901E45BF94940814F3F71F4DC014C91C5
:1053000050E0240F351F2B3D324068F4BC01CF0123
:105310000E944D2F81E008952A3D52E0350770F735
:10532000240F311DE5CF20E040E060E081E50E94E0
:1053300070288091996A8F3F19F08F5F8093996AE6
:1053400080E0089580910960811113C081E080930D
:105350000960E0918D6AF0918E6A309719F081E0D2
:1053600090E0099530E020E040E06CEE8FEF0C9487
:105370001B2808950F931F93CF93DF931F92CDB7F0
:10538000DEB790EF980F9F3EA0F1909103609817C1
:1053900081F1182F80930360662349F089839E0171
:1053A0002F5F3F4F41E06DEE8FEF0E941B288091F1
:1053B000796990917A69892BE1F080917B698823E2
:1053C000F1F01031E0F4012F819F000D1124409184
:1053D0007C69040F802F0E94B12861E0811101C017
:1053E00060E041E0400FE0917969F0917A69812FA6
:1053F00009950F90DF91CF911F910F9108950FEFB5
:10540000EFCF0F931F93CF93DF93CDB7DEB76497A2
:10541000CDBFDEBF182F062F809108608983809151
:1054200007608A83809105608B8380919A6A91E0FE
:1054300089278C838FEE94E10E947B208D8380EFFF
:1054400094E10E947B208E8381EF94E10E947B2077
:105450008F8382EF94E10E947B20888783EF94E121
:105460000E947B20898784EF94E10E947B208A87B9
:1054700085EF94E10E947B208B8786EF94E10E9468
:105480007B208C8787EF94E10E947B208D8788EFBB
:1054900094E10E947B208E8789EF94E10E947B201B
:1054A0008F878AEF94E10E947B20888B8BEF94E1B9
:1054B0000E947B20898B8CEF94E10E947B208A8B59
:1054C0008DEF94E10E947B208B8B8EEF94E10E9404
:1054D0007B208C8B9E012F5F3F4F44E1602F812FFB
:1054E0000E941B286496CDBFDEBFDF91CF911F9134
:1054F0000F9108957F928F929F92AF92BF92CF9219
:10550000DF92EF92FF920F931F93CF93DF93CDB76C
:10551000DEB72897CDBFDEBFFC01ADB6BEB6C080FA
:105520001181828003818BEFD82EDC0C8DB79EB762
:105530008D1991098DBF9EBF01967C013496982FDD
:10554000D7018A2F891B8D1570F0812F0E94F427B7
:105550008150823058F020E0412F602F81E60E9478
:10556000702811E0E8C081918D93EBCF0F3F39F5A2
:10557000D11007C041E068ED81E490E00E949520E1
:10558000FFCF92E0D91216C0F701908181819F3F31
:1055900021F0209108602913E4CF8F3F21F09091F2
:1055A00007609813DECF41E068ED81E490E00E944F
:1055B0009520FFCF2D2D42E06FEF80E6D0CF013F49
:1055C00051F420E040E060E083E50E94702881E033
:1055D00080930260C6CF003F49F420E040E060E0E5
:1055E00084E50E94702810920260BBCF0D3E61F4EA
:1055F000F1E02D2D41E06DEEDF12DFCF60E0F7012D
:1056000080810E94BA29ADCF0C3EF9F481E08093ED
:105610000960E0918D6AF0918E6A81E090E03097A8
:1056200001F58BE2800F823008F0F2C0F1E02D2D01
:1056300042E0602FFD1508F690909A6A992009F4CF
:1056400091C020E040E082E68ACF0B3E61F41092E8
:105650000960E0918D6AF0918E6A309711F390E0C5
:1056600080E00995DECF0A3E09F046C120E040E027
:1056700060E081E80E94702881E080938F6A71CF9A
:10568000073E19F40E94A1286CCF053E09F58091D0
:10569000926A89838091936A8A838091946A8B83CA
:1056A0008091956A8C838091966A8D838091976AA8
:1056B0008E838091986A8F838091996A88879E01F2
:1056C0002F5F3F4F48E066EE812F0E941B2849CF95
:1056D000033E29F430E020E040E064EEF5CF003EE8
:1056E00029F461EE812F0E94012A3BCF0F3D51F436
:1056F00010919A6A20E040E06FED111119C00E94EC
:105700000B292FCF0E3D51F410919A6A20E040E012
:105710006EED11110DC00E94212923CF0D3D09F01E
:1057200080CF10919A6A1123D1F020E040E06DED16
:1057300082E60E947028812FADBEBEBE2896CDBFE6
:10574000DEBFDF91CF911F910F91FF90EF90DF901F
:10575000CF90BF90AF909F908F907F9008950E94C0
:105760004729FFCE2FEF821204C020E040E083E6FD
:10577000F6CEF701D0808D2D90E0FAEFCF0ED982D2
:1057800020910460422F50E0D21670F04C2D6D2D08
:105790008BE30E9470289E012F5F3F4F41E0053D43
:1057A00009F0DFCE68ED90CF2C1520F44C2D6D2D37
:1057B0008CE3EFCF8C0D911D4817590720F44C2D29
:1057C0006D2D8DE3E6CF20E04C2D6D2D88E30E94FA
:1057D00070282FEFE21AF20A812C77247394F701D4
:1057E00061917F0140E08D2D880D0E94CA28872598
:1057F000982A83948C1498F3053D09F0B2CE9E014B
:105800002F5F3F4F41E067ED992009F45DCFCACF8C
:10581000003D09F06BC08DB69EB6F2E0DF1649F090
:105820002D2D42E060ED80E60E9470288DBE9EBE68
:1058300098CE80919A6A882329F020E040E060EDBC
:1058400082E6F2CFF7010081C02ED12C7180209129
:105850000460422F50E0021770F020E0472D602FC7
:105860008BE30E94702830E020E040E061ED812F62
:105870000E941B28DBCF271520F4472D602F8CE3D7
:10588000F0CFF2E4F71510F422E4F7CFE72CF12C77
:10589000C7018C0D9D1D4817590720F4472D602F17
:1058A0008DE3DFCF20E0472D602F86E30E94702834
:1058B0002FEFE21AF20A8DB79EB78E199F098DBF9E
:1058C0009EBF2DB73EB72F5F3F4FEDB7FEB70183A9
:1058D000F601E358F649D901119680E041E0480FFE
:1058E000871521F281918D93842FF8CF11E0002349
:1058F00009F421CF10E01FCF093E09F0C1CE20E00E
:1059000040E060E082E80E94702810928F6A29CE01
:10591000E0912C69F0912D69309779F4809132698A
:105920000E94E22781110FC0E0912A69F0912B6952
:10593000309729F180E399E6099480E399E6099587
:10594000882361F3F1CFE0912869F09129693097BC
:1059500081F480E399E60E947A2A8111E5CFE091F3
:105960002669F09127693097F9F280E399E6099565
:10597000DBCF80E399E609958111D6CFEACF089570
:105980001F93CF93DF93D2E0C1E00E94BB2381112C
:1059900004C0DF91CF911F9108950E94CA238234E1
:1059A00019F4C0932E69F1CF90912E699923D1F00B
:1059B00010922E69893919F4C0937869E6CF86363A
:1059C00081F01092786920E040E060E081E40E947C
:1059D00070288091936A8F3FC1F28F5F8093936AA2
:1059E000D4CF82E49091786991110EC020E040E01C
:1059F00060E082E40E9470288091946A8F3F29F2CF
:105A00008F5F8093946AC1CF9130E1F42BEF280F20
:105A1000243438F48093306990932F69D093786957
:105A2000B4CF1092786920E048E4682F83E40E94A4
:105A300070288091956A8F3F09F4A7CF8F5F80937C
:105A4000956AA3CF923009F0A0CF90912F69209151
:105A50003069921740F4E92FF0E0E05DF649808369
:105A60009F5F90932F696091306980912F696813CF
:105A70008CCF1092786970E0FB01E15DF6491081EE
:105A80006250710980E399E60E945327181779F054
:105A900020E0482F612F84E40E9470288091966A4C
:105AA0008F3F09F472CF8F5F8093966A6ECF80919B
:105AB000926A8F3F19F08F5F8093926A0E94882CC0
:105AC00064CF0F931F93CF93DF93C82FD0E00AEDDD
:105AD00012E00C1B1D0BBE01645B7949A8018CE42C
:105AE00096E60E944D2FAE016FEF70E0C801845B17
:105AF0009949DF91CF911F910F910C94562FEF92FE
:105B0000FF920F931F93CF93DF93CDB7DEB7C854A7
:105B1000D109CDBFDEBF00914C660F3F69F410E0A4
:105B2000812FC85BDF4FCDBFDEBFDF91CF911F91CB
:105B30000F91FF90EF900895402F50E06CE476E6CF
:105B4000CE0101960E944D2F80910260882339F387
:105B50008091976A8F3F19F08F5F8093976A802FAB
:105B60000E94612DE0914866F0914966309751F0AE
:105B7000CE0101960995182F882321F0802F0E94CD
:105B8000612DCECF8C81895F8430C8F40E94C423FC
:105B90008823E1F382E40E9468240E94C423182F22
:105BA0008823D9F389E90E94682400E089810817D5
:105BB00098F010924A6610924B66B2CFA895209149
:105BC0004A6630914B668091066090E0880F991F7D
:105BD0008217930799F7DACF0E94C4238823E1F351
:105BE000EE24E394F12CEC0EFD1EE00EF11CF70107
:105BF00080810E946824F7018081823439F40E94F8
:105C0000C4238823E1F386E60E9468240F5FCECF89
:105C10000E94C02C0E947F2D8111FCCF0895693015
:105C200000F110927B6960E0982F2FE0629F900D49
:105C30001124692F615F6F3EB8F0109204601092DA
:105C40007C6910927B6920E04EEE81E30E9470280F
:105C500020E040E06091046080E30E9470280C9492
:105C6000472960937B69E0CF6093046080937C69EF
:105C7000EFCF0F931F93CF93DF930DE61AE6C0E8A3
:105C8000D0E1CE010E949220F80181938F012196EC
:105C9000C03AF0E1DF07A9F760916D6A8FEF860FD8
:105CA0008E3F08F453C081E08093086020E040E01C
:105CB00085E20E94702820E040E06091086084E264
:105CC0000E94702860916E6A8FEB860F8A3108F40B
:105CD00040C081E48093076020E040E087E20E94BA
:105CE000702820E040E06091076086E20E94702802
:105CF00060916F6A8FEF860F803F70F181E0809333
:105D0000066020E040E081E20E94702820E040E050
:105D10006091066080E20E9470286091706A66233C
:105D200051F08FE0860F8E3030F020E040E083E2CB
:105D30000E94702860EF6093056020E040E082E2FE
:105D4000DF91CF911F910F910C94702860930860A0
:105D5000B2CF60930760C5CF60930660D7CFCF9274
:105D6000DF92EF92FF920F931F93CF93DF936B011C
:105D70007C0180919A6AC7EF8111CFEED0E008E1F3
:105D800010E00E948D208111FCCFC701B601002ECA
:105D900004C096958795779567950A94D2F7CE01BA
:105DA0009C5E0E947E20085011092196083F8FEFCB
:105DB000180739F743EF60E070E490E080E00E945C
:105DC00090274BEF6FEF7FEF80E090E4DF91CF9172
:105DD0001F910F91FF90EF90DF90CF900C94902740
:105DE000CF93C62F81110E94A229CC2329F061E014
:105DF0008FEFCF910C94BA29CF910895BF92CF9293
:105E0000DF92EF92FF920F931F93CF93DF93B82E01
:105E1000C62FD42F79014AED52E06FEF70E08CE489
:105E200096E60E94562FB0929A6A20E040E060E029
:105E300080E10E9470280E94392E6D2F8C2F0E94C5
:105E40000F2EC701B8010E94AF2E81E397E20E9496
:105E5000B12286E497E20E94B621E0E0F4E0818975
:105E6000887F8360818B8091066090E0880F991F06
:105E70000E94252362EE80E00E94012A20E040E09B
:105E800060E081E1DF91CF911F910F91FF90EF9042
:105E9000DF90CF90BF900C947028FB01DC0102C012
:105EA00001900D9241505040D8F70895DC0101C097
:0E5EB0006D9341505040E0F70895F894FFCFF5
:105EBE002F2301FFEEF00141010120FF0000000041
:02000004008278
:090000000A00000000D0100020ED
:0400000300004000B9
:00000001FF
