:104000000C9448200C9465200C9465200C94652039
:104010000C9465200C9405230C9448230C94652083
:104020000C94EB210C9465200C9465200C94C42313
:104030000C9465200C9465200C9465200C946520EC
:104040000C9465200C9465200C9465200C946520DC
:104050000C940D210C94DF240C9465200C946520A5
:104060000C944E220C9465200C9465200C946520D1
:104070000C9465200C9440220C9465200C946520CF
:104080000C9465200C9465200C945C220C946520A3
:1040900011241FBECFEFCDBFDFE7DEBF10E6A0E0EB
:1040A000B0E6E0EFFEE502C005900D92A032B10748
:1040B000D9F72AE6A0E2B0E601C01D92A73BB207FD
:1040C000E1F70E949C260C94762F0C940020482F38
:1040D0006DE980E090E10C943121E0E0F0E1828133
:1040E0008F78828308950E946D20109201100895A8
:1040F000FB0184910895FC01808108951F93CF9363
:10410000DF93EC01162F83E10E946720188380E083
:10411000DF91CF911F910C946720809102108695BA
:1041200081700895FC0180810895E0E4F9E0108237
:1041300013821382128210922660109227601092CE
:104140002560089590912560913811F48093440979
:1041500008959091400990FD11C0E82FF0E0EE0F16
:10416000FF1FE65FFF498181809341098081809331
:10417000400981E88093256081E0089580E00895FA
:10418000909144098091430980688093430920916C
:1041900022603091236080912460232B31F181389B
:1041A00029F0E0912060F09121609083809120605F
:1041B000909121600196809320609093216080917E
:1041C000246020E0882329F0E0912060F0912160B4
:1041D00020818091226090912360019780932260DA
:1041E00090932360209344090895813849F0809189
:1041F0002560823429F4E0912060F0912160908361
:1042000081E88093256010924209E0912660F09148
:104210002760309709F0099408951F920F920FB606
:104220000F9211242F933F934F935F936F937F933C
:104230008F939F93AF93BF93EF93FF930E94C02000
:10424000FF91EF91BF91AF919F918F917F916F916E
:104250005F914F913F912F910F900FBE0F901F9044
:104260001895FC0164BF408308954AE068ED80E042
:1042700091E00E94312140E868ED81E091E00E94E8
:10428000312180E008950E948B220E945D210E94CE
:1042900073200E94D8220E9495200E94A1230E9490
:1042A000F0230E9435210C94CC220895089508959E
:1042B00008950895089508950895CF93DF9380E0B9
:1042C00094E029EDFC012083C0E4D4E01882A0E64C
:1042D000B4E01C9240EA54E0FA01108221E0FC01B3
:1042E00024831C8214961C921497FA011482FC01F8
:1042F000108A118A128A138A148A158A168A178AD2
:10430000188A198A1A8A1B8A1C8A1D8A1E8A1F8A81
:1043100050961C92509751961C92519752961C920F
:10432000529753961C92539754961C9254975596B5
:104330001C92559756961C92569757961C92FA01C6
:10434000108A118A128A88E0838B148A158A168A49
:10435000178AE0EEF5E0118210821582178210862E
:1043600011861682128285E591E2809336609093E1
:10437000376087E591E2809334609093356088E5FB
:1043800091E2809332609093336089E591E280936B
:104390003060909331608AE591E280932E60909333
:1043A0002F608BE591E280932C6090932D608CE5DB
:1043B00091E280932A6090932B6086E591E280934E
:1043C000286090932960DF91CF91089580933660A3
:1043D0009093376008951F920F920FB60F92112499
:1043E0002F933F934F935F936F937F938F939F93FD
:1043F000AF93BF93EF93FF93199B05C0E091366095
:10440000F09137600995189B05C0E0913460F091F8
:10441000356009951B9B05C0E0913260F0913360D7
:1044200009951D9B05C0E0913060F09131600995C0
:104430001C9B05C0E0912E60F0912F6009951E9B9A
:1044400005C0E0912C60F0912D6009951F9B05C07F
:10445000E0912860F091296009958FEF83B9FF9171
:10446000EF91BF91AF919F918F917F916F915F91EC
:104470004F913F912F910F900FBE0F901F90189565
:104480001F920F920FB60F9211248F938FEF8BB95B
:104490008F910F900FBE0F901F9018951F920F9243
:1044A0000FB60F9211248F938FEF8FB98F910F90CA
:1044B0000FBE0F901F9018951F920F920FB60F927C
:1044C00011242F933F934F935F936F937F938F9319
:1044D0009F93AF93BF93EF93FF93BB9B05C0E09176
:1044E0002A60F0912B6009958FEF87BBFF91EF91C8
:1044F000BF91AF919F918F917F916F915F914F91FC
:104500003F912F910F900FBE0F901F901895462F3F
:1045100068ED0C94312160E080E690E00E948722F3
:1045200060E081E690E00E94872260E085E690E00E
:104530000E94872260E088E790E00E94872264E280
:1045400088E690E00E94872260E089E690E00E9481
:10455000872260E080E790E00E94872260E08CE79D
:1045600090E00E94872260E082E690E00E9487222D
:1045700060E083E690E00E94872260E084E690E0BD
:104580000E94872260E080E890E00E94872280916C
:10459000650081FFFCCF089540E068ED80E191E087
:1045A0000E943121E0E1F1E01282138280E008955F
:1045B000809141018111FCCF8FEF9FE780934C01E7
:1045C00090934D0110924801109249018FEF9FEF97
:1045D00080934A0190934B0110924701109242013F
:1045E00010924501809151018111FCCF81E08093AF
:1045F00052011092550181E18093500180E00895AD
:10460000809338609093396008951F920F920FB68F
:104610000F9211242F933F934F935F936F937F9348
:104620008F939F93AF93BF93EF93FF93809142013A
:1046300080FF0BC08091430180FF07C0E0913C6088
:10464000F0913D60309709F009958091420181FF1A
:104650000BC08091430181FF07C0E0913A60F09167
:104660003B60309709F0099583E080934301FF9107
:10467000EF91BF91AF919F918F917F916F915F91DA
:104680004F913F912F910F900FBE0F901F90189553
:104690001F920F920FB60F9211242F933F934F93B7
:1046A0005F936F937F938F939F93AF93BF93EF939A
:1046B000FF93E0913860F0913960309709F00995E7
:1046C00081E080935301FF91EF91BF91AF919F9152
:1046D0008F917F916F915F914F913F912F910F90AB
:1046E0000FBE0F901F901895019708F40895EFE6FC
:1046F000F7E13197F1F700C00000F6CF9C012032BE
:10470000310588F4AC0125E0569547952A95E1F7E7
:1047100060EE64039001659F300D1124820F931F9A
:10472000019750F40895EFEBF0E03197F1F700C0F6
:10473000000020523109E3CFF8E0FA95F1F7F0CF0D
:104740000895E0E0FAE010A611A612A613A614A69A
:1047500015A610A211A21182128213821482158250
:10476000168217821686118680E18287138689EE6B
:1047700090E086A397A317868FE0808308958093A7
:1047800000609093016008951F920F920FB60F92F0
:1047900011242F933F934F935F936F937F938F9346
:1047A0009F93AF93BF93EF93FF93E0910060F091DD
:1047B0000160309709F0099580E180930B0AFF9121
:1047C000EF91BF91AF919F918F917F916F915F9189
:1047D0004F913F912F910F900FBE0F901F90189502
:1047E00088E694E28093AD6A9093AE6AE0E0F8E0E8
:1047F00080EC90E08087918781E9858380EC8683D7
:1048000083E0878313861486168615868CED94E2E2
:104810008093B36A9093B46A8EED94E28093AF6A0A
:104820009093B06A8DED94E28093B56A9093B66AE6
:10483000109240601092416010924466109245665A
:1048400010924266109243661092B16A1092B26A58
:1048500085818068858308952091B16A3091B26A1C
:1048600081E0232B09F480E008958091040885FB02
:10487000882780F90895E0914266F0914366EE5BE7
:10488000FB49808120914266309143662F5F3F4F04
:1048900031702093426630934366909105089F776C
:1048A000909305082091B16A3091B26A232B51F0A0
:1048B0002091B16A3091B26A215031092093B16AD6
:1048C0003093B26A90910508906890930508089516
:1048D000E0914466F0914566EE0FFF1FEE5BFF49E5
:1048E000108211828091010882FF12C0E09144661B
:1048F000F0914566EE0FFF1FEE5BFF4980818260FD
:104900008083E091B36AF091B46A309709F0099519
:104910008091010881FF0CC080914060816080938C
:104920004060E091B56AF091B66A309709F0099558
:104930008091010886FF12C0E0914466F0914566BF
:10494000EE0FFF1FEE5BFF49808184608083E09162
:10495000AF6AF091B06A309709F00995209100088C
:1049600080914466909145660196917040914266AF
:104970005091436648175907A1F0E0914466F091C1
:104980004566EE5BFB4920838093446690934566C1
:104990008091B16A9091B26A01968093B16A9093C6
:1049A000B26AE0913E60F0913F60309709F009945F
:1049B00008958093020808950895089508951F9218
:1049C0000F920FB60F9211242F933F934F935F9343
:1049D0006F937F938F939F93AF93BF93EF93FF93C7
:1049E0000E946824FF91EF91BF91AF919F918F91A9
:1049F0007F916F915F914F913F912F910F900FBEDB
:104A00000F901F9018958091496690914A66A091E9
:104A10004B66B0914C660196A11DB11D809349660D
:104A200090934A66A0934B66B0934C6640914D6656
:104A300050914E6660914F667091506648175907C5
:104A40006A077B07B8F480914D6690914E66A091FD
:104A50004F66B0915066892B8A2B8B2B59F01092A0
:104A6000496610924A6610924B6610924C6681E03D
:104A70008093546696B380914766880F21E093FB3C
:104A8000992790F99227892B809347668F70909190
:104A90004666911108C08F3031F42093466620930A
:104AA00048662093556690914666992321F08111BE
:104AB00002C0109246660895829590E09C0135955B
:104AC0002795359527952373880F991F880F991F70
:104AD0008C7C282B30E0C901959587958575220F30
:104AE000331F2A7A822B0895CF93DF930E945C258F
:104AF000D82FC0E8C093060484E090E00E947E2393
:104B00008D2F0E94A22082E390E00E947E23C0931A
:104B1000050484E090E0DF91CF910C947E231F93F5
:104B2000CF93DF93C62F0E945C25182F8C2F0E94F5
:104B30005C25D82FC0E8C093060484E090E00E9472
:104B40007E23812F0E94A2208D2F0E94A2208AE521
:104B500090E00E947E23C093050484E090E0DF9102
:104B6000CF911F910C947E230E943A278823B9F09D
:104B70008CE80E94742580915366811112C060E414
:104B80008AEC0E948F2560E488EC0E948F2560E407
:104B900084EC0E948F2560E486EC0C948F2584E8D9
:104BA000E8CFE0915266E295EF70F0E0E25FFF49F6
:104BB00060818AEC0E948F25E0915266EF70F0E0F0
:104BC000E25FFF49608188EC0E948F25E091516689
:104BD000E295EF70F0E0E25FFF49608184EC0E94B3
:104BE0008F25E0915166EF70F0E0E25FFF49608150
:104BF000D3CFCF93C62F823050F481110BC01092C7
:104C0000536610925266109251660E94B4258C2F02
:104C1000CF910895262F30E0A0E7B7E10E94572FEB
:104C200060934D6670934E6680934F669093506686
:104C3000EECFCF92DF92EF92FF920F931F93CF931D
:104C4000DF93CDB7DEB7FC01CDB6DEB6E28093814F
:104C500080812BEFF22EF80E2DB73EB72F193109B8
:104C60002DBF3EBF0DB71EB70F5F1F4F3496202FCD
:104C7000D8018A2F821B8F1598F0973EE9F480E0C7
:104C80000E9499288E1579F080E0CDBEDEBEDF91BE
:104C9000CF911F910F91FF90EF90DF90CF900895EB
:104CA00081918D93E6CF10925366109252661092C6
:104CB00051660E94B425E8CF963E31F70E94F62750
:104CC0008E11E2CF38E0F312DFCFF80181819091AD
:104CD0005266981710F480935266F8018281909181
:104CE0005266981710F480935266F8018381909170
:104CF0005266981710F480935266F801848190915F
:104D00005266981710F480935266F801868190914C
:104D10005166981710F480935166F801878190913D
:104D20005166981710F48093516681E08093536622
:104D30000E94B42581E0A9CF0E944321789489EF95
:104D400095E20E94F92784EB95E20E94352789E1DC
:104D500096E20E94FE2705EA17EF2EEF35E640E0C7
:104D600062E080E00E94082F80E00E94A92080E895
:104D70008093050482E00E94742584E40E947425D7
:104D8000C0E060E08C2F806C0E948F25CF5FCB301D
:104D9000C1F760E48AEC0E948F2560E488EC0E94F1
:104DA0008F2560E484EC0E948F2560E486EC0E94ED
:104DB0008F258CE80E9474250E94B42583E095E23B
:104DC0000E94BF2380914866882331F01092486684
:104DD00060E081E00E94FA2E809155668823C1F040
:104DE0001092556610925366109252661092516658
:104DF0000E94B4250E94892880E00E94992830E012
:104E000020E040E067EE0E94032881E08093546632
:104E100080915466882359F01092546680E00E9475
:104E2000992830E020E040E065EE0E9403280E94CF
:104E3000122EA895C7CF8091586690915966019619
:104E40008093586690935966809158669091596600
:104E5000803E914020F01092586610925966089555
:104E60001092586610925966089580939F6A9093A5
:104E7000A06A0895809109600895FC01680F791F68
:104E80008FEF91E3E617F70709F408952191822740
:104E900028E030E087FF06C0880F892721503109BC
:104EA000C9F7F0CF880FFACFCF92DF92EF92FF923F
:104EB000642728E06B017C01F694E794D794C794AB
:104EC00061707727882799279095809570956195CF
:104ED0007F4F8F4F9F4F60727378887B9D7E6C25CC
:104EE0007D258E259F25215029F7FF90EF90DF909B
:104EF000CF9008958F929F92AF92BF92CF92DF9200
:104F0000EF92FF920F931F93CF93DF938B01C42FE8
:104F10006C01F12CE12C88248A94982C5401C01641
:104F2000D10648F1D0E008E110E00E948D20811107
:104F3000FCCFC501B401002E04C0969587957795E6
:104F400067950A94D2F7CE019C5E0E947E2008509D
:104F500011092196083F8FEF180739F7DF91CF919C
:104F60001F910F91FF90EF90DF90CF90BF90AF9087
:104F70009F908F900895C701B6010E947820482F16
:104F8000C501B4010E9454274B015C018FEFC81A80
:104F9000D80AE80AF80AC3CF982F809106608917CB
:104FA00059F080910560981302C0911105C081E00D
:104FB0009F3F19F080E0089581E00895882361F013
:104FC000813061F0803F61F09FE0980F9E3050F09B
:104FD0008F3F51F081E0089580E0089582E00895C8
:104FE00084E0089583E0089585E008958091066047
:104FF00008958093796A90937A6A089580933869C6
:10500000909339690895CF92DF92EF92FF921F93A8
:10501000CF93DF93CDB7DEB7142FCDB6DEB64434D1
:1050200078F020E043E4612F82E50E9458288091C7
:10503000AA6A8F3F19F08F5F8093AA6A80E02BC025
:1050400095E0940F492F50E0EDB7FEB7E41BF50B48
:10505000EDBFFEBF31967F01EDB7FEB79183909112
:105060000660F701918382836383922FADB7BEB749
:105070001596F9018E2F891B8117B8F0BA0162507D
:105080007109C7010E943D27F701E10FF11D8483DB
:10509000C7010E945E29CDBEDEBEDF91CF911F9178
:1050A000FF90EF90DF90CF90089581918D93E2CFA4
:1050B000EF92FF920F931F93CF93DF9300D000D016
:1050C000CDB7DEB7182FE62EF42E022FE091A26A9C
:1050D000F091A36A309709F009958091A16A88231D
:1050E00071F0113561F01983EA82FB820C839E0115
:1050F0002F5F3F4F44E068EE80E00E940328249633
:10510000CDBFDEBFDF91CF911F910F91FF90EF9048
:105110000895E4EAFAE61082118212821382148260
:1051200015821682178220E040E060E083E80C944C
:105130005828CF93682F40910460841740F020E0F6
:105140008BE30E945828C0E08C2FCF910895E82F60
:10515000F0E0E557F649C08120E04C2F87E30E943C
:105160005828F2CFEF92FF921F93CF93DF93C82F6F
:10517000162F80910460C81768F020E0482F6C2F2C
:105180008BE30E94582880E0DF91CF911F91FF9020
:10519000EF9008958C2F90E09C01255736497901B6
:1051A000411104C0F90180818617D9F0E091796A34
:1051B000F0917A6AD12F309761F0612F8C2F099589
:1051C000D82F181731F0282F412F6C2F8AE30E9417
:1051D000582820E04D2F6C2F89E30E945828F701B2
:1051E000D08381E0D1CFCF9320E040E06091046094
:1051F00084E30E945828C0E080910460C81710F032
:10520000CF91089541E060E08C2F0E94B228CF5FDB
:10521000F3CFCF93C0E080910460C81788F00E945C
:105220008D208111FCCF62E48FEF94E10E947E20FB
:1052300020E040E06091046085E3CF910C94582811
:105240000E948D208111FCCF8C2F90E0FC01E5574E
:10525000F64960819C5E0E947E20CF5FDCCFCF93B9
:105260008FEF94E10E947B2020E0823451F042E4F1
:10527000682F83E30E9458280E94F328CF910C9452
:10528000092940E06091046082E30E945828C0E050
:1052900080910460C81710F0CF9108950E948D206E
:1052A0008111FCCF8C2F90E09C5E0E947B2041E01E
:1052B000682F8C2F0E94B228CF5FEACF30E020E029
:1052C000F901E65AF94940814F3F71F4DC014C91F4
:1052D00050E0240F351F2B3D324068F4BC01CF0154
:1052E0000E94662F81E008952A3D52E0350770F74D
:1052F000240F311DE5CF20E040E060E081E50E9411
:1053000058288091AB6A8F3F19F08F5F8093AB6A0A
:1053100080E0089580910960811113C081E080933D
:105320000960E0919F6AF091A06A309719F081E0DE
:1053300090E0099530E020E040E06CEE8FEF0C94B7
:10534000032808950F931F93CF93DF931F92CDB738
:10535000DEB790EF980F9F3EA0F1909103609817F1
:1053600081F1182F80930360662349F089839E01A1
:105370002F5F3F4F41E06DEE8FEF0E940328809139
:10538000876990918869892BE1F0809189698823E8
:10539000F1F01031E0F4012F819F000D11244091B4
:1053A0008A69040F802F0E94992861E0811101C051
:1053B00060E041E0400FE0918769F0918869812FBA
:1053C00009950F90DF91CF911F910F9108950FEFE5
:1053D000EFCF0F931F93CF93DF93CDB7DEB76497D3
:1053E000CDBFDEBF182F062F809108608983809182
:1053F00007608A83809105608B838091AC6A91E01D
:1054000089278C838FEE94E10E947B208D8380EF2F
:1054100094E10E947B208E8381EF94E10E947B20A7
:105420008F8382EF94E10E947B20888783EF94E151
:105430000E947B20898784EF94E10E947B208A87E9
:1054400085EF94E10E947B208B8786EF94E10E9498
:105450007B208C8787EF94E10E947B208D8788EFEB
:1054600094E10E947B208E8789EF94E10E947B204B
:105470008F878AEF94E10E947B20888B8BEF94E1E9
:105480000E947B20898B8CEF94E10E947B208A8B89
:105490008DEF94E10E947B208B8B8EEF94E10E9434
:1054A0007B208C8B9E012F5F3F4F44E1602F812F2B
:1054B0000E9403286496CDBFDEBFDF91CF911F917C
:1054C0000F9108957F928F929F92AF92BF92CF9249
:1054D000DF92EF92FF920F931F93CF93DF93CDB79D
:1054E000DEB72897CDBFDEBFFC01ADB6BEB6E0800B
:1054F0001181828003818BEFF82EFE0C8DB79EB751
:105500008F1991098DBF9EBF01966C013496982F1B
:10551000D6018A2F891B8F1570F0812F0E94DE27FC
:105520008150823058F020E0412F602F81E60E94A8
:10553000582811E0E8C081918D93EBCF0F3F39F5EA
:10554000F11007C041E068ED81E490E00E94312154
:10555000FFCF92E0F91216C0F601908181819F3F42
:1055600021F0209108602913E4CF8F3F21F0909122
:1055700007609813DECF41E068ED81E490E00E947F
:105580003121FFCF2F2D42E06FEF80E6D0CF013FDA
:1055900051F420E040E060E083E50E94582881E07B
:1055A00080930260C6CF003F49F420E040E060E015
:1055B00084E50E94582810920260BBCF0D3E61F432
:1055C000F1E02F2D41E06DEEFF12DFCF60E0F6013C
:1055D00080810E94A229ADCF0C3EF9F481E0809336
:1055E0000960E0919F6AF091A06A81E090E03097B5
:1055F00001F58BE2800F823008F0F2C0F1E02F2D30
:1056000042E0602FFF1508F69090AC6A992009F4EB
:1056100091C020E040E082E68ACF0B3E61F4109218
:105620000960E0919F6AF091A06A309711F390E0D1
:1056300080E00995DECF0A3E09F068C120E040E035
:1056400060E081E80E94582881E08093A16A71CFD0
:10565000073E19F40E9489286CCF053E09F5809118
:10566000A46A89838091A56A8A838091A66A8B83C4
:105670008091A76A8C838091A86A8D838091A96AA2
:105680008E838091AA6A8F838091AB6A88879E01FE
:105690002F5F3F4F48E066EE812F0E94032849CFDD
:1056A000033E29F430E020E040E064EEF5CF003E18
:1056B00029F461EE812F0E94E9293BCF0F3D51F47F
:1056C0001091AC6A20E040E06FED111119C00E940A
:1056D000F3282FCF0E3D51F41091AC6A20E040E04A
:1056E0006EED11110DC00E94092923CF0D3D09F067
:1056F00080CF1091AC6A1123D1F020E040E06DED35
:1057000082E60E945828812FADBEBEBE2896CDBF2E
:10571000DEBFDF91CF911F910F91FF90EF90DF904F
:10572000CF90BF90AF909F908F907F9008950E94F0
:105730002F29FFCE2FEF821204C020E040E083E645
:10574000F6CEF601F0808F2D90E0FAEFEF0EF982A1
:1057500020910460422F50E0F21670F04E2D6F2D14
:105760008BE30E9458289E012F5F3F4F41E0053D8B
:1057700009F0DFCE68ED90CF2E1520F44E2D6F2D61
:105780008CE3EFCF8E0D911D4817590720F44E2D55
:105790006F2D8DE3E6CF20E04E2D6F2D88E30E9424
:1057A00058282FEFC21AD20A812C77247394F6015D
:1057B00061916F0140E08F2D880D0E94B2288725EE
:1057C000982A83948E1498F3053D09F0B2CE9E0179
:1057D0002F5F3F4F41E067ED992009F45DCFCACFBD
:1057E000003D09F06BC08DB69EB6F2E0FF1649F0A1
:1057F0002F2D42E060ED80E60E9458288DBE9EBEAF
:1058000098CE8091AC6A882329F020E040E060EDDA
:1058100082E6F2CFF6010081E02EF12C718020911A
:105820000460422F50E0021770F020E0472D602FF7
:105830008BE30E94582830E020E040E061ED812FAA
:105840000E940328DBCF271520F4472D602F8CE31F
:10585000F0CFF2E4F71510F422E4F7CFC72CD12CE7
:10586000C6018E0D9F1D4817590720F4472D602F44
:105870008DE3DFCF20E0472D602F86E30E9458287C
:105880002FEFC21AD20A8DB79EB78C199D098DBF12
:105890009EBF2DB73EB72F5F3F4FEDB7FEB70183D9
:1058A000F701E557F649D901119680E041E0480F2C
:1058B000871521F281918D93842FF8CF013B99F4C4
:1058C000F3E02F2D43E061EBFF125FCEE0917D6AA4
:1058D000F0917E6A309711F0C601099511E000231E
:1058E00009F411CF11C0003BC9F723E0F21621F0F3
:1058F0002F2D43E060EB49CEE0917B6AF0917C6A0A
:10590000309711F0C601099510E0FDCE093E09F06F
:105910009FCE20E040E060E082E80E94582810928C
:10592000A16A07CEE0913A69F0913B69309779F42A
:10593000809140690E94CC2781110FC0E0913869A5
:10594000F0913969309729F18EE399E609948EE355
:1059500099E60995882361F3F1CFE0913669F091DA
:105960003769309781F48EE399E60E94622A8111AB
:10597000E5CFE0913469F09135693097F9F28EE323
:1059800099E60995DBCF8EE399E609958111D6CF8B
:10599000EACF08951F93CF93DF93D2E0C1E00E9436
:1059A0002C24811104C0DF91CF911F9108950E9492
:1059B0003B24823419F4C0933C69F1CF90913C6947
:1059C0009923D1F010923C69893919F4C093866902
:1059D000E6CF863681F01092866920E040E060E0F4
:1059E00081E40E9458288091A56A8F3FC1F28F5FA1
:1059F0008093A56AD4CF82E49091866991110EC0FC
:105A000020E040E060E082E40E9458288091A66A8D
:105A10008F3F29F28F5F8093A66AC1CF9130E1F466
:105A20002BEF280F243438F480933E6990933D691E
:105A3000D0938669B4CF1092866920E048E4682F3D
:105A400083E40E9458288091A76A8F3F09F4A7CF6A
:105A50008F5F8093A76AA3CF923009F0A0CF909177
:105A60003D6920913E69921740F4E92FF0E0E25C35
:105A7000F64980839F5F90933D6960913E69809174
:105A80003D6968138CCF1092866970E0FB01E35C7E
:105A9000F6491081625071098EE399E60E943D2714
:105AA000181779F020E0482F612F84E40E945828CD
:105AB0008091A86A8F3F09F472CF8F5F8093A86AA4
:105AC0006ECF8091A46A8F3F19F08F5F8093A46A94
:105AD0000E94922C64CF0F931F93CF93DF93C82F14
:105AE000D0E00AED12E00C1B1D0BBE01665A79498D
:105AF000A8018AE596E60E94662FAE016FEF70E07E
:105B0000C801865A9949DF91CF911F910F910C944A
:105B10006F2FEF92FF920F931F93CF93DF93CDB729
:105B2000DEB7C854D109CDBFDEBF00915A660F3F22
:105B300069F410E0812FC85BDF4FCDBFDEBFDF917E
:105B4000CF911F910F91FF90EF900895402F50E05B
:105B50006AE576E6CE0101960E94662F809102608A
:105B6000882339F38091A96A8F3F19F08F5F809362
:105B7000A96A802F0E946B2DE0915666F0915766BE
:105B8000309751F0CE0101960995182F882321F006
:105B9000802F0E946B2DCECF8C81895F8430C8F41A
:105BA0000E9435248823E1F382E40E94D9240E94D4
:105BB0003524182F8823D9F389E90E94D92400E0DD
:105BC0008981081798F01092586610925966B2CFE2
:105BD000A89520915866309159668091066090E0B2
:105BE000880F991F8217930799F7DACF0E943524FF
:105BF0008823E1F3EE24E394F12CEC0EFD1EE00E7D
:105C0000F11CF70180810E94D924F7018081823440
:105C100039F40E9435248823E1F386E60E94D924D2
:105C20000F5FCECF0E94CA2C0E94892D8111FCCF1C
:105C30000895693000F11092896960E0982F2FE093
:105C4000629F900D1124692F615F6F3EB8F0109232
:105C5000046010928A691092896920E04EEE81E317
:105C60000E94582820E040E06091046080E30E9498
:105C700058280C942F2960938969E0CF60930460C1
:105C800080938A69EFCF0F931F93CF93DF930FE732
:105C90001AE6C0E8D0E1CE010E949220F80181937B
:105CA0008F012196C03AF0E1DF07A9F760917F6A82
:105CB0008FEF860F8E3F08F453C081E08093086019
:105CC00020E040E085E20E94582820E040E060911A
:105CD000086084E20E9458286091806A8FEB860FEA
:105CE0008A3108F440C081E48093076020E040E0FE
:105CF00087E20E94582820E040E06091076086E239
:105D00000E9458286091816A8FEF860F803F70F162
:105D100081E08093066020E040E081E20E94582804
:105D200020E040E06091066080E20E945828609187
:105D3000826A662351F08FE0860F8E3030F020E0CB
:105D400040E083E20E94582860EF6093056020E005
:105D500040E082E2DF91CF911F910F910C9458287F
:105D600060930860B2CF60930760C5CF6093066010
:105D7000D7CFCF92DF92EF92FF920F931F93CF93E3
:105D8000DF936B017C018091AC6AC7EF8111CFEE8C
:105D9000D0E008E110E00E948D208111FCCFC70106
:105DA000B601002E04C096958795779567950A945D
:105DB000D2F7CE019C5E0E947E20085011092196E8
:105DC000083F8FEF180739F743EF60E070E490E089
:105DD00080E00E947A274BEF6FEF7FEF80E090E446
:105DE000DF91CF911F910F91FF90EF90DF90CF90B7
:105DF0000C947A27CF93C62F81110E948A29CC2335
:105E000029F061E08FEFCF910C94A229CF910895F2
:105E1000BF92CF92DF92EF92FF920F931F93CF9397
:105E2000DF93B82EC62FD42F79014AED52E06FEFE1
:105E300070E08AE596E60E946F2FB092AC6A20E08F
:105E400040E060E080E10E9458280E94432E6D2FC0
:105E50008C2F0E94192EC701B8010E94B92E8BE128
:105E600097E20E94002380E397E20E94E621E0E0AF
:105E7000F4E08189887F8360818B8091066090E067
:105E8000880F991F0E94742362EE80E00E94E92926
:105E900020E040E060E081E1DF91CF911F910F9120
:105EA000FF90EF90DF90CF90BF900C945828A29F66
:105EB000B001B39FC001A39F700D811D1124911DDE
:105EC000B29F700D811D1124911D0895FB01DC010D
:105ED00002C001900D9241505040D8F70895DC0166
:105EE00001C06D9341505040E0F70895F894FFCF02
:105EF000A02301FFEEF00141010127C435C43F1882
:105F00006D7C5A7677387F7E7B57275D67634000CC
:02000004008278
:090000000A00000000D0100020ED
:0400000300004000B9
:00000001FF
