:104000000C9448200C9465200C9465200C94652039
:104010000C9465200C943D230C9480230C94652013
:104020000C94F1210C9465200C9465200C94D02301
:104030000C9465200C9465200C9465200C946520EC
:104040000C9465200C9465200C9465200C946520DC
:104050000C9465200C94B6250C9465200C94652076
:104060000C9486220C9465200C9465200C94652099
:104070000C9465200C9446220C9465200C94A32487
:104080000C9465200C9465200C94C6220C94652039
:1040900011241FBECFEFCDBFDFE7DEBF10E6A0E0EB
:1040A000B0E6E6EEFFE502C005900D92A031B10743
:1040B000D9F72AE6A0E1B0E601C01D92A63DB207FD
:1040C000E1F70E9447270C94F12F0C940020482F11
:1040D0006DE980E090E10C949520E0E0F0E18281D0
:1040E0008F78828308950E946D20109201100895A8
:1040F000FB0184910895FC01808108951F93CF9363
:10410000DF93EC01162F83E10E946720188380E083
:10411000DF91CF911F910C946720809102108695BA
:1041200081700895FC0180810895FC0164BF408383
:104130000895462F68ED0C94952060E080E690E0AD
:104140000E94992060E081E690E00E94992060E062
:1041500085E690E00E94992060E088E790E00E9468
:10416000992064E288E690E00E94992060E089E668
:1041700090E00E94992060E080E790E00E94992002
:1041800060E08CE790E00E94992060E082E690E099
:104190000E94992060E083E690E00E94992060E010
:1041A00084E690E00E94992060E080E890E00E9420
:1041B00099208091650081FFFCCF08954AE068ED69
:1041C00080E091E00E94952040E868ED81E091E078
:1041D0000E94952080E008950E949D200E941D214C
:1041E0000E9473200E9410230E94AD230E94C724C6
:1041F0000E94FC230E94DE200C94FE2040E068ED2B
:1042000080E191E00E949520E0E1F1E012821382CA
:1042100080E00895089508950895089508950895F3
:1042200008950895089508950895089508950895A6
:1042300008950895089508950895CF93DF9380E039
:1042400094E029EFFC012083C0E4D4E029E0288336
:10425000A0E6B4E034E13C9340EA54E03AE0FA01ED
:10426000308331E0FC0134832C8314961C92149724
:10427000FA011482FC01108A118A128A138A24E03E
:10428000248B258B268B178A188A198A1A8A2B8BDE
:104290001C8A1D8A1E8A1F8A50961C9250978BE09A
:1042A00051968C93519752962C93529753968C9388
:1042B000539754962C93549755961C92559756960F
:1042C0001C92569757961C92FA01808B218B828BF9
:1042D000238B148A158A168A178AE0EEF5E011827C
:1042E00010821582178210861186168212828AE049
:1042F00091E280933460909335608CE091E28093FA
:104300003260909333608DE091E2809330609093BF
:1043100031608EE091E280932E6090932F608FE069
:1043200091E280932C6090932D6080E191E28093E4
:104330002A6090932B6081E191E2809328609093B2
:10434000296082E191E2809326609093276083E167
:1043500091E2809324609093256084E191E28093C0
:1043600022609093236085E191E280932060909396
:10437000216086E191E280931E6090931F6087E147
:1043800091E280931C6090931D6088E191E280939C
:104390001A6090931B6089E191E28093186090937A
:1043A00019608AE191E280931660909317608BE127
:1043B00091E280931460909315608CE191E2809378
:1043C0001260909313608BE091E280931060909361
:1043D0001160DF91CF9108958093346090933560A0
:1043E00008951F920F920FB60F9211242F933F93AF
:1043F0004F935F936F937F938F939F93AF93BF93ED
:10440000EF93FF93199B05C0E0913460F091356004
:104410000995189B05C0E0913260F09133600995D1
:104420001B9B05C0E0913060F091316009951C9BA9
:1044300005C0E0912060F091216009951D9B05C0A9
:10444000E0911E60F0911F6009951E9B05C0E091F0
:104450001C60F0911D6009951F9B05C0E0911A60DA
:10446000F0911B6009958FEF83B9FF91EF91BF9198
:10447000AF919F918F917F916F915F914F913F91FC
:104480002F910F900FBE0F901F9018951F920F92B3
:104490000FB60F9211242F933F934F935F936F9317
:1044A0007F938F939F93AF93BF93EF93FF93599B0A
:1044B00005C0E0912E60F0912F600995589B05C0D2
:1044C000E0912C60F0912D6009955A9B05C0E09118
:1044D0002A60F0912B6009955B9B05C0E091186004
:1044E000F091196009958FEF8BB9FF91EF91BF9112
:1044F000AF919F918F917F916F915F914F913F917C
:104500002F910F900FBE0F901F9018951F920F9232
:104510000FB60F9211242F933F934F935F936F9396
:104520007F938F939F93AF93BF93EF93FF93799B69
:1045300005C0E0912860F091296009957B9B05C03A
:10454000E0912660F091276009957A9B05C0E09183
:104550001660F091176009957C9B05C0E09114608E
:10456000F091156009958FEF8FB9FF91EF91BF9191
:10457000AF919F918F917F916F915F914F913F91FB
:104580002F910F900FBE0F901F9018951F920F92B2
:104590000FB60F9211242F933F934F935F936F9316
:1045A0007F938F939F93AF93BF93EF93FF93B89BAA
:1045B00005C0E0912460F09125600995BA9B05C083
:1045C000E0912260F09123600995B99B05C0E091CC
:1045D0001260F09113600995BB9B05C0E0911060DB
:1045E000F091116009958FEF87BBFF91EF91BF911B
:1045F000AF919F918F917F916F915F914F913F917B
:104600002F910F900FBE0F901F901895019708F4EF
:104610000895EFE6F7E13197F1F700C00000F6CF1B
:10462000809141018111FCCF8FEF9FE780934C0176
:1046300090934D0110924801109249018FEF9FEF26
:1046400080934A0190934B011092470110924201CE
:1046500010924501809151018111FCCF81E080933E
:1046600052011092550181E18093500180E008953C
:10467000809336609093376008951F920F920FB623
:104680000F9211242F933F934F935F936F937F93D8
:104690008F939F93AF93BF93EF93FF9380914201CA
:1046A00080FF0BC08091430180FF07C0E0913A601A
:1046B000F0913B60309709F009958091420181FFAC
:1046C0000BC08091430181FF07C0E0913860F091F9
:1046D0003960309709F0099583E080934301FF9199
:1046E000EF91BF91AF919F918F917F916F915F916A
:1046F0004F913F912F910F900FBE0F901F901895E3
:104700001F920F920FB60F9211242F933F934F9346
:104710005F936F937F938F939F93AF93BF93EF9329
:10472000FF93E0913660F0913760309709F009957A
:1047300081E080935301FF91EF91BF91AF919F91E1
:104740008F917F916F915F914F913F912F910F903A
:104750000FBE0F901F9018950895E0E0FAE010A6A4
:1047600011A612A613A614A615A610A211A21182B4
:10477000128213821482158216821782168611867F
:1047800080E18287138689EE90E086A397A317863F
:104790008FE0808308958093006090930160089576
:1047A0001F920F920FB60F9211242F933F934F93A6
:1047B0005F936F937F938F939F93AF93BF93EF9389
:1047C000FF93E0910060F0910160309709F0099546
:1047D00080E180930B0AFF91EF91BF91AF919F9180
:1047E0008F917F916F915F914F913F912F910F909A
:1047F0000FBE0F901F90189582E394E28093C36AD6
:104800009093C46AE0E2F8E081E493E080879187C6
:1048100080E9858380EC868383E087831386148612
:104820001686158684E994E28093C56A9093C66AD9
:1048300086E994E28093C76A9093C86A85E994E216
:104840008093CA6A9093CB6A10923E6010923F6048
:1048500010925960109258601092C96A85818068E0
:1048600085830895E0915960F0E0EE0FFF1FE05C52
:10487000FF49108211828091210882FF11C0E091CE
:104880005960F0E0EE0FFF1FE05CFF49808182601D
:104890008083E091C56AF091C66A309709F0099566
:1048A0008091210881FF0CC080913E6081608093DF
:1048B0003E60E091CA6AF091CB6A309709F00995A1
:1048C0008091210886FF11C0E0915960F0E0EE0F61
:1048D000FF1FE05CFF49808184608083E091C76AAC
:1048E000F091C86A309709F009959091200880915D
:1048F00059608F5F877020915860281769F0E091A8
:104900005960F0E0E05BFF499083809359608091AB
:10491000C96A8F5F8093C96AE0913C60F0913D6005
:10492000309709F009940895089508950895E0E2F4
:10493000F8E08681806C86830895E0E2F8E0868165
:104940008F73868308951F920F920FB60F921124D2
:104950002F933F934F935F936F937F938F939F9387
:10496000AF93BF93EF93FF930E943224FF91EF9197
:10497000BF91AF919F918F917F916F915F914F9177
:104980003F912F910F900FBE0F901F9018958FE3BE
:1049900095E28093CC6A9093CD6AE0E0F8E080ECF9
:1049A00090E08087918781E9858380EC868383E02E
:1049B0008783138614861686158683EB95E280938B
:1049C000D26A9093D36A85EB95E28093CE6A9093F6
:1049D000CF6A84EB95E28093D46A9093D56A109263
:1049E0005C6010925D601092606610926166109239
:1049F0005E6610925F661092D06A1092D16A8581CD
:104A00008068858308952091D06A3091D16A81E0D1
:104A1000232B09F480E008958091040885FB882702
:104A200080F90895E0915E66F0915F66E25AFB4975
:104A3000808120915E6630915F662F5F3F4F3170BD
:104A400020935E6630935F66909105089F77909300
:104A500005082091D06A3091D16A232B51F0209122
:104A6000D06A3091D16A215031092093D06A3093B5
:104A7000D16A909105089068909305080895E09197
:104A80006066F0916166EE0FFF1FE25AFF491082E7
:104A900011828091010882FF12C0E0916066F0915E
:104AA0006166EE0FFF1FE25AFF49808182608083BA
:104AB000E091D26AF091D36A309709F0099580911C
:104AC000010881FF0CC080915C60816080935C6014
:104AD000E091D46AF091D56A309709F009958091F8
:104AE000010886FF12C0E0916066F0916166EE0FEA
:104AF000FF1FE25AFF49808184608083E091CE6A83
:104B0000F091CF6A309709F00995209100088091C3
:104B10006066909161660196917040915E665091D9
:104B20005F6648175907A1F0E0916066F0916166F1
:104B3000E25AFB492083809360669093616680917E
:104B4000D06A9091D16A01968093D06A9093D16A8D
:104B5000E0915A60F0915B60309709F009940895F4
:104B60008093020808950895089508951F920F9262
:104B70000FB60F9211242F933F934F935F936F9330
:104B80007F938F939F93AF93BF93EF93FF930E9475
:104B90003F25FF91EF91BF91AF919F918F917F91B1
:104BA0006F915F914F913F912F910F900FBE0F909A
:104BB0001F9018958330C0F4811107C0643008F04D
:104BC00060E060930660862F0895813089F4662343
:104BD000D1F390910760933011F480936B6660E09D
:104BE000F2CF6230E0F7EFCF8350990B80FFF9CF1F
:104BF0006430A8F7E8CF0E94C42781110DC088E077
:104C00008093A60482E08093A60480E180936604EA
:104C100084E0809366040895809105608230D1F429
:104C200088E08093A604809104608230E1F4809350
:104C3000A604809103608230F9F480E180936604D9
:104C400080910260823021F38130F9F484E0809316
:104C500065041DC0813021F488E08093A504E3CF72
:104C60008111E1CFF9CF813021F482E08093A50456
:104C7000E0CF8111DECFF9CF813021F480E1809344
:104C80006504DECF8111DCCFF9CF8823F9F20895D6
:104C9000662329F0842F0E942329809306600895BB
:104CA0008093066080910760833019F481E08093DF
:104CB0006B6681E080936A660895DF92EF92FF92BF
:104CC0000F931F93CF93DF9336B320916966220F22
:104CD00041E032FB332730F93427232B20936966D8
:104CE00036B320916866220F30953170232B2093C4
:104CF00068663EB120916766220F33FB332730F997
:104D00003427232B209367669EB180916666880FB7
:104D1000969591709427892B8093666686E6E82E97
:104D200086E6F82EC2E6D6E610E0DD24D394F7013D
:104D300001917F010F708881811106C00F3021F42D
:104D4000D882812F0E9450268881882319F0011172
:104D500001C018821F5F2196143049F7DF91CF916F
:104D60001F910F91FF90EF90DF900895FF920F93A6
:104D70001F93CF93DF9300D000D0CDB7DEB79091D3
:104D80000760981709F450C0182F8093076010929D
:104D90006B6640E0682F80E00E943C291B821C83E8
:104DA0000E9480289E012D5F3F4F42E066ED0E94E9
:104DB0008D2882E080930560809304608093036077
:104DC0008093026094E09093660400E1009366048F
:104DD0008093A60488E0F82EF092A6040E949D24F9
:104DE000F092450480E880930604111126C01092C9
:104DF000026080E4809306040093060480E28093BE
:104E000006040E948028823B69F482E08983113085
:104E1000E1F51A839E012F5F3F4F42E066ED85EC7E
:104E20000E948D280E94FB252496CDBFDEBFDF9116
:104E3000CF911F910F91FF900895113031F410928E
:104E4000036080E480930504D7CF123059F41092A8
:104E5000046080E4809306040093060480E280935B
:104E60000504CFCF133069F61092056090E490935B
:104E700006040093050490E290930504F092460422
:104E8000809305040E949724BCCF1A82C3CF0E944E
:104E9000EC2088E08093460478948AED95E20E94A5
:104EA00083288BEF95E20E94BF2788E496E20E9458
:104EB000882805EA13E529E837E641E063E080E069
:104EC0000E94922F82E00E942329843008F080E023
:104ED000809306600E94FB258DE596E20E94CB231D
:104EE00012E0C8E0D0E880916A66882331F0109221
:104EF0006A6661E081E00E94842F90910760809152
:104F00000660981721F0809106600E94B626809175
:104F10006B668823B1F010926B66109305600E9457
:104F2000FB25C093A604D093060488E592E00E9476
:104F30000623D0930504C093A504109205600E9437
:104F4000FB250E949C2EA895CECF80916E669091F5
:104F50006F66019680936E6690936F6680916E6621
:104F600090916F66803E914020F010926E66109294
:104F70006F66089510926E6610926F660895809322
:104F8000B56A9093B66A089580910F600895FC0108
:104F9000680F791F8FEF91E3E617F70709F408957B
:104FA0002191822728E030E087FF06C0880F8927FB
:104FB00021503109C9F7F0CF880FFACFCF92DF9295
:104FC000EF92FF92642728E06B017C01F694E7944E
:104FD000D794C794617077278827992790958095F3
:104FE000709561957F4F8F4F9F4F60727378887B6C
:104FF0009D7E6C257D258E259F25215029F7FF90CC
:10500000EF90DF90CF9008958F929F92AF92BF92D2
:10501000CF92DF92EF92FF920F931F93CF93DF9384
:105020008B01C42F6C01F12CE12C88248A94982CDC
:105030005401C016D10648F1D0E008E110E00E940A
:105040008D208111FCCFC501B401002E04C09695BE
:105050008795779567950A94D2F7CE019C5E0E945A
:105060007E20085011092196083F8FEF180739F765
:10507000DF91CF911F910F91FF90EF90DF90CF9034
:10508000BF90AF909F908F900895C701B6010E9486
:105090007820482FC501B4010E94DE274B015C0136
:1050A0008FEFC81AD80AE80AF80AC3CF982F809160
:1050B0000C60891759F080910B60981302C0911110
:1050C00005C081E09F3F19F080E0089581E00895D8
:1050D000882361F0813061F0803F61F09FE0980F9C
:1050E0009E3050F08F3F51F081E0089580E00895A8
:1050F00082E0089584E0089583E0089585E00895AE
:1051000080910C60089580938F6A9093906A0895BF
:1051100080939D6990939E690895CF92DF92EF925C
:10512000FF921F93CF93DF93CDB7DEB7142FCDB689
:10513000DEB6443478F020E043E4612F82E50E943B
:10514000E2288091C06A8F3F19F08F5F8093C06A18
:1051500080E02BC095E0940F492F50E0EDB7FEB7EB
:10516000E41BF50BEDBFFEBF31967F01EDB7FEB737
:10517000918390910C60F701918382836383922FD6
:10518000ADB7BEB71596F9018E2F891B8117B8F000
:10519000BA0162507109C7010E94C727F701E10FE8
:1051A000F11D8483C7010E94E829CDBEDEBEDF91D8
:1051B000CF911F91FF90EF90DF90CF900895819154
:1051C0008D93E2CFEF92FF920F931F93CF93DF93D4
:1051D00000D000D0CDB7DEB7182FE62EF42E022F68
:1051E000E091B86AF091B96A309709F00995809119
:1051F000B76A882371F0113561F01983EA82FB8266
:105200000C839E012F5F3F4F44E068EE80E00E94D8
:105210008D282496CDBFDEBFDF91CF911F910F91D6
:10522000FF90EF900895EAEBFAE610821182128265
:105230001382148215821682178220E040E060E01B
:1052400083E80C94E228CF93682F40910A6084177A
:1052500040F020E08BE30E94E228C0E08C2FCF9149
:105260000895E82FF0E0EF55F649C08120E04C2F7B
:1052700087E30E94E228F2CFEF92FF921F93CF9331
:10528000DF93C82F162F80910A60C81768F020E0BE
:10529000482F6C2F8BE30E94E22880E0DF91CF91B2
:1052A0001F91FF90EF9008958C2F90E09C012F5557
:1052B00036497901411104C0F90180818617D9F07E
:1052C000E0918F6AF091906AD12F309761F0612F51
:1052D0008C2F0995D82F181731F0282F412F6C2FBC
:1052E0008AE30E94E22820E04D2F6C2F89E30E9480
:1052F000E228F701D08381E0D1CFCF9320E040E0D6
:1053000060910A6084E30E94E228C0E080910A6014
:10531000C81710F0CF91089541E060E08C2F0E94F3
:105320003C29CF5FF3CFCF93C0E080910A60C817CC
:1053300088F00E948D208111FCCF62E48FEF94E110
:105340000E947E2020E040E060910A6085E3CF91DA
:105350000C94E2280E948D208111FCCF8C2F90E0CC
:10536000FC01EF55F64960819C5E0E947E20CF5F74
:10537000DCCFCF938FEF94E10E947B2020E082343A
:1053800051F042E4682F83E30E94E2280E947D29C5
:10539000CF910C94932940E060910A6082E30E94CF
:1053A000E228C0E080910A60C81710F0CF910895FC
:1053B0000E948D208111FCCF8C2F90E09C5E0E947A
:1053C0007B2041E0682F8C2F0E943C29CF5FEACFE1
:1053D00030E020E0F901E059F94940814F3F71F494
:1053E000DC014C9150E0240F351F2B3D324068F416
:1053F000BC01CF010E94E12F81E008952A3D52E0D7
:10540000350770F7240F311DE5CF20E040E060E064
:1054100081E50E94E2288091C16A8F3F19F08F5F79
:105420008093C16A80E0089580910F60811113C05C
:1054300081E080930F60E091B56AF091B66A309791
:1054400019F081E090E0099530E020E040E06CEE5A
:105450008FEF0C948D2808950F931F93CF93DF93B4
:105460001F92CDB7DEB790EF980F9F3EA0F19091BD
:105470000960981781F1182F80930960662349F01D
:1054800089839E012F5F3F4F41E06DEE8FEF0E94B9
:105490008D2880919D6990919E69892BE1F0809182
:1054A0009F698823F1F01031E0F4012F819F000DF6
:1054B00011244091A069040F802F0E94232961E0EC
:1054C000811101C060E041E0400FE0919D69F091E1
:1054D0009E69812F09950F90DF91CF911F910F91B8
:1054E00008950FEFEFCF0F931F93CF93DF93CDB7B7
:1054F000DEB76497CDBFDEBF182F062F80910E60F8
:10550000898380910D608A8380910B608B83809169
:10551000C26A91E089278C838FEE94E10E947B2000
:105520008D8380EF94E10E947B208E8381EF94E154
:105530000E947B208F8382EF94E10E947B208887EA
:1055400083EF94E10E947B20898784EF94E10E949D
:105550007B208A8785EF94E10E947B208B8786EFF2
:1055600094E10E947B208C8787EF94E10E947B204E
:105570008D8788EF94E10E947B208E8789EF94E1EC
:105580000E947B208F878AEF94E10E947B20888B8A
:105590008BEF94E10E947B20898B8CEF94E10E9439
:1055A0007B208A8B8DEF94E10E947B208B8B8EEF8A
:1055B00094E10E947B208C8B9E012F5F3F4F44E142
:1055C000602F812F0E948D286496CDBFDEBFDF91B2
:1055D000CF911F910F9108957F928F929F92AF92DA
:1055E000BF92CF92DF92EF92FF920F931F93CF93D0
:1055F000DF93CDB7DEB72897CDBFDEBFFC01ADB6D8
:10560000BEB6E0801181828003818BEFF82EFE0C04
:105610008DB79EB78F1991098DBF9EBF01966C0102
:105620003496982FD6018A2F891B8F1570F0812F01
:105630000E9468288150823058F020E0412F602F6E
:1056400081E60E94E22811E0E8C081918D93EBCFC2
:105650000F3F39F5F11007C041E068ED81E490E0BB
:105660000E949520FFCF92E0F91216C0F6019081BA
:1056700081819F3F21F020910E602913E4CF8F3F5D
:1056800021F090910D609813DECF41E068ED81E448
:1056900090E00E949520FFCF2F2D42E06FEF80E633
:1056A000D0CF013F51F420E040E060E083E50E946C
:1056B000E22881E080930860C6CF003F49F420E0F3
:1056C00040E060E084E50E94E22810920860BBCFD1
:1056D0000D3E61F4F1E02F2D41E06DEEFF12DFCFC2
:1056E00060E0F60180810E942C2AADCF0C3EF9F4D7
:1056F00081E080930F60E091B56AF091B66A81E035
:1057000090E0309701F58BE2800F823008F0F2C014
:10571000F1E02F2D42E0602FFF1508F69090C26A4D
:10572000992009F491C020E040E082E68ACF0B3E48
:1057300061F410920F60E091B56AF091B66A30970B
:1057400011F390E080E00995DECF0A3E09F068C1D0
:1057500020E040E060E081E80E94E22881E0809360
:10576000B76A71CF073E19F40E9413296CCF053E2A
:1057700009F58091BA6A89838091BB6A8A83809196
:10578000BC6A8B838091BD6A8C838091BE6A8D8355
:105790008091BF6A8E838091C06A8F838091C16A35
:1057A00088879E012F5F3F4F48E066EE812F0E9461
:1057B0008D2849CF033E29F430E020E040E064EE3C
:1057C000F5CF003E29F461EE812F0E94732A3BCF72
:1057D0000F3D51F41091C26A20E040E06FED1111CD
:1057E00019C00E947D292FCF0E3D51F41091C26A3D
:1057F00020E040E06EED11110DC00E94932923CFEF
:105800000D3D09F080CF1091C26A1123D1F020E044
:1058100040E06DED82E60E94E228812FADBEBEBE63
:105820002896CDBFDEBFDF91CF911F910F91FF90E2
:10583000EF90DF90CF90BF90AF909F908F907F9030
:1058400008950E94B929FFCE2FEF821204C020E0F4
:1058500040E083E6F6CEF601F0808F2D90E0FAEF7F
:10586000EF0EF98220910A60422F50E0F21670F09C
:105870004E2D6F2D8BE30E94E2289E012F5F3F4F3C
:1058800041E0053D09F0DFCE68ED90CF2E1520F404
:105890004E2D6F2D8CE3EFCF8E0D911D48175907BC
:1058A00020F44E2D6F2D8DE3E6CF20E04E2D6F2D91
:1058B00088E30E94E2282FEFC21AD20A812C7724B3
:1058C0007394F60161916F0140E08F2D880D0E9465
:1058D0003C298725982A83948E1498F3053D09F076
:1058E000B2CE9E012F5F3F4F41E067ED992009F452
:1058F0005DCFCACF003D09F06BC08DB69EB6F2E019
:10590000FF1649F02F2D42E060ED80E60E94E2286C
:105910008DBE9EBE98CE8091C26A882329F020E079
:1059200040E060ED82E6F2CFF6010081E02EF12C3E
:10593000718020910A60422F50E0021770F020E041
:10594000472D602F8BE30E94E22830E020E040E00A
:1059500061ED812F0E948D28DBCF271520F4472D84
:10596000602F8CE3F0CFF2E4F71510F422E4F7CFC8
:10597000C72CD12CC6018E0D9F1D4817590720F446
:10598000472D602F8DE3DFCF20E0472D602F86E38A
:105990000E94E2282FEFC21AD20A8DB79EB78C1947
:1059A0009D098DBF9EBF2DB73EB72F5F3F4FEDB70F
:1059B000FEB70183F701EF55F649D901119680E052
:1059C00041E0480F871521F281918D93842FF8CF04
:1059D000013B99F4F3E02F2D43E061EBFF125FCE22
:1059E000E091936AF091946A309711F0C60109959D
:1059F00011E0002309F411CF11C0003BC9F723E0E7
:105A0000F21621F02F2D43E060EB49CEE091916A30
:105A1000F091926A309711F0C601099510E0FDCE21
:105A2000093E09F09FCE20E040E060E082E80E945D
:105A3000E2281092B76A07CEE0915069F09151695F
:105A4000309779F4809156690E94562881110FC0D1
:105A5000E0914E69F0914F69309729F184E599E61C
:105A6000099484E599E60995882361F3F1CFE091E3
:105A70004C69F0914D69309781F484E599E60E9474
:105A8000EC2A8111E5CFE0914A69F0914B6930979A
:105A9000F9F284E599E60995DBCF84E599E6099565
:105AA0008111D6CFEACF08951F93CF93DF93D2E031
:105AB000C1E00E940325811104C0DF91CF911F91A5
:105AC00008950E941225823419F4C0935269F1CFCF
:105AD000909152699923D1F010925269893919F441
:105AE000C0939C69E6CF863681F010929C6920E0D5
:105AF00040E060E081E40E94E2288091BB6A8F3F31
:105B0000C1F28F5F8093BB6AD4CF82E490919C698D
:105B100091110EC020E040E060E082E40E94E228A3
:105B20008091BC6A8F3F29F28F5F8093BC6AC1CF9E
:105B30009130E1F42BEF280F243438F4809354692A
:105B400090935369D0939C69B4CF10929C6920E0E4
:105B500048E4682F83E40E94E2288091BD6A8F3F69
:105B600009F4A7CF8F5F8093BD6AA3CF923009F06D
:105B7000A0CF9091536920915469921740F4E92F76
:105B8000F0E0EC5AF64980839F5F909353696091EF
:105B900054698091536968138CCF10929C6970E0AE
:105BA000FB01ED5AF64910816250710984E599E6CE
:105BB0000E94C727181779F020E0482F612F84E44E
:105BC0000E94E2288091BE6A8F3F09F472CF8F5FF6
:105BD0008093BE6A6ECF8091BA6A8F3F19F08F5F53
:105BE0008093BA6A0E941C2D64CF0F931F93CF93AA
:105BF000DF93C82FD0E00AED12E00C1B1D0BBE0195
:105C000060597949A80180E796E60E94E12FAE012C
:105C10006FEF70E0C80180599949DF91CF911F91D2
:105C20000F910C94EA2FEF92FF920F931F93CF9353
:105C3000DF93CDB7DEB7C854D109CDBFDEBF009129
:105C400070660F3F69F410E0812FC85BDF4FCDBF56
:105C5000DEBFDF91CF911F910F91FF90EF900895DC
:105C6000402F50E060E776E6CE0101960E94E12FDA
:105C700080910860882339F38091BF6A8F3F19F0C3
:105C80008F5F8093BF6A802F0E94F52DE0916C6634
:105C9000F0916D66309751F0CE0101960995182F5D
:105CA000882321F0802F0E94F52DCECF8C81895F33
:105CB0008430C8F40E940C258823E1F382E40E941A
:105CC000B0250E940C25182F8823D9F389E90E945A
:105CD000B02500E08981081798F010926E66109246
:105CE0006F66B2CFA89520916E6630916F668091F5
:105CF0000C6090E0880F991F8217930799F7DACF0D
:105D00000E940C258823E1F3EE24E394F12CEC0EA1
:105D1000FD1EE00EF11CF70180810E94B025F70105
:105D20008081823439F40E940C258823E1F386E6D1
:105D30000E94B0250F5FCECF0E94542D0E94132EDB
:105D40008111FCCF0895693000F110929F6960E0E5
:105D5000982F2FE0629F900D1124692F615F6F3E95
:105D6000B8F010920A601092A06910929F6920E02A
:105D70004EEE81E30E94E22820E040E060910A605C
:105D800080E30E94E2280C94B92960939F69E0CFD8
:105D900060930A608093A069EFCF0F931F93CF9316
:105DA000DF9305E91AE6C0E8D0E1CE010E94922017
:105DB000F80181938F012196C03AF0E1DF07A9F73E
:105DC0006091956A8FEF860F8E3F08F453C081E093
:105DD00080930E6020E040E085E20E94E22820E00F
:105DE00040E060910E6084E20E94E2286091966A31
:105DF0008FEB860F8A3108F440C081E480930D60F8
:105E000020E040E087E20E94E22820E040E060914C
:105E10000D6086E20E94E2286091976A8FEF860FFC
:105E2000803F70F181E080930C6020E040E081E2EF
:105E30000E94E22820E040E060910C6080E20E9435
:105E4000E2286091986A662351F08FE0860F8E30C9
:105E500030F020E040E083E20E94E22860EF6093AF
:105E60000B6020E040E082E2DF91CF911F910F9123
:105E70000C94E22860930E60B2CF60930D60C5CFA2
:105E800060930C60D7CFCF92DF92EF92FF920F9387
:105E90001F93CF93DF936B017C018091C26AC7EFA0
:105EA0008111CFEED0E008E110E00E948D20811139
:105EB000FCCFC701B601002E04C096958795779553
:105EC00067950A94D2F7CE019C5E0E947E2008500E
:105ED00011092196083F8FEF180739F743EF60E06B
:105EE00070E490E080E00E9404284BEF6FEF7FEFBA
:105EF00080E090E4DF91CF911F910F91FF90EF90A0
:105F0000DF90CF900C940428CF93C62F81110E946C
:105F1000142ACC2329F061E08FEFCF910C942C2A26
:105F2000CF910895BF92CF92DF92EF92FF920F939D
:105F30001F93CF93DF93B82EC62FD42F79014AED4C
:105F400052E06FEF70E080E796E60E94EA2FB09291
:105F5000C26A20E040E060E080E10E94E2280E9406
:105F6000CD2E6D2F8C2F0E94A32EC701B8010E9449
:105F7000432F85EA97E20E9438238AEB97E20E943A
:105F8000EC21E0E0F4E08189887F8360818B80915F
:105F90000C6090E0880F991F0E94062362EE80E05B
:105FA0000E94732A20E040E060E081E1DF91CF9120
:105FB0001F910F91FF90EF90DF90CF90BF900C94C6
:105FC000E228FB01DC0102C001900D9241505040DB
:105FD000D8F70895DC0101C06D9341505040E0F7BF
:065FE0000895F894FFCFC4
:105FE600AC2302020202040401FFEEF001410101AA
:02000004008278
:090000000A00000000D0100020ED
:0400000300004000B9
:00000001FF
