:100000000C9448000C9465000C9465000C946500F9
:100010000C9465000C946C020C94AF020C94650077
:100020000C9461010C9465000C9465000C946500BF
:100030000C9465000C9465000C9465000C946500AC
:100040000C9465000C9465000C9465000C9465009C
:100050000C9465000C94CA030C9465000C94650024
:100060000C94A8010C9465000C9465000C94650038
:100070000C9465000C949A010C9465000C94650036
:100080000C9465000C9465000C94B6010C9465000A
:1000900011241FBECFEFCDBFDFE7DEBF10E6A0E02B
:1000A000B0E6E2E4FAE102C005900D92AA30B10791
:1000B000D9F72CE6AAE0B0E601C01D92AB37B20733
:1000C000E1F70E94F0040C941F0D0C940000482FDF
:1000D0006DE980E090E10C94C401E0E0F0E1828100
:1000E0008F78828308950E946D0085E080930110CF
:1000F0000895FB0184910895CF92DF92EF92FF92D1
:10010000CF93DF936B017C01D42FC52F82E00E9437
:100110006700AD2FBC2F9D013E5F11968C9111970A
:100120009C918927982789270F920C01F601E89561
:1001300011240F90129682E0C80ED11CE11CF11C14
:100140002A173B0751F780E00E9467009091021048
:10015000907781E009F480E0DF91CF91FF90EF90FC
:10016000DF90CF900895CF92DF92EF92FF926B01D4
:100170007C0188E00E94670090E080E00F920C0113
:10018000F601E89511240F900E94670090910210EB
:10019000907781E009F480E0FF90EF90DF90CF90BE
:1001A00008958091021081700895FC018081089566
:1001B0001F93CF93DF93EC01162F83E10E9467001A
:1001C000188380E0DF91CF911F910C94670080919C
:1001D0000210869581700895FC018081089508952C
:1001E00008950895CF93DF9380E094E029E0FC0127
:1001F0002083C0E4D4E01882A0E6B4E01C9240EA78
:1002000054E0FA01108221E0FC0124831C82149640
:100210001C921497FA011482FC01108A118A128A26
:10022000138A148A158A168A178A188A198A1A8ACA
:100230001B8A1C8A1D8A1E8A1F8A50961C92509700
:1002400051961C92519752961C92529753961C921B
:10025000539754961C92549755961C9255975696C0
:100260001C92569757961C92FA01108A118A128A8C
:10027000138A148A158A168A178AE0EEF5E011822D
:1002800010821582178210861186168212828FEED6
:1002900090E080930E6090930F6081EF90E08093E8
:1002A0000C6090930D6080EF90E080930A609093D3
:1002B0000B60DF91CF91089580930E6090930F6053
:1002C00008951F920F920FB60F9211242F933F9310
:1002D0004F935F936F937F938F939F93AF93BF934E
:1002E000EF93FF93199B05C0E0910E60F0910F60B2
:1002F0000995189B05C0E0910C60F0910D6009957F
:100300001B9B05C0E0910A60F0910B6009958FEF8F
:1003100083B9FF91EF91BF91AF919F918F917F91A1
:100320006F915F914F913F912F910F900FBE0F9062
:100330001F9018951F920F920FB60F9211248F9352
:100340008FEF8BB98F910F900FBE0F901F90189564
:100350001F920F920FB60F9211248F938FEF8FB9C8
:100360008F910F900FBE0F901F9018951F920F92B4
:100370000FB60F9211248F938FEF87BB8F910F9041
:100380000FBE0F901F901895FC0164BF4083089525
:10039000462F68ED0C94C40160E080E690E00E9476
:1003A000C80160E081E690E00E94C80160E085E657
:1003B00090E00E94C80160E088E790E00E94C801D8
:1003C00064E288E690E00E94C80160E089E690E07F
:1003D0000E94C80160E080E790E00E94C80160E0F0
:1003E0008CE790E00E94C80160E082E690E00E9405
:1003F000C80160E083E690E00E94C80160E084E606
:1004000090E00E94C80160E080E890E00E94C8018E
:100410008091650081FFFCCF08954AE068ED80E09F
:1004200091E00E94C40140E868ED81E091E00E9403
:10043000C40180E008950E94CC010E94F2000E9455
:1004400073000E943F020E94DB020E940D020C9486
:10045000290240E468ED80E191E00E94C401E0E1FE
:10046000F1E01282138280E00895019708F4089564
:10047000EFE6F7E13197F1F700C00000F6CF809189
:1004800041018111FCCF8FEF9FE780934C01909346
:100490004D0110924801109249018FEF9FEF809318
:1004A0004A0190934B011092470110924201109221
:1004B0004501809151018111FCCF81E0809352016F
:1004C0001092550181E18093500180E0089580935E
:1004D00010609093116008951F920F920FB60F92C3
:1004E00011242F933F934F935F936F937F938F9339
:1004F0009F93AF93BF93EF93FF938091420180FF4F
:100500000BC08091430180FF07C0E0911460F0911F
:100510001560309709F009958091420181FF0BC069
:100520008091430181FF07C0E0911260F091136058
:10053000309709F0099583E080934301FF91EF9193
:10054000BF91AF919F918F917F916F915F914F91EB
:100550003F912F910F900FBE0F901F9018951F92F3
:100560000F920FB60F9211242F933F934F935F93E7
:100570006F937F938F939F93AF93BF93EF93FF936B
:10058000E0911060F0911160309709F0099581E0D9
:1005900080935301FF91EF91BF91AF919F918F9104
:1005A0007F916F915F914F913F912F910F900FBE6F
:1005B0000F901F90189583E593E08093716C909352
:1005C000726CE0E0F8E080EC90E08087918781E950
:1005D000858380EC868383E0878313861486168662
:1005E000158687EC93E08093776C9093786C89EC18
:1005F00093E08093736C9093746C88EC93E0809399
:10060000796C90937A6C1092186010921960109225
:100610001C6610921D6610921A6610921B6610924C
:10062000756C1092766C8581806885830895209121
:10063000756C3091766C81E0232B09F480E008958D
:100640008091040885FB882780F90895E0911A6657
:10065000F0911B66E65EFB49808120911A6630911D
:100660001B662F5F3F4F317020931A6630931B66D5
:10067000909105089F77909305082091756C3091B3
:10068000766C232B51F02091756C3091766C215053
:1006900031092093756C3093766C909105089068C1
:1006A000909305080895E0911C66F0911D66EE0F89
:1006B000FF1FE65EFF49108211828091010882FFD0
:1006C00012C0E0911C66F0911D66EE0FFF1FE65E02
:1006D000FF49808182608083E091776CF091786C33
:1006E000309709F009958091010881FF0CC0809135
:1006F0001860816080931860E091796CF0917A6C59
:10070000309709F009958091010886FF12C0E091A9
:100710001C66F0911D66EE0FFF1FE65EFF498081AB
:1007200084608083E091736CF091746C309709F071
:1007300009952091000880911C6690911D66019694
:10074000917040911A6650911B6648175907A1F0A5
:10075000E0911C66F0911D66E65EFB492083809364
:100760001C6690931D668091756C9091766C0196D5
:100770008093756C9093766CE0911660F0911760A1
:10078000309709F009940895809302080895089518
:10079000089508951F920F920FB60F9211242F9370
:1007A0003F934F935F936F937F938F939F93AF93F9
:1007B000BF93EF93FF930E945303FF91EF91BF917B
:1007C000AF919F918F917F916F915F914F913F91E9
:1007D0002F910F900FBE0F901F9018950E94E70069
:1007E0008111FCCF40E36DE980E090E10E94C401FB
:1007F0000E94E7008111FCCF40E06DE980E090E1CC
:100800000C94C401CF92DF92EF92FF92CF93C12C50
:1008100080E4D82EE12CF12CC1E00E94D10081119E
:10082000FCCFC701B6010E94B3008111C0E082E095
:10083000D80EE11CF11CC114D10481E0E806F104DA
:1008400061F78C2FCF91FF90EF90DF90CF900895BC
:10085000CF93C82F0E94D1008111FCCF6C2F70E084
:1008600090E080E029E0660F771F881F991F2A9586
:10087000D1F74EE156E60E947C00C82F40E052E0DE
:100880006FEF70E08EE196E60E94180D81E0C111D5
:1008900080E0CF910895CF92DF92EF92FF920F9375
:1008A0001F93CF93DF931F92CDB7DEB7FC01CDB678
:1008B000DEB601812381908195504DB75EB7491B0B
:1008C00051094DBF5EBF4F5F5F4F7A013496342FA1
:1008D000DA018A2F831B8917A8F060E080E092304C
:1008E00018F0F7018081618129832D3F21F5923035
:1008F00061F09E012F5F3F4F41E06EEF802F0E941D
:100900000B0608C081918D93E4CF0E94DE05182F5D
:10091000811102C011E002C010920060812FCDBE93
:10092000DEBE0F90DF91CF911F910F91FF90EF905E
:10093000DF90CF9008952C3F61F49230D1F60E9461
:10094000DE05182F882331F30E9402048111E2CFC3
:100950001AC02B3F51F4923061F60E94DE05182F29
:100960008823C1F20E94EE03D9CF2A3F19F59334B0
:1009700009F0BFCF0E94DE05182F882359F2F70136
:10098000A281A83048F09E012F5F3F4F41E06EEFFB
:10099000802F0E940B06C2CFF0E4AF9FD00111243C
:1009A000A25EB949F701339680E401900D928A95D1
:1009B000E1F7B4CF10E0293F09F0B0CF933009F050
:1009C00098CF0E94DE05182F882309F4A3CFF701E2
:1009D000828190EE980F9136B0F60E942804B6CF2F
:1009E0000E941B0240E052E06FEF70E08EE196E65D
:1009F0000E94180D78948BE494E00E94060603E2AE
:100A000014EB20ED35E640E060E081E00E94C00C90
:100A1000CCE3D0E00E94D80B80910060882339F0AD
:100A2000A89584E690E00E943502219799F780917D
:100A30000060882321F0F894E0E0F0E209950E943C
:100A4000D80BA895FCCF80912068909121680196E1
:100A5000809320689093216880912068909121680C
:100A6000803E914020F010922068109221680895F5
:100A700010922068109221680895FC01680F791F78
:100A80008FEF91E3E617F70709F408952191822784
:100A900028E030E087FF06C0880F89272150310900
:100AA000C9F7F0CF880FFACFCF92DF92EF92FF9283
:100AB000642728E06B017C01F694E794D794C794EF
:100AC0006170772788279927909580957095619513
:100AD0007F4F8F4F9F4F60727378887B9D7E6C2510
:100AE0007D258E259F25215029F7FF90EF90DF90DF
:100AF000CF9008958F929F92AF92BF92CF92DF9244
:100B0000EF92FF920F931F93CF93DF938B01C42F2C
:100B10006C01F12CE12C88248A94982C5401C01685
:100B2000D10648F1D0E008E110E00E94E700811111
:100B3000FCCFC501B401002E04C09695879577952A
:100B400067950A94D2F7CE019C5E0E94D8000850A7
:100B500011092196083F8FEF180739F7DF91CF91E0
:100B60001F910F91FF90EF90DF90CF90BF90AF90CB
:100B70009F908F900895C701B6010E947900482F79
:100B8000C501B4010E9454054B015C018FEFC81AE6
:100B9000D80AE80AF80AC3CF982F80910560891710
:100BA00059F080910460981302C0911105C081E052
:100BB0009F3F19F080E0089581E008958F3F21F074
:100BC00090910760981307C081E06F3F31F09091DA
:100BD0000660961711F080E008950895882361F06B
:100BE000813061F0803F61F09FE0980F9E3050F0BF
:100BF0008F3F51F081E0089580E0089582E00895EC
:100C000084E0089583E0089585E008958093FE6A66
:100C10009093FF6A0895CF92DF92EF92FF921F9315
:100C2000CF93DF93CDB7DEB7142FCDB6DEB6443405
:100C300078F020E043E4612F82E50E946006809115
:100C40006E6C8F3F19F08F5F80936E6C80E02BC0CD
:100C500095E0940F492F50E0EDB7FEB7E41BF50B7C
:100C6000EDBFFEBF31967F01EDB7FEB79183909146
:100C70000560F701918382836383922FADB7BEB77E
:100C80001596F9018E2F891B8117B8F0BA016250B1
:100C90007109C7010E943D05F701E10FF11D848331
:100CA000C7010E945F07CDBEDEBEDF91CF911F91CD
:100CB000FF90EF90DF90CF90089581918D93E2CFD8
:100CC000EF92FF920F931F93CF93DF9300D000D04A
:100CD000CDB7DEB7182FE62EF42E022FE091666C0A
:100CE000F091676C309709F009958091656C8823C5
:100CF00071F0113561F01983EA82FB820C839E0149
:100D00002F5F3F4F44E068EE80E00E940B06249680
:100D1000CDBFDEBFDF91CF911F910F91FF90EF907C
:100D20000895E8E6FCE61082118212821382148292
:100D300015821682178220E040E060E083E80C9480
:100D40006006CF93682F40910360841740F020E045
:100D50008BE30E946006C0E08C2FCF910895E82FAE
:100D6000F0E0ED5AF449C08120E04C2F87E30E9467
:100D70006006F2CFEF92FF921F93CF93DF93C82FBD
:100D8000162F40910360841760F020E0682F8BE3FA
:100D90000E94600680E0DF91CF911F91FF90EF905D
:100DA000089590E09C012D5A34497901F901808120
:100DB0008617D1F0E091416CF091426CD62F3097BC
:100DC00059F08C2F0995D82F181731F0282F412F63
:100DD0006C2F8AE30E94600620E04D2F6C2F89E380
:100DE0000E946006F701D08381E0D5CFCF9320E049
:100DF00040E06091036084E30E946006C0E080915F
:100E00000360C81710F0CF91089560E08C2F0E9406
:100E1000BA06CF5FF4CFCF93C0E080910360C817CC
:100E200088F00E94E7008111FCCF62E48FEF94E12B
:100E30000E94D80020E040E06091036085E3CF91FC
:100E40000C9460060E94E7008111FCCF8C2F90E08B
:100E5000FC01ED5AF44960819C5E0E94D800CF5F8E
:100E6000DCCFCF938FEF94E10E94D50020E0823455
:100E700051F042E4682F83E30E9460060E94F60668
:100E8000CF910C940B0740E06091036082E30E94D5
:100E90006006C0E080910360C81710F0CF910895FC
:100EA0000E94E7008111FCCF8C2F90E09C5E0E9495
:100EB000D500682F8C2F0E94BA06CF5FEBCF30E0B1
:100EC00020E0F901EE5DF74940814F3F71F4DC010C
:100ED0004C9150E0240F351F2B3D324068F4BC018B
:100EE000CF010E940F0D81E008952A3D52E03507A1
:100EF00070F7240F311DE5CF20E040E060E081E590
:100F00000E94600680916F6C8F3F19F08F5F809315
:100F10006F6C80E008950F931F93CF93DF931F9220
:100F2000CDB7DEB790EF980F9F3EA0F19091026091
:100F3000981781F1182F80930260662349F0898306
:100F40009E012F5F3F4F41E06DEE8FEF0E940B0639
:100F500080914F6B9091506B892BE1F08091516B98
:100F60008823F1F01031E0F4012F819F000D11244E
:100F70004091526B040F802F0E94A10661E0811105
:100F800001C060E041E0400FE0914F6BF091506B89
:100F9000812F09950F90DF91CF911F910F910895A7
:100FA0000FEFEFCF0F931F93CF93DF93CDB7DEB744
:100FB0006497CDBFDEBF182F062F8091076089830D
:100FC000809106608A83809104608B838091706C2D
:100FD00091E089278C838FEE94E10E94D5008D8368
:100FE00080EF94E10E94D5008E8381EF94E10E940E
:100FF000D5008F8382EF94E10E94D500888783EF2C
:1010000094E10E94D500898784EF94E10E94D50085
:101010008A8785EF94E10E94D5008B8786EF94E163
:101020000E94D5008C8787EF94E10E94D5008D87C0
:1010300088EF94E10E94D5008E8789EF94E10E94A9
:10104000D5008F878AEF94E10E94D500888B8BEFC3
:1010500094E10E94D500898B8CEF94E10E94D50029
:101060008A8B8DEF94E10E94D5008B8B8EEF94E1FB
:101070000E94D5008C8B9E012F5F3F4F44E1602F73
:10108000812F0E940B066496CDBFDEBFDF91CF910A
:101090001F910F9108957F928F929F92AF92BF926E
:1010A000CF92DF92EF92FF920F931F93CF93DF9334
:1010B000CDB7DEB72897CDBFDEBFFC01ADB6BEB65B
:1010C000C0801181828003818BEFD82EDC0C8DB71C
:1010D0009EB78D1991098DBF9EBF01967C013496F4
:1010E000982FD7018A2F891B8D1570F0812F0E94B0
:1010F000EE058150823058F020E0412F602F81E6CC
:101100000E94600611E0E8C081918D93EBCF0F3F04
:1011100039F5D11007C041E068ED81E490E00E940C
:10112000C401FFCF92E0D91216C0F70190818181EE
:101130009F3F21F0209107602913E4CF8F3F21F0DA
:10114000909106609813DECF41E068ED81E490E075
:101150000E94C401FFCF2D2D42E06FEF80E6D0CF7B
:10116000013F51F420E040E060E083E50E9460062A
:1011700081E080930160C6CF003F49F420E040E069
:1011800060E084E50E94600610920160BBCF0D3ED6
:1011900061F4F1E02D2D41E06DEEDF12DFCF60E074
:1011A000F70180810E948B07ADCF0C3EF9F481E0FE
:1011B00080930860E091636CF091646C81E090E052
:1011C000309701F58BE2800F823008F0F1C0F1E03A
:1011D0002D2D42E0602FFD1508F69090706C99203F
:1011E00009F491C020E040E082E68ACF0B3E61F432
:1011F00010920860E091636CF091646C309711F389
:1012000090E080E00995DECF0A3E09F045C120E07C
:1012100040E060E081E80E94600681E08093656CB8
:1012200071CF073E19F40E9491066CCF053E09F577
:101230008091686C89838091696C8A8380916A6CE3
:101240008B8380916B6C8C8380916C6C8D8380918F
:101250006D6C8E8380916E6C8F8380916F6C8887AC
:101260009E012F5F3F4F48E066EE812F0E940B06E4
:1012700049CF033E29F430E020E040E064EEF5CFB2
:10128000003E29F461EE812F0E94D2073BCF0F3D33
:1012900051F41091706C20E040E06FED111119C015
:1012A0000E94F6062FCF0E3D51F41091706C20E095
:1012B00040E06EED11110DC00E940B0723CF0D3DD4
:1012C00009F080CF1091706C1123D1F020E040E044
:1012D0006DED82E60E946006812FADBEBEBE2896EF
:1012E000CDBFDEBFDF91CF911F910F91FF90EF90A7
:1012F000DF90CF90BF90AF909F908F907F90089598
:101300000E943107FFCE2FEF821204C020E040E0A0
:1013100083E6F6CEF701D0808D2D90E0FAEFCF0E68
:10132000D98220910360422F50E0D21670F04C2DEC
:101330006D2D8BE30E9460069E012F5F3F4F41E0C1
:10134000053D09F0DFCE68ED90CF2C1520F44C2D33
:101350006D2D8CE3EFCF8C0D911D4817590720F4AC
:101360004C2D6D2D8DE3E6CF20E04C2D6D2D88E3C7
:101370000E9460062FEFE21AF20A812C7724739400
:10138000F70161917F018D2D880D0E94BA06872596
:10139000982A83948C14A0F3053D09F0B3CE9E01E6
:1013A0002F5F3F4F41E067ED992009F45ECFCBCF2F
:1013B000003D09F06BC08DB69EB6F2E0DF1649F035
:1013C0002D2D42E060ED80E60E9460068DBE9EBE3F
:1013D00099CE8091706C882329F020E040E060ED88
:1013E00082E6F2CFF7010081C02ED12C71802091CE
:1013F0000360422F50E0021770F020E0472D602F6D
:101400008BE30E94600630E020E040E061ED812F38
:101410000E940B06DBCF271520F4472D602F8CE3AD
:10142000F0CFF2E4F71510F422E4F7CFE72CF12C1B
:10143000C7018C0D9D1D4817590720F4472D602FBB
:101440008DE3DFCF20E0472D602F86E30E9460060A
:101450002FEFE21AF20A8DB79EB78E199F098DBF42
:101460009EBF2DB73EB72F5F3F4FEDB7FEB701834D
:10147000F601ED5AF449D901119680E041E0480F98
:10148000871521F281918D93842FF8CF11E00023ED
:1014900009F422CF10E020CF093E09F0C2CE20E0AF
:1014A00040E060E082E80E9460061092656C2ACEFF
:1014B000E091026BF091036B309779F48091086BA7
:1014C0000E94CC0581110FC0E091006BF091016B7F
:1014D000309729F186E09BE6099486E09BE6099522
:1014E000882361F3F1CFE091FE6AF091FF6A3097B3
:1014F00081F486E09BE60E944B088111E5CFE091E4
:10150000FC6AF091FD6A3097F9F286E09BE6099556
:10151000DBCF86E09BE609958111D6CFEACF08950F
:101520001F93CF93DF93D2E0C1E00E941703811194
:1015300004C0DF91CF911F9108950E942603823449
:1015400019F4C093046BF1CF9091046B9923D1F0FF
:101550001092046B893919F4C0934E6BE6CF86362E
:1015600081F010924E6B20E040E060E081E40E9448
:1015700060068091696C8F3FC1F28F5F8093696CC8
:10158000D4CF82E490914E6B91110EC020E040E0E8
:1015900060E082E40E94600680916A6C8F3F29F2CD
:1015A0008F5F80936A6CC1CF9130E1F42BEF280FED
:1015B000243438F48093066B9093056BD0934E6B74
:1015C000B4CF10924E6B20E048E4682F83E40E9471
:1015D000600680916B6C8F3F09F4A7CF8F5F80937B
:1015E0006B6CA3CF923009F0A0CF9091056B209146
:1015F000066B921740F4E92FF0E0EA5FF44980832C
:101600009F5F9093056B6091066B8091056B6813EB
:101610008CCF10924E6B70E0FB01EB5FF4491081B0
:101620006250710986E09BE60E943D05181779F02B
:1016300020E0482F612F84E40E94600680916C6C4A
:101640008F3F09F472CF8F5F80936C6C6ECF809167
:10165000686C8F3F19F08F5F8093686C0E94580A06
:1016600064CF0F931F93CF93DF93C82FD0E00AED81
:1016700012E00C1B1D0BBE016E5D7749A80182E2D2
:1016800098E60E940F0DAE016FEF70E0C8018E5D0D
:101690009749DF91CF911F910F910C94180DEF9204
:1016A000FF920F931F93CF93DF93CDB7DEB7C8544C
:1016B000D109CDBFDEBF009122680F3F69F410E071
:1016C000812FC85BDF4FCDBFDEBFDF91CF911F9170
:1016D0000F91FF90EF900895402F50E062E278E67E
:1016E000CE0101960E940F0D80910160882339F38D
:1016F00080916D6C8F3F19F08F5F80936D6C802FA0
:101700000E94310BE0911E68F0911F68309751F0F4
:10171000CE0101960995182F882321F0802F0E9471
:10172000310BCECF8C81895F8430C8F40E942003B6
:101730008823E1F382E40E94C4030E942003182F4F
:101740008823D9F389E90E94C40300E0898108173E
:1017500098F01092206810922168B2CFA89520913D
:101760002068309121688091056090E0880F991F72
:101770008217930799F7DACF0E9420038823E1F3B9
:10178000EE24E394F12CEC0EFD1EE00EF11CF701AB
:1017900080810E94C403F7018081823439F40E9461
:1017A00020038823E1F386E60E94C4030F5FCECFB7
:1017B0000E94900A0E944F0B8111FCCF089569305E
:1017C00000F11092516B60E0982F2FE0629F900D16
:1017D0001124692F615F6F3EB8F010920360109280
:1017E000526B1092516B20E04EEE81E30E94600636
:1017F00020E040E06091036080E30E9460060C946A
:1018000031076093516BE0CF609303608093526B1C
:10181000EFCF0F931F93CF93DF9303E41CE6C0E851
:10182000D0E1CE010E94EC00F80181938F01219656
:10183000C03AF0E1DF07A9F76091436C8FEF860FA4
:101840008E3F08F453C081E08093076020E040E0C1
:1018500085E20E94600620E040E06091076084E23B
:101860000E9460066091446C8FEB860F8A3108F409
:1018700040C081E48093066020E040E087E20E945F
:10188000600620E040E06091066086E20E9460060B
:101890006091456C8FEF860F803F70F181E08093FF
:1018A000056020E040E081E20E94600620E040E028
:1018B0006091056080E20E9460066091466C66233C
:1018C00051F08FE0860F8E3030F020E040E083E270
:1018D0000E94600660EF6093046020E040E082E2D6
:1018E000DF91CF911F910F910C9460066093076078
:1018F000B2CF60930660C5CF60930560D7CFCF921B
:10190000DF92EF92FF920F931F93CF93DF936B01C0
:101910007C018091706CC7EF8111CFEED0E008E1BF
:1019200010E00E94E7008111FCCFC701B601002E34
:1019300004C096958795779567950A94D2F7CE015E
:101940009C5E0E94D800085011092196083F8FEF35
:10195000180739F743EF60E070E490E080E00E9400
:101960007A054BEF6FEF7FEF80E090E4DF91CF914E
:101970001F910F91FF90EF90DF90CF900C947A051C
:10198000BF92CF92DF92EF92FF920F931F93CF936C
:10199000DF93B82EC62FD42F79014AED52E06FEFB6
:1019A00070E082E298E60E94180DB092706C20E020
:1019B00040E060E080E10E9460060E94090C6D2F0B
:1019C0008C2F0E94DF0BC701B8010E947F0C83E2BD
:1019D00095E00E94670288E395E00E945C01E0E0E8
:1019E000F4E08189887F8360818B8091056090E03D
:1019F000880F991F0E94350262EE80E00E94D20794
:101A000020E040E060E081E1DF91CF911F910F91F4
:101A1000FF90EF90DF90CF90BF900C946006FB0199
:101A2000DC0102C001900D9241505040D8F708955A
:101A3000DC0101C06D9341505040E0F70895F894E7
:021A4000FFCFD6
:0A1A42000101FFEEF0014101010077
:02000004008278
:090000000A00000000D0100020ED
:02000004008377
:04000000A33A3AA342
:00000001FF
