:104000000C9448200C9465200C9465200C94652039
:104010000C9465200C945F220C94A2220C946520D1
:104020000C9416210C9465200C9465200C94F222BB
:104030000C9465200C9465200C9465200C946520EC
:104040000C9465200C9465200C9465200C946520DC
:104050000C9465200C94DB240C9465200C94652052
:104060000C947A210C9465200C9465200C946520A6
:104070000C9465200C944F210C9465200C94C8235B
:104080000C9465200C9465200C94A5210C9465205B
:1040900011241FBECFEFCDBFDFE7DEBF10E6A0E0EB
:1040A000B0E6E4EBF5E602C005900D92AE30B10744
:1040B000D9F72AE6AEE0B0E601C01D92A93BB207EF
:1040C000E1F70E9471280C94D8320C940020482FFC
:1040D0006DE980E090E10C942422E0E0F0E182813F
:1040E0008F78828308950E946D20109201100895A8
:1040F000FB0184910895FC01808108951F93CF9363
:10410000DF93EC01162F83E10E946720188380E083
:10411000DF91CF911F910C946720809102108695BA
:1041200081700895FC01808108950895089508958F
:1041300008950895CF93DF9380E094E029E0FC0197
:104140002083C0E4D4E021E02883A0E6B4E030E49A
:104150003C9340EA54E0FA011082FC0124832C8352
:1041600014961C921497FA011482FC01108A118A89
:10417000128A138A148A158A168A178A188A198A43
:104180001A8A1B8A1C8A1D8A1E8A1F8A50961C92B4
:10419000509751961C92519752961C925297539653
:1041A0001C92539754961C92549755961C9255976F
:1041B00056961C92569757961C92FA01108A118AAD
:1041C000128A138A148A158A168A178AE0EEF5E095
:1041D0001182108215821782108611861682128231
:1041E00085E990E2809316609093176087E990E2EA
:1041F000809314609093156088E990E28093126038
:104200009093136089E990E280931060909311601D
:1042100086E990E280930E6090930F60DF91CF91DA
:104220000895809316609093176008951F920F92DF
:104230000FB60F9211242F933F934F935F936F9379
:104240007F938F939F93AF93BF93EF93FF93199BAC
:1042500005C0E0911660F09117600995189B05C0A4
:10426000E0911460F091156009951B9B05C0E091E9
:104270001260F091136009958FEF83B9FF91EF9170
:10428000BF91AF919F918F917F916F915F914F916E
:104290003F912F910F900FBE0F901F9018951F9276
:1042A0000F920FB60F9211242F933F934F935F936A
:1042B0006F937F938F939F93AF93BF93EF93FF93EE
:1042C000589B05C0E0911060F091116009958FEF47
:1042D0008BB9FF91EF91BF91AF919F918F917F919A
:1042E0006F915F914F913F912F910F900FBE0F9063
:1042F0001F9018951F920F920FB60F9211242F93B3
:104300003F934F935F936F937F938F939F93AF935D
:10431000BF93EF93FF937E9B05C0E0910E60F091F9
:104320000F6009958FEF8FB9FF91EF91BF91AF911A
:104330009F918F917F916F915F914F913F912F91BD
:104340000F900FBE0F901F9018951F920F920FB6EF
:104350000F9211248F938FEF87BB8F910F900FBE19
:104360000F901F90189540E068ED80E191E00E9469
:104370002422E0E1F1E01282138280E00895462FCA
:1043800068ED0C94242260E080E690E00E94BF215A
:1043900060E081E690E00E94BF2160E085E690E069
:1043A0000E94BF2160E088E790E00E94BF2164E2A4
:1043B00088E690E00E94BF2160E089E690E00E94DC
:1043C000BF2160E080E790E00E94BF2160E08CE7C1
:1043D00090E00E94BF2160E082E690E00E94BF2151
:1043E00060E083E690E00E94BF2160E084E690E018
:1043F0000E94BF2160E080E890E00E94BF21809190
:10440000650081FFFCCF08954AE068ED80E091E00F
:104410000E94242240E868ED81E091E00E9424227D
:1044200080E008950E94C3210E949A200E94732078
:104430000E9432220E94CF220E94EC230E941E235F
:104440000E9404220C94B321FC0164BF40830895B0
:10445000019708F40895EFE6F7E13197F1F700C00E
:104460000000F6CF809141018111FCCF8FEF9FE7D3
:1044700080934C0190934D01109248011092490194
:104480008FEF9FEF80934A0190934B011092470169
:104490001092420110924501809151018111FCCF8F
:1044A00081E0809352011092550181E18093500187
:1044B00080E00895809318609093196008951F928A
:1044C0000F920FB60F9211242F933F934F935F9348
:1044D0006F937F938F939F93AF93BF93EF93FF93CC
:1044E0008091420180FF0BC08091430180FF07C093
:1044F000E0911C60F0911D60309709F00995809162
:10450000420181FF0BC08091430181FF07C0E09110
:104510001A60F0911B60309709F0099583E0809351
:104520004301FF91EF91BF91AF919F918F917F9147
:104530006F915F914F913F912F910F900FBE0F9010
:104540001F9018951F920F920FB60F9211242F9360
:104550003F934F935F936F937F938F939F93AF930B
:10456000BF93EF93FF93E0911860F091196030973B
:1045700009F0099581E080935301FF91EF91BF917C
:10458000AF919F918F917F916F915F914F913F91EB
:104590002F910F900FBE0F901F9018950895E0E097
:1045A000FAE010A611A612A613A614A615A610A22C
:1045B00011A211821282138214821582168217822E
:1045C0001686118680E18287138689EE90E086A3A5
:1045D00097A317868FE0808308958093006090935F
:1045E000016008951F920F920FB60F9211242F931E
:1045F0003F934F935F936F937F938F939F93AF936B
:10460000BF93EF93FF93E0910060F09101603097CA
:1046100009F0099580E180930B0AFF91EF91BF911A
:10462000AF919F918F917F916F915F914F913F914A
:104630002F910F900FBE0F901F90189580E693E278
:104640008093A66A9093A76AE0E2F8E081E493E0A1
:104650008087918780E9858380E4868383E08783F0
:10466000138614861686158685EC93E28093A86AD5
:104670009093A96A87EC93E28093AA6A9093AB6ABD
:1046800086EC93E28093AD6A9093AE6A10922060BC
:104690001092216010923B6010923A601092AC6AC6
:1046A00085818068858308958091240885FB88270B
:1046B00080F908958091240886FB882780F9089561
:1046C000E0913B60F0E0EE0FFF1FEE5DFF491082CE
:1046D00011828091210882FF11C0E0913B60F0E0DF
:1046E000EE0FFF1FEE5DFF49808182608083E091C5
:1046F000A86AF091A96A309709F00995809121087C
:1047000081FF0CC080912060816080932060E091E7
:10471000AD6AF091AE6A309709F009958091210851
:1047200086FF11C0E0913B60F0E0EE0FFF1FEE5DF1
:10473000FF49808184608083E091AA6AF091AB6A2E
:10474000309709F009959091200880913B608F5F28
:10475000877020913A60281769F0E0913B60F0E0A3
:10476000EE5CFF49908380933B608091AC6A8F5FE1
:104770008093AC6AE0911E60F0911F60309709F061
:10478000099408958093220808950895089508953E
:104790001F920F920FB60F9211242F933F934F93B6
:1047A0005F936F937F938F939F93AF93BF93EF9399
:1047B000FF930E946023FF91EF91BF91AF919F9172
:1047C0008F917F916F915F914F913F912F910F90BA
:1047D0000FBE0F901F90189584E694E28093AF6A05
:1047E0009093B06AE0E0F8E080EC90E080879187F9
:1047F00081E9858380EC868383E087831386148632
:104800001686158688ED94E28093B56A9093B66A11
:104810008AED94E28093B16A9093B26A89ED94E252
:104820008093B76A9093B86A10923E6010923F608E
:104830001092426610924366109240661092416652
:104840001092B36A1092B46A858180688583089556
:104850002091B36A3091B46A81E0232B09F480E09F
:1048600008958091040885FB882780F90895E091D8
:104870004066F0914166E05CFB4980812091406692
:10488000309141662F5F3F4F3170209340663093E7
:104890004166909105089F77909305082091B36A2F
:1048A0003091B46A232B51F02091B36A3091B46AED
:1048B000215031092093B36A3093B46A909105086E
:1048C0009068909305080895E0914266F0914366E0
:1048D000EE0FFF1FE05CFF491082118280910108FA
:1048E00082FF12C0E0914266F0914366EE0FFF1F17
:1048F000E05CFF49808182608083E091B56AF0913D
:10490000B66A309709F009958091010881FF0CC0C3
:1049100080913E60816080933E60E091B76AF09143
:10492000B86A309709F009958091010886FF12C096
:10493000E0914266F0914366EE0FFF1FE05CFF4995
:10494000808184608083E091B16AF091B26A30978F
:1049500009F0099520910008809142669091436684
:1049600001969170409140665091416648175907F1
:10497000A1F0E0914266F0914366E05CFB49208340
:1049800080934266909343668091B36A9091B46A33
:1049900001968093B36A9093B46AE0913C60F09181
:1049A0003D60309709F009940895809302080895B6
:1049B0000895089508951F920F920FB60F92112433
:1049C0002F933F934F935F936F937F938F939F9317
:1049D000AF93BF93EF93FF930E946424FF91EF91F5
:1049E000BF91AF919F918F917F916F915F914F9107
:1049F0003F912F910F900FBE0F901F901895FC01C3
:104A0000808180934866818180934766828180930C
:104A1000036081E0809349660895FC018081809560
:104A2000809302608181809344668281823008F0A5
:104A300080E081708093456680914566882341F0CF
:104A40008BE295E20E94ED2281E080934966089511
:104A500090E080E0F7CF809104608823E9F08091B6
:104A600047668823C9F0809103608823A9F080916C
:104A700046668F5F8093466690914666809102609D
:104A8000981750F010924666809148668F5F809329
:104A9000486681E0809349660895CF93C82F0E94AD
:104AA00054238823E1F38C2FCF910C94C2239F923F
:104AB000AF92BF92CF92DF92EF92FF920F931F932C
:104AC000CF93DF93CDB7DEB7CDB6DEB694E0992EA7
:104AD000940EA92CB12CEDB7FEB7EA19FB09EDBF76
:104AE000FEBF0DB71EB70F5F1F4F9182F801818384
:104AF00062838DB79EB70496E42EF12CA701B9010D
:104B00000E94C832B50162507109C8010E94BD28D7
:104B1000F801EE0DFF1D83830E945A238823E1F3E1
:104B200082E40E944D2589E90E944D25B02E78012E
:104B30008E2D8B19891570F0CDBEDEBEDF91CF9121
:104B40001F910F91FF90EF90DF90CF90BF90AF90AB
:104B50009F900895F70181917F010E944D25F701F3
:104B600031978081823421F786E60E944D25E0CF7F
:104B7000CF93DF9300D01F92CDB7DEB769834A830E
:104B80002B839E012F5F3F4F43E061E00E9457253A
:104B90002396CDBFDEBFDF91CF91089530E020E0B6
:104BA00040E062E08FEF0C9457252F923F924F9296
:104BB0005F926F927F928F929F92AF92BF92CF92AD
:104BC000DF92EF92FF920F931F93CF93DF93809129
:104BD0000460882309F418C290914E66992309F461
:104BE00013C220914D66222309F40EC2209145661E
:104BF000211153C09130D9F0609148662091036033
:104C0000409147668FEFDF91CF911F910F91FF90F9
:104C1000EF90DF90CF90BF90AF909F908F907F905C
:104C20006F905F904F903F902F900C94B8258130FB
:104C300009F48CC080910460823011F560910360AA
:104C400070E090E080E00E94C3316B017C016091D4
:104C50004D6670E06F5F7F4F072E000C880B990B3D
:104C60000E94C3319B01AC01C701B6010E942031F3
:104C70006B017C01C0E060914D66C61708F468C006
:104C800080910460833049F460914866209103600C
:104C9000409147668FEF0E94B82580914566882332
:104CA00009F4B2C18091446666E00E94BC32682F6C
:104CB00070E090E080E00E94C3316B017C01809144
:104CC0000460813009F45CC080910460823009F096
:104CD00009C1C0914D666091036070E090E080E092
:104CE0000E94C3314B015C016C2F70E06F5F7F4FFE
:104CF000072E000C880B990B0E94C3319B01AC015D
:104D0000C501B4010E9420314B015C0180914E66C7
:104D1000823021F410E0C23008F0E0C0C0E042C1AF
:104D200040914766C1E0C80F90914C66609148661B
:104D300020910360891708F020E08C2F0E94B8258D
:104D40008C2F90914D66891758F374CF80E0F9CF7E
:104D50006C1B770B072E000C880B990B0E94C3313C
:104D6000A70196010E944F320E949231262F609136
:104D70004866CF5F409147668C2F0E94B8257BCF55
:104D800080914E66C0E0823031F480914D66C0E083
:104D9000823008F059C080914D66C81708F094CF52
:104DA0001091476660914B6670E090E080E00E9451
:104DB000C331A70196010E944F324B015C01D1E043
:104DC000DC0F80914C666091486670E090E0C817F7
:104DD00008F03FC080E00E94C331A50194010E9409
:104DE000B4300E94923120910360412F8D2F0E9498
:104DF000B825CD2FD0CFD091486660914B666C0F0F
:104E00007727771F072E000C880B990B0E94C33160
:104E1000A70196010E944F324B015C016D2F70E09B
:104E200090E080E00E94C3319B01AC01C501B40158
:104E30000E94B4300E949231CF5F20910360409174
:104E400047668C2F0E94B82580914D66C81798F24E
:104E50003BCF80E00E94C331A50194010E94B43091
:104E60000E94923120E0C1CFC12FD0E0009148666E
:104E70001F5F70E06C1B7D0B072E000C880B990BDD
:104E80000E94C331A50194010E944F320E949231C9
:104E9000762E60914B666C0F7D2F711D072E000CD6
:104EA000880B990B0E94C331A70196010E944F32D3
:104EB0001B012C01602F70E090E080E00E94C33164
:104EC0009B01AC01C201B1010E94B4300E94923139
:104ED000272D40914766812F0E94B82560914D662D
:104EE000161710F280910460833009F08DC0809114
:104EF0004E66823031F480914D66C0E0823008F019
:104F00007FC0C091486660914B6670E090E080E0A1
:104F10000E94C331A70196010E944F326B017C01B0
:104F20006C2F70E090E080E00E94C3319B01AC01E7
:104F3000C701B6010E94B4300E9492315FCE6C1B53
:104F4000770B072E000C880B990B0E94C331A5012B
:104F500094010E944F320E949231D62F10914866E0
:104F6000CF5F60914B6670E090E080E00E94C331BB
:104F7000A70196010E944F322B013C01612F70E086
:104F800090E080E00E94C3319B01AC01C301B201FB
:104F90000E94B4300E9492312D2F409147668C2F91
:104FA0000E94B82560914D66C61748F29BCFD091FC
:104FB000486660914B666C0F7727771F072E000CB1
:104FC000880B990B0E94C331A70196010E944F32B2
:104FD0004B015C016D2F70E090E080E00E94C331D6
:104FE0009B01AC01C501B4010E94B4300E94923112
:104FF000CF5F20910360409147668C2F0E94B825B7
:1050000080914D66C81798F2DF91CF911F910F9153
:10501000FF90EF90DF90CF90BF90AF909F908F90D8
:105020007F906F905F904F903F902F90089576996A
:1050300007C080E4809365048CE291E00C94282200
:105040000895863038F4811107C0643008F060E0BC
:1050500060934A66862F0895813041F4662321F0DB
:105060000E9417280E94CE2560E0F4CF823019F408
:1050700060934D66EFCF833031F4633008F060E029
:1050800060934E66E7CF843041F480914D66861779
:1050900008F4682F60934C66DDCF8530D9F66093B5
:1050A0004B66D8CF769B0DC020E040E060E08FEFEC
:1050B0000E94B8258CE291E00E94282280E480932F
:1050C0006604089580914A668093046080914A66E0
:1050D000882321F00E9417280C94D5250E9452287D
:1050E000FBCF0E941222789480E00E944D250E94FE
:1050F000522881E298E20E9480298DE095E20E9488
:105100007B298FEF94E20E94762900E212E52FEFCF
:1051100035E640E066E080E00E9464300E94D525DC
:1051200080914966882321F0109249660E94D52516
:1051300090914A668091046098130E9462280E94B0
:105140007C2FA895EDCF8091516690915266019683
:105150008093516690935266809151669091526609
:10516000803E914020F01092516610925266089550
:1051700010925166109252660895FC01680F791FD3
:105180008FEF91E3E617F70709F40895219182273D
:1051900028E030E087FF06C0880F892721503109B9
:1051A000C9F7F0CF880FFACFCF92DF92EF92FF923C
:1051B000642728E06B017C01F694E794D794C794A8
:1051C00061707727882799279095809570956195CC
:1051D0007F4F8F4F9F4F60727378887B9D7E6C25C9
:1051E0007D258E259F25215029F7FF90EF90DF9098
:1051F000CF9008958F929F92AF92BF92CF92DF92FD
:10520000EF92FF920F931F93CF93DF938B01C42FE5
:105210006C01F12CE12C88248A94982C5401C0163E
:10522000D10648F1D0E008E110E00E948D20811104
:10523000FCCFC501B401002E04C0969587957795E3
:1052400067950A94D2F7CE019C5E0E947E2008509A
:1052500011092196083F8FEF180739F7DF91CF9199
:105260001F910F91FF90EF90DF90CF90BF90AF9084
:105270009F908F900895C701B6010E947820482F13
:10528000C501B4010E94D4284B015C018FEFC81AFC
:10529000D80AE80AF80AC3CF982F809109608917C5
:1052A00059F080910860981302C0911105C081E007
:1052B0009F3F19F080E0089581E00895882361F010
:1052C000813061F0803F61F09FE0980F9E3050F098
:1052D0008F3F51F081E0089580E0089582E00895C5
:1052E00084E0089583E0089585E008958093746ACA
:1052F0009093756A08958093766A9093776A08957B
:105300008093726A9093736A0895CF92DF92EF92BE
:10531000FF921F93CF93DF93CDB7DEB7142FCDB697
:10532000DEB6443478F020E043E4612F82E50E9449
:10533000DA298091A36A8F3F19F08F5F8093A36A67
:1053400080E02BC095E0940F492F50E0EDB7FEB7F9
:10535000E41BF50BEDBFFEBF31967F01EDB7FEB745
:10536000918390910960F701918382836383922FE7
:10537000ADB7BEB71596F9018E2F891B8117B8F00E
:10538000BA0162507109C7010E94BD28F701E10FFF
:10539000F11D8483C7010E94E02ACDBEDEBEDF91ED
:1053A000CF911F91FF90EF90DF90CF900895819162
:1053B0008D93E2CFEF92FF920F931F93CF93DF93E2
:1053C00000D000D0CDB7DEB7182FE62EF42E022F76
:1053D000E0919B6AF0919C6A309709F00995809161
:1053E0009A6A882371F0113561F01983EA82FB8291
:1053F0000C839E012F5F3F4F44E068EE80E00E94E7
:1054000085292496CDBFDEBFDF91CF911F910F91EB
:10541000FF90EF900895EDE9FAE610821182128272
:105420001382148215821682178220E040E060E029
:1054300083E80C94DA29CF93682F40910760841792
:1054400040F020E08BE30E94DA29C0E08C2FCF915E
:105450000895E82FF0E0EC57F649C08120E04C2F8A
:1054600087E30E94DA29F2CFEF92FF921F93CF9346
:10547000DF93C82F162F80910760C81768F020E0CF
:10548000482F6C2F8BE30E94DA2980E0DF91CF91C7
:105490001F91FF90EF9008958C2F90E09C012C5766
:1054A00036497901411104C0F90180818617D9F08C
:1054B000E091726AF091736AD12F309761F0612F99
:1054C0008C2F0995D82F181731F0282F412F6C2FCA
:1054D0008AE30E94DA2920E04D2F6C2F89E30E9495
:1054E000DA29F701D08381E0D1CFCF9320E040E0EB
:1054F0006091076084E30E94DA29C0E08091076030
:10550000C81710F0CF91089541E060E08C2F0E9401
:10551000342ACF5FF3CFCF93C0E080910760C817E4
:1055200088F00E948D208111FCCF62E48FEF94E11E
:105530000E947E2020E040E06091076085E3CF91EB
:105540000C94DA290E948D208111FCCF8C2F90E0E1
:10555000FC01EC57F64960819C5E0E947E20CF5F83
:10556000DCCFCF938FEF94E10E947B2020E0823448
:1055700051F042E4682F83E30E94DA290E94752AE1
:10558000CF910C948B2A40E06091076082E30E94E7
:10559000DA29C0E080910760C81710F0CF91089514
:1055A0000E948D208111FCCF8C2F90E09C5E0E9488
:1055B0007B2041E0682F8C2F0E94342ACF5FEACFF6
:1055C00030E020E0F901ED5AF94940814F3F71F494
:1055D000DC014C9150E0240F351F2B3D324068F424
:1055E000BC01CF010E94C83281E008952A3D52E0FB
:1055F000350770F7240F311DE5CF20E040E060E073
:1056000081E50E94DA298091A46A8F3F19F08F5FAB
:105610008093A46A80E008950F931F93CF93DF9344
:105620001F92CDB7DEB790EF980F9F3EA0F19091FB
:105630000660981781F1182F80930660662349F061
:1056400089839E012F5F3F4F41E06DEE8FEF0E94F7
:1056500085298091806990918169892BE1F0809101
:1056600082698823F1F01031E0F4012F819F000D51
:10567000112440918369040F802F0E941B2A61E04E
:10568000811101C060E041E0400FE0918069F0913C
:105690008169812F09950F90DF91CF911F910F9113
:1056A00008950FEFEFCF0F931F93CF93DF93CDB7F5
:1056B000DEB76497CDBFDEBF182F062F80910B6039
:1056C000898380910A608A83809108608B838091AE
:1056D000A56A91E089278C838FEE94E10E947B205C
:1056E0008D8380EF94E10E947B208E8381EF94E193
:1056F0000E947B208F8382EF94E10E947B20888729
:1057000083EF94E10E947B20898784EF94E10E94DB
:105710007B208A8785EF94E10E947B208B8786EF30
:1057200094E10E947B208C8787EF94E10E947B208C
:105730008D8788EF94E10E947B208E8789EF94E12A
:105740000E947B208F878AEF94E10E947B20888BC8
:105750008BEF94E10E947B20898B8CEF94E10E9477
:105760007B208A8B8DEF94E10E947B208B8B8EEFC8
:1057700094E10E947B208C8B9E012F5F3F4F44E180
:10578000602F812F0E9485296496CDBFDEBFDF91F7
:10579000CF911F910F9108957F928F929F92AF9218
:1057A000BF92CF92DF92EF92FF920F931F93CF930E
:1057B000DF93CDB7DEB72897CDBFDEBFFC01ADB616
:1057C000BEB6E0801181828003818BEFF82EFE0C43
:1057D0008DB79EB78F1991098DBF9EBF01966C0141
:1057E0003496982FD6018A2F891B8F1570F0812F40
:1057F0000E945E298150823058F020E0412F602FB6
:1058000081E60E94DA2911E0E8C081918D93EBCF07
:105810000F3F39F5F11007C041E068ED81E490E0F9
:105820000E942422FFCF92E0F91216C0F601908167
:1058300081819F3F21F020910B602913E4CF8F3F9E
:1058400021F090910A609813DECF41E068ED81E489
:1058500090E00E942422FFCF2F2D42E06FEF80E6E0
:10586000D0CF013F51F420E040E060E083E50E94AA
:10587000DA2981E080930560C6CF003F49F420E03B
:1058800040E060E084E50E94DA2910920560BBCF19
:105890000D3E61F4F1E02F2D41E06DEEFF12DFCF00
:1058A00060E0F60180810E940C2BADCF0C3EF9F434
:1058B00081E080930C60E091986AF091996A81E0B0
:1058C00090E0309701F58BE2800F823008F0F2C053
:1058D000F1E02F2D42E0602FFF1508F69090A56AA9
:1058E000992009F491C020E040E082E68ACF0B3E87
:1058F00061F410920C60E091986AF091996A309787
:1059000011F390E080E00995DECF0A3E09F068C10E
:1059100020E040E060E081E80E94DA2981E08093A5
:105920009A6A71CF073E19F40E940B2A6CCF053E8C
:1059300009F580919D6A898380919E6A8A8380910E
:105940009F6A8B838091A06A8C838091A16A8D83EA
:105950008091A26A8E838091A36A8F838091A46ACA
:1059600088879E012F5F3F4F48E066EE812F0E949F
:10597000852949CF033E29F430E020E040E064EE81
:10598000F5CF003E29F461EE812F0E94532B3BCFCF
:105990000F3D51F41091A56A20E040E06FED111128
:1059A00019C00E94752A2FCF0E3D51F41091A56A9F
:1059B00020E040E06EED11110DC00E948B2A23CF34
:1059C0000D3D09F080CF1091A56A1123D1F020E0A0
:1059D00040E06DED82E60E94DA29812FADBEBEBEA9
:1059E0002896CDBFDEBFDF91CF911F910F91FF9021
:1059F000EF90DF90CF90BF90AF909F908F907F906F
:105A000008950E94B12AFFCE2FEF821204C020E039
:105A100040E083E6F6CEF601F0808F2D90E0FAEFBD
:105A2000EF0EF98220910760422F50E0F21670F0DD
:105A30004E2D6F2D8BE30E94DA299E012F5F3F4F81
:105A400041E0053D09F0DFCE68ED90CF2E1520F442
:105A50004E2D6F2D8CE3EFCF8E0D911D48175907FA
:105A600020F44E2D6F2D8DE3E6CF20E04E2D6F2DCF
:105A700088E30E94DA292FEFC21AD20A812C7724F8
:105A80007394F60161916F0140E08F2D880D0E94A3
:105A9000342A8725982A83948E1498F3053D09F0BB
:105AA000B2CE9E012F5F3F4F41E067ED992009F490
:105AB0005DCFCACF003D09F06BC08DB69EB6F2E057
:105AC000FF1649F02F2D42E060ED80E60E94DA29B2
:105AD0008DBE9EBE98CE8091A56A882329F020E0D5
:105AE00040E060ED82E6F2CFF6010081E02EF12C7D
:105AF000718020910760422F50E0021770F020E083
:105B0000472D602F8BE30E94DA2930E020E040E04F
:105B100061ED812F0E948529DBCF271520F4472DC9
:105B2000602F8CE3F0CFF2E4F71510F422E4F7CF06
:105B3000C72CD12CC6018E0D9F1D4817590720F484
:105B4000472D602F8DE3DFCF20E0472D602F86E3C8
:105B50000E94DA292FEFC21AD20A8DB79EB78C198C
:105B60009D098DBF9EBF2DB73EB72F5F3F4FEDB74D
:105B7000FEB70183F701EC57F649D901119680E091
:105B800041E0480F871521F281918D93842FF8CF42
:105B9000013B99F4F3E02F2D43E061EBFF125FCE60
:105BA000E091766AF091776A309711F0C601099515
:105BB00011E0002309F411CF11C0003BC9F723E025
:105BC000F21621F02F2D43E060EB49CEE091746A8C
:105BD000F091756A309711F0C601099510E0FDCE7D
:105BE000093E09F09FCE20E040E060E082E80E949C
:105BF000DA2910929A6A07CEE0913369F0913469FC
:105C0000309779F4809139690E944C2981110FC035
:105C1000E0913169F0913269309729F187E399E693
:105C2000099487E399E60995882361F3F1CFE09120
:105C30002F69F0913069309781F487E399E60E94EB
:105C4000CC2B8111E5CFE0912D69F0912E69309731
:105C5000F9F287E399E60995DBCF87E399E60995A1
:105C60008111D6CFEACF08951F93CF93DF93D2E06F
:105C7000C1E00E942824811104C0DF91CF911F91BF
:105C800008950E943724823419F4C0933569F1CF06
:105C9000909135699923D1F010923569893919F4B9
:105CA000C0937F69E6CF863681F010927F6920E04D
:105CB00040E060E081E40E94DA2980919E6A8F3F93
:105CC000C1F28F5F80939E6AD4CF82E490917F6906
:105CD00091110EC020E040E060E082E40E94DA29E9
:105CE00080919F6A8F3F29F28F5F80939F6AC1CF17
:105CF0009130E1F42BEF280F243438F48093376986
:105D000090933669D0937F69B4CF10927F6920E079
:105D100048E4682F83E40E94DA298091A06A8F3FCB
:105D200009F4A7CF8F5F8093A06AA3CF923009F0C8
:105D3000A0CF9091366920913769921740F4E92FEE
:105D4000F0E0E95CF64980839F5F9093366960914B
:105D500037698091366968138CCF10927F6970E043
:105D6000FB01EA5CF64910816250710987E399E60C
:105D70000E94BD28181779F020E0482F612F84E495
:105D80000E94DA298091A16A8F3F09F472CF8F5F58
:105D90008093A16A6ECF80919D6A8F3F19F08F5FCB
:105DA00080939D6A0E94FC2D64CF0F931F93CF9325
:105DB000DF93C82FD0E00AED12E00C1B1D0BBE01D3
:105DC0006D5A7949A80183E596E60E94C832AE0172
:105DD0006FEF70E0C8018D5A9949DF91CF911F9103
:105DE0000F910C94D132EF92FF920F931F93CF93A8
:105DF000DF93CDB7DEB7C854D109CDBFDEBF009168
:105E000053660F3F69F410E0812FC85BDF4FCDBFB1
:105E1000DEBFDF91CF911F910F91FF90EF9008951A
:105E2000402F50E063E576E6CE0101960E94C8322D
:105E300080910560882339F38091A26A8F3F19F021
:105E40008F5F8093A26A802F0E94D52EE0914F66CB
:105E5000F0915066309751F0CE0101960995182FB8
:105E6000882321F0802F0E94D52ECECF8C81895F90
:105E70008430C8F40E9431248823E1F382E40E9434
:105E8000D5240E943124182F8823D9F389E90E9450
:105E9000D52400E08981081798F01092516610927D
:105EA0005266B2CFA895209151663091526680918A
:105EB000096090E0880F991F8217930799F7DACF4E
:105EC0000E9431248823E1F3EE24E394F12CEC0EBC
:105ED000FD1EE00EF11CF70180810E94D524F70120
:105EE0008081823439F40E9431248823E1F386E6EC
:105EF0000E94D5240F5FCECF0E94342E0E94F32E35
:105F00008111FCCF0895693000F11092826960E040
:105F1000982F2FE0629F900D1124692F615F6F3ED3
:105F2000B8F010920760109283691092826920E0A5
:105F30004EEE81E30E94DA2920E040E060910760A4
:105F400080E30E94DA290C94B12A60938269E0CF41
:105F50006093076080938369EFCF0F931F93CF9374
:105F6000DF9308E71AE6C0E8D0E1CE010E94922054
:105F7000F80181938F012196C03AF0E1DF07A9F77C
:105F80006091786A8FEF860F8E3F08F453C081E0EE
:105F900080930B6020E040E085E20E94DA2920E057
:105FA00040E060910B6084E20E94DA296091796A96
:105FB0008FEB860F8A3108F440C081E480930A6039
:105FC00020E040E087E20E94DA2920E040E0609192
:105FD0000A6086E20E94DA2960917A6A8FEF860F62
:105FE000803F70F181E08093096020E040E081E231
:105FF0000E94DA2920E040E06091096080E20E947E
:10600000DA2960917B6A662351F08FE0860F8E302B
:1060100030F020E040E083E20E94DA2960EF6093F4
:10602000086020E040E082E2DF91CF911F910F9164
:106030000C94DA2960930B60B2CF60930A60C5CFED
:1060400060930960D7CFCF92DF92EF92FF920F93C8
:106050001F93CF93DF936B017C018091A56AC7EFFB
:106060008111CFEED0E008E110E00E948D20811177
:10607000FCCFC701B601002E04C096958795779591
:1060800067950A94D2F7CE019C5E0E947E2008504C
:1060900011092196083F8FEF180739F743EF60E0A9
:1060A00070E490E080E00E94FA284BEF6FEF7FEF02
:1060B00080E090E4DF91CF911F910F91FF90EF90DE
:1060C000DF90CF900C94FA28BF92CF92DF92EF929C
:1060D000FF920F931F93CF93DF93B82EC62FD42F29
:1060E00079014AED52E06FEF70E083E596E60E9499
:1060F000D132B092A56A20E040E060E080E10E94E9
:10610000DA290E94AD2F6D2F8C2F0E94832FC7019B
:10611000B8010E94233083EA98E20E945A2288EB59
:1061200098E20E941121E0E0F4E08189887F836099
:10613000818B8091096090E0880F991F0E9428222E
:1061400062EE80E00E94532B20E040E060E081E1BD
:10615000DF91CF911F910F91FF90EF90DF90CF9043
:10616000BF900C94DA295058BB27AA270E94CB3045
:106170000C9415320E94073238F00E940E3220F043
:1061800039F49F3F19F426F40C9404320EF4E09590
:10619000E7FB0C94FE31E92F0E94263258F3BA1720
:1061A000620773078407950720F079F4A6F50C942D
:1061B00048320EF4E0950B2EBA2FA02D0B01B90139
:1061C00090010C01CA01A0011124FF27591B99F06D
:1061D000593F50F4503E68F11A16F040A22F232F79
:1061E000342F4427585FF3CF469537952795A795C9
:1061F000F0405395C9F77EF41F16BA0B620B730B70
:10620000840BBAF09150A1F0FF0FBB1F661F771FE0
:10621000881FC2F70EC0BA0F621F731F841F48F495
:10622000879577956795B795F7959E3F08F0B0CF1E
:106230009395880F08F09927EE0F97958795089505
:106240000E9434310C9415320E940E3258F00E9494
:10625000073240F029F45F3F29F00C94FE315111D0
:106260000C9449320C9404320E94263268F399232C
:10627000B1F3552391F3951B550BBB27AA27621742
:106280007307840738F09F5F5F4F220F331F441F4F
:10629000AA1FA9F335D00E2E3AF0E0E832D0915083
:1062A0005040E695001CCAF72BD0FE2F29D0660F70
:1062B000771F881FBB1F261737074807AB07B0E8B3
:1062C00009F0BB0B802DBF01FF2793585F4F3AF0B9
:1062D0009E3F510578F00C94FE310C9449325F3F9B
:1062E000E4F3983ED4F3869577956795B795F7953F
:1062F0009F5FC9F7880F911D9695879597F9089527
:10630000E1E0660F771F881FBB1F621773078407C2
:10631000BA0720F0621B730B840BBA0BEE1F88F7D1
:10632000E09508950E942E3288F09F5798F0B92F7B
:106330009927B751B0F0E1F0660F771F881F991FBA
:106340001AF0BA95C9F714C0B13091F00E944832E2
:10635000B1E008950C944832672F782F8827B85FF2
:1063600039F0B93FCCF3869577956795B395D9F712
:106370003EF490958095709561957F4F8F4F9F4F1C
:106380000895E89409C097FB3EF490958095709528
:1063900061957F4F8F4F9F4F9923A9F0F92F96E971
:1063A000BB279395F695879577956795B795F111E6
:1063B000F8CFFAF4BB0F11F460FF1BC06F5F7F4F83
:1063C0008F4F9F4F16C0882311F096E911C0772395
:1063D00021F09EE8872F762F05C0662371F096E89E
:1063E000862F70E060E02AF09A95660F771F881F6D
:1063F000DAF7880F9695879597F9089597F99F672B
:1064000080E870E060E008959FEF80EC089500243C
:106410000A941616170618060906089500240A9409
:1064200012161306140605060895092E0394000C8F
:1064300011F4882352F0BB0F40F4BF2B11F460FF1E
:1064400004C06F5F7F4F8F4F9F4F089557FD905847
:10645000440F551F59F05F3F71F04795880F97FB28
:10646000991F61F09F3F79F08795089512161306E2
:106470001406551FF2CF4695F1DF08C01616170611
:106480001806991FF1CF8695710561050894089546
:10649000E894BB2766277727CB0197F908950E94D8
:1064A00062320C9415320E94073238F00E940E328C
:1064B00020F0952311F00C94FE310C940432112439
:1064C0000C9449320E94263270F3959FC1F3950FC8
:1064D00050E0551F629FF001729FBB27F00DB11D68
:1064E000639FAA27F00DB11DAA1F649F6627B00DF8
:1064F000A11D661F829F2227B00DA11D621F739FE1
:10650000B00DA11D621F839FA00D611D221F749FEE
:106510003327A00D611D231F849F600D211D822F35
:10652000762F6A2F11249F5750409AF0F1F088235C
:106530004AF0EE0FFF1FBB1F661F771F881F915089
:106540005040A9F79E3F510580F00C94FE310C9409
:1065500049325F3FE4F3983ED4F38695779567958B
:10656000B795F795E7959F5FC1F7FE2B880F911DB3
:106570009695879597F90895991B79E004C0991F1E
:10658000961708F0961B881F7A95C9F7809508958D
:10659000FB01DC0102C001900D9241505040D8F740
:1065A0000895DC0101C06D9341505040E0F708951B
:0465B000F894FFCF8D
:0E65B400CE22FFFF0401FFEEF00141010100C5
:02000004008278
:090000000A00000000D0100020ED
:0400000300004000B9
:00000001FF
